{
	"data": {
		"bytecode": {
			"linkReferences": {},
			"object": "6080604052348015600e575f5ffd5b5060015f556019601d565b60cd565b7ff0c57e16840df040f15088dc2f81fe391c3923bec73e23a9662efc9c229c6a00805468010000000000000000900460ff1615606c5760405163f92ee8a960e01b815260040160405180910390fd5b80546001600160401b039081161460ca5780546001600160401b0319166001600160401b0390811782556040519081527fc7f505b2f371ae2175ee4913f4499e1f2633a7b5936321eed1cdaeb6115181d29060200160405180910390a15b50565b615588806100da5f395ff3fe6080604052600436106102b7575f3560e01c8063858e2fe81161016b578063b9fbaaf9116100c9578063e735b48a11610083578063e735b48a146108ac578063ed14834f146108cb578063f01bbf57146108ea578063f342428d14610909578063f835cd3c1461091e578063fd923fd41461093d578063fe0497d91461095c575f5ffd5b8063b9fbaaf9146107e5578063bd842a1114610804578063c6271e8014610823578063d547741f1461084f578063d5fa68551461086e578063e611a0151461088d575f5ffd5b80639257ca1c116101255780639257ca1c1461070957806396a404831461071e57806397c504c014610749578063a0678c5714610774578063a217fddf1461079f578063a42d18de146107b2578063a780b94e146107d1575f5ffd5b8063858e2fe81461064e57806387ef1d2a1461066d5780638c72c54e146106805780638cb0274c1461069f5780638dec83ff146106be57806391d14854146106ea575f5ffd5b80632fc3f19411610218578063575723bb116101d2578063575723bb146105735780635a8f97181461059257806363f8860e146105b15780637284e416146105d0578063770a687c146105f15780637a2f5aef146106105780637cfb10481461062f575f5ffd5b80632fc3f1941461049457806334b4e625146104b557806336568abe146104d5578063372f3c4a146104f4578063419f57eb1461051357806348b284a414610527575f5ffd5b806309a2ef361161027457806309a2ef361461039d57806314b5e5a3146103ca5780631c990ecf146103e9578063221413f914610408578063248a9ca3146104275780632ea20214146104565780632f2ff15d14610475575f5ffd5b806301103ee0146102bb57806301ffc9a7146102ed578063035193ee1461031c5780630751c9681461034857806307dc67491461036957806307f3759d1461037e575b5f5ffd5b3480156102c6575f5ffd5b506102da6102d5366004614616565b61097b565b6040519081526020015b60405180910390f35b3480156102f8575f5ffd5b5061030c61030736600461462d565b610a3a565b60405190151581526020016102e4565b348015610327575f5ffd5b5061033b610336366004614616565b610a70565b6040516102e49190614695565b348015610353575f5ffd5b506103676103623660046146a7565b610acf565b005b348015610374575f5ffd5b506102da60065481565b348015610389575f5ffd5b506103676103983660046146d4565b611051565b3480156103a8575f5ffd5b506103bc6103b7366004614768565b6110d7565b6040516102e49291906148eb565b3480156103d5575f5ffd5b506103676103e4366004614aea565b611605565b3480156103f4575f5ffd5b50610367610403366004614bc3565b611a91565b348015610413575f5ffd5b50610367610422366004614616565b611cf7565b348015610432575f5ffd5b506102da610441366004614616565b5f908152600160208190526040909120015490565b348015610461575f5ffd5b50610367610470366004614c50565b611ea7565b348015610480575f5ffd5b5061036761048f366004614c81565b611f75565b34801561049f575f5ffd5b506104a8611fa0565b6040516102e49190614cab565b3480156104c0575f5ffd5b506102da5f5160206155335f395f51905f5281565b3480156104e0575f5ffd5b506103676104ef366004614c81565b612000565b3480156104ff575f5ffd5b506102da61050e366004614cf6565b612038565b34801561051e575f5ffd5b5061033b61207e565b348015610532575f5ffd5b5061055b610541366004614616565b60156020525f90815260409020546001600160a01b031681565b6040516001600160a01b0390911681526020016102e4565b34801561057e575f5ffd5b506102da61058d366004614d1e565b6120d3565b34801561059d575f5ffd5b506103676105ac366004614616565b612108565b3480156105bc575f5ffd5b506103676105cb3660046146a7565b61225b565b3480156105db575f5ffd5b506105e4612401565b6040516102e49190614d71565b3480156105fc575f5ffd5b5061036761060b366004614d83565b61248d565b34801561061b575f5ffd5b5061033b61062a366004614de8565b6126f7565b34801561063a575f5ffd5b5061030c610649366004614616565b61275e565b348015610659575f5ffd5b50610367610668366004614bc3565b6127e0565b61036761067b366004614e01565b612824565b34801561068b575f5ffd5b5060095461055b906001600160a01b031681565b3480156106aa575f5ffd5b506103676106b9366004614ed1565b612c35565b3480156106c9575f5ffd5b506106dd6106d8366004614768565b612dc1565b6040516102e49190614f46565b3480156106f5575f5ffd5b5061030c610704366004614c81565b613011565b348015610714575f5ffd5b506102da60055481565b348015610729575f5ffd5b506102da610738366004614616565b60136020525f908152604090205481565b348015610754575f5ffd5b506102da610763366004614de8565b60166020525f908152604090205481565b34801561077f575f5ffd5b506102da61078e366004614616565b60146020525f908152604090205481565b3480156107aa575f5ffd5b506102da5f81565b3480156107bd575f5ffd5b506103676107cc366004614616565b61303b565b3480156107dc575f5ffd5b506105e461314c565b3480156107f0575f5ffd5b506103676107ff366004614ff1565b613159565b34801561080f575f5ffd5b5061055b61081e366004614616565b613315565b34801561082e575f5ffd5b5061084261083d366004614616565b61333d565b6040516102e4919061509d565b34801561085a575f5ffd5b50610367610869366004614c81565b6133c7565b348015610879575f5ffd5b50610367610888366004614616565b6133ec565b348015610898575f5ffd5b506102da6108a7366004614616565b6135e6565b3480156108b7575f5ffd5b506103676108c6366004614c50565b613609565b3480156108d6575f5ffd5b5060075461055b906001600160a01b031681565b3480156108f5575f5ffd5b506103676109043660046146a7565b61363f565b348015610914575f5ffd5b506102da600b5481565b348015610929575f5ffd5b5060045461055b906001600160a01b031681565b348015610948575f5ffd5b50610367610957366004614768565b613895565b348015610967575f5ffd5b506102da610976366004614616565b613a5b565b5f8181526015602052604081205481906001600160a01b0316156109b957505f828152600e60209081526040808320548352600d9091529020600201545b5f6109c384613a7c565b5f858152600e6020526040812060060154919250906109e390603b615104565b90506109ee856135e6565b816109f9858561511b565b610a03919061511b565b10610a1257505f949350505050565b8282610a1d876135e6565b610a27919061512e565b610a31919061512e565b95945050505050565b5f6001600160e01b03198216637965db0b60e01b1480610a6a57506301ffc9a760e01b6001600160e01b03198316145b92915050565b5f81815260106020908152604091829020805483518184028101840190945280845260609392830182828015610ac357602002820191905f5260205f20905b815481526020019060010190808311610aaf575b50505050509050919050565b5f828152600e602052604090206001015482906001600160a01b03163314610b125760405162461bcd60e51b8152600401610b0990615141565b60405180910390fd5b5f8211610b5d5760405162461bcd60e51b8152602060048201526019602482015278696e76616c6964207061796d656e745261746550657253656360381b6044820152606401610b09565b5f610b678461097b565b5f858152600e602090815260408083208151610100810183528154815260018201546001600160a01b03169381019390935260028101805495965093949293909291840191610bb590615178565b80601f0160208091040260200160405190810160405280929190818152602001828054610be190615178565b8015610c2c5780601f10610c0357610100808354040283529160200191610c2c565b820191905f5260205f20905b815481529060010190602001808311610c0f57829003601f168201915b50505050508152602001600382018054610c4590615178565b80601f0160208091040260200160405190810160405280929190818152602001828054610c7190615178565b8015610cbc5780601f10610c9357610100808354040283529160200191610cbc565b820191905f5260205f20905b815481529060010190602001808311610c9f57829003601f168201915b5050509183525050600482015460209091019060ff166003811115610ce357610ce361482b565b6003811115610cf457610cf461482b565b815260200160058201805480602002602001604051908101604052809291908181526020015f905b82821015610dc4578382905f5260205f20018054610d3990615178565b80601f0160208091040260200160405190810160405280929190818152602001828054610d6590615178565b8015610db05780601f10610d8757610100808354040283529160200191610db0565b820191905f5260205f20905b815481529060010190602001808311610d9357829003601f168201915b505050505081526020019060010190610d1c565b50505050815260200160068201548152602001600782018054610de690615178565b80601f0160208091040260200160405190810160405280929190818152602001828054610e1290615178565b8015610e5d5780601f10610e3457610100808354040283529160200191610e5d565b820191905f5260205f20905b815481529060010190602001808311610e4057829003601f168201915b5050509190925250505060c081018051908690525f878152600e602090815260409182902084518155908401516001820180546001600160a01b0319166001600160a01b039092169190911790559083015192935090918391906002820190610ec690826151fb565b5060608201516003820190610edb90826151fb565b50608082015160048201805460ff19166001836003811115610eff57610eff61482b565b021790555060a08201518051610f1f916005840191602090910190614505565b5060c0820151600682015560e08201516007820190610f3e90826151fb565b5060019150610f4a9050565b6003811115610f5b57610f5b61482b565b82608001516003811115610f7157610f7161482b565b0361100757610f81866003613c7e565b425f610f8d87866152b5565b610f97908361511b565b5f89815260116020908152604080832081516060810183529687528683019485528682018c81528154600180820184559286528486209851600390910290980197885594518782015593516002909601959095558a8252600e905292909220600401805460ff1916909217909155505b60408051878152602081018390529081018690527f7d841331ec2933dd0149c22078c56fce2a107adc656881019d1222e70b25932b906060015b60405180910390a1505050505050565b6009546001600160a01b0316331461107b5760405162461bcd60e51b8152600401610b09906152d4565b5f828152600d6020908152604091829020600401805460ff19168415159081179091558251858152918201527f058d7c460dbad3b3470bdab37236835934df498c897a0beb115fc3dff0617b4f91015b60405180910390a15050565b6060805f4290505f84516001600160401b038111156110f8576110f8614702565b604051908082528060200260200182016040528015611121578160200160208202803683370190505b5090505f85516001600160401b0381111561113e5761113e614702565b60405190808252806020026020018201604052801561117757816020015b611164614559565b81526020019060019003908161115c5790505b5090505f5b86518163ffffffff1610156115fa57600e5f888363ffffffff16815181106111a6576111a6615302565b602002602001015181526020019081526020015f20604051806101000160405290815f8201548152602001600182015f9054906101000a90046001600160a01b03166001600160a01b03166001600160a01b0316815260200160028201805461120e90615178565b80601f016020809104026020016040519081016040528092919081815260200182805461123a90615178565b80156112855780601f1061125c57610100808354040283529160200191611285565b820191905f5260205f20905b81548152906001019060200180831161126857829003601f168201915b5050505050815260200160038201805461129e90615178565b80601f01602080910402602001604051908101604052809291908181526020018280546112ca90615178565b80156113155780601f106112ec57610100808354040283529160200191611315565b820191905f5260205f20905b8154815290600101906020018083116112f857829003601f168201915b5050509183525050600482015460209091019060ff16600381111561133c5761133c61482b565b600381111561134d5761134d61482b565b815260200160058201805480602002602001604051908101604052809291908181526020015f905b8282101561141d578382905f5260205f2001805461139290615178565b80601f01602080910402602001604051908101604052809291908181526020018280546113be90615178565b80156114095780601f106113e057610100808354040283529160200191611409565b820191905f5260205f20905b8154815290600101906020018083116113ec57829003601f168201915b505050505081526020019060010190611375565b5050505081526020016006820154815260200160078201805461143f90615178565b80601f016020809104026020016040519081016040528092919081815260200182805461146b90615178565b80156114b65780601f1061148d576101008083540402835291602001916114b6565b820191905f5260205f20905b81548152906001019060200180831161149957829003601f168201915b505050505081525050828263ffffffff16815181106114d7576114d7615302565b60200260200101819052505f60115f898463ffffffff16815181106114fe576114fe615302565b602002602001015181526020019081526020015f20600160115f8b8663ffffffff168151811061153057611530615302565b602002602001015181526020019081526020015f2080549050611553919061512e565b8154811061156357611563615302565b5f91825260208083206040805160608101825260039094029091018054808552600182015493850193909352600201549083015290925086108015906115ad575081602001518611155b6115b7575f6115ba565b60015b905080858463ffffffff16815181106115d5576115d5615302565b91151560209283029190910190910152508190506115f281615316565b91505061117c565b509590945092505050565b5f858152600e602052604090206001015485906001600160a01b0316331461163f5760405162461bcd60e51b8152600401610b0990615141565b5f868152600e602090815260408083208151610100810183528154815260018201546001600160a01b031693810193909352600281018054919284019161168590615178565b80601f01602080910402602001604051908101604052809291908181526020018280546116b190615178565b80156116fc5780601f106116d3576101008083540402835291602001916116fc565b820191905f5260205f20905b8154815290600101906020018083116116df57829003601f168201915b5050505050815260200160038201805461171590615178565b80601f016020809104026020016040519081016040528092919081815260200182805461174190615178565b801561178c5780601f106117635761010080835404028352916020019161178c565b820191905f5260205f20905b81548152906001019060200180831161176f57829003601f168201915b5050509183525050600482015460209091019060ff1660038111156117b3576117b361482b565b60038111156117c4576117c461482b565b815260200160058201805480602002602001604051908101604052809291908181526020015f905b82821015611894578382905f5260205f2001805461180990615178565b80601f016020809104026020016040519081016040528092919081815260200182805461183590615178565b80156118805780601f1061185757610100808354040283529160200191611880565b820191905f5260205f20905b81548152906001019060200180831161186357829003601f168201915b5050505050815260200190600101906117ec565b505050508152602001600682015481526020016007820180546118b690615178565b80601f01602080910402602001604051908101604052809291908181526020018280546118e290615178565b801561192d5780601f106119045761010080835404028352916020019161192d565b820191905f5260205f20905b81548152906001019060200180831161191057829003601f168201915b50505050508152505090505f8651111561194957606081018690525b84511561195857604081018590525b8351156119675760a081018490525b8251156119765760e081018390525b611981876003613c7e565b5f60808201819052505f878152600e602090815260409182902083518155908301516001820180546001600160a01b0319166001600160a01b039092169190911790559082015182919060028201906119da90826151fb565b50606082015160038201906119ef90826151fb565b50608082015160048201805460ff19166001836003811115611a1357611a1361482b565b021790555060a08201518051611a33916005840191602090910190614505565b5060c0820151600682015560e08201516007820190611a5290826151fb565b50506040518881527f4c3328b5751ed5c5c54c04c7201f62588c44945a7913e7dee922611efc7bafb4915060200160405180910390a150505050505050565b6009546001600160a01b03163314611abb5760405162461bcd60e51b8152600401610b09906152d4565b600c5f5b82518163ffffffff161015611cc7575f838263ffffffff1681518110611ae757611ae7615302565b602002602001015190505f6001600160a01b0316816001600160a01b031603611b105750611cb5565b611b275f5160206155335f395f51905f5282613011565b15611b4357611b435f5160206155335f395f51905f52826133c7565b82548390611b539060019061512e565b81548110611b6357611b63615302565b5f9182526020808320909101546001600160a01b03848116845260179092526040909220548554919092169185918110611b9f57611b9f615302565b5f91825260208083209190910180546001600160a01b0319166001600160a01b03948516179055918316815260179182905260408120548554909291908690611bea9060019061512e565b81548110611bfa57611bfa615302565b5f9182526020808320909101546001600160a01b031683528201929092526040019020558254839080611c2f57611c2f61533a565b5f8281526020902081015f1990810180546001600160a01b0319169055019055600a54600954604051638b0d437760e01b81526001600160a01b0392831692638b0d437792611c869286923092169060040161534e565b5f604051808303815f87803b158015611c9d575f5ffd5b505af1158015611caf573d5f5f3e3d5ffd5b50505050505b80611cbf81615316565b915050611abf565b507f1054368db91a5e3f6e79e204db81b66fbc0ac2cb6b00cdc8db8208947b772d0e826040516110cb9190614cab565b60095481906001600160a01b0316331480611d245750611d245f5160206155335f395f51905f5233613011565b80611d4757505f818152600e60205260409020600101546001600160a01b031633145b611d635760405162461bcd60e51b8152600401610b0990615371565b60035f838152600e602052604090206004015460ff166003811115611d8a57611d8a61482b565b03611dcd5760405162461bcd60e51b815260206004820152601360248201527210591d88185b1c9958591e481cdd1bdc1c1959606a1b6044820152606401610b09565b60015f838152600e602052604090206004015460ff166003811115611df457611df461482b565b14611e325760405162461bcd60e51b815260206004820152600e60248201526d416476206e6f742061637469766560901b6044820152606401610b09565b611e3d826003613c7e565b5f828152600e60205260409020600101546001600160a01b03163303611e76575f828152601860205260409020805460ff191660011790555b7fecaf6ade4487855e7d6decb81824b00f87c4ca8baa4de5d2cbb1740bcfdccbcc82336040516110cb9291906153a8565b6009546001600160a01b03163314611ed15760405162461bcd60e51b8152600401610b09906152d4565b600b5415611f195760405162461bcd60e51b815260206004820152601560248201527418d85b9b9bdd081d5c19185d19481cda5d19555493605a1b6044820152606401610b09565b80515f03611f655760405162461bcd60e51b81526020600482015260196024820152786e65775369746555524c2063616e277420626520656d70747960381b6044820152606401610b09565b6002611f7182826151fb565b5050565b5f8281526001602081905260409091200154611f9081613d00565b611f9a8383613d0a565b50505050565b6060600c805480602002602001604051908101604052809291908181526020018280548015611ff657602002820191905f5260205f20905b81546001600160a01b03168152600190910190602001808311611fd8575b5050505050905090565b6001600160a01b03811633146120295760405163334bd91960e11b815260040160405180910390fd5b6120338282613d80565b505050565b6040516bffffffffffffffffffffffff19606084901b166020820152603481018290525f9060540160405160208183030381529060405280519060200120905092915050565b60606008805480602002602001604051908101604052809291908181526020018280548015611ff657602002820191905f5260205f20905b8154815260200190600101908083116120b6575050505050905090565b5f8383836040516020016120e9939291906153bf565b6040516020818303038152906040528051906020012090509392505050565b61211f5f5160206155335f395f51905f5233613011565b61213b5760405162461bcd60e51b8152600401610b09906153f6565b612143613deb565b60025f828152600e602052604090206004015460ff16600381111561216a5761216a61482b565b036121ae5760405162461bcd60e51b815260206004820152601460248201527310591d88185b1c9958591e481c995a9958dd195960621b6044820152606401610b09565b60015f828152600e602052604090206004015460ff1660038111156121d5576121d561482b565b036121f25760405162461bcd60e51b8152600401610b0990615425565b6121fd816002613c7e565b5f818152600e6020526040902054612216908290613e13565b7f0e3bfa1c14ecb5e6774e2cc21b81fe1cc96ced1828be3ec92ede1e84bbf0b40a81336040516122479291906153a8565b60405180910390a161225860015f55565b50565b5f828152600e602052604090206001015482906001600160a01b031633146122955760405162461bcd60e51b8152600401610b0990615141565b61229d613deb565b5f838152600e60209081526040808320548352600d90915290206004015460ff166122da5760405162461bcd60e51b8152600401610b0990615453565b5f612710600654846122ec9190615104565b6122f691906152b5565b90505f612303828561512e565b90505f61230f8661097b565b90508160125f8881526020019081526020015f205f828254612331919061511b565b90915550505f868152601160205260409020546001108015612377575060015f878152600e602052604090206004015460ff1660038111156123755761237561482b565b145b1561239a5780156123915761238c865f613f21565b61239a565b61239a86613fe2565b6123a533308461407d565b6007546123bd9033906001600160a01b03168561407d565b60408051878152602081018490527ee10051d0bca74c1e85ea3367c844a6c577082086cbdc936ff01991be57cf7f910160405180910390a150505061203360015f55565b6003805461240e90615178565b80601f016020809104026020016040519081016040528092919081815260200182805461243a90615178565b80156124855780601f1061245c57610100808354040283529160200191612485565b820191905f5260205f20905b81548152906001019060200180831161246857829003601f168201915b505050505081565b6009546001600160a01b031633146124b75760405162461bcd60e51b8152600401610b09906152d4565b6124c085614095565b505f600d5f8781526020019081526020015f206040518060a00160405290815f82015481526020016001820180546124f790615178565b80601f016020809104026020016040519081016040528092919081815260200182805461252390615178565b801561256e5780601f106125455761010080835404028352916020019161256e565b820191905f5260205f20905b81548152906001019060200180831161255157829003601f168201915b505050505081526020016002820154815260200160038201805461259190615178565b80601f01602080910402602001604051908101604052809291908181526020018280546125bd90615178565b80156126085780601f106125df57610100808354040283529160200191612608565b820191905f5260205f20905b8154815290600101906020018083116125eb57829003601f168201915b50505091835250506004919091015460ff16151560209091015280519091508514612631578481525b83511561264057602081018490525b81511561264f57606081018290525b8060400151831461266257604081018390525b5f868152600d602090815260409091208251815590820151829190600182019061268c90826151fb565b5060408201516002820155606082015160038201906126ab90826151fb565b50608091909101516004909101805460ff19169115159190911790556040518681527f10ed3a92e657c72ad7d7feb1b12de9cb21fa5aefcaf82ff5ee92627be581926190602001611041565b6001600160a01b0381165f908152600f6020908152604091829020805483518184028101840190945280845260609392830182828015610ac357602002820191905f5260205f2090815481526020019060010190808311610aaf5750505050509050919050565b5f818152601160205260408120805482919061277c9060019061512e565b8154811061278c5761278c615302565b5f918252602091829020604080516060810182526003909302909101805480845260018201549484019490945260020154908201529150429081108015906127d8575081602001518111155b949350505050565b6009546001600160a01b0316331461280a5760405162461bcd60e51b8152600401610b09906152d4565b612812613deb565b61281b816140dc565b61225860015f55565b61282c613deb565b5f878152600d602052604090206004015460ff1661285c5760405162461bcd60e51b8152600401610b0990615453565b85515f0361289c5760405162461bcd60e51b815260206004820152600d60248201526c696e76616c6964207469746c6560981b6044820152606401610b09565b84515f036128db5760405162461bcd60e51b815260206004820152600c60248201526b1a5b9d985b1a59081d195e1d60a21b6044820152606401610b09565b825f0361292a5760405162461bcd60e51b815260206004820152601a60248201527f70617920726174652063616e6e6f74206265207a65726f2830290000000000006044820152606401610b09565b61293387614095565b505f61294033888a6120d3565b5f818152600e60205260409020549091501561297257604051631df51e6960e11b815260048101829052602401610b09565b60408051610100810182528981523360208083019182528284018b8152606084018b90525f6080850181905260a085018b905260c085018a905260e08501889052868152600e9092529390208251815590516001820180546001600160a01b0319166001600160a01b0390921691909117905591519091829160028201906129fa90826151fb565b5060608201516003820190612a0f90826151fb565b50608082015160048201805460ff19166001836003811115612a3357612a3361482b565b021790555060a08201518051612a53916005840191602090910190614505565b5060c0820151600682015560e08201516007820190612a7290826151fb565b5050335f908152600f60209081526040808320805460018181018355918552838520018790558d84526010835290832080548083018255908452918320909101859055600b80549193509190612ac990849061511b565b90915550505f82815260116020908152604080832081516060810183528481528084018581529281018a8152825460018181018555938752948620915160039095029091019384559151908301555160029091015560065461271090612b2f9087615104565b612b3991906152b5565b90505f612b46828761512e565b5f8581526012602052604090208190559050612b6333308361407d565b600754612b7b9033906001600160a01b03168461407d565b600a5460095460405163f336aa3560e01b81526001600160a01b039283169263f336aa3592612bb29233923092169060040161534e565b5f604051808303815f87803b158015612bc9575f5ffd5b505af1158015612bdb573d5f5f3e3d5ffd5b5050604080518e815260208101889052338183015290517f924ea5a69af098416d088a06226412dbb1d66ac40d8f2f6944c5a90e9395cec59350908190036060019150a150505050612c2c60015f55565b50505050505050565b6009546001600160a01b03163314612c5f5760405162461bcd60e51b8152600401610b09906152d4565b82515f03612ca95760405162461bcd60e51b81526020600482015260176024820152765f7061676555524c2063616e277420626520656d70747960481b6044820152606401610b09565b6040805160a08101825285815260208101859052908101839052606081018290526001608082015260058054905f612ce08361547e565b91905055505f612cf233600554612038565b5f818152600d60209081526040909120845181559084015191925083916001820190612d1e90826151fb565b506040820151600282015560608201516003820190612d3d90826151fb565b50608091909101516004909101805460ff1916911515919091179055600880546001810182555f919091527ff3f7a9fe364faab93b216da50a3214154f22a0a2b415b23a84c8169e8b636ee3018190556040517f27d6187e0524b246d259baee5eabdff6f2ba872a277ac360fb0ddd617c046fed9061104190839089908990615496565b60605f82516001600160401b03811115612ddd57612ddd614702565b604051908082528060200260200182016040528015612e3f57816020015b612e2c6040518060a001604052805f8152602001606081526020015f8152602001606081526020015f151581525090565b815260200190600190039081612dfb5790505b5090505f5b83518163ffffffff16101561300a57600d5f858363ffffffff1681518110612e6e57612e6e615302565b602002602001015181526020019081526020015f206040518060a00160405290815f8201548152602001600182018054612ea790615178565b80601f0160208091040260200160405190810160405280929190818152602001828054612ed390615178565b8015612f1e5780601f10612ef557610100808354040283529160200191612f1e565b820191905f5260205f20905b815481529060010190602001808311612f0157829003601f168201915b5050505050815260200160028201548152602001600382018054612f4190615178565b80601f0160208091040260200160405190810160405280929190818152602001828054612f6d90615178565b8015612fb85780601f10612f8f57610100808354040283529160200191612fb8565b820191905f5260205f20905b815481529060010190602001808311612f9b57829003601f168201915b50505091835250506004919091015460ff1615156020909101528251839063ffffffff8416908110612fec57612fec615302565b6020026020010181905250808061300290615316565b915050612e44565b5092915050565b5f9182526001602090815260408084206001600160a01b0393909316845291905290205460ff1690565b6130525f5160206155335f395f51905f5233613011565b61306e5760405162461bcd60e51b8152600401610b09906153f6565b613076613deb565b5f818152600e60209081526040808320548352600d90915290206004015460ff166130b35760405162461bcd60e51b8152600401610b0990615453565b60015f828152600e602052604090206004015460ff1660038111156130da576130da61482b565b036130f75760405162461bcd60e51b8152600401610b0990615425565b613102816001613c7e565b5f818152600e602052604090205461311b908290613e13565b7f5366f255d858cef60ba6f5de04388783d1e1a93443056d95c065c3dd1f4650c881336040516122479291906153a8565b6002805461240e90615178565b7ff0c57e16840df040f15088dc2f81fe391c3923bec73e23a9662efc9c229c6a008054600160401b810460ff1615906001600160401b03165f8115801561319d5750825b90505f826001600160401b031660011480156131b85750303b155b9050811580156131c6575080155b156131e45760405163f92ee8a960e01b815260040160405180910390fd5b845467ffffffffffffffff19166001178555831561320e57845460ff60401b1916600160401b1785555b600261321a8d826151fb565b5060036132278c826151fb565b50600480546001600160a01b03808d166001600160a01b031992831617909255600980548c84169083168117909155600780548c851690841617905560068a9055600a8054938a1693909216929092179055613284905f90613d0a565b506009546132a9905f5160206155335f395f51905f52906001600160a01b0316613d0a565b506132c15f5160206155335f395f51905f525f61438c565b831561330757845460ff60401b19168555604051600181527fc7f505b2f371ae2175ee4913f4499e1f2633a7b5936321eed1cdaeb6115181d29060200160405180910390a15b505050505050505050505050565b600c8181548110613324575f80fd5b5f918252602090912001546001600160a01b0316905081565b606060115f8381526020019081526020015f20805480602002602001604051908101604052809291908181526020015f905b828210156133bc578382905f5260205f2090600302016040518060600160405290815f8201548152602001600182015481526020016002820154815250508152602001906001019061336f565b505050509050919050565b5f82815260016020819052604090912001546133e281613d00565b611f9a8383613d80565b60095481906001600160a01b031633148061341957506134195f5160206155335f395f51905f5233613011565b8061343c57505f818152600e60205260409020600101546001600160a01b031633145b6134585760405162461bcd60e51b8152600401610b0990615371565b5f828152600e60209081526040808320548352600d90915290206004015460ff166134955760405162461bcd60e51b8152600401610b0990615453565b60035f838152600e602052604090206004015460ff1660038111156134bc576134bc61482b565b146134fb5760405162461bcd60e51b815260206004820152600f60248201526e18591d881b9bdd081cdd1bdc1c1959608a1b6044820152606401610b09565b5f8281526018602052604090205460ff16801561353057505f828152600e60205260409020600101546001600160a01b031633145b8061356d57505f8281526018602052604090205460ff1615801561356d57505f828152600e60205260409020600101546001600160a01b03163314155b6135aa5760405162461bcd60e51b815260206004820152600e60248201526d18d85b9b9bdd081c995cdd185c9d60921b6044820152606401610b09565b6135b5826001613c7e565b7fa20f6925c759446ee4fd04c0003ad02fb5b1e5e4eda18ae1bb99d260e3c3402b82336040516110cb9291906153a8565b5f818152601460209081526040808320546012909252822054610a6a919061512e565b6009546001600160a01b031633146136335760405162461bcd60e51b8152600401610b09906152d4565b6003611f7182826151fb565b5f828152600e602052604090206001015482906001600160a01b031633146136795760405162461bcd60e51b8152600401610b0990615141565b613681613deb565b5f82116136c15760405162461bcd60e51b815260206004820152600e60248201526d1a5b9d985b1a5908185b5bdd5b9d60921b6044820152606401610b09565b5f6136cb8461097b565b9050808311156137165760405162461bcd60e51b8152602060048201526016602482015275616d6f756e7420657863656564732062616c616e636560501b6044820152606401610b09565b5f848152601460205260408120805485929061373390849061511b565b909155506137439050838261512e565b158015613774575060015f858152600e602052604090206004015460ff1660038111156137725761377261482b565b145b1561378957613784846003613c7e565b6137d5565b5f613794848361512e565b1180156137c6575060035f858152600e602052604090206004015460ff1660038111156137c3576137c361482b565b14155b156137d5576137d5845f613f21565b6004805460405163095ea7b360e01b81526001600160a01b039091169163095ea7b3916138069130918891016154b4565b6020604051808303815f875af1158015613822573d5f5f3e3d5ffd5b505050506040513d601f19601f8201168201806040525081019061384691906154cd565b5061385230338561407d565b60408051858152602081018590527ffb66ab4d4c4dacc78499e8ca394b0647beab00824569423c497d72dd17165fb5910160405180910390a15061203360015f55565b6009546001600160a01b031633146138bf5760405162461bcd60e51b8152600401610b09906152d4565b6138c7613deb565b5f805b82518163ffffffff161015613969575f613902848363ffffffff16815181106138f5576138f5615302565b6020026020010151613a5b565b905061390e818461511b565b92508060135f868563ffffffff168151811061392c5761392c615302565b602002602001015181526020019081526020015f205f82825461394f919061511b565b90915550829150613961905081615316565b9150506138ca565b50805f0361398e578133604051635c87ff8560e11b8152600401610b099291906154e8565b6004805460405163095ea7b360e01b81526001600160a01b039091169163095ea7b3916139bf9130918691016154b4565b6020604051808303815f875af11580156139db573d5f5f3e3d5ffd5b505050506040513d601f19601f820116820180604052508101906139ff91906154cd565b50600954613a189030906001600160a01b03168361407d565b7f2fcb9b6e88b245799c117099197ff6b089ee06b95ee7ed1a442d738501418e058282604051613a49929190615511565b60405180910390a15061225860015f55565b5f81815260136020526040812054613a7283613a7c565b610a6a919061512e565b5f613a86826143d8565b505f8281526011602052604090208054613aa29060019061512e565b81548110613ab257613ab2615302565b905f5260205f2090600302015f01545f03613ace57505f919050565b5f828152601160209081526040808320805482518185028101850190935280835242938593929190849084015b82821015613b48578382905f5260205f2090600302016040518060600160405290815f82015481526020016001820154815260200160028201548152505081526020019060010190613afb565b5050505090508060018251613b5d919061512e565b81518110613b6d57613b6d615302565b6020026020010151602001518211613bb057818160018351613b8f919061512e565b81518110613b9f57613b9f615302565b602002602001015160200181815250505b60015b81518163ffffffff161015613c7557818163ffffffff1681518110613bda57613bda615302565b60200260200101515f0151828263ffffffff1681518110613bfd57613bfd615302565b602002602001015160200151613c13919061512e565b5f87815260116020526040902080549195509063ffffffff8316908110613c3c57613c3c615302565b905f5260205f2090600302016002015484613c579190615104565b613c61908661511b565b945080613c6d81615316565b915050613bb3565b50505050919050565b613c87826143d8565b505f828152600e60205260409020600401805482919060ff19166001836003811115613cb557613cb561482b565b02179055506001816003811115613cce57613cce61482b565b03613cdc57611f7182613fe2565b6003816003811115613cf057613cf061482b565b03611f7157611f71826001613f21565b6122588133614417565b5f613d158383613011565b613d79575f8381526001602081815260408084206001600160a01b0387168086529252808420805460ff19169093179092559051339286917f2f8788117e7eff1d82e926ec794901d17c78024a50270940304540a733656f0d9190a4506001610a6a565b505f610a6a565b5f613d8b8383613011565b15613d79575f8381526001602090815260408083206001600160a01b0386168085529252808320805460ff1916905551339286917ff6391f5c32d9c69d2a47ea670b442974b53935d1edc7fd64eb21e047a839171b9190a4506001610a6a565b60025f5403613e0d57604051633ee5aeb560e01b815260040160405180910390fd5b60025f55565b5f828152601560205260409020546001600160a01b0316611f71575f82815260156020908152604080832080546001600160a01b03191633908117909155848452600d83528184206002015490845260169092528220805491929091613e7a90849061511b565b9091555050600480545f838152600d60205260409081902060020154905163095ea7b360e01b81526001600160a01b039092169263095ea7b392613ec29230929091016154b4565b6020604051808303815f875af1158015613ede573d5f5f3e3d5ffd5b505050506040513d601f19601f82011682018060405250810190613f0291906154cd565b505f818152600d6020526040902060020154611f71903090339061407d565b428115613f6e575f8381526011602052604090208054829190613f469060019061512e565b81548110613f5657613f56615302565b905f5260205f20906003020160010181905550505050565b5f838152600e6020526040812060060154613f888561097b565b613f9291906152b5565b9050613f9e818361511b565b5f8581526011602052604090208054613fb99060019061512e565b81548110613fc957613fc9615302565b905f5260205f2090600302016001018190555050505050565b425f613fed8361097b565b5f848152600e60205260408120600601549192509061400c90836152b5565b614016908461511b565b5f8581526011602090815260408083208151606081018352978852878301948552978352600e825280832060060154908701908152875460018181018a55988452919092209551600390910290950194855590519484019490945550509051600290910155565b600454612033906001600160a01b0316848484614442565b5f818152600d6020526040812060010180546140b090615178565b90505f036140d4576040516315e50a4360e31b815260048101839052602401610b09565b506001919050565b600c5481516014916140ed9161511b565b11156141335760405162461bcd60e51b81526020600482015260156024820152746d6178206d6f6420636f756e74206578636565647360581b6044820152606401610b09565b5f5b81518163ffffffff161015614351575f6001600160a01b0316828263ffffffff168151811061416657614166615302565b60200260200101516001600160a01b0316031561433f576141b35f5160206155335f395f51905f52838363ffffffff16815181106141a6576141a6615302565b6020026020010151613011565b6141ef576141ed5f5160206155335f395f51905f52838363ffffffff16815181106141e0576141e0615302565b6020026020010151613d0a565b505b600c828263ffffffff168151811061420957614209615302565b6020908102919091018101518254600180820185555f9485529290932090920180546001600160a01b0319166001600160a01b0390931692909217909155600c54614254919061512e565b60175f848463ffffffff168151811061426f5761426f615302565b60200260200101516001600160a01b03166001600160a01b031681526020019081526020015f2081905550600a5f9054906101000a90046001600160a01b03166001600160a01b031663b552ebc8838363ffffffff16815181106142d5576142d5615302565b60200260200101513060095f9054906101000a90046001600160a01b03166040518463ffffffff1660e01b81526004016143119392919061534e565b5f604051808303815f87803b158015614328575f5ffd5b505af115801561433a573d5f5f3e3d5ffd5b505050505b8061434981615316565b915050614135565b507fdc44d8affa5d382f99b0912419a4b30b4fd04c7c5ad2c96635c7f9d4ca6e3f0e816040516143819190614cab565b60405180910390a150565b5f828152600160208190526040808320909101805490849055905190918391839186917fbd79b86ffe0ab8e8776151514217cd7cacd52c909f66475c3af44e129f0b00ff9190a4505050565b5f818152600e6020526040812060020180546143f390615178565b90505f036140d457604051637e6bd23960e01b815260048101839052602401610b09565b6144218282613011565b611f7157808260405163e2517d3f60e01b8152600401610b099291906154b4565b604080516001600160a01b038581166024830152841660448201526064808201849052825180830390910181526084909101909152602080820180516001600160e01b03166323b872dd60e01b1781528251611f9a93889390925f9283929183919082885af1806144b8576040513d5f823e3d81fd5b50505f513d915081156144cf5780600114156144dc565b6001600160a01b0384163b155b15611f9a57604051635274afe760e01b81526001600160a01b0385166004820152602401610b09565b828054828255905f5260205f20908101928215614549579160200282015b82811115614549578251829061453990826151fb565b5091602001919060010190614523565b506145559291506145b4565b5090565b6040518061010001604052805f81526020015f6001600160a01b0316815260200160608152602001606081526020015f600381111561459a5761459a61482b565b8152602001606081526020015f8152602001606081525090565b80821115614555575f6145c782826145d0565b506001016145b4565b5080546145dc90615178565b5f825580601f106145eb575050565b601f0160209004905f5260205f209081019061225891905b80821115614555575f8155600101614603565b5f60208284031215614626575f5ffd5b5035919050565b5f6020828403121561463d575f5ffd5b81356001600160e01b031981168114614654575f5ffd5b9392505050565b5f8151808452602084019350602083015f5b8281101561468b57815186526020958601959091019060010161466d565b5093949350505050565b602081525f614654602083018461465b565b5f5f604083850312156146b8575f5ffd5b50508035926020909101359150565b8015158114612258575f5ffd5b5f5f604083850312156146e5575f5ffd5b8235915060208301356146f7816146c7565b809150509250929050565b634e487b7160e01b5f52604160045260245ffd5b604051601f8201601f191681016001600160401b038111828210171561473e5761473e614702565b604052919050565b5f6001600160401b0382111561475e5761475e614702565b5060051b60200190565b5f60208284031215614778575f5ffd5b81356001600160401b0381111561478d575f5ffd5b8201601f8101841361479d575f5ffd5b80356147b06147ab82614746565b614716565b8082825260208201915060208360051b8501019250868311156147d1575f5ffd5b6020840193505b828410156147f35783358252602093840193909101906147d8565b9695505050505050565b5f81518084528060208401602086015e5f602082860101526020601f19601f83011685010191505092915050565b634e487b7160e01b5f52602160045260245ffd5b6004811061485b57634e487b7160e01b5f52602160045260245ffd5b9052565b5f82825180855260208501945060208160051b830101602085015f5b838110156148ad57601f198584030188526148978383516147fd565b602098890198909350919091019060010161487b565b50909695505050505050565b5f8151808452602084019350602083015f5b8281101561468b57815115158652602095860195909101906001016148cb565b5f604082016040835280855180835260608501915060608160051b8601019250602087015f5b828110156149e157605f19878603018452815180518652602081015161494260208801826001600160a01b03169052565b506040810151610100604088015261495e6101008801826147fd565b90506060820151878203606089015261497782826147fd565b915050608082015161498c608089018261483f565b5060a082015187820360a08901526149a4828261485f565b91505060c082015160c088015260e0820151915086810360e08801526149ca81836147fd565b965050506020938401939190910190600101614911565b505050508281036020840152610a3181856148b9565b5f82601f830112614a06575f5ffd5b81356001600160401b03811115614a1f57614a1f614702565b614a32601f8201601f1916602001614716565b818152846020838601011115614a46575f5ffd5b816020850160208301375f918101602001919091529392505050565b5f82601f830112614a71575f5ffd5b8135614a7f6147ab82614746565b8082825260208201915060208360051b860101925085831115614aa0575f5ffd5b602085015b83811015614ae05780356001600160401b03811115614ac2575f5ffd5b614ad1886020838a01016149f7565b84525060209283019201614aa5565b5095945050505050565b5f5f5f5f5f60a08688031215614afe575f5ffd5b8535945060208601356001600160401b03811115614b1a575f5ffd5b614b26888289016149f7565b94505060408601356001600160401b03811115614b41575f5ffd5b614b4d888289016149f7565b93505060608601356001600160401b03811115614b68575f5ffd5b614b7488828901614a62565b92505060808601356001600160401b03811115614b8f575f5ffd5b614b9b888289016149f7565b9150509295509295909350565b80356001600160a01b0381168114614bbe575f5ffd5b919050565b5f60208284031215614bd3575f5ffd5b81356001600160401b03811115614be8575f5ffd5b8201601f81018413614bf8575f5ffd5b8035614c066147ab82614746565b8082825260208201915060208360051b850101925086831115614c27575f5ffd5b6020840193505b828410156147f357614c3f84614ba8565b825260209384019390910190614c2e565b5f60208284031215614c60575f5ffd5b81356001600160401b03811115614c75575f5ffd5b6127d8848285016149f7565b5f5f60408385031215614c92575f5ffd5b82359150614ca260208401614ba8565b90509250929050565b602080825282518282018190525f918401906040840190835b81811015614ceb5783516001600160a01b0316835260209384019390920191600101614cc4565b509095945050505050565b5f5f60408385031215614d07575f5ffd5b614d1083614ba8565b946020939093013593505050565b5f5f5f60608486031215614d30575f5ffd5b614d3984614ba8565b925060208401356001600160401b03811115614d53575f5ffd5b614d5f868287016149f7565b93969395505050506040919091013590565b602081525f61465460208301846147fd565b5f5f5f5f5f60a08688031215614d97575f5ffd5b853594506020860135935060408601356001600160401b03811115614dba575f5ffd5b614dc6888289016149f7565b9350506060860135915060808601356001600160401b03811115614b8f575f5ffd5b5f60208284031215614df8575f5ffd5b61465482614ba8565b5f5f5f5f5f5f5f60e0888a031215614e17575f5ffd5b8735965060208801356001600160401b03811115614e33575f5ffd5b614e3f8a828b016149f7565b96505060408801356001600160401b03811115614e5a575f5ffd5b614e668a828b016149f7565b95505060608801356001600160401b03811115614e81575f5ffd5b614e8d8a828b01614a62565b9450506080880135925060a0880135915060c08801356001600160401b03811115614eb6575f5ffd5b614ec28a828b016149f7565b91505092959891949750929550565b5f5f5f5f60808587031215614ee4575f5ffd5b8435935060208501356001600160401b03811115614f00575f5ffd5b614f0c878288016149f7565b9350506040850135915060608501356001600160401b03811115614f2e575f5ffd5b614f3a878288016149f7565b91505092959194509250565b5f602082016020835280845180835260408501915060408160051b8601019250602086015f5b82811015614fe557603f19878603018452815180518652602081015160a06020880152614f9c60a08801826147fd565b90506040820151604088015260608201518782036060890152614fbf82826147fd565b608093840151151598909301979097525094506020938401939190910190600101614f6c565b50929695505050505050565b5f5f5f5f5f5f5f60e0888a031215615007575f5ffd5b87356001600160401b0381111561501c575f5ffd5b6150288a828b016149f7565b97505060208801356001600160401b03811115615043575f5ffd5b61504f8a828b016149f7565b96505061505e60408901614ba8565b945061506c60608901614ba8565b935061507a60808901614ba8565b925060a0880135915061508f60c08901614ba8565b905092959891949750929550565b602080825282518282018190525f918401906040840190835b81811015614ceb578351805184526020810151602085015260408101516040850152506060830192506020840193506001810190506150b6565b634e487b7160e01b5f52601160045260245ffd5b8082028115828204841417610a6a57610a6a6150f0565b80820180821115610a6a57610a6a6150f0565b81810381811115610a6a57610a6a6150f0565b6020808252601d908201527f6f6e6c792061636365737369626c6520746f2061647665727469736572000000604082015260600190565b600181811c9082168061518c57607f821691505b6020821081036151aa57634e487b7160e01b5f52602260045260245ffd5b50919050565b601f82111561203357805f5260205f20601f840160051c810160208510156151d55750805b601f840160051c820191505b818110156151f4575f81556001016151e1565b5050505050565b81516001600160401b0381111561521457615214614702565b615228816152228454615178565b846151b0565b6020601f82116001811461525a575f83156152435750848201515b5f19600385901b1c1916600184901b1784556151f4565b5f84815260208120601f198516915b828110156152895787850151825560209485019460019092019101615269565b50848210156152a657868401515f19600387901b60f8161c191681555b50505050600190811b01905550565b5f826152cf57634e487b7160e01b5f52601260045260245ffd5b500490565b60208082526014908201527331b0b63632b9103737ba10383ab13634b9b432b960611b604082015260600190565b634e487b7160e01b5f52603260045260245ffd5b5f63ffffffff821663ffffffff8103615331576153316150f0565b60010192915050565b634e487b7160e01b5f52603160045260245ffd5b6001600160a01b0393841681529183166020830152909116604082015260600190565b6020808252601f908201527f63616c6c6572206973206e6f74206d6f64206f72206164766572746973657200604082015260600190565b9182526001600160a01b0316602082015260400190565b6bffffffffffffffffffffffff198460601b1681525f83518060208601601485015e60149201918201929092526034019392505050565b6020808252601590820152746e656564206d6f64657261746f722061636365737360581b604082015260600190565b60208082526014908201527310591d88185b1c9958591e48185c1c1c9bdd995960621b604082015260600190565b60208082526011908201527018591d9cdc1858d948191a5cd8589b1959607a1b604082015260600190565b5f6001820161548f5761548f6150f0565b5060010190565b838152826020820152606060408201525f610a3160608301846147fd565b6001600160a01b03929092168252602082015260400190565b5f602082840312156154dd575f5ffd5b8151614654816146c7565b604081525f6154fa604083018561465b565b905060018060a01b03831660208301529392505050565b604081525f615523604083018561465b565b9050826020830152939250505056fe58c8e11deab7910e89bf18a1168c6e6ef28748f00fd3094549459f01cec5e0aaa264697066735822122098a486d71a4abf45d4bae5571f7e2858c9cb9e20d1e5332798e1e058a5711de364736f6c634300081c0033",
			"opcodes": "PUSH1 0x80 PUSH1 0x40 MSTORE CALLVALUE DUP1 ISZERO PUSH1 0xE JUMPI PUSH0 PUSH0 REVERT JUMPDEST POP PUSH1 0x1 PUSH0 SSTORE PUSH1 0x19 PUSH1 0x1D JUMP JUMPDEST PUSH1 0xCD JUMP JUMPDEST PUSH32 0xF0C57E16840DF040F15088DC2F81FE391C3923BEC73E23A9662EFC9C229C6A00 DUP1 SLOAD PUSH9 0x10000000000000000 SWAP1 DIV PUSH1 0xFF AND ISZERO PUSH1 0x6C JUMPI PUSH1 0x40 MLOAD PUSH4 0xF92EE8A9 PUSH1 0xE0 SHL DUP2 MSTORE PUSH1 0x4 ADD PUSH1 0x40 MLOAD DUP1 SWAP2 SUB SWAP1 REVERT JUMPDEST DUP1 SLOAD PUSH1 0x1 PUSH1 0x1 PUSH1 0x40 SHL SUB SWAP1 DUP2 AND EQ PUSH1 0xCA JUMPI DUP1 SLOAD PUSH1 0x1 PUSH1 0x1 PUSH1 0x40 SHL SUB NOT AND PUSH1 0x1 PUSH1 0x1 PUSH1 0x40 SHL SUB SWAP1 DUP2 OR DUP3 SSTORE PUSH1 0x40 MLOAD SWAP1 DUP2 MSTORE PUSH32 0xC7F505B2F371AE2175EE4913F4499E1F2633A7B5936321EED1CDAEB6115181D2 SWAP1 PUSH1 0x20 ADD PUSH1 0x40 MLOAD DUP1 SWAP2 SUB SWAP1 LOG1 JUMPDEST POP JUMP JUMPDEST PUSH2 0x5588 DUP1 PUSH2 0xDA PUSH0 CODECOPY PUSH0 RETURN INVALID PUSH1 0x80 PUSH1 0x40 MSTORE PUSH1 0x4 CALLDATASIZE LT PUSH2 0x2B7 JUMPI PUSH0 CALLDATALOAD PUSH1 0xE0 SHR DUP1 PUSH4 0x858E2FE8 GT PUSH2 0x16B JUMPI DUP1 PUSH4 0xB9FBAAF9 GT PUSH2 0xC9 JUMPI DUP1 PUSH4 0xE735B48A GT PUSH2 0x83 JUMPI DUP1 PUSH4 0xE735B48A EQ PUSH2 0x8AC JUMPI DUP1 PUSH4 0xED14834F EQ PUSH2 0x8CB JUMPI DUP1 PUSH4 0xF01BBF57 EQ PUSH2 0x8EA JUMPI DUP1 PUSH4 0xF342428D EQ PUSH2 0x909 JUMPI DUP1 PUSH4 0xF835CD3C EQ PUSH2 0x91E JUMPI DUP1 PUSH4 0xFD923FD4 EQ PUSH2 0x93D JUMPI DUP1 PUSH4 0xFE0497D9 EQ PUSH2 0x95C JUMPI PUSH0 PUSH0 REVERT JUMPDEST DUP1 PUSH4 0xB9FBAAF9 EQ PUSH2 0x7E5 JUMPI DUP1 PUSH4 0xBD842A11 EQ PUSH2 0x804 JUMPI DUP1 PUSH4 0xC6271E80 EQ PUSH2 0x823 JUMPI DUP1 PUSH4 0xD547741F EQ PUSH2 0x84F JUMPI DUP1 PUSH4 0xD5FA6855 EQ PUSH2 0x86E JUMPI DUP1 PUSH4 0xE611A015 EQ PUSH2 0x88D JUMPI PUSH0 PUSH0 REVERT JUMPDEST DUP1 PUSH4 0x9257CA1C GT PUSH2 0x125 JUMPI DUP1 PUSH4 0x9257CA1C EQ PUSH2 0x709 JUMPI DUP1 PUSH4 0x96A40483 EQ PUSH2 0x71E JUMPI DUP1 PUSH4 0x97C504C0 EQ PUSH2 0x749 JUMPI DUP1 PUSH4 0xA0678C57 EQ PUSH2 0x774 JUMPI DUP1 PUSH4 0xA217FDDF EQ PUSH2 0x79F JUMPI DUP1 PUSH4 0xA42D18DE EQ PUSH2 0x7B2 JUMPI DUP1 PUSH4 0xA780B94E EQ PUSH2 0x7D1 JUMPI PUSH0 PUSH0 REVERT JUMPDEST DUP1 PUSH4 0x858E2FE8 EQ PUSH2 0x64E JUMPI DUP1 PUSH4 0x87EF1D2A EQ PUSH2 0x66D JUMPI DUP1 PUSH4 0x8C72C54E EQ PUSH2 0x680 JUMPI DUP1 PUSH4 0x8CB0274C EQ PUSH2 0x69F JUMPI DUP1 PUSH4 0x8DEC83FF EQ PUSH2 0x6BE JUMPI DUP1 PUSH4 0x91D14854 EQ PUSH2 0x6EA JUMPI PUSH0 PUSH0 REVERT JUMPDEST DUP1 PUSH4 0x2FC3F194 GT PUSH2 0x218 JUMPI DUP1 PUSH4 0x575723BB GT PUSH2 0x1D2 JUMPI DUP1 PUSH4 0x575723BB EQ PUSH2 0x573 JUMPI DUP1 PUSH4 0x5A8F9718 EQ PUSH2 0x592 JUMPI DUP1 PUSH4 0x63F8860E EQ PUSH2 0x5B1 JUMPI DUP1 PUSH4 0x7284E416 EQ PUSH2 0x5D0 JUMPI DUP1 PUSH4 0x770A687C EQ PUSH2 0x5F1 JUMPI DUP1 PUSH4 0x7A2F5AEF EQ PUSH2 0x610 JUMPI DUP1 PUSH4 0x7CFB1048 EQ PUSH2 0x62F JUMPI PUSH0 PUSH0 REVERT JUMPDEST DUP1 PUSH4 0x2FC3F194 EQ PUSH2 0x494 JUMPI DUP1 PUSH4 0x34B4E625 EQ PUSH2 0x4B5 JUMPI DUP1 PUSH4 0x36568ABE EQ PUSH2 0x4D5 JUMPI DUP1 PUSH4 0x372F3C4A EQ PUSH2 0x4F4 JUMPI DUP1 PUSH4 0x419F57EB EQ PUSH2 0x513 JUMPI DUP1 PUSH4 0x48B284A4 EQ PUSH2 0x527 JUMPI PUSH0 PUSH0 REVERT JUMPDEST DUP1 PUSH4 0x9A2EF36 GT PUSH2 0x274 JUMPI DUP1 PUSH4 0x9A2EF36 EQ PUSH2 0x39D JUMPI DUP1 PUSH4 0x14B5E5A3 EQ PUSH2 0x3CA JUMPI DUP1 PUSH4 0x1C990ECF EQ PUSH2 0x3E9 JUMPI DUP1 PUSH4 0x221413F9 EQ PUSH2 0x408 JUMPI DUP1 PUSH4 0x248A9CA3 EQ PUSH2 0x427 JUMPI DUP1 PUSH4 0x2EA20214 EQ PUSH2 0x456 JUMPI DUP1 PUSH4 0x2F2FF15D EQ PUSH2 0x475 JUMPI PUSH0 PUSH0 REVERT JUMPDEST DUP1 PUSH4 0x1103EE0 EQ PUSH2 0x2BB JUMPI DUP1 PUSH4 0x1FFC9A7 EQ PUSH2 0x2ED JUMPI DUP1 PUSH4 0x35193EE EQ PUSH2 0x31C JUMPI DUP1 PUSH4 0x751C968 EQ PUSH2 0x348 JUMPI DUP1 PUSH4 0x7DC6749 EQ PUSH2 0x369 JUMPI DUP1 PUSH4 0x7F3759D EQ PUSH2 0x37E JUMPI JUMPDEST PUSH0 PUSH0 REVERT JUMPDEST CALLVALUE DUP1 ISZERO PUSH2 0x2C6 JUMPI PUSH0 PUSH0 REVERT JUMPDEST POP PUSH2 0x2DA PUSH2 0x2D5 CALLDATASIZE PUSH1 0x4 PUSH2 0x4616 JUMP JUMPDEST PUSH2 0x97B JUMP JUMPDEST PUSH1 0x40 MLOAD SWAP1 DUP2 MSTORE PUSH1 0x20 ADD JUMPDEST PUSH1 0x40 MLOAD DUP1 SWAP2 SUB SWAP1 RETURN JUMPDEST CALLVALUE DUP1 ISZERO PUSH2 0x2F8 JUMPI PUSH0 PUSH0 REVERT JUMPDEST POP PUSH2 0x30C PUSH2 0x307 CALLDATASIZE PUSH1 0x4 PUSH2 0x462D JUMP JUMPDEST PUSH2 0xA3A JUMP JUMPDEST PUSH1 0x40 MLOAD SWAP1 ISZERO ISZERO DUP2 MSTORE PUSH1 0x20 ADD PUSH2 0x2E4 JUMP JUMPDEST CALLVALUE DUP1 ISZERO PUSH2 0x327 JUMPI PUSH0 PUSH0 REVERT JUMPDEST POP PUSH2 0x33B PUSH2 0x336 CALLDATASIZE PUSH1 0x4 PUSH2 0x4616 JUMP JUMPDEST PUSH2 0xA70 JUMP JUMPDEST PUSH1 0x40 MLOAD PUSH2 0x2E4 SWAP2 SWAP1 PUSH2 0x4695 JUMP JUMPDEST CALLVALUE DUP1 ISZERO PUSH2 0x353 JUMPI PUSH0 PUSH0 REVERT JUMPDEST POP PUSH2 0x367 PUSH2 0x362 CALLDATASIZE PUSH1 0x4 PUSH2 0x46A7 JUMP JUMPDEST PUSH2 0xACF JUMP JUMPDEST STOP JUMPDEST CALLVALUE DUP1 ISZERO PUSH2 0x374 JUMPI PUSH0 PUSH0 REVERT JUMPDEST POP PUSH2 0x2DA PUSH1 0x6 SLOAD DUP2 JUMP JUMPDEST CALLVALUE DUP1 ISZERO PUSH2 0x389 JUMPI PUSH0 PUSH0 REVERT JUMPDEST POP PUSH2 0x367 PUSH2 0x398 CALLDATASIZE PUSH1 0x4 PUSH2 0x46D4 JUMP JUMPDEST PUSH2 0x1051 JUMP JUMPDEST CALLVALUE DUP1 ISZERO PUSH2 0x3A8 JUMPI PUSH0 PUSH0 REVERT JUMPDEST POP PUSH2 0x3BC PUSH2 0x3B7 CALLDATASIZE PUSH1 0x4 PUSH2 0x4768 JUMP JUMPDEST PUSH2 0x10D7 JUMP JUMPDEST PUSH1 0x40 MLOAD PUSH2 0x2E4 SWAP3 SWAP2 SWAP1 PUSH2 0x48EB JUMP JUMPDEST CALLVALUE DUP1 ISZERO PUSH2 0x3D5 JUMPI PUSH0 PUSH0 REVERT JUMPDEST POP PUSH2 0x367 PUSH2 0x3E4 CALLDATASIZE PUSH1 0x4 PUSH2 0x4AEA JUMP JUMPDEST PUSH2 0x1605 JUMP JUMPDEST CALLVALUE DUP1 ISZERO PUSH2 0x3F4 JUMPI PUSH0 PUSH0 REVERT JUMPDEST POP PUSH2 0x367 PUSH2 0x403 CALLDATASIZE PUSH1 0x4 PUSH2 0x4BC3 JUMP JUMPDEST PUSH2 0x1A91 JUMP JUMPDEST CALLVALUE DUP1 ISZERO PUSH2 0x413 JUMPI PUSH0 PUSH0 REVERT JUMPDEST POP PUSH2 0x367 PUSH2 0x422 CALLDATASIZE PUSH1 0x4 PUSH2 0x4616 JUMP JUMPDEST PUSH2 0x1CF7 JUMP JUMPDEST CALLVALUE DUP1 ISZERO PUSH2 0x432 JUMPI PUSH0 PUSH0 REVERT JUMPDEST POP PUSH2 0x2DA PUSH2 0x441 CALLDATASIZE PUSH1 0x4 PUSH2 0x4616 JUMP JUMPDEST PUSH0 SWAP1 DUP2 MSTORE PUSH1 0x1 PUSH1 0x20 DUP2 SWAP1 MSTORE PUSH1 0x40 SWAP1 SWAP2 KECCAK256 ADD SLOAD SWAP1 JUMP JUMPDEST CALLVALUE DUP1 ISZERO PUSH2 0x461 JUMPI PUSH0 PUSH0 REVERT JUMPDEST POP PUSH2 0x367 PUSH2 0x470 CALLDATASIZE PUSH1 0x4 PUSH2 0x4C50 JUMP JUMPDEST PUSH2 0x1EA7 JUMP JUMPDEST CALLVALUE DUP1 ISZERO PUSH2 0x480 JUMPI PUSH0 PUSH0 REVERT JUMPDEST POP PUSH2 0x367 PUSH2 0x48F CALLDATASIZE PUSH1 0x4 PUSH2 0x4C81 JUMP JUMPDEST PUSH2 0x1F75 JUMP JUMPDEST CALLVALUE DUP1 ISZERO PUSH2 0x49F JUMPI PUSH0 PUSH0 REVERT JUMPDEST POP PUSH2 0x4A8 PUSH2 0x1FA0 JUMP JUMPDEST PUSH1 0x40 MLOAD PUSH2 0x2E4 SWAP2 SWAP1 PUSH2 0x4CAB JUMP JUMPDEST CALLVALUE DUP1 ISZERO PUSH2 0x4C0 JUMPI PUSH0 PUSH0 REVERT JUMPDEST POP PUSH2 0x2DA PUSH0 MLOAD PUSH1 0x20 PUSH2 0x5533 PUSH0 CODECOPY PUSH0 MLOAD SWAP1 PUSH0 MSTORE DUP2 JUMP JUMPDEST CALLVALUE DUP1 ISZERO PUSH2 0x4E0 JUMPI PUSH0 PUSH0 REVERT JUMPDEST POP PUSH2 0x367 PUSH2 0x4EF CALLDATASIZE PUSH1 0x4 PUSH2 0x4C81 JUMP JUMPDEST PUSH2 0x2000 JUMP JUMPDEST CALLVALUE DUP1 ISZERO PUSH2 0x4FF JUMPI PUSH0 PUSH0 REVERT JUMPDEST POP PUSH2 0x2DA PUSH2 0x50E CALLDATASIZE PUSH1 0x4 PUSH2 0x4CF6 JUMP JUMPDEST PUSH2 0x2038 JUMP JUMPDEST CALLVALUE DUP1 ISZERO PUSH2 0x51E JUMPI PUSH0 PUSH0 REVERT JUMPDEST POP PUSH2 0x33B PUSH2 0x207E JUMP JUMPDEST CALLVALUE DUP1 ISZERO PUSH2 0x532 JUMPI PUSH0 PUSH0 REVERT JUMPDEST POP PUSH2 0x55B PUSH2 0x541 CALLDATASIZE PUSH1 0x4 PUSH2 0x4616 JUMP JUMPDEST PUSH1 0x15 PUSH1 0x20 MSTORE PUSH0 SWAP1 DUP2 MSTORE PUSH1 0x40 SWAP1 KECCAK256 SLOAD PUSH1 0x1 PUSH1 0x1 PUSH1 0xA0 SHL SUB AND DUP2 JUMP JUMPDEST PUSH1 0x40 MLOAD PUSH1 0x1 PUSH1 0x1 PUSH1 0xA0 SHL SUB SWAP1 SWAP2 AND DUP2 MSTORE PUSH1 0x20 ADD PUSH2 0x2E4 JUMP JUMPDEST CALLVALUE DUP1 ISZERO PUSH2 0x57E JUMPI PUSH0 PUSH0 REVERT JUMPDEST POP PUSH2 0x2DA PUSH2 0x58D CALLDATASIZE PUSH1 0x4 PUSH2 0x4D1E JUMP JUMPDEST PUSH2 0x20D3 JUMP JUMPDEST CALLVALUE DUP1 ISZERO PUSH2 0x59D JUMPI PUSH0 PUSH0 REVERT JUMPDEST POP PUSH2 0x367 PUSH2 0x5AC CALLDATASIZE PUSH1 0x4 PUSH2 0x4616 JUMP JUMPDEST PUSH2 0x2108 JUMP JUMPDEST CALLVALUE DUP1 ISZERO PUSH2 0x5BC JUMPI PUSH0 PUSH0 REVERT JUMPDEST POP PUSH2 0x367 PUSH2 0x5CB CALLDATASIZE PUSH1 0x4 PUSH2 0x46A7 JUMP JUMPDEST PUSH2 0x225B JUMP JUMPDEST CALLVALUE DUP1 ISZERO PUSH2 0x5DB JUMPI PUSH0 PUSH0 REVERT JUMPDEST POP PUSH2 0x5E4 PUSH2 0x2401 JUMP JUMPDEST PUSH1 0x40 MLOAD PUSH2 0x2E4 SWAP2 SWAP1 PUSH2 0x4D71 JUMP JUMPDEST CALLVALUE DUP1 ISZERO PUSH2 0x5FC JUMPI PUSH0 PUSH0 REVERT JUMPDEST POP PUSH2 0x367 PUSH2 0x60B CALLDATASIZE PUSH1 0x4 PUSH2 0x4D83 JUMP JUMPDEST PUSH2 0x248D JUMP JUMPDEST CALLVALUE DUP1 ISZERO PUSH2 0x61B JUMPI PUSH0 PUSH0 REVERT JUMPDEST POP PUSH2 0x33B PUSH2 0x62A CALLDATASIZE PUSH1 0x4 PUSH2 0x4DE8 JUMP JUMPDEST PUSH2 0x26F7 JUMP JUMPDEST CALLVALUE DUP1 ISZERO PUSH2 0x63A JUMPI PUSH0 PUSH0 REVERT JUMPDEST POP PUSH2 0x30C PUSH2 0x649 CALLDATASIZE PUSH1 0x4 PUSH2 0x4616 JUMP JUMPDEST PUSH2 0x275E JUMP JUMPDEST CALLVALUE DUP1 ISZERO PUSH2 0x659 JUMPI PUSH0 PUSH0 REVERT JUMPDEST POP PUSH2 0x367 PUSH2 0x668 CALLDATASIZE PUSH1 0x4 PUSH2 0x4BC3 JUMP JUMPDEST PUSH2 0x27E0 JUMP JUMPDEST PUSH2 0x367 PUSH2 0x67B CALLDATASIZE PUSH1 0x4 PUSH2 0x4E01 JUMP JUMPDEST PUSH2 0x2824 JUMP JUMPDEST CALLVALUE DUP1 ISZERO PUSH2 0x68B JUMPI PUSH0 PUSH0 REVERT JUMPDEST POP PUSH1 0x9 SLOAD PUSH2 0x55B SWAP1 PUSH1 0x1 PUSH1 0x1 PUSH1 0xA0 SHL SUB AND DUP2 JUMP JUMPDEST CALLVALUE DUP1 ISZERO PUSH2 0x6AA JUMPI PUSH0 PUSH0 REVERT JUMPDEST POP PUSH2 0x367 PUSH2 0x6B9 CALLDATASIZE PUSH1 0x4 PUSH2 0x4ED1 JUMP JUMPDEST PUSH2 0x2C35 JUMP JUMPDEST CALLVALUE DUP1 ISZERO PUSH2 0x6C9 JUMPI PUSH0 PUSH0 REVERT JUMPDEST POP PUSH2 0x6DD PUSH2 0x6D8 CALLDATASIZE PUSH1 0x4 PUSH2 0x4768 JUMP JUMPDEST PUSH2 0x2DC1 JUMP JUMPDEST PUSH1 0x40 MLOAD PUSH2 0x2E4 SWAP2 SWAP1 PUSH2 0x4F46 JUMP JUMPDEST CALLVALUE DUP1 ISZERO PUSH2 0x6F5 JUMPI PUSH0 PUSH0 REVERT JUMPDEST POP PUSH2 0x30C PUSH2 0x704 CALLDATASIZE PUSH1 0x4 PUSH2 0x4C81 JUMP JUMPDEST PUSH2 0x3011 JUMP JUMPDEST CALLVALUE DUP1 ISZERO PUSH2 0x714 JUMPI PUSH0 PUSH0 REVERT JUMPDEST POP PUSH2 0x2DA PUSH1 0x5 SLOAD DUP2 JUMP JUMPDEST CALLVALUE DUP1 ISZERO PUSH2 0x729 JUMPI PUSH0 PUSH0 REVERT JUMPDEST POP PUSH2 0x2DA PUSH2 0x738 CALLDATASIZE PUSH1 0x4 PUSH2 0x4616 JUMP JUMPDEST PUSH1 0x13 PUSH1 0x20 MSTORE PUSH0 SWAP1 DUP2 MSTORE PUSH1 0x40 SWAP1 KECCAK256 SLOAD DUP2 JUMP JUMPDEST CALLVALUE DUP1 ISZERO PUSH2 0x754 JUMPI PUSH0 PUSH0 REVERT JUMPDEST POP PUSH2 0x2DA PUSH2 0x763 CALLDATASIZE PUSH1 0x4 PUSH2 0x4DE8 JUMP JUMPDEST PUSH1 0x16 PUSH1 0x20 MSTORE PUSH0 SWAP1 DUP2 MSTORE PUSH1 0x40 SWAP1 KECCAK256 SLOAD DUP2 JUMP JUMPDEST CALLVALUE DUP1 ISZERO PUSH2 0x77F JUMPI PUSH0 PUSH0 REVERT JUMPDEST POP PUSH2 0x2DA PUSH2 0x78E CALLDATASIZE PUSH1 0x4 PUSH2 0x4616 JUMP JUMPDEST PUSH1 0x14 PUSH1 0x20 MSTORE PUSH0 SWAP1 DUP2 MSTORE PUSH1 0x40 SWAP1 KECCAK256 SLOAD DUP2 JUMP JUMPDEST CALLVALUE DUP1 ISZERO PUSH2 0x7AA JUMPI PUSH0 PUSH0 REVERT JUMPDEST POP PUSH2 0x2DA PUSH0 DUP2 JUMP JUMPDEST CALLVALUE DUP1 ISZERO PUSH2 0x7BD JUMPI PUSH0 PUSH0 REVERT JUMPDEST POP PUSH2 0x367 PUSH2 0x7CC CALLDATASIZE PUSH1 0x4 PUSH2 0x4616 JUMP JUMPDEST PUSH2 0x303B JUMP JUMPDEST CALLVALUE DUP1 ISZERO PUSH2 0x7DC JUMPI PUSH0 PUSH0 REVERT JUMPDEST POP PUSH2 0x5E4 PUSH2 0x314C JUMP JUMPDEST CALLVALUE DUP1 ISZERO PUSH2 0x7F0 JUMPI PUSH0 PUSH0 REVERT JUMPDEST POP PUSH2 0x367 PUSH2 0x7FF CALLDATASIZE PUSH1 0x4 PUSH2 0x4FF1 JUMP JUMPDEST PUSH2 0x3159 JUMP JUMPDEST CALLVALUE DUP1 ISZERO PUSH2 0x80F JUMPI PUSH0 PUSH0 REVERT JUMPDEST POP PUSH2 0x55B PUSH2 0x81E CALLDATASIZE PUSH1 0x4 PUSH2 0x4616 JUMP JUMPDEST PUSH2 0x3315 JUMP JUMPDEST CALLVALUE DUP1 ISZERO PUSH2 0x82E JUMPI PUSH0 PUSH0 REVERT JUMPDEST POP PUSH2 0x842 PUSH2 0x83D CALLDATASIZE PUSH1 0x4 PUSH2 0x4616 JUMP JUMPDEST PUSH2 0x333D JUMP JUMPDEST PUSH1 0x40 MLOAD PUSH2 0x2E4 SWAP2 SWAP1 PUSH2 0x509D JUMP JUMPDEST CALLVALUE DUP1 ISZERO PUSH2 0x85A JUMPI PUSH0 PUSH0 REVERT JUMPDEST POP PUSH2 0x367 PUSH2 0x869 CALLDATASIZE PUSH1 0x4 PUSH2 0x4C81 JUMP JUMPDEST PUSH2 0x33C7 JUMP JUMPDEST CALLVALUE DUP1 ISZERO PUSH2 0x879 JUMPI PUSH0 PUSH0 REVERT JUMPDEST POP PUSH2 0x367 PUSH2 0x888 CALLDATASIZE PUSH1 0x4 PUSH2 0x4616 JUMP JUMPDEST PUSH2 0x33EC JUMP JUMPDEST CALLVALUE DUP1 ISZERO PUSH2 0x898 JUMPI PUSH0 PUSH0 REVERT JUMPDEST POP PUSH2 0x2DA PUSH2 0x8A7 CALLDATASIZE PUSH1 0x4 PUSH2 0x4616 JUMP JUMPDEST PUSH2 0x35E6 JUMP JUMPDEST CALLVALUE DUP1 ISZERO PUSH2 0x8B7 JUMPI PUSH0 PUSH0 REVERT JUMPDEST POP PUSH2 0x367 PUSH2 0x8C6 CALLDATASIZE PUSH1 0x4 PUSH2 0x4C50 JUMP JUMPDEST PUSH2 0x3609 JUMP JUMPDEST CALLVALUE DUP1 ISZERO PUSH2 0x8D6 JUMPI PUSH0 PUSH0 REVERT JUMPDEST POP PUSH1 0x7 SLOAD PUSH2 0x55B SWAP1 PUSH1 0x1 PUSH1 0x1 PUSH1 0xA0 SHL SUB AND DUP2 JUMP JUMPDEST CALLVALUE DUP1 ISZERO PUSH2 0x8F5 JUMPI PUSH0 PUSH0 REVERT JUMPDEST POP PUSH2 0x367 PUSH2 0x904 CALLDATASIZE PUSH1 0x4 PUSH2 0x46A7 JUMP JUMPDEST PUSH2 0x363F JUMP JUMPDEST CALLVALUE DUP1 ISZERO PUSH2 0x914 JUMPI PUSH0 PUSH0 REVERT JUMPDEST POP PUSH2 0x2DA PUSH1 0xB SLOAD DUP2 JUMP JUMPDEST CALLVALUE DUP1 ISZERO PUSH2 0x929 JUMPI PUSH0 PUSH0 REVERT JUMPDEST POP PUSH1 0x4 SLOAD PUSH2 0x55B SWAP1 PUSH1 0x1 PUSH1 0x1 PUSH1 0xA0 SHL SUB AND DUP2 JUMP JUMPDEST CALLVALUE DUP1 ISZERO PUSH2 0x948 JUMPI PUSH0 PUSH0 REVERT JUMPDEST POP PUSH2 0x367 PUSH2 0x957 CALLDATASIZE PUSH1 0x4 PUSH2 0x4768 JUMP JUMPDEST PUSH2 0x3895 JUMP JUMPDEST CALLVALUE DUP1 ISZERO PUSH2 0x967 JUMPI PUSH0 PUSH0 REVERT JUMPDEST POP PUSH2 0x2DA PUSH2 0x976 CALLDATASIZE PUSH1 0x4 PUSH2 0x4616 JUMP JUMPDEST PUSH2 0x3A5B JUMP JUMPDEST PUSH0 DUP2 DUP2 MSTORE PUSH1 0x15 PUSH1 0x20 MSTORE PUSH1 0x40 DUP2 KECCAK256 SLOAD DUP2 SWAP1 PUSH1 0x1 PUSH1 0x1 PUSH1 0xA0 SHL SUB AND ISZERO PUSH2 0x9B9 JUMPI POP PUSH0 DUP3 DUP2 MSTORE PUSH1 0xE PUSH1 0x20 SWAP1 DUP2 MSTORE PUSH1 0x40 DUP1 DUP4 KECCAK256 SLOAD DUP4 MSTORE PUSH1 0xD SWAP1 SWAP2 MSTORE SWAP1 KECCAK256 PUSH1 0x2 ADD SLOAD JUMPDEST PUSH0 PUSH2 0x9C3 DUP5 PUSH2 0x3A7C JUMP JUMPDEST PUSH0 DUP6 DUP2 MSTORE PUSH1 0xE PUSH1 0x20 MSTORE PUSH1 0x40 DUP2 KECCAK256 PUSH1 0x6 ADD SLOAD SWAP2 SWAP3 POP SWAP1 PUSH2 0x9E3 SWAP1 PUSH1 0x3B PUSH2 0x5104 JUMP JUMPDEST SWAP1 POP PUSH2 0x9EE DUP6 PUSH2 0x35E6 JUMP JUMPDEST DUP2 PUSH2 0x9F9 DUP6 DUP6 PUSH2 0x511B JUMP JUMPDEST PUSH2 0xA03 SWAP2 SWAP1 PUSH2 0x511B JUMP JUMPDEST LT PUSH2 0xA12 JUMPI POP PUSH0 SWAP5 SWAP4 POP POP POP POP JUMP JUMPDEST DUP3 DUP3 PUSH2 0xA1D DUP8 PUSH2 0x35E6 JUMP JUMPDEST PUSH2 0xA27 SWAP2 SWAP1 PUSH2 0x512E JUMP JUMPDEST PUSH2 0xA31 SWAP2 SWAP1 PUSH2 0x512E JUMP JUMPDEST SWAP6 SWAP5 POP POP POP POP POP JUMP JUMPDEST PUSH0 PUSH1 0x1 PUSH1 0x1 PUSH1 0xE0 SHL SUB NOT DUP3 AND PUSH4 0x7965DB0B PUSH1 0xE0 SHL EQ DUP1 PUSH2 0xA6A JUMPI POP PUSH4 0x1FFC9A7 PUSH1 0xE0 SHL PUSH1 0x1 PUSH1 0x1 PUSH1 0xE0 SHL SUB NOT DUP4 AND EQ JUMPDEST SWAP3 SWAP2 POP POP JUMP JUMPDEST PUSH0 DUP2 DUP2 MSTORE PUSH1 0x10 PUSH1 0x20 SWAP1 DUP2 MSTORE PUSH1 0x40 SWAP2 DUP3 SWAP1 KECCAK256 DUP1 SLOAD DUP4 MLOAD DUP2 DUP5 MUL DUP2 ADD DUP5 ADD SWAP1 SWAP5 MSTORE DUP1 DUP5 MSTORE PUSH1 0x60 SWAP4 SWAP3 DUP4 ADD DUP3 DUP3 DUP1 ISZERO PUSH2 0xAC3 JUMPI PUSH1 0x20 MUL DUP3 ADD SWAP2 SWAP1 PUSH0 MSTORE PUSH1 0x20 PUSH0 KECCAK256 SWAP1 JUMPDEST DUP2 SLOAD DUP2 MSTORE PUSH1 0x20 ADD SWAP1 PUSH1 0x1 ADD SWAP1 DUP1 DUP4 GT PUSH2 0xAAF JUMPI JUMPDEST POP POP POP POP POP SWAP1 POP SWAP2 SWAP1 POP JUMP JUMPDEST PUSH0 DUP3 DUP2 MSTORE PUSH1 0xE PUSH1 0x20 MSTORE PUSH1 0x40 SWAP1 KECCAK256 PUSH1 0x1 ADD SLOAD DUP3 SWAP1 PUSH1 0x1 PUSH1 0x1 PUSH1 0xA0 SHL SUB AND CALLER EQ PUSH2 0xB12 JUMPI PUSH1 0x40 MLOAD PUSH3 0x461BCD PUSH1 0xE5 SHL DUP2 MSTORE PUSH1 0x4 ADD PUSH2 0xB09 SWAP1 PUSH2 0x5141 JUMP JUMPDEST PUSH1 0x40 MLOAD DUP1 SWAP2 SUB SWAP1 REVERT JUMPDEST PUSH0 DUP3 GT PUSH2 0xB5D JUMPI PUSH1 0x40 MLOAD PUSH3 0x461BCD PUSH1 0xE5 SHL DUP2 MSTORE PUSH1 0x20 PUSH1 0x4 DUP3 ADD MSTORE PUSH1 0x19 PUSH1 0x24 DUP3 ADD MSTORE PUSH25 0x696E76616C6964207061796D656E7452617465506572536563 PUSH1 0x38 SHL PUSH1 0x44 DUP3 ADD MSTORE PUSH1 0x64 ADD PUSH2 0xB09 JUMP JUMPDEST PUSH0 PUSH2 0xB67 DUP5 PUSH2 0x97B JUMP JUMPDEST PUSH0 DUP6 DUP2 MSTORE PUSH1 0xE PUSH1 0x20 SWAP1 DUP2 MSTORE PUSH1 0x40 DUP1 DUP4 KECCAK256 DUP2 MLOAD PUSH2 0x100 DUP2 ADD DUP4 MSTORE DUP2 SLOAD DUP2 MSTORE PUSH1 0x1 DUP3 ADD SLOAD PUSH1 0x1 PUSH1 0x1 PUSH1 0xA0 SHL SUB AND SWAP4 DUP2 ADD SWAP4 SWAP1 SWAP4 MSTORE PUSH1 0x2 DUP2 ADD DUP1 SLOAD SWAP6 SWAP7 POP SWAP4 SWAP5 SWAP3 SWAP4 SWAP1 SWAP3 SWAP2 DUP5 ADD SWAP2 PUSH2 0xBB5 SWAP1 PUSH2 0x5178 JUMP JUMPDEST DUP1 PUSH1 0x1F ADD PUSH1 0x20 DUP1 SWAP2 DIV MUL PUSH1 0x20 ADD PUSH1 0x40 MLOAD SWAP1 DUP2 ADD PUSH1 0x40 MSTORE DUP1 SWAP3 SWAP2 SWAP1 DUP2 DUP2 MSTORE PUSH1 0x20 ADD DUP3 DUP1 SLOAD PUSH2 0xBE1 SWAP1 PUSH2 0x5178 JUMP JUMPDEST DUP1 ISZERO PUSH2 0xC2C JUMPI DUP1 PUSH1 0x1F LT PUSH2 0xC03 JUMPI PUSH2 0x100 DUP1 DUP4 SLOAD DIV MUL DUP4 MSTORE SWAP2 PUSH1 0x20 ADD SWAP2 PUSH2 0xC2C JUMP JUMPDEST DUP3 ADD SWAP2 SWAP1 PUSH0 MSTORE PUSH1 0x20 PUSH0 KECCAK256 SWAP1 JUMPDEST DUP2 SLOAD DUP2 MSTORE SWAP1 PUSH1 0x1 ADD SWAP1 PUSH1 0x20 ADD DUP1 DUP4 GT PUSH2 0xC0F JUMPI DUP3 SWAP1 SUB PUSH1 0x1F AND DUP3 ADD SWAP2 JUMPDEST POP POP POP POP POP DUP2 MSTORE PUSH1 0x20 ADD PUSH1 0x3 DUP3 ADD DUP1 SLOAD PUSH2 0xC45 SWAP1 PUSH2 0x5178 JUMP JUMPDEST DUP1 PUSH1 0x1F ADD PUSH1 0x20 DUP1 SWAP2 DIV MUL PUSH1 0x20 ADD PUSH1 0x40 MLOAD SWAP1 DUP2 ADD PUSH1 0x40 MSTORE DUP1 SWAP3 SWAP2 SWAP1 DUP2 DUP2 MSTORE PUSH1 0x20 ADD DUP3 DUP1 SLOAD PUSH2 0xC71 SWAP1 PUSH2 0x5178 JUMP JUMPDEST DUP1 ISZERO PUSH2 0xCBC JUMPI DUP1 PUSH1 0x1F LT PUSH2 0xC93 JUMPI PUSH2 0x100 DUP1 DUP4 SLOAD DIV MUL DUP4 MSTORE SWAP2 PUSH1 0x20 ADD SWAP2 PUSH2 0xCBC JUMP JUMPDEST DUP3 ADD SWAP2 SWAP1 PUSH0 MSTORE PUSH1 0x20 PUSH0 KECCAK256 SWAP1 JUMPDEST DUP2 SLOAD DUP2 MSTORE SWAP1 PUSH1 0x1 ADD SWAP1 PUSH1 0x20 ADD DUP1 DUP4 GT PUSH2 0xC9F JUMPI DUP3 SWAP1 SUB PUSH1 0x1F AND DUP3 ADD SWAP2 JUMPDEST POP POP POP SWAP2 DUP4 MSTORE POP POP PUSH1 0x4 DUP3 ADD SLOAD PUSH1 0x20 SWAP1 SWAP2 ADD SWAP1 PUSH1 0xFF AND PUSH1 0x3 DUP2 GT ISZERO PUSH2 0xCE3 JUMPI PUSH2 0xCE3 PUSH2 0x482B JUMP JUMPDEST PUSH1 0x3 DUP2 GT ISZERO PUSH2 0xCF4 JUMPI PUSH2 0xCF4 PUSH2 0x482B JUMP JUMPDEST DUP2 MSTORE PUSH1 0x20 ADD PUSH1 0x5 DUP3 ADD DUP1 SLOAD DUP1 PUSH1 0x20 MUL PUSH1 0x20 ADD PUSH1 0x40 MLOAD SWAP1 DUP2 ADD PUSH1 0x40 MSTORE DUP1 SWAP3 SWAP2 SWAP1 DUP2 DUP2 MSTORE PUSH1 0x20 ADD PUSH0 SWAP1 JUMPDEST DUP3 DUP3 LT ISZERO PUSH2 0xDC4 JUMPI DUP4 DUP3 SWAP1 PUSH0 MSTORE PUSH1 0x20 PUSH0 KECCAK256 ADD DUP1 SLOAD PUSH2 0xD39 SWAP1 PUSH2 0x5178 JUMP JUMPDEST DUP1 PUSH1 0x1F ADD PUSH1 0x20 DUP1 SWAP2 DIV MUL PUSH1 0x20 ADD PUSH1 0x40 MLOAD SWAP1 DUP2 ADD PUSH1 0x40 MSTORE DUP1 SWAP3 SWAP2 SWAP1 DUP2 DUP2 MSTORE PUSH1 0x20 ADD DUP3 DUP1 SLOAD PUSH2 0xD65 SWAP1 PUSH2 0x5178 JUMP JUMPDEST DUP1 ISZERO PUSH2 0xDB0 JUMPI DUP1 PUSH1 0x1F LT PUSH2 0xD87 JUMPI PUSH2 0x100 DUP1 DUP4 SLOAD DIV MUL DUP4 MSTORE SWAP2 PUSH1 0x20 ADD SWAP2 PUSH2 0xDB0 JUMP JUMPDEST DUP3 ADD SWAP2 SWAP1 PUSH0 MSTORE PUSH1 0x20 PUSH0 KECCAK256 SWAP1 JUMPDEST DUP2 SLOAD DUP2 MSTORE SWAP1 PUSH1 0x1 ADD SWAP1 PUSH1 0x20 ADD DUP1 DUP4 GT PUSH2 0xD93 JUMPI DUP3 SWAP1 SUB PUSH1 0x1F AND DUP3 ADD SWAP2 JUMPDEST POP POP POP POP POP DUP2 MSTORE PUSH1 0x20 ADD SWAP1 PUSH1 0x1 ADD SWAP1 PUSH2 0xD1C JUMP JUMPDEST POP POP POP POP DUP2 MSTORE PUSH1 0x20 ADD PUSH1 0x6 DUP3 ADD SLOAD DUP2 MSTORE PUSH1 0x20 ADD PUSH1 0x7 DUP3 ADD DUP1 SLOAD PUSH2 0xDE6 SWAP1 PUSH2 0x5178 JUMP JUMPDEST DUP1 PUSH1 0x1F ADD PUSH1 0x20 DUP1 SWAP2 DIV MUL PUSH1 0x20 ADD PUSH1 0x40 MLOAD SWAP1 DUP2 ADD PUSH1 0x40 MSTORE DUP1 SWAP3 SWAP2 SWAP1 DUP2 DUP2 MSTORE PUSH1 0x20 ADD DUP3 DUP1 SLOAD PUSH2 0xE12 SWAP1 PUSH2 0x5178 JUMP JUMPDEST DUP1 ISZERO PUSH2 0xE5D JUMPI DUP1 PUSH1 0x1F LT PUSH2 0xE34 JUMPI PUSH2 0x100 DUP1 DUP4 SLOAD DIV MUL DUP4 MSTORE SWAP2 PUSH1 0x20 ADD SWAP2 PUSH2 0xE5D JUMP JUMPDEST DUP3 ADD SWAP2 SWAP1 PUSH0 MSTORE PUSH1 0x20 PUSH0 KECCAK256 SWAP1 JUMPDEST DUP2 SLOAD DUP2 MSTORE SWAP1 PUSH1 0x1 ADD SWAP1 PUSH1 0x20 ADD DUP1 DUP4 GT PUSH2 0xE40 JUMPI DUP3 SWAP1 SUB PUSH1 0x1F AND DUP3 ADD SWAP2 JUMPDEST POP POP POP SWAP2 SWAP1 SWAP3 MSTORE POP POP POP PUSH1 0xC0 DUP2 ADD DUP1 MLOAD SWAP1 DUP7 SWAP1 MSTORE PUSH0 DUP8 DUP2 MSTORE PUSH1 0xE PUSH1 0x20 SWAP1 DUP2 MSTORE PUSH1 0x40 SWAP2 DUP3 SWAP1 KECCAK256 DUP5 MLOAD DUP2 SSTORE SWAP1 DUP5 ADD MLOAD PUSH1 0x1 DUP3 ADD DUP1 SLOAD PUSH1 0x1 PUSH1 0x1 PUSH1 0xA0 SHL SUB NOT AND PUSH1 0x1 PUSH1 0x1 PUSH1 0xA0 SHL SUB SWAP1 SWAP3 AND SWAP2 SWAP1 SWAP2 OR SWAP1 SSTORE SWAP1 DUP4 ADD MLOAD SWAP3 SWAP4 POP SWAP1 SWAP2 DUP4 SWAP2 SWAP1 PUSH1 0x2 DUP3 ADD SWAP1 PUSH2 0xEC6 SWAP1 DUP3 PUSH2 0x51FB JUMP JUMPDEST POP PUSH1 0x60 DUP3 ADD MLOAD PUSH1 0x3 DUP3 ADD SWAP1 PUSH2 0xEDB SWAP1 DUP3 PUSH2 0x51FB JUMP JUMPDEST POP PUSH1 0x80 DUP3 ADD MLOAD PUSH1 0x4 DUP3 ADD DUP1 SLOAD PUSH1 0xFF NOT AND PUSH1 0x1 DUP4 PUSH1 0x3 DUP2 GT ISZERO PUSH2 0xEFF JUMPI PUSH2 0xEFF PUSH2 0x482B JUMP JUMPDEST MUL OR SWAP1 SSTORE POP PUSH1 0xA0 DUP3 ADD MLOAD DUP1 MLOAD PUSH2 0xF1F SWAP2 PUSH1 0x5 DUP5 ADD SWAP2 PUSH1 0x20 SWAP1 SWAP2 ADD SWAP1 PUSH2 0x4505 JUMP JUMPDEST POP PUSH1 0xC0 DUP3 ADD MLOAD PUSH1 0x6 DUP3 ADD SSTORE PUSH1 0xE0 DUP3 ADD MLOAD PUSH1 0x7 DUP3 ADD SWAP1 PUSH2 0xF3E SWAP1 DUP3 PUSH2 0x51FB JUMP JUMPDEST POP PUSH1 0x1 SWAP2 POP PUSH2 0xF4A SWAP1 POP JUMP JUMPDEST PUSH1 0x3 DUP2 GT ISZERO PUSH2 0xF5B JUMPI PUSH2 0xF5B PUSH2 0x482B JUMP JUMPDEST DUP3 PUSH1 0x80 ADD MLOAD PUSH1 0x3 DUP2 GT ISZERO PUSH2 0xF71 JUMPI PUSH2 0xF71 PUSH2 0x482B JUMP JUMPDEST SUB PUSH2 0x1007 JUMPI PUSH2 0xF81 DUP7 PUSH1 0x3 PUSH2 0x3C7E JUMP JUMPDEST TIMESTAMP PUSH0 PUSH2 0xF8D DUP8 DUP7 PUSH2 0x52B5 JUMP JUMPDEST PUSH2 0xF97 SWAP1 DUP4 PUSH2 0x511B JUMP JUMPDEST PUSH0 DUP10 DUP2 MSTORE PUSH1 0x11 PUSH1 0x20 SWAP1 DUP2 MSTORE PUSH1 0x40 DUP1 DUP4 KECCAK256 DUP2 MLOAD PUSH1 0x60 DUP2 ADD DUP4 MSTORE SWAP7 DUP8 MSTORE DUP7 DUP4 ADD SWAP5 DUP6 MSTORE DUP7 DUP3 ADD DUP13 DUP2 MSTORE DUP2 SLOAD PUSH1 0x1 DUP1 DUP3 ADD DUP5 SSTORE SWAP3 DUP7 MSTORE DUP5 DUP7 KECCAK256 SWAP9 MLOAD PUSH1 0x3 SWAP1 SWAP2 MUL SWAP1 SWAP9 ADD SWAP8 DUP9 SSTORE SWAP5 MLOAD DUP8 DUP3 ADD SSTORE SWAP4 MLOAD PUSH1 0x2 SWAP1 SWAP7 ADD SWAP6 SWAP1 SWAP6 SSTORE DUP11 DUP3 MSTORE PUSH1 0xE SWAP1 MSTORE SWAP3 SWAP1 SWAP3 KECCAK256 PUSH1 0x4 ADD DUP1 SLOAD PUSH1 0xFF NOT AND SWAP1 SWAP3 OR SWAP1 SWAP2 SSTORE POP JUMPDEST PUSH1 0x40 DUP1 MLOAD DUP8 DUP2 MSTORE PUSH1 0x20 DUP2 ADD DUP4 SWAP1 MSTORE SWAP1 DUP2 ADD DUP7 SWAP1 MSTORE PUSH32 0x7D841331EC2933DD0149C22078C56FCE2A107ADC656881019D1222E70B25932B SWAP1 PUSH1 0x60 ADD JUMPDEST PUSH1 0x40 MLOAD DUP1 SWAP2 SUB SWAP1 LOG1 POP POP POP POP POP POP JUMP JUMPDEST PUSH1 0x9 SLOAD PUSH1 0x1 PUSH1 0x1 PUSH1 0xA0 SHL SUB AND CALLER EQ PUSH2 0x107B JUMPI PUSH1 0x40 MLOAD PUSH3 0x461BCD PUSH1 0xE5 SHL DUP2 MSTORE PUSH1 0x4 ADD PUSH2 0xB09 SWAP1 PUSH2 0x52D4 JUMP JUMPDEST PUSH0 DUP3 DUP2 MSTORE PUSH1 0xD PUSH1 0x20 SWAP1 DUP2 MSTORE PUSH1 0x40 SWAP2 DUP3 SWAP1 KECCAK256 PUSH1 0x4 ADD DUP1 SLOAD PUSH1 0xFF NOT AND DUP5 ISZERO ISZERO SWAP1 DUP2 OR SWAP1 SWAP2 SSTORE DUP3 MLOAD DUP6 DUP2 MSTORE SWAP2 DUP3 ADD MSTORE PUSH32 0x58D7C460DBAD3B3470BDAB37236835934DF498C897A0BEB115FC3DFF0617B4F SWAP2 ADD JUMPDEST PUSH1 0x40 MLOAD DUP1 SWAP2 SUB SWAP1 LOG1 POP POP JUMP JUMPDEST PUSH1 0x60 DUP1 PUSH0 TIMESTAMP SWAP1 POP PUSH0 DUP5 MLOAD PUSH1 0x1 PUSH1 0x1 PUSH1 0x40 SHL SUB DUP2 GT ISZERO PUSH2 0x10F8 JUMPI PUSH2 0x10F8 PUSH2 0x4702 JUMP JUMPDEST PUSH1 0x40 MLOAD SWAP1 DUP1 DUP3 MSTORE DUP1 PUSH1 0x20 MUL PUSH1 0x20 ADD DUP3 ADD PUSH1 0x40 MSTORE DUP1 ISZERO PUSH2 0x1121 JUMPI DUP2 PUSH1 0x20 ADD PUSH1 0x20 DUP3 MUL DUP1 CALLDATASIZE DUP4 CALLDATACOPY ADD SWAP1 POP JUMPDEST POP SWAP1 POP PUSH0 DUP6 MLOAD PUSH1 0x1 PUSH1 0x1 PUSH1 0x40 SHL SUB DUP2 GT ISZERO PUSH2 0x113E JUMPI PUSH2 0x113E PUSH2 0x4702 JUMP JUMPDEST PUSH1 0x40 MLOAD SWAP1 DUP1 DUP3 MSTORE DUP1 PUSH1 0x20 MUL PUSH1 0x20 ADD DUP3 ADD PUSH1 0x40 MSTORE DUP1 ISZERO PUSH2 0x1177 JUMPI DUP2 PUSH1 0x20 ADD JUMPDEST PUSH2 0x1164 PUSH2 0x4559 JUMP JUMPDEST DUP2 MSTORE PUSH1 0x20 ADD SWAP1 PUSH1 0x1 SWAP1 SUB SWAP1 DUP2 PUSH2 0x115C JUMPI SWAP1 POP JUMPDEST POP SWAP1 POP PUSH0 JUMPDEST DUP7 MLOAD DUP2 PUSH4 0xFFFFFFFF AND LT ISZERO PUSH2 0x15FA JUMPI PUSH1 0xE PUSH0 DUP9 DUP4 PUSH4 0xFFFFFFFF AND DUP2 MLOAD DUP2 LT PUSH2 0x11A6 JUMPI PUSH2 0x11A6 PUSH2 0x5302 JUMP JUMPDEST PUSH1 0x20 MUL PUSH1 0x20 ADD ADD MLOAD DUP2 MSTORE PUSH1 0x20 ADD SWAP1 DUP2 MSTORE PUSH1 0x20 ADD PUSH0 KECCAK256 PUSH1 0x40 MLOAD DUP1 PUSH2 0x100 ADD PUSH1 0x40 MSTORE SWAP1 DUP2 PUSH0 DUP3 ADD SLOAD DUP2 MSTORE PUSH1 0x20 ADD PUSH1 0x1 DUP3 ADD PUSH0 SWAP1 SLOAD SWAP1 PUSH2 0x100 EXP SWAP1 DIV PUSH1 0x1 PUSH1 0x1 PUSH1 0xA0 SHL SUB AND PUSH1 0x1 PUSH1 0x1 PUSH1 0xA0 SHL SUB AND PUSH1 0x1 PUSH1 0x1 PUSH1 0xA0 SHL SUB AND DUP2 MSTORE PUSH1 0x20 ADD PUSH1 0x2 DUP3 ADD DUP1 SLOAD PUSH2 0x120E SWAP1 PUSH2 0x5178 JUMP JUMPDEST DUP1 PUSH1 0x1F ADD PUSH1 0x20 DUP1 SWAP2 DIV MUL PUSH1 0x20 ADD PUSH1 0x40 MLOAD SWAP1 DUP2 ADD PUSH1 0x40 MSTORE DUP1 SWAP3 SWAP2 SWAP1 DUP2 DUP2 MSTORE PUSH1 0x20 ADD DUP3 DUP1 SLOAD PUSH2 0x123A SWAP1 PUSH2 0x5178 JUMP JUMPDEST DUP1 ISZERO PUSH2 0x1285 JUMPI DUP1 PUSH1 0x1F LT PUSH2 0x125C JUMPI PUSH2 0x100 DUP1 DUP4 SLOAD DIV MUL DUP4 MSTORE SWAP2 PUSH1 0x20 ADD SWAP2 PUSH2 0x1285 JUMP JUMPDEST DUP3 ADD SWAP2 SWAP1 PUSH0 MSTORE PUSH1 0x20 PUSH0 KECCAK256 SWAP1 JUMPDEST DUP2 SLOAD DUP2 MSTORE SWAP1 PUSH1 0x1 ADD SWAP1 PUSH1 0x20 ADD DUP1 DUP4 GT PUSH2 0x1268 JUMPI DUP3 SWAP1 SUB PUSH1 0x1F AND DUP3 ADD SWAP2 JUMPDEST POP POP POP POP POP DUP2 MSTORE PUSH1 0x20 ADD PUSH1 0x3 DUP3 ADD DUP1 SLOAD PUSH2 0x129E SWAP1 PUSH2 0x5178 JUMP JUMPDEST DUP1 PUSH1 0x1F ADD PUSH1 0x20 DUP1 SWAP2 DIV MUL PUSH1 0x20 ADD PUSH1 0x40 MLOAD SWAP1 DUP2 ADD PUSH1 0x40 MSTORE DUP1 SWAP3 SWAP2 SWAP1 DUP2 DUP2 MSTORE PUSH1 0x20 ADD DUP3 DUP1 SLOAD PUSH2 0x12CA SWAP1 PUSH2 0x5178 JUMP JUMPDEST DUP1 ISZERO PUSH2 0x1315 JUMPI DUP1 PUSH1 0x1F LT PUSH2 0x12EC JUMPI PUSH2 0x100 DUP1 DUP4 SLOAD DIV MUL DUP4 MSTORE SWAP2 PUSH1 0x20 ADD SWAP2 PUSH2 0x1315 JUMP JUMPDEST DUP3 ADD SWAP2 SWAP1 PUSH0 MSTORE PUSH1 0x20 PUSH0 KECCAK256 SWAP1 JUMPDEST DUP2 SLOAD DUP2 MSTORE SWAP1 PUSH1 0x1 ADD SWAP1 PUSH1 0x20 ADD DUP1 DUP4 GT PUSH2 0x12F8 JUMPI DUP3 SWAP1 SUB PUSH1 0x1F AND DUP3 ADD SWAP2 JUMPDEST POP POP POP SWAP2 DUP4 MSTORE POP POP PUSH1 0x4 DUP3 ADD SLOAD PUSH1 0x20 SWAP1 SWAP2 ADD SWAP1 PUSH1 0xFF AND PUSH1 0x3 DUP2 GT ISZERO PUSH2 0x133C JUMPI PUSH2 0x133C PUSH2 0x482B JUMP JUMPDEST PUSH1 0x3 DUP2 GT ISZERO PUSH2 0x134D JUMPI PUSH2 0x134D PUSH2 0x482B JUMP JUMPDEST DUP2 MSTORE PUSH1 0x20 ADD PUSH1 0x5 DUP3 ADD DUP1 SLOAD DUP1 PUSH1 0x20 MUL PUSH1 0x20 ADD PUSH1 0x40 MLOAD SWAP1 DUP2 ADD PUSH1 0x40 MSTORE DUP1 SWAP3 SWAP2 SWAP1 DUP2 DUP2 MSTORE PUSH1 0x20 ADD PUSH0 SWAP1 JUMPDEST DUP3 DUP3 LT ISZERO PUSH2 0x141D JUMPI DUP4 DUP3 SWAP1 PUSH0 MSTORE PUSH1 0x20 PUSH0 KECCAK256 ADD DUP1 SLOAD PUSH2 0x1392 SWAP1 PUSH2 0x5178 JUMP JUMPDEST DUP1 PUSH1 0x1F ADD PUSH1 0x20 DUP1 SWAP2 DIV MUL PUSH1 0x20 ADD PUSH1 0x40 MLOAD SWAP1 DUP2 ADD PUSH1 0x40 MSTORE DUP1 SWAP3 SWAP2 SWAP1 DUP2 DUP2 MSTORE PUSH1 0x20 ADD DUP3 DUP1 SLOAD PUSH2 0x13BE SWAP1 PUSH2 0x5178 JUMP JUMPDEST DUP1 ISZERO PUSH2 0x1409 JUMPI DUP1 PUSH1 0x1F LT PUSH2 0x13E0 JUMPI PUSH2 0x100 DUP1 DUP4 SLOAD DIV MUL DUP4 MSTORE SWAP2 PUSH1 0x20 ADD SWAP2 PUSH2 0x1409 JUMP JUMPDEST DUP3 ADD SWAP2 SWAP1 PUSH0 MSTORE PUSH1 0x20 PUSH0 KECCAK256 SWAP1 JUMPDEST DUP2 SLOAD DUP2 MSTORE SWAP1 PUSH1 0x1 ADD SWAP1 PUSH1 0x20 ADD DUP1 DUP4 GT PUSH2 0x13EC JUMPI DUP3 SWAP1 SUB PUSH1 0x1F AND DUP3 ADD SWAP2 JUMPDEST POP POP POP POP POP DUP2 MSTORE PUSH1 0x20 ADD SWAP1 PUSH1 0x1 ADD SWAP1 PUSH2 0x1375 JUMP JUMPDEST POP POP POP POP DUP2 MSTORE PUSH1 0x20 ADD PUSH1 0x6 DUP3 ADD SLOAD DUP2 MSTORE PUSH1 0x20 ADD PUSH1 0x7 DUP3 ADD DUP1 SLOAD PUSH2 0x143F SWAP1 PUSH2 0x5178 JUMP JUMPDEST DUP1 PUSH1 0x1F ADD PUSH1 0x20 DUP1 SWAP2 DIV MUL PUSH1 0x20 ADD PUSH1 0x40 MLOAD SWAP1 DUP2 ADD PUSH1 0x40 MSTORE DUP1 SWAP3 SWAP2 SWAP1 DUP2 DUP2 MSTORE PUSH1 0x20 ADD DUP3 DUP1 SLOAD PUSH2 0x146B SWAP1 PUSH2 0x5178 JUMP JUMPDEST DUP1 ISZERO PUSH2 0x14B6 JUMPI DUP1 PUSH1 0x1F LT PUSH2 0x148D JUMPI PUSH2 0x100 DUP1 DUP4 SLOAD DIV MUL DUP4 MSTORE SWAP2 PUSH1 0x20 ADD SWAP2 PUSH2 0x14B6 JUMP JUMPDEST DUP3 ADD SWAP2 SWAP1 PUSH0 MSTORE PUSH1 0x20 PUSH0 KECCAK256 SWAP1 JUMPDEST DUP2 SLOAD DUP2 MSTORE SWAP1 PUSH1 0x1 ADD SWAP1 PUSH1 0x20 ADD DUP1 DUP4 GT PUSH2 0x1499 JUMPI DUP3 SWAP1 SUB PUSH1 0x1F AND DUP3 ADD SWAP2 JUMPDEST POP POP POP POP POP DUP2 MSTORE POP POP DUP3 DUP3 PUSH4 0xFFFFFFFF AND DUP2 MLOAD DUP2 LT PUSH2 0x14D7 JUMPI PUSH2 0x14D7 PUSH2 0x5302 JUMP JUMPDEST PUSH1 0x20 MUL PUSH1 0x20 ADD ADD DUP2 SWAP1 MSTORE POP PUSH0 PUSH1 0x11 PUSH0 DUP10 DUP5 PUSH4 0xFFFFFFFF AND DUP2 MLOAD DUP2 LT PUSH2 0x14FE JUMPI PUSH2 0x14FE PUSH2 0x5302 JUMP JUMPDEST PUSH1 0x20 MUL PUSH1 0x20 ADD ADD MLOAD DUP2 MSTORE PUSH1 0x20 ADD SWAP1 DUP2 MSTORE PUSH1 0x20 ADD PUSH0 KECCAK256 PUSH1 0x1 PUSH1 0x11 PUSH0 DUP12 DUP7 PUSH4 0xFFFFFFFF AND DUP2 MLOAD DUP2 LT PUSH2 0x1530 JUMPI PUSH2 0x1530 PUSH2 0x5302 JUMP JUMPDEST PUSH1 0x20 MUL PUSH1 0x20 ADD ADD MLOAD DUP2 MSTORE PUSH1 0x20 ADD SWAP1 DUP2 MSTORE PUSH1 0x20 ADD PUSH0 KECCAK256 DUP1 SLOAD SWAP1 POP PUSH2 0x1553 SWAP2 SWAP1 PUSH2 0x512E JUMP JUMPDEST DUP2 SLOAD DUP2 LT PUSH2 0x1563 JUMPI PUSH2 0x1563 PUSH2 0x5302 JUMP JUMPDEST PUSH0 SWAP2 DUP3 MSTORE PUSH1 0x20 DUP1 DUP4 KECCAK256 PUSH1 0x40 DUP1 MLOAD PUSH1 0x60 DUP2 ADD DUP3 MSTORE PUSH1 0x3 SWAP1 SWAP5 MUL SWAP1 SWAP2 ADD DUP1 SLOAD DUP1 DUP6 MSTORE PUSH1 0x1 DUP3 ADD SLOAD SWAP4 DUP6 ADD SWAP4 SWAP1 SWAP4 MSTORE PUSH1 0x2 ADD SLOAD SWAP1 DUP4 ADD MSTORE SWAP1 SWAP3 POP DUP7 LT DUP1 ISZERO SWAP1 PUSH2 0x15AD JUMPI POP DUP2 PUSH1 0x20 ADD MLOAD DUP7 GT ISZERO JUMPDEST PUSH2 0x15B7 JUMPI PUSH0 PUSH2 0x15BA JUMP JUMPDEST PUSH1 0x1 JUMPDEST SWAP1 POP DUP1 DUP6 DUP5 PUSH4 0xFFFFFFFF AND DUP2 MLOAD DUP2 LT PUSH2 0x15D5 JUMPI PUSH2 0x15D5 PUSH2 0x5302 JUMP JUMPDEST SWAP2 ISZERO ISZERO PUSH1 0x20 SWAP3 DUP4 MUL SWAP2 SWAP1 SWAP2 ADD SWAP1 SWAP2 ADD MSTORE POP DUP2 SWAP1 POP PUSH2 0x15F2 DUP2 PUSH2 0x5316 JUMP JUMPDEST SWAP2 POP POP PUSH2 0x117C JUMP JUMPDEST POP SWAP6 SWAP1 SWAP5 POP SWAP3 POP POP POP JUMP JUMPDEST PUSH0 DUP6 DUP2 MSTORE PUSH1 0xE PUSH1 0x20 MSTORE PUSH1 0x40 SWAP1 KECCAK256 PUSH1 0x1 ADD SLOAD DUP6 SWAP1 PUSH1 0x1 PUSH1 0x1 PUSH1 0xA0 SHL SUB AND CALLER EQ PUSH2 0x163F JUMPI PUSH1 0x40 MLOAD PUSH3 0x461BCD PUSH1 0xE5 SHL DUP2 MSTORE PUSH1 0x4 ADD PUSH2 0xB09 SWAP1 PUSH2 0x5141 JUMP JUMPDEST PUSH0 DUP7 DUP2 MSTORE PUSH1 0xE PUSH1 0x20 SWAP1 DUP2 MSTORE PUSH1 0x40 DUP1 DUP4 KECCAK256 DUP2 MLOAD PUSH2 0x100 DUP2 ADD DUP4 MSTORE DUP2 SLOAD DUP2 MSTORE PUSH1 0x1 DUP3 ADD SLOAD PUSH1 0x1 PUSH1 0x1 PUSH1 0xA0 SHL SUB AND SWAP4 DUP2 ADD SWAP4 SWAP1 SWAP4 MSTORE PUSH1 0x2 DUP2 ADD DUP1 SLOAD SWAP2 SWAP3 DUP5 ADD SWAP2 PUSH2 0x1685 SWAP1 PUSH2 0x5178 JUMP JUMPDEST DUP1 PUSH1 0x1F ADD PUSH1 0x20 DUP1 SWAP2 DIV MUL PUSH1 0x20 ADD PUSH1 0x40 MLOAD SWAP1 DUP2 ADD PUSH1 0x40 MSTORE DUP1 SWAP3 SWAP2 SWAP1 DUP2 DUP2 MSTORE PUSH1 0x20 ADD DUP3 DUP1 SLOAD PUSH2 0x16B1 SWAP1 PUSH2 0x5178 JUMP JUMPDEST DUP1 ISZERO PUSH2 0x16FC JUMPI DUP1 PUSH1 0x1F LT PUSH2 0x16D3 JUMPI PUSH2 0x100 DUP1 DUP4 SLOAD DIV MUL DUP4 MSTORE SWAP2 PUSH1 0x20 ADD SWAP2 PUSH2 0x16FC JUMP JUMPDEST DUP3 ADD SWAP2 SWAP1 PUSH0 MSTORE PUSH1 0x20 PUSH0 KECCAK256 SWAP1 JUMPDEST DUP2 SLOAD DUP2 MSTORE SWAP1 PUSH1 0x1 ADD SWAP1 PUSH1 0x20 ADD DUP1 DUP4 GT PUSH2 0x16DF JUMPI DUP3 SWAP1 SUB PUSH1 0x1F AND DUP3 ADD SWAP2 JUMPDEST POP POP POP POP POP DUP2 MSTORE PUSH1 0x20 ADD PUSH1 0x3 DUP3 ADD DUP1 SLOAD PUSH2 0x1715 SWAP1 PUSH2 0x5178 JUMP JUMPDEST DUP1 PUSH1 0x1F ADD PUSH1 0x20 DUP1 SWAP2 DIV MUL PUSH1 0x20 ADD PUSH1 0x40 MLOAD SWAP1 DUP2 ADD PUSH1 0x40 MSTORE DUP1 SWAP3 SWAP2 SWAP1 DUP2 DUP2 MSTORE PUSH1 0x20 ADD DUP3 DUP1 SLOAD PUSH2 0x1741 SWAP1 PUSH2 0x5178 JUMP JUMPDEST DUP1 ISZERO PUSH2 0x178C JUMPI DUP1 PUSH1 0x1F LT PUSH2 0x1763 JUMPI PUSH2 0x100 DUP1 DUP4 SLOAD DIV MUL DUP4 MSTORE SWAP2 PUSH1 0x20 ADD SWAP2 PUSH2 0x178C JUMP JUMPDEST DUP3 ADD SWAP2 SWAP1 PUSH0 MSTORE PUSH1 0x20 PUSH0 KECCAK256 SWAP1 JUMPDEST DUP2 SLOAD DUP2 MSTORE SWAP1 PUSH1 0x1 ADD SWAP1 PUSH1 0x20 ADD DUP1 DUP4 GT PUSH2 0x176F JUMPI DUP3 SWAP1 SUB PUSH1 0x1F AND DUP3 ADD SWAP2 JUMPDEST POP POP POP SWAP2 DUP4 MSTORE POP POP PUSH1 0x4 DUP3 ADD SLOAD PUSH1 0x20 SWAP1 SWAP2 ADD SWAP1 PUSH1 0xFF AND PUSH1 0x3 DUP2 GT ISZERO PUSH2 0x17B3 JUMPI PUSH2 0x17B3 PUSH2 0x482B JUMP JUMPDEST PUSH1 0x3 DUP2 GT ISZERO PUSH2 0x17C4 JUMPI PUSH2 0x17C4 PUSH2 0x482B JUMP JUMPDEST DUP2 MSTORE PUSH1 0x20 ADD PUSH1 0x5 DUP3 ADD DUP1 SLOAD DUP1 PUSH1 0x20 MUL PUSH1 0x20 ADD PUSH1 0x40 MLOAD SWAP1 DUP2 ADD PUSH1 0x40 MSTORE DUP1 SWAP3 SWAP2 SWAP1 DUP2 DUP2 MSTORE PUSH1 0x20 ADD PUSH0 SWAP1 JUMPDEST DUP3 DUP3 LT ISZERO PUSH2 0x1894 JUMPI DUP4 DUP3 SWAP1 PUSH0 MSTORE PUSH1 0x20 PUSH0 KECCAK256 ADD DUP1 SLOAD PUSH2 0x1809 SWAP1 PUSH2 0x5178 JUMP JUMPDEST DUP1 PUSH1 0x1F ADD PUSH1 0x20 DUP1 SWAP2 DIV MUL PUSH1 0x20 ADD PUSH1 0x40 MLOAD SWAP1 DUP2 ADD PUSH1 0x40 MSTORE DUP1 SWAP3 SWAP2 SWAP1 DUP2 DUP2 MSTORE PUSH1 0x20 ADD DUP3 DUP1 SLOAD PUSH2 0x1835 SWAP1 PUSH2 0x5178 JUMP JUMPDEST DUP1 ISZERO PUSH2 0x1880 JUMPI DUP1 PUSH1 0x1F LT PUSH2 0x1857 JUMPI PUSH2 0x100 DUP1 DUP4 SLOAD DIV MUL DUP4 MSTORE SWAP2 PUSH1 0x20 ADD SWAP2 PUSH2 0x1880 JUMP JUMPDEST DUP3 ADD SWAP2 SWAP1 PUSH0 MSTORE PUSH1 0x20 PUSH0 KECCAK256 SWAP1 JUMPDEST DUP2 SLOAD DUP2 MSTORE SWAP1 PUSH1 0x1 ADD SWAP1 PUSH1 0x20 ADD DUP1 DUP4 GT PUSH2 0x1863 JUMPI DUP3 SWAP1 SUB PUSH1 0x1F AND DUP3 ADD SWAP2 JUMPDEST POP POP POP POP POP DUP2 MSTORE PUSH1 0x20 ADD SWAP1 PUSH1 0x1 ADD SWAP1 PUSH2 0x17EC JUMP JUMPDEST POP POP POP POP DUP2 MSTORE PUSH1 0x20 ADD PUSH1 0x6 DUP3 ADD SLOAD DUP2 MSTORE PUSH1 0x20 ADD PUSH1 0x7 DUP3 ADD DUP1 SLOAD PUSH2 0x18B6 SWAP1 PUSH2 0x5178 JUMP JUMPDEST DUP1 PUSH1 0x1F ADD PUSH1 0x20 DUP1 SWAP2 DIV MUL PUSH1 0x20 ADD PUSH1 0x40 MLOAD SWAP1 DUP2 ADD PUSH1 0x40 MSTORE DUP1 SWAP3 SWAP2 SWAP1 DUP2 DUP2 MSTORE PUSH1 0x20 ADD DUP3 DUP1 SLOAD PUSH2 0x18E2 SWAP1 PUSH2 0x5178 JUMP JUMPDEST DUP1 ISZERO PUSH2 0x192D JUMPI DUP1 PUSH1 0x1F LT PUSH2 0x1904 JUMPI PUSH2 0x100 DUP1 DUP4 SLOAD DIV MUL DUP4 MSTORE SWAP2 PUSH1 0x20 ADD SWAP2 PUSH2 0x192D JUMP JUMPDEST DUP3 ADD SWAP2 SWAP1 PUSH0 MSTORE PUSH1 0x20 PUSH0 KECCAK256 SWAP1 JUMPDEST DUP2 SLOAD DUP2 MSTORE SWAP1 PUSH1 0x1 ADD SWAP1 PUSH1 0x20 ADD DUP1 DUP4 GT PUSH2 0x1910 JUMPI DUP3 SWAP1 SUB PUSH1 0x1F AND DUP3 ADD SWAP2 JUMPDEST POP POP POP POP POP DUP2 MSTORE POP POP SWAP1 POP PUSH0 DUP7 MLOAD GT ISZERO PUSH2 0x1949 JUMPI PUSH1 0x60 DUP2 ADD DUP7 SWAP1 MSTORE JUMPDEST DUP5 MLOAD ISZERO PUSH2 0x1958 JUMPI PUSH1 0x40 DUP2 ADD DUP6 SWAP1 MSTORE JUMPDEST DUP4 MLOAD ISZERO PUSH2 0x1967 JUMPI PUSH1 0xA0 DUP2 ADD DUP5 SWAP1 MSTORE JUMPDEST DUP3 MLOAD ISZERO PUSH2 0x1976 JUMPI PUSH1 0xE0 DUP2 ADD DUP4 SWAP1 MSTORE JUMPDEST PUSH2 0x1981 DUP8 PUSH1 0x3 PUSH2 0x3C7E JUMP JUMPDEST PUSH0 PUSH1 0x80 DUP3 ADD DUP2 SWAP1 MSTORE POP PUSH0 DUP8 DUP2 MSTORE PUSH1 0xE PUSH1 0x20 SWAP1 DUP2 MSTORE PUSH1 0x40 SWAP2 DUP3 SWAP1 KECCAK256 DUP4 MLOAD DUP2 SSTORE SWAP1 DUP4 ADD MLOAD PUSH1 0x1 DUP3 ADD DUP1 SLOAD PUSH1 0x1 PUSH1 0x1 PUSH1 0xA0 SHL SUB NOT AND PUSH1 0x1 PUSH1 0x1 PUSH1 0xA0 SHL SUB SWAP1 SWAP3 AND SWAP2 SWAP1 SWAP2 OR SWAP1 SSTORE SWAP1 DUP3 ADD MLOAD DUP3 SWAP2 SWAP1 PUSH1 0x2 DUP3 ADD SWAP1 PUSH2 0x19DA SWAP1 DUP3 PUSH2 0x51FB JUMP JUMPDEST POP PUSH1 0x60 DUP3 ADD MLOAD PUSH1 0x3 DUP3 ADD SWAP1 PUSH2 0x19EF SWAP1 DUP3 PUSH2 0x51FB JUMP JUMPDEST POP PUSH1 0x80 DUP3 ADD MLOAD PUSH1 0x4 DUP3 ADD DUP1 SLOAD PUSH1 0xFF NOT AND PUSH1 0x1 DUP4 PUSH1 0x3 DUP2 GT ISZERO PUSH2 0x1A13 JUMPI PUSH2 0x1A13 PUSH2 0x482B JUMP JUMPDEST MUL OR SWAP1 SSTORE POP PUSH1 0xA0 DUP3 ADD MLOAD DUP1 MLOAD PUSH2 0x1A33 SWAP2 PUSH1 0x5 DUP5 ADD SWAP2 PUSH1 0x20 SWAP1 SWAP2 ADD SWAP1 PUSH2 0x4505 JUMP JUMPDEST POP PUSH1 0xC0 DUP3 ADD MLOAD PUSH1 0x6 DUP3 ADD SSTORE PUSH1 0xE0 DUP3 ADD MLOAD PUSH1 0x7 DUP3 ADD SWAP1 PUSH2 0x1A52 SWAP1 DUP3 PUSH2 0x51FB JUMP JUMPDEST POP POP PUSH1 0x40 MLOAD DUP9 DUP2 MSTORE PUSH32 0x4C3328B5751ED5C5C54C04C7201F62588C44945A7913E7DEE922611EFC7BAFB4 SWAP2 POP PUSH1 0x20 ADD PUSH1 0x40 MLOAD DUP1 SWAP2 SUB SWAP1 LOG1 POP POP POP POP POP POP POP JUMP JUMPDEST PUSH1 0x9 SLOAD PUSH1 0x1 PUSH1 0x1 PUSH1 0xA0 SHL SUB AND CALLER EQ PUSH2 0x1ABB JUMPI PUSH1 0x40 MLOAD PUSH3 0x461BCD PUSH1 0xE5 SHL DUP2 MSTORE PUSH1 0x4 ADD PUSH2 0xB09 SWAP1 PUSH2 0x52D4 JUMP JUMPDEST PUSH1 0xC PUSH0 JUMPDEST DUP3 MLOAD DUP2 PUSH4 0xFFFFFFFF AND LT ISZERO PUSH2 0x1CC7 JUMPI PUSH0 DUP4 DUP3 PUSH4 0xFFFFFFFF AND DUP2 MLOAD DUP2 LT PUSH2 0x1AE7 JUMPI PUSH2 0x1AE7 PUSH2 0x5302 JUMP JUMPDEST PUSH1 0x20 MUL PUSH1 0x20 ADD ADD MLOAD SWAP1 POP PUSH0 PUSH1 0x1 PUSH1 0x1 PUSH1 0xA0 SHL SUB AND DUP2 PUSH1 0x1 PUSH1 0x1 PUSH1 0xA0 SHL SUB AND SUB PUSH2 0x1B10 JUMPI POP PUSH2 0x1CB5 JUMP JUMPDEST PUSH2 0x1B27 PUSH0 MLOAD PUSH1 0x20 PUSH2 0x5533 PUSH0 CODECOPY PUSH0 MLOAD SWAP1 PUSH0 MSTORE DUP3 PUSH2 0x3011 JUMP JUMPDEST ISZERO PUSH2 0x1B43 JUMPI PUSH2 0x1B43 PUSH0 MLOAD PUSH1 0x20 PUSH2 0x5533 PUSH0 CODECOPY PUSH0 MLOAD SWAP1 PUSH0 MSTORE DUP3 PUSH2 0x33C7 JUMP JUMPDEST DUP3 SLOAD DUP4 SWAP1 PUSH2 0x1B53 SWAP1 PUSH1 0x1 SWAP1 PUSH2 0x512E JUMP JUMPDEST DUP2 SLOAD DUP2 LT PUSH2 0x1B63 JUMPI PUSH2 0x1B63 PUSH2 0x5302 JUMP JUMPDEST PUSH0 SWAP2 DUP3 MSTORE PUSH1 0x20 DUP1 DUP4 KECCAK256 SWAP1 SWAP2 ADD SLOAD PUSH1 0x1 PUSH1 0x1 PUSH1 0xA0 SHL SUB DUP5 DUP2 AND DUP5 MSTORE PUSH1 0x17 SWAP1 SWAP3 MSTORE PUSH1 0x40 SWAP1 SWAP3 KECCAK256 SLOAD DUP6 SLOAD SWAP2 SWAP1 SWAP3 AND SWAP2 DUP6 SWAP2 DUP2 LT PUSH2 0x1B9F JUMPI PUSH2 0x1B9F PUSH2 0x5302 JUMP JUMPDEST PUSH0 SWAP2 DUP3 MSTORE PUSH1 0x20 DUP1 DUP4 KECCAK256 SWAP2 SWAP1 SWAP2 ADD DUP1 SLOAD PUSH1 0x1 PUSH1 0x1 PUSH1 0xA0 SHL SUB NOT AND PUSH1 0x1 PUSH1 0x1 PUSH1 0xA0 SHL SUB SWAP5 DUP6 AND OR SWAP1 SSTORE SWAP2 DUP4 AND DUP2 MSTORE PUSH1 0x17 SWAP2 DUP3 SWAP1 MSTORE PUSH1 0x40 DUP2 KECCAK256 SLOAD DUP6 SLOAD SWAP1 SWAP3 SWAP2 SWAP1 DUP7 SWAP1 PUSH2 0x1BEA SWAP1 PUSH1 0x1 SWAP1 PUSH2 0x512E JUMP JUMPDEST DUP2 SLOAD DUP2 LT PUSH2 0x1BFA JUMPI PUSH2 0x1BFA PUSH2 0x5302 JUMP JUMPDEST PUSH0 SWAP2 DUP3 MSTORE PUSH1 0x20 DUP1 DUP4 KECCAK256 SWAP1 SWAP2 ADD SLOAD PUSH1 0x1 PUSH1 0x1 PUSH1 0xA0 SHL SUB AND DUP4 MSTORE DUP3 ADD SWAP3 SWAP1 SWAP3 MSTORE PUSH1 0x40 ADD SWAP1 KECCAK256 SSTORE DUP3 SLOAD DUP4 SWAP1 DUP1 PUSH2 0x1C2F JUMPI PUSH2 0x1C2F PUSH2 0x533A JUMP JUMPDEST PUSH0 DUP3 DUP2 MSTORE PUSH1 0x20 SWAP1 KECCAK256 DUP2 ADD PUSH0 NOT SWAP1 DUP2 ADD DUP1 SLOAD PUSH1 0x1 PUSH1 0x1 PUSH1 0xA0 SHL SUB NOT AND SWAP1 SSTORE ADD SWAP1 SSTORE PUSH1 0xA SLOAD PUSH1 0x9 SLOAD PUSH1 0x40 MLOAD PUSH4 0x8B0D4377 PUSH1 0xE0 SHL DUP2 MSTORE PUSH1 0x1 PUSH1 0x1 PUSH1 0xA0 SHL SUB SWAP3 DUP4 AND SWAP3 PUSH4 0x8B0D4377 SWAP3 PUSH2 0x1C86 SWAP3 DUP7 SWAP3 ADDRESS SWAP3 AND SWAP1 PUSH1 0x4 ADD PUSH2 0x534E JUMP JUMPDEST PUSH0 PUSH1 0x40 MLOAD DUP1 DUP4 SUB DUP2 PUSH0 DUP8 DUP1 EXTCODESIZE ISZERO DUP1 ISZERO PUSH2 0x1C9D JUMPI PUSH0 PUSH0 REVERT JUMPDEST POP GAS CALL ISZERO DUP1 ISZERO PUSH2 0x1CAF JUMPI RETURNDATASIZE PUSH0 PUSH0 RETURNDATACOPY RETURNDATASIZE PUSH0 REVERT JUMPDEST POP POP POP POP POP JUMPDEST DUP1 PUSH2 0x1CBF DUP2 PUSH2 0x5316 JUMP JUMPDEST SWAP2 POP POP PUSH2 0x1ABF JUMP JUMPDEST POP PUSH32 0x1054368DB91A5E3F6E79E204DB81B66FBC0AC2CB6B00CDC8DB8208947B772D0E DUP3 PUSH1 0x40 MLOAD PUSH2 0x10CB SWAP2 SWAP1 PUSH2 0x4CAB JUMP JUMPDEST PUSH1 0x9 SLOAD DUP2 SWAP1 PUSH1 0x1 PUSH1 0x1 PUSH1 0xA0 SHL SUB AND CALLER EQ DUP1 PUSH2 0x1D24 JUMPI POP PUSH2 0x1D24 PUSH0 MLOAD PUSH1 0x20 PUSH2 0x5533 PUSH0 CODECOPY PUSH0 MLOAD SWAP1 PUSH0 MSTORE CALLER PUSH2 0x3011 JUMP JUMPDEST DUP1 PUSH2 0x1D47 JUMPI POP PUSH0 DUP2 DUP2 MSTORE PUSH1 0xE PUSH1 0x20 MSTORE PUSH1 0x40 SWAP1 KECCAK256 PUSH1 0x1 ADD SLOAD PUSH1 0x1 PUSH1 0x1 PUSH1 0xA0 SHL SUB AND CALLER EQ JUMPDEST PUSH2 0x1D63 JUMPI PUSH1 0x40 MLOAD PUSH3 0x461BCD PUSH1 0xE5 SHL DUP2 MSTORE PUSH1 0x4 ADD PUSH2 0xB09 SWAP1 PUSH2 0x5371 JUMP JUMPDEST PUSH1 0x3 PUSH0 DUP4 DUP2 MSTORE PUSH1 0xE PUSH1 0x20 MSTORE PUSH1 0x40 SWAP1 KECCAK256 PUSH1 0x4 ADD SLOAD PUSH1 0xFF AND PUSH1 0x3 DUP2 GT ISZERO PUSH2 0x1D8A JUMPI PUSH2 0x1D8A PUSH2 0x482B JUMP JUMPDEST SUB PUSH2 0x1DCD JUMPI PUSH1 0x40 MLOAD PUSH3 0x461BCD PUSH1 0xE5 SHL DUP2 MSTORE PUSH1 0x20 PUSH1 0x4 DUP3 ADD MSTORE PUSH1 0x13 PUSH1 0x24 DUP3 ADD MSTORE PUSH19 0x10591D88185B1C9958591E481CDD1BDC1C1959 PUSH1 0x6A SHL PUSH1 0x44 DUP3 ADD MSTORE PUSH1 0x64 ADD PUSH2 0xB09 JUMP JUMPDEST PUSH1 0x1 PUSH0 DUP4 DUP2 MSTORE PUSH1 0xE PUSH1 0x20 MSTORE PUSH1 0x40 SWAP1 KECCAK256 PUSH1 0x4 ADD SLOAD PUSH1 0xFF AND PUSH1 0x3 DUP2 GT ISZERO PUSH2 0x1DF4 JUMPI PUSH2 0x1DF4 PUSH2 0x482B JUMP JUMPDEST EQ PUSH2 0x1E32 JUMPI PUSH1 0x40 MLOAD PUSH3 0x461BCD PUSH1 0xE5 SHL DUP2 MSTORE PUSH1 0x20 PUSH1 0x4 DUP3 ADD MSTORE PUSH1 0xE PUSH1 0x24 DUP3 ADD MSTORE PUSH14 0x416476206E6F7420616374697665 PUSH1 0x90 SHL PUSH1 0x44 DUP3 ADD MSTORE PUSH1 0x64 ADD PUSH2 0xB09 JUMP JUMPDEST PUSH2 0x1E3D DUP3 PUSH1 0x3 PUSH2 0x3C7E JUMP JUMPDEST PUSH0 DUP3 DUP2 MSTORE PUSH1 0xE PUSH1 0x20 MSTORE PUSH1 0x40 SWAP1 KECCAK256 PUSH1 0x1 ADD SLOAD PUSH1 0x1 PUSH1 0x1 PUSH1 0xA0 SHL SUB AND CALLER SUB PUSH2 0x1E76 JUMPI PUSH0 DUP3 DUP2 MSTORE PUSH1 0x18 PUSH1 0x20 MSTORE PUSH1 0x40 SWAP1 KECCAK256 DUP1 SLOAD PUSH1 0xFF NOT AND PUSH1 0x1 OR SWAP1 SSTORE JUMPDEST PUSH32 0xECAF6ADE4487855E7D6DECB81824B00F87C4CA8BAA4DE5D2CBB1740BCFDCCBCC DUP3 CALLER PUSH1 0x40 MLOAD PUSH2 0x10CB SWAP3 SWAP2 SWAP1 PUSH2 0x53A8 JUMP JUMPDEST PUSH1 0x9 SLOAD PUSH1 0x1 PUSH1 0x1 PUSH1 0xA0 SHL SUB AND CALLER EQ PUSH2 0x1ED1 JUMPI PUSH1 0x40 MLOAD PUSH3 0x461BCD PUSH1 0xE5 SHL DUP2 MSTORE PUSH1 0x4 ADD PUSH2 0xB09 SWAP1 PUSH2 0x52D4 JUMP JUMPDEST PUSH1 0xB SLOAD ISZERO PUSH2 0x1F19 JUMPI PUSH1 0x40 MLOAD PUSH3 0x461BCD PUSH1 0xE5 SHL DUP2 MSTORE PUSH1 0x20 PUSH1 0x4 DUP3 ADD MSTORE PUSH1 0x15 PUSH1 0x24 DUP3 ADD MSTORE PUSH21 0x18D85B9B9BDD081D5C19185D19481CDA5D19555493 PUSH1 0x5A SHL PUSH1 0x44 DUP3 ADD MSTORE PUSH1 0x64 ADD PUSH2 0xB09 JUMP JUMPDEST DUP1 MLOAD PUSH0 SUB PUSH2 0x1F65 JUMPI PUSH1 0x40 MLOAD PUSH3 0x461BCD PUSH1 0xE5 SHL DUP2 MSTORE PUSH1 0x20 PUSH1 0x4 DUP3 ADD MSTORE PUSH1 0x19 PUSH1 0x24 DUP3 ADD MSTORE PUSH25 0x6E65775369746555524C2063616E277420626520656D707479 PUSH1 0x38 SHL PUSH1 0x44 DUP3 ADD MSTORE PUSH1 0x64 ADD PUSH2 0xB09 JUMP JUMPDEST PUSH1 0x2 PUSH2 0x1F71 DUP3 DUP3 PUSH2 0x51FB JUMP JUMPDEST POP POP JUMP JUMPDEST PUSH0 DUP3 DUP2 MSTORE PUSH1 0x1 PUSH1 0x20 DUP2 SWAP1 MSTORE PUSH1 0x40 SWAP1 SWAP2 KECCAK256 ADD SLOAD PUSH2 0x1F90 DUP2 PUSH2 0x3D00 JUMP JUMPDEST PUSH2 0x1F9A DUP4 DUP4 PUSH2 0x3D0A JUMP JUMPDEST POP POP POP POP JUMP JUMPDEST PUSH1 0x60 PUSH1 0xC DUP1 SLOAD DUP1 PUSH1 0x20 MUL PUSH1 0x20 ADD PUSH1 0x40 MLOAD SWAP1 DUP2 ADD PUSH1 0x40 MSTORE DUP1 SWAP3 SWAP2 SWAP1 DUP2 DUP2 MSTORE PUSH1 0x20 ADD DUP3 DUP1 SLOAD DUP1 ISZERO PUSH2 0x1FF6 JUMPI PUSH1 0x20 MUL DUP3 ADD SWAP2 SWAP1 PUSH0 MSTORE PUSH1 0x20 PUSH0 KECCAK256 SWAP1 JUMPDEST DUP2 SLOAD PUSH1 0x1 PUSH1 0x1 PUSH1 0xA0 SHL SUB AND DUP2 MSTORE PUSH1 0x1 SWAP1 SWAP2 ADD SWAP1 PUSH1 0x20 ADD DUP1 DUP4 GT PUSH2 0x1FD8 JUMPI JUMPDEST POP POP POP POP POP SWAP1 POP SWAP1 JUMP JUMPDEST PUSH1 0x1 PUSH1 0x1 PUSH1 0xA0 SHL SUB DUP2 AND CALLER EQ PUSH2 0x2029 JUMPI PUSH1 0x40 MLOAD PUSH4 0x334BD919 PUSH1 0xE1 SHL DUP2 MSTORE PUSH1 0x4 ADD PUSH1 0x40 MLOAD DUP1 SWAP2 SUB SWAP1 REVERT JUMPDEST PUSH2 0x2033 DUP3 DUP3 PUSH2 0x3D80 JUMP JUMPDEST POP POP POP JUMP JUMPDEST PUSH1 0x40 MLOAD PUSH12 0xFFFFFFFFFFFFFFFFFFFFFFFF NOT PUSH1 0x60 DUP5 SWAP1 SHL AND PUSH1 0x20 DUP3 ADD MSTORE PUSH1 0x34 DUP2 ADD DUP3 SWAP1 MSTORE PUSH0 SWAP1 PUSH1 0x54 ADD PUSH1 0x40 MLOAD PUSH1 0x20 DUP2 DUP4 SUB SUB DUP2 MSTORE SWAP1 PUSH1 0x40 MSTORE DUP1 MLOAD SWAP1 PUSH1 0x20 ADD KECCAK256 SWAP1 POP SWAP3 SWAP2 POP POP JUMP JUMPDEST PUSH1 0x60 PUSH1 0x8 DUP1 SLOAD DUP1 PUSH1 0x20 MUL PUSH1 0x20 ADD PUSH1 0x40 MLOAD SWAP1 DUP2 ADD PUSH1 0x40 MSTORE DUP1 SWAP3 SWAP2 SWAP1 DUP2 DUP2 MSTORE PUSH1 0x20 ADD DUP3 DUP1 SLOAD DUP1 ISZERO PUSH2 0x1FF6 JUMPI PUSH1 0x20 MUL DUP3 ADD SWAP2 SWAP1 PUSH0 MSTORE PUSH1 0x20 PUSH0 KECCAK256 SWAP1 JUMPDEST DUP2 SLOAD DUP2 MSTORE PUSH1 0x20 ADD SWAP1 PUSH1 0x1 ADD SWAP1 DUP1 DUP4 GT PUSH2 0x20B6 JUMPI POP POP POP POP POP SWAP1 POP SWAP1 JUMP JUMPDEST PUSH0 DUP4 DUP4 DUP4 PUSH1 0x40 MLOAD PUSH1 0x20 ADD PUSH2 0x20E9 SWAP4 SWAP3 SWAP2 SWAP1 PUSH2 0x53BF JUMP JUMPDEST PUSH1 0x40 MLOAD PUSH1 0x20 DUP2 DUP4 SUB SUB DUP2 MSTORE SWAP1 PUSH1 0x40 MSTORE DUP1 MLOAD SWAP1 PUSH1 0x20 ADD KECCAK256 SWAP1 POP SWAP4 SWAP3 POP POP POP JUMP JUMPDEST PUSH2 0x211F PUSH0 MLOAD PUSH1 0x20 PUSH2 0x5533 PUSH0 CODECOPY PUSH0 MLOAD SWAP1 PUSH0 MSTORE CALLER PUSH2 0x3011 JUMP JUMPDEST PUSH2 0x213B JUMPI PUSH1 0x40 MLOAD PUSH3 0x461BCD PUSH1 0xE5 SHL DUP2 MSTORE PUSH1 0x4 ADD PUSH2 0xB09 SWAP1 PUSH2 0x53F6 JUMP JUMPDEST PUSH2 0x2143 PUSH2 0x3DEB JUMP JUMPDEST PUSH1 0x2 PUSH0 DUP3 DUP2 MSTORE PUSH1 0xE PUSH1 0x20 MSTORE PUSH1 0x40 SWAP1 KECCAK256 PUSH1 0x4 ADD SLOAD PUSH1 0xFF AND PUSH1 0x3 DUP2 GT ISZERO PUSH2 0x216A JUMPI PUSH2 0x216A PUSH2 0x482B JUMP JUMPDEST SUB PUSH2 0x21AE JUMPI PUSH1 0x40 MLOAD PUSH3 0x461BCD PUSH1 0xE5 SHL DUP2 MSTORE PUSH1 0x20 PUSH1 0x4 DUP3 ADD MSTORE PUSH1 0x14 PUSH1 0x24 DUP3 ADD MSTORE PUSH20 0x10591D88185B1C9958591E481C995A9958DD1959 PUSH1 0x62 SHL PUSH1 0x44 DUP3 ADD MSTORE PUSH1 0x64 ADD PUSH2 0xB09 JUMP JUMPDEST PUSH1 0x1 PUSH0 DUP3 DUP2 MSTORE PUSH1 0xE PUSH1 0x20 MSTORE PUSH1 0x40 SWAP1 KECCAK256 PUSH1 0x4 ADD SLOAD PUSH1 0xFF AND PUSH1 0x3 DUP2 GT ISZERO PUSH2 0x21D5 JUMPI PUSH2 0x21D5 PUSH2 0x482B JUMP JUMPDEST SUB PUSH2 0x21F2 JUMPI PUSH1 0x40 MLOAD PUSH3 0x461BCD PUSH1 0xE5 SHL DUP2 MSTORE PUSH1 0x4 ADD PUSH2 0xB09 SWAP1 PUSH2 0x5425 JUMP JUMPDEST PUSH2 0x21FD DUP2 PUSH1 0x2 PUSH2 0x3C7E JUMP JUMPDEST PUSH0 DUP2 DUP2 MSTORE PUSH1 0xE PUSH1 0x20 MSTORE PUSH1 0x40 SWAP1 KECCAK256 SLOAD PUSH2 0x2216 SWAP1 DUP3 SWAP1 PUSH2 0x3E13 JUMP JUMPDEST PUSH32 0xE3BFA1C14ECB5E6774E2CC21B81FE1CC96CED1828BE3EC92EDE1E84BBF0B40A DUP2 CALLER PUSH1 0x40 MLOAD PUSH2 0x2247 SWAP3 SWAP2 SWAP1 PUSH2 0x53A8 JUMP JUMPDEST PUSH1 0x40 MLOAD DUP1 SWAP2 SUB SWAP1 LOG1 PUSH2 0x2258 PUSH1 0x1 PUSH0 SSTORE JUMP JUMPDEST POP JUMP JUMPDEST PUSH0 DUP3 DUP2 MSTORE PUSH1 0xE PUSH1 0x20 MSTORE PUSH1 0x40 SWAP1 KECCAK256 PUSH1 0x1 ADD SLOAD DUP3 SWAP1 PUSH1 0x1 PUSH1 0x1 PUSH1 0xA0 SHL SUB AND CALLER EQ PUSH2 0x2295 JUMPI PUSH1 0x40 MLOAD PUSH3 0x461BCD PUSH1 0xE5 SHL DUP2 MSTORE PUSH1 0x4 ADD PUSH2 0xB09 SWAP1 PUSH2 0x5141 JUMP JUMPDEST PUSH2 0x229D PUSH2 0x3DEB JUMP JUMPDEST PUSH0 DUP4 DUP2 MSTORE PUSH1 0xE PUSH1 0x20 SWAP1 DUP2 MSTORE PUSH1 0x40 DUP1 DUP4 KECCAK256 SLOAD DUP4 MSTORE PUSH1 0xD SWAP1 SWAP2 MSTORE SWAP1 KECCAK256 PUSH1 0x4 ADD SLOAD PUSH1 0xFF AND PUSH2 0x22DA JUMPI PUSH1 0x40 MLOAD PUSH3 0x461BCD PUSH1 0xE5 SHL DUP2 MSTORE PUSH1 0x4 ADD PUSH2 0xB09 SWAP1 PUSH2 0x5453 JUMP JUMPDEST PUSH0 PUSH2 0x2710 PUSH1 0x6 SLOAD DUP5 PUSH2 0x22EC SWAP2 SWAP1 PUSH2 0x5104 JUMP JUMPDEST PUSH2 0x22F6 SWAP2 SWAP1 PUSH2 0x52B5 JUMP JUMPDEST SWAP1 POP PUSH0 PUSH2 0x2303 DUP3 DUP6 PUSH2 0x512E JUMP JUMPDEST SWAP1 POP PUSH0 PUSH2 0x230F DUP7 PUSH2 0x97B JUMP JUMPDEST SWAP1 POP DUP2 PUSH1 0x12 PUSH0 DUP9 DUP2 MSTORE PUSH1 0x20 ADD SWAP1 DUP2 MSTORE PUSH1 0x20 ADD PUSH0 KECCAK256 PUSH0 DUP3 DUP3 SLOAD PUSH2 0x2331 SWAP2 SWAP1 PUSH2 0x511B JUMP JUMPDEST SWAP1 SWAP2 SSTORE POP POP PUSH0 DUP7 DUP2 MSTORE PUSH1 0x11 PUSH1 0x20 MSTORE PUSH1 0x40 SWAP1 KECCAK256 SLOAD PUSH1 0x1 LT DUP1 ISZERO PUSH2 0x2377 JUMPI POP PUSH1 0x1 PUSH0 DUP8 DUP2 MSTORE PUSH1 0xE PUSH1 0x20 MSTORE PUSH1 0x40 SWAP1 KECCAK256 PUSH1 0x4 ADD SLOAD PUSH1 0xFF AND PUSH1 0x3 DUP2 GT ISZERO PUSH2 0x2375 JUMPI PUSH2 0x2375 PUSH2 0x482B JUMP JUMPDEST EQ JUMPDEST ISZERO PUSH2 0x239A JUMPI DUP1 ISZERO PUSH2 0x2391 JUMPI PUSH2 0x238C DUP7 PUSH0 PUSH2 0x3F21 JUMP JUMPDEST PUSH2 0x239A JUMP JUMPDEST PUSH2 0x239A DUP7 PUSH2 0x3FE2 JUMP JUMPDEST PUSH2 0x23A5 CALLER ADDRESS DUP5 PUSH2 0x407D JUMP JUMPDEST PUSH1 0x7 SLOAD PUSH2 0x23BD SWAP1 CALLER SWAP1 PUSH1 0x1 PUSH1 0x1 PUSH1 0xA0 SHL SUB AND DUP6 PUSH2 0x407D JUMP JUMPDEST PUSH1 0x40 DUP1 MLOAD DUP8 DUP2 MSTORE PUSH1 0x20 DUP2 ADD DUP5 SWAP1 MSTORE PUSH31 0xE10051D0BCA74C1E85EA3367C844A6C577082086CBDC936FF01991BE57CF7F SWAP2 ADD PUSH1 0x40 MLOAD DUP1 SWAP2 SUB SWAP1 LOG1 POP POP POP PUSH2 0x2033 PUSH1 0x1 PUSH0 SSTORE JUMP JUMPDEST PUSH1 0x3 DUP1 SLOAD PUSH2 0x240E SWAP1 PUSH2 0x5178 JUMP JUMPDEST DUP1 PUSH1 0x1F ADD PUSH1 0x20 DUP1 SWAP2 DIV MUL PUSH1 0x20 ADD PUSH1 0x40 MLOAD SWAP1 DUP2 ADD PUSH1 0x40 MSTORE DUP1 SWAP3 SWAP2 SWAP1 DUP2 DUP2 MSTORE PUSH1 0x20 ADD DUP3 DUP1 SLOAD PUSH2 0x243A SWAP1 PUSH2 0x5178 JUMP JUMPDEST DUP1 ISZERO PUSH2 0x2485 JUMPI DUP1 PUSH1 0x1F LT PUSH2 0x245C JUMPI PUSH2 0x100 DUP1 DUP4 SLOAD DIV MUL DUP4 MSTORE SWAP2 PUSH1 0x20 ADD SWAP2 PUSH2 0x2485 JUMP JUMPDEST DUP3 ADD SWAP2 SWAP1 PUSH0 MSTORE PUSH1 0x20 PUSH0 KECCAK256 SWAP1 JUMPDEST DUP2 SLOAD DUP2 MSTORE SWAP1 PUSH1 0x1 ADD SWAP1 PUSH1 0x20 ADD DUP1 DUP4 GT PUSH2 0x2468 JUMPI DUP3 SWAP1 SUB PUSH1 0x1F AND DUP3 ADD SWAP2 JUMPDEST POP POP POP POP POP DUP2 JUMP JUMPDEST PUSH1 0x9 SLOAD PUSH1 0x1 PUSH1 0x1 PUSH1 0xA0 SHL SUB AND CALLER EQ PUSH2 0x24B7 JUMPI PUSH1 0x40 MLOAD PUSH3 0x461BCD PUSH1 0xE5 SHL DUP2 MSTORE PUSH1 0x4 ADD PUSH2 0xB09 SWAP1 PUSH2 0x52D4 JUMP JUMPDEST PUSH2 0x24C0 DUP6 PUSH2 0x4095 JUMP JUMPDEST POP PUSH0 PUSH1 0xD PUSH0 DUP8 DUP2 MSTORE PUSH1 0x20 ADD SWAP1 DUP2 MSTORE PUSH1 0x20 ADD PUSH0 KECCAK256 PUSH1 0x40 MLOAD DUP1 PUSH1 0xA0 ADD PUSH1 0x40 MSTORE SWAP1 DUP2 PUSH0 DUP3 ADD SLOAD DUP2 MSTORE PUSH1 0x20 ADD PUSH1 0x1 DUP3 ADD DUP1 SLOAD PUSH2 0x24F7 SWAP1 PUSH2 0x5178 JUMP JUMPDEST DUP1 PUSH1 0x1F ADD PUSH1 0x20 DUP1 SWAP2 DIV MUL PUSH1 0x20 ADD PUSH1 0x40 MLOAD SWAP1 DUP2 ADD PUSH1 0x40 MSTORE DUP1 SWAP3 SWAP2 SWAP1 DUP2 DUP2 MSTORE PUSH1 0x20 ADD DUP3 DUP1 SLOAD PUSH2 0x2523 SWAP1 PUSH2 0x5178 JUMP JUMPDEST DUP1 ISZERO PUSH2 0x256E JUMPI DUP1 PUSH1 0x1F LT PUSH2 0x2545 JUMPI PUSH2 0x100 DUP1 DUP4 SLOAD DIV MUL DUP4 MSTORE SWAP2 PUSH1 0x20 ADD SWAP2 PUSH2 0x256E JUMP JUMPDEST DUP3 ADD SWAP2 SWAP1 PUSH0 MSTORE PUSH1 0x20 PUSH0 KECCAK256 SWAP1 JUMPDEST DUP2 SLOAD DUP2 MSTORE SWAP1 PUSH1 0x1 ADD SWAP1 PUSH1 0x20 ADD DUP1 DUP4 GT PUSH2 0x2551 JUMPI DUP3 SWAP1 SUB PUSH1 0x1F AND DUP3 ADD SWAP2 JUMPDEST POP POP POP POP POP DUP2 MSTORE PUSH1 0x20 ADD PUSH1 0x2 DUP3 ADD SLOAD DUP2 MSTORE PUSH1 0x20 ADD PUSH1 0x3 DUP3 ADD DUP1 SLOAD PUSH2 0x2591 SWAP1 PUSH2 0x5178 JUMP JUMPDEST DUP1 PUSH1 0x1F ADD PUSH1 0x20 DUP1 SWAP2 DIV MUL PUSH1 0x20 ADD PUSH1 0x40 MLOAD SWAP1 DUP2 ADD PUSH1 0x40 MSTORE DUP1 SWAP3 SWAP2 SWAP1 DUP2 DUP2 MSTORE PUSH1 0x20 ADD DUP3 DUP1 SLOAD PUSH2 0x25BD SWAP1 PUSH2 0x5178 JUMP JUMPDEST DUP1 ISZERO PUSH2 0x2608 JUMPI DUP1 PUSH1 0x1F LT PUSH2 0x25DF JUMPI PUSH2 0x100 DUP1 DUP4 SLOAD DIV MUL DUP4 MSTORE SWAP2 PUSH1 0x20 ADD SWAP2 PUSH2 0x2608 JUMP JUMPDEST DUP3 ADD SWAP2 SWAP1 PUSH0 MSTORE PUSH1 0x20 PUSH0 KECCAK256 SWAP1 JUMPDEST DUP2 SLOAD DUP2 MSTORE SWAP1 PUSH1 0x1 ADD SWAP1 PUSH1 0x20 ADD DUP1 DUP4 GT PUSH2 0x25EB JUMPI DUP3 SWAP1 SUB PUSH1 0x1F AND DUP3 ADD SWAP2 JUMPDEST POP POP POP SWAP2 DUP4 MSTORE POP POP PUSH1 0x4 SWAP2 SWAP1 SWAP2 ADD SLOAD PUSH1 0xFF AND ISZERO ISZERO PUSH1 0x20 SWAP1 SWAP2 ADD MSTORE DUP1 MLOAD SWAP1 SWAP2 POP DUP6 EQ PUSH2 0x2631 JUMPI DUP5 DUP2 MSTORE JUMPDEST DUP4 MLOAD ISZERO PUSH2 0x2640 JUMPI PUSH1 0x20 DUP2 ADD DUP5 SWAP1 MSTORE JUMPDEST DUP2 MLOAD ISZERO PUSH2 0x264F JUMPI PUSH1 0x60 DUP2 ADD DUP3 SWAP1 MSTORE JUMPDEST DUP1 PUSH1 0x40 ADD MLOAD DUP4 EQ PUSH2 0x2662 JUMPI PUSH1 0x40 DUP2 ADD DUP4 SWAP1 MSTORE JUMPDEST PUSH0 DUP7 DUP2 MSTORE PUSH1 0xD PUSH1 0x20 SWAP1 DUP2 MSTORE PUSH1 0x40 SWAP1 SWAP2 KECCAK256 DUP3 MLOAD DUP2 SSTORE SWAP1 DUP3 ADD MLOAD DUP3 SWAP2 SWAP1 PUSH1 0x1 DUP3 ADD SWAP1 PUSH2 0x268C SWAP1 DUP3 PUSH2 0x51FB JUMP JUMPDEST POP PUSH1 0x40 DUP3 ADD MLOAD PUSH1 0x2 DUP3 ADD SSTORE PUSH1 0x60 DUP3 ADD MLOAD PUSH1 0x3 DUP3 ADD SWAP1 PUSH2 0x26AB SWAP1 DUP3 PUSH2 0x51FB JUMP JUMPDEST POP PUSH1 0x80 SWAP2 SWAP1 SWAP2 ADD MLOAD PUSH1 0x4 SWAP1 SWAP2 ADD DUP1 SLOAD PUSH1 0xFF NOT AND SWAP2 ISZERO ISZERO SWAP2 SWAP1 SWAP2 OR SWAP1 SSTORE PUSH1 0x40 MLOAD DUP7 DUP2 MSTORE PUSH32 0x10ED3A92E657C72AD7D7FEB1B12DE9CB21FA5AEFCAF82FF5EE92627BE5819261 SWAP1 PUSH1 0x20 ADD PUSH2 0x1041 JUMP JUMPDEST PUSH1 0x1 PUSH1 0x1 PUSH1 0xA0 SHL SUB DUP2 AND PUSH0 SWAP1 DUP2 MSTORE PUSH1 0xF PUSH1 0x20 SWAP1 DUP2 MSTORE PUSH1 0x40 SWAP2 DUP3 SWAP1 KECCAK256 DUP1 SLOAD DUP4 MLOAD DUP2 DUP5 MUL DUP2 ADD DUP5 ADD SWAP1 SWAP5 MSTORE DUP1 DUP5 MSTORE PUSH1 0x60 SWAP4 SWAP3 DUP4 ADD DUP3 DUP3 DUP1 ISZERO PUSH2 0xAC3 JUMPI PUSH1 0x20 MUL DUP3 ADD SWAP2 SWAP1 PUSH0 MSTORE PUSH1 0x20 PUSH0 KECCAK256 SWAP1 DUP2 SLOAD DUP2 MSTORE PUSH1 0x20 ADD SWAP1 PUSH1 0x1 ADD SWAP1 DUP1 DUP4 GT PUSH2 0xAAF JUMPI POP POP POP POP POP SWAP1 POP SWAP2 SWAP1 POP JUMP JUMPDEST PUSH0 DUP2 DUP2 MSTORE PUSH1 0x11 PUSH1 0x20 MSTORE PUSH1 0x40 DUP2 KECCAK256 DUP1 SLOAD DUP3 SWAP2 SWAP1 PUSH2 0x277C SWAP1 PUSH1 0x1 SWAP1 PUSH2 0x512E JUMP JUMPDEST DUP2 SLOAD DUP2 LT PUSH2 0x278C JUMPI PUSH2 0x278C PUSH2 0x5302 JUMP JUMPDEST PUSH0 SWAP2 DUP3 MSTORE PUSH1 0x20 SWAP2 DUP3 SWAP1 KECCAK256 PUSH1 0x40 DUP1 MLOAD PUSH1 0x60 DUP2 ADD DUP3 MSTORE PUSH1 0x3 SWAP1 SWAP4 MUL SWAP1 SWAP2 ADD DUP1 SLOAD DUP1 DUP5 MSTORE PUSH1 0x1 DUP3 ADD SLOAD SWAP5 DUP5 ADD SWAP5 SWAP1 SWAP5 MSTORE PUSH1 0x2 ADD SLOAD SWAP1 DUP3 ADD MSTORE SWAP2 POP TIMESTAMP SWAP1 DUP2 LT DUP1 ISZERO SWAP1 PUSH2 0x27D8 JUMPI POP DUP2 PUSH1 0x20 ADD MLOAD DUP2 GT ISZERO JUMPDEST SWAP5 SWAP4 POP POP POP POP JUMP JUMPDEST PUSH1 0x9 SLOAD PUSH1 0x1 PUSH1 0x1 PUSH1 0xA0 SHL SUB AND CALLER EQ PUSH2 0x280A JUMPI PUSH1 0x40 MLOAD PUSH3 0x461BCD PUSH1 0xE5 SHL DUP2 MSTORE PUSH1 0x4 ADD PUSH2 0xB09 SWAP1 PUSH2 0x52D4 JUMP JUMPDEST PUSH2 0x2812 PUSH2 0x3DEB JUMP JUMPDEST PUSH2 0x281B DUP2 PUSH2 0x40DC JUMP JUMPDEST PUSH2 0x2258 PUSH1 0x1 PUSH0 SSTORE JUMP JUMPDEST PUSH2 0x282C PUSH2 0x3DEB JUMP JUMPDEST PUSH0 DUP8 DUP2 MSTORE PUSH1 0xD PUSH1 0x20 MSTORE PUSH1 0x40 SWAP1 KECCAK256 PUSH1 0x4 ADD SLOAD PUSH1 0xFF AND PUSH2 0x285C JUMPI PUSH1 0x40 MLOAD PUSH3 0x461BCD PUSH1 0xE5 SHL DUP2 MSTORE PUSH1 0x4 ADD PUSH2 0xB09 SWAP1 PUSH2 0x5453 JUMP JUMPDEST DUP6 MLOAD PUSH0 SUB PUSH2 0x289C JUMPI PUSH1 0x40 MLOAD PUSH3 0x461BCD PUSH1 0xE5 SHL DUP2 MSTORE PUSH1 0x20 PUSH1 0x4 DUP3 ADD MSTORE PUSH1 0xD PUSH1 0x24 DUP3 ADD MSTORE PUSH13 0x696E76616C6964207469746C65 PUSH1 0x98 SHL PUSH1 0x44 DUP3 ADD MSTORE PUSH1 0x64 ADD PUSH2 0xB09 JUMP JUMPDEST DUP5 MLOAD PUSH0 SUB PUSH2 0x28DB JUMPI PUSH1 0x40 MLOAD PUSH3 0x461BCD PUSH1 0xE5 SHL DUP2 MSTORE PUSH1 0x20 PUSH1 0x4 DUP3 ADD MSTORE PUSH1 0xC PUSH1 0x24 DUP3 ADD MSTORE PUSH12 0x1A5B9D985B1A59081D195E1D PUSH1 0xA2 SHL PUSH1 0x44 DUP3 ADD MSTORE PUSH1 0x64 ADD PUSH2 0xB09 JUMP JUMPDEST DUP3 PUSH0 SUB PUSH2 0x292A JUMPI PUSH1 0x40 MLOAD PUSH3 0x461BCD PUSH1 0xE5 SHL DUP2 MSTORE PUSH1 0x20 PUSH1 0x4 DUP3 ADD MSTORE PUSH1 0x1A PUSH1 0x24 DUP3 ADD MSTORE PUSH32 0x70617920726174652063616E6E6F74206265207A65726F283029000000000000 PUSH1 0x44 DUP3 ADD MSTORE PUSH1 0x64 ADD PUSH2 0xB09 JUMP JUMPDEST PUSH2 0x2933 DUP8 PUSH2 0x4095 JUMP JUMPDEST POP PUSH0 PUSH2 0x2940 CALLER DUP9 DUP11 PUSH2 0x20D3 JUMP JUMPDEST PUSH0 DUP2 DUP2 MSTORE PUSH1 0xE PUSH1 0x20 MSTORE PUSH1 0x40 SWAP1 KECCAK256 SLOAD SWAP1 SWAP2 POP ISZERO PUSH2 0x2972 JUMPI PUSH1 0x40 MLOAD PUSH4 0x1DF51E69 PUSH1 0xE1 SHL DUP2 MSTORE PUSH1 0x4 DUP2 ADD DUP3 SWAP1 MSTORE PUSH1 0x24 ADD PUSH2 0xB09 JUMP JUMPDEST PUSH1 0x40 DUP1 MLOAD PUSH2 0x100 DUP2 ADD DUP3 MSTORE DUP10 DUP2 MSTORE CALLER PUSH1 0x20 DUP1 DUP4 ADD SWAP2 DUP3 MSTORE DUP3 DUP5 ADD DUP12 DUP2 MSTORE PUSH1 0x60 DUP5 ADD DUP12 SWAP1 MSTORE PUSH0 PUSH1 0x80 DUP6 ADD DUP2 SWAP1 MSTORE PUSH1 0xA0 DUP6 ADD DUP12 SWAP1 MSTORE PUSH1 0xC0 DUP6 ADD DUP11 SWAP1 MSTORE PUSH1 0xE0 DUP6 ADD DUP9 SWAP1 MSTORE DUP7 DUP2 MSTORE PUSH1 0xE SWAP1 SWAP3 MSTORE SWAP4 SWAP1 KECCAK256 DUP3 MLOAD DUP2 SSTORE SWAP1 MLOAD PUSH1 0x1 DUP3 ADD DUP1 SLOAD PUSH1 0x1 PUSH1 0x1 PUSH1 0xA0 SHL SUB NOT AND PUSH1 0x1 PUSH1 0x1 PUSH1 0xA0 SHL SUB SWAP1 SWAP3 AND SWAP2 SWAP1 SWAP2 OR SWAP1 SSTORE SWAP2 MLOAD SWAP1 SWAP2 DUP3 SWAP2 PUSH1 0x2 DUP3 ADD SWAP1 PUSH2 0x29FA SWAP1 DUP3 PUSH2 0x51FB JUMP JUMPDEST POP PUSH1 0x60 DUP3 ADD MLOAD PUSH1 0x3 DUP3 ADD SWAP1 PUSH2 0x2A0F SWAP1 DUP3 PUSH2 0x51FB JUMP JUMPDEST POP PUSH1 0x80 DUP3 ADD MLOAD PUSH1 0x4 DUP3 ADD DUP1 SLOAD PUSH1 0xFF NOT AND PUSH1 0x1 DUP4 PUSH1 0x3 DUP2 GT ISZERO PUSH2 0x2A33 JUMPI PUSH2 0x2A33 PUSH2 0x482B JUMP JUMPDEST MUL OR SWAP1 SSTORE POP PUSH1 0xA0 DUP3 ADD MLOAD DUP1 MLOAD PUSH2 0x2A53 SWAP2 PUSH1 0x5 DUP5 ADD SWAP2 PUSH1 0x20 SWAP1 SWAP2 ADD SWAP1 PUSH2 0x4505 JUMP JUMPDEST POP PUSH1 0xC0 DUP3 ADD MLOAD PUSH1 0x6 DUP3 ADD SSTORE PUSH1 0xE0 DUP3 ADD MLOAD PUSH1 0x7 DUP3 ADD SWAP1 PUSH2 0x2A72 SWAP1 DUP3 PUSH2 0x51FB JUMP JUMPDEST POP POP CALLER PUSH0 SWAP1 DUP2 MSTORE PUSH1 0xF PUSH1 0x20 SWAP1 DUP2 MSTORE PUSH1 0x40 DUP1 DUP4 KECCAK256 DUP1 SLOAD PUSH1 0x1 DUP2 DUP2 ADD DUP4 SSTORE SWAP2 DUP6 MSTORE DUP4 DUP6 KECCAK256 ADD DUP8 SWAP1 SSTORE DUP14 DUP5 MSTORE PUSH1 0x10 DUP4 MSTORE SWAP1 DUP4 KECCAK256 DUP1 SLOAD DUP1 DUP4 ADD DUP3 SSTORE SWAP1 DUP5 MSTORE SWAP2 DUP4 KECCAK256 SWAP1 SWAP2 ADD DUP6 SWAP1 SSTORE PUSH1 0xB DUP1 SLOAD SWAP2 SWAP4 POP SWAP2 SWAP1 PUSH2 0x2AC9 SWAP1 DUP5 SWAP1 PUSH2 0x511B JUMP JUMPDEST SWAP1 SWAP2 SSTORE POP POP PUSH0 DUP3 DUP2 MSTORE PUSH1 0x11 PUSH1 0x20 SWAP1 DUP2 MSTORE PUSH1 0x40 DUP1 DUP4 KECCAK256 DUP2 MLOAD PUSH1 0x60 DUP2 ADD DUP4 MSTORE DUP5 DUP2 MSTORE DUP1 DUP5 ADD DUP6 DUP2 MSTORE SWAP3 DUP2 ADD DUP11 DUP2 MSTORE DUP3 SLOAD PUSH1 0x1 DUP2 DUP2 ADD DUP6 SSTORE SWAP4 DUP8 MSTORE SWAP5 DUP7 KECCAK256 SWAP2 MLOAD PUSH1 0x3 SWAP1 SWAP6 MUL SWAP1 SWAP2 ADD SWAP4 DUP5 SSTORE SWAP2 MLOAD SWAP1 DUP4 ADD SSTORE MLOAD PUSH1 0x2 SWAP1 SWAP2 ADD SSTORE PUSH1 0x6 SLOAD PUSH2 0x2710 SWAP1 PUSH2 0x2B2F SWAP1 DUP8 PUSH2 0x5104 JUMP JUMPDEST PUSH2 0x2B39 SWAP2 SWAP1 PUSH2 0x52B5 JUMP JUMPDEST SWAP1 POP PUSH0 PUSH2 0x2B46 DUP3 DUP8 PUSH2 0x512E JUMP JUMPDEST PUSH0 DUP6 DUP2 MSTORE PUSH1 0x12 PUSH1 0x20 MSTORE PUSH1 0x40 SWAP1 KECCAK256 DUP2 SWAP1 SSTORE SWAP1 POP PUSH2 0x2B63 CALLER ADDRESS DUP4 PUSH2 0x407D JUMP JUMPDEST PUSH1 0x7 SLOAD PUSH2 0x2B7B SWAP1 CALLER SWAP1 PUSH1 0x1 PUSH1 0x1 PUSH1 0xA0 SHL SUB AND DUP5 PUSH2 0x407D JUMP JUMPDEST PUSH1 0xA SLOAD PUSH1 0x9 SLOAD PUSH1 0x40 MLOAD PUSH4 0xF336AA35 PUSH1 0xE0 SHL DUP2 MSTORE PUSH1 0x1 PUSH1 0x1 PUSH1 0xA0 SHL SUB SWAP3 DUP4 AND SWAP3 PUSH4 0xF336AA35 SWAP3 PUSH2 0x2BB2 SWAP3 CALLER SWAP3 ADDRESS SWAP3 AND SWAP1 PUSH1 0x4 ADD PUSH2 0x534E JUMP JUMPDEST PUSH0 PUSH1 0x40 MLOAD DUP1 DUP4 SUB DUP2 PUSH0 DUP8 DUP1 EXTCODESIZE ISZERO DUP1 ISZERO PUSH2 0x2BC9 JUMPI PUSH0 PUSH0 REVERT JUMPDEST POP GAS CALL ISZERO DUP1 ISZERO PUSH2 0x2BDB JUMPI RETURNDATASIZE PUSH0 PUSH0 RETURNDATACOPY RETURNDATASIZE PUSH0 REVERT JUMPDEST POP POP PUSH1 0x40 DUP1 MLOAD DUP15 DUP2 MSTORE PUSH1 0x20 DUP2 ADD DUP9 SWAP1 MSTORE CALLER DUP2 DUP4 ADD MSTORE SWAP1 MLOAD PUSH32 0x924EA5A69AF098416D088A06226412DBB1D66AC40D8F2F6944C5A90E9395CEC5 SWAP4 POP SWAP1 DUP2 SWAP1 SUB PUSH1 0x60 ADD SWAP2 POP LOG1 POP POP POP POP PUSH2 0x2C2C PUSH1 0x1 PUSH0 SSTORE JUMP JUMPDEST POP POP POP POP POP POP POP JUMP JUMPDEST PUSH1 0x9 SLOAD PUSH1 0x1 PUSH1 0x1 PUSH1 0xA0 SHL SUB AND CALLER EQ PUSH2 0x2C5F JUMPI PUSH1 0x40 MLOAD PUSH3 0x461BCD PUSH1 0xE5 SHL DUP2 MSTORE PUSH1 0x4 ADD PUSH2 0xB09 SWAP1 PUSH2 0x52D4 JUMP JUMPDEST DUP3 MLOAD PUSH0 SUB PUSH2 0x2CA9 JUMPI PUSH1 0x40 MLOAD PUSH3 0x461BCD PUSH1 0xE5 SHL DUP2 MSTORE PUSH1 0x20 PUSH1 0x4 DUP3 ADD MSTORE PUSH1 0x17 PUSH1 0x24 DUP3 ADD MSTORE PUSH23 0x5F7061676555524C2063616E277420626520656D707479 PUSH1 0x48 SHL PUSH1 0x44 DUP3 ADD MSTORE PUSH1 0x64 ADD PUSH2 0xB09 JUMP JUMPDEST PUSH1 0x40 DUP1 MLOAD PUSH1 0xA0 DUP2 ADD DUP3 MSTORE DUP6 DUP2 MSTORE PUSH1 0x20 DUP2 ADD DUP6 SWAP1 MSTORE SWAP1 DUP2 ADD DUP4 SWAP1 MSTORE PUSH1 0x60 DUP2 ADD DUP3 SWAP1 MSTORE PUSH1 0x1 PUSH1 0x80 DUP3 ADD MSTORE PUSH1 0x5 DUP1 SLOAD SWAP1 PUSH0 PUSH2 0x2CE0 DUP4 PUSH2 0x547E JUMP JUMPDEST SWAP2 SWAP1 POP SSTORE POP PUSH0 PUSH2 0x2CF2 CALLER PUSH1 0x5 SLOAD PUSH2 0x2038 JUMP JUMPDEST PUSH0 DUP2 DUP2 MSTORE PUSH1 0xD PUSH1 0x20 SWAP1 DUP2 MSTORE PUSH1 0x40 SWAP1 SWAP2 KECCAK256 DUP5 MLOAD DUP2 SSTORE SWAP1 DUP5 ADD MLOAD SWAP2 SWAP3 POP DUP4 SWAP2 PUSH1 0x1 DUP3 ADD SWAP1 PUSH2 0x2D1E SWAP1 DUP3 PUSH2 0x51FB JUMP JUMPDEST POP PUSH1 0x40 DUP3 ADD MLOAD PUSH1 0x2 DUP3 ADD SSTORE PUSH1 0x60 DUP3 ADD MLOAD PUSH1 0x3 DUP3 ADD SWAP1 PUSH2 0x2D3D SWAP1 DUP3 PUSH2 0x51FB JUMP JUMPDEST POP PUSH1 0x80 SWAP2 SWAP1 SWAP2 ADD MLOAD PUSH1 0x4 SWAP1 SWAP2 ADD DUP1 SLOAD PUSH1 0xFF NOT AND SWAP2 ISZERO ISZERO SWAP2 SWAP1 SWAP2 OR SWAP1 SSTORE PUSH1 0x8 DUP1 SLOAD PUSH1 0x1 DUP2 ADD DUP3 SSTORE PUSH0 SWAP2 SWAP1 SWAP2 MSTORE PUSH32 0xF3F7A9FE364FAAB93B216DA50A3214154F22A0A2B415B23A84C8169E8B636EE3 ADD DUP2 SWAP1 SSTORE PUSH1 0x40 MLOAD PUSH32 0x27D6187E0524B246D259BAEE5EABDFF6F2BA872A277AC360FB0DDD617C046FED SWAP1 PUSH2 0x1041 SWAP1 DUP4 SWAP1 DUP10 SWAP1 DUP10 SWAP1 PUSH2 0x5496 JUMP JUMPDEST PUSH1 0x60 PUSH0 DUP3 MLOAD PUSH1 0x1 PUSH1 0x1 PUSH1 0x40 SHL SUB DUP2 GT ISZERO PUSH2 0x2DDD JUMPI PUSH2 0x2DDD PUSH2 0x4702 JUMP JUMPDEST PUSH1 0x40 MLOAD SWAP1 DUP1 DUP3 MSTORE DUP1 PUSH1 0x20 MUL PUSH1 0x20 ADD DUP3 ADD PUSH1 0x40 MSTORE DUP1 ISZERO PUSH2 0x2E3F JUMPI DUP2 PUSH1 0x20 ADD JUMPDEST PUSH2 0x2E2C PUSH1 0x40 MLOAD DUP1 PUSH1 0xA0 ADD PUSH1 0x40 MSTORE DUP1 PUSH0 DUP2 MSTORE PUSH1 0x20 ADD PUSH1 0x60 DUP2 MSTORE PUSH1 0x20 ADD PUSH0 DUP2 MSTORE PUSH1 0x20 ADD PUSH1 0x60 DUP2 MSTORE PUSH1 0x20 ADD PUSH0 ISZERO ISZERO DUP2 MSTORE POP SWAP1 JUMP JUMPDEST DUP2 MSTORE PUSH1 0x20 ADD SWAP1 PUSH1 0x1 SWAP1 SUB SWAP1 DUP2 PUSH2 0x2DFB JUMPI SWAP1 POP JUMPDEST POP SWAP1 POP PUSH0 JUMPDEST DUP4 MLOAD DUP2 PUSH4 0xFFFFFFFF AND LT ISZERO PUSH2 0x300A JUMPI PUSH1 0xD PUSH0 DUP6 DUP4 PUSH4 0xFFFFFFFF AND DUP2 MLOAD DUP2 LT PUSH2 0x2E6E JUMPI PUSH2 0x2E6E PUSH2 0x5302 JUMP JUMPDEST PUSH1 0x20 MUL PUSH1 0x20 ADD ADD MLOAD DUP2 MSTORE PUSH1 0x20 ADD SWAP1 DUP2 MSTORE PUSH1 0x20 ADD PUSH0 KECCAK256 PUSH1 0x40 MLOAD DUP1 PUSH1 0xA0 ADD PUSH1 0x40 MSTORE SWAP1 DUP2 PUSH0 DUP3 ADD SLOAD DUP2 MSTORE PUSH1 0x20 ADD PUSH1 0x1 DUP3 ADD DUP1 SLOAD PUSH2 0x2EA7 SWAP1 PUSH2 0x5178 JUMP JUMPDEST DUP1 PUSH1 0x1F ADD PUSH1 0x20 DUP1 SWAP2 DIV MUL PUSH1 0x20 ADD PUSH1 0x40 MLOAD SWAP1 DUP2 ADD PUSH1 0x40 MSTORE DUP1 SWAP3 SWAP2 SWAP1 DUP2 DUP2 MSTORE PUSH1 0x20 ADD DUP3 DUP1 SLOAD PUSH2 0x2ED3 SWAP1 PUSH2 0x5178 JUMP JUMPDEST DUP1 ISZERO PUSH2 0x2F1E JUMPI DUP1 PUSH1 0x1F LT PUSH2 0x2EF5 JUMPI PUSH2 0x100 DUP1 DUP4 SLOAD DIV MUL DUP4 MSTORE SWAP2 PUSH1 0x20 ADD SWAP2 PUSH2 0x2F1E JUMP JUMPDEST DUP3 ADD SWAP2 SWAP1 PUSH0 MSTORE PUSH1 0x20 PUSH0 KECCAK256 SWAP1 JUMPDEST DUP2 SLOAD DUP2 MSTORE SWAP1 PUSH1 0x1 ADD SWAP1 PUSH1 0x20 ADD DUP1 DUP4 GT PUSH2 0x2F01 JUMPI DUP3 SWAP1 SUB PUSH1 0x1F AND DUP3 ADD SWAP2 JUMPDEST POP POP POP POP POP DUP2 MSTORE PUSH1 0x20 ADD PUSH1 0x2 DUP3 ADD SLOAD DUP2 MSTORE PUSH1 0x20 ADD PUSH1 0x3 DUP3 ADD DUP1 SLOAD PUSH2 0x2F41 SWAP1 PUSH2 0x5178 JUMP JUMPDEST DUP1 PUSH1 0x1F ADD PUSH1 0x20 DUP1 SWAP2 DIV MUL PUSH1 0x20 ADD PUSH1 0x40 MLOAD SWAP1 DUP2 ADD PUSH1 0x40 MSTORE DUP1 SWAP3 SWAP2 SWAP1 DUP2 DUP2 MSTORE PUSH1 0x20 ADD DUP3 DUP1 SLOAD PUSH2 0x2F6D SWAP1 PUSH2 0x5178 JUMP JUMPDEST DUP1 ISZERO PUSH2 0x2FB8 JUMPI DUP1 PUSH1 0x1F LT PUSH2 0x2F8F JUMPI PUSH2 0x100 DUP1 DUP4 SLOAD DIV MUL DUP4 MSTORE SWAP2 PUSH1 0x20 ADD SWAP2 PUSH2 0x2FB8 JUMP JUMPDEST DUP3 ADD SWAP2 SWAP1 PUSH0 MSTORE PUSH1 0x20 PUSH0 KECCAK256 SWAP1 JUMPDEST DUP2 SLOAD DUP2 MSTORE SWAP1 PUSH1 0x1 ADD SWAP1 PUSH1 0x20 ADD DUP1 DUP4 GT PUSH2 0x2F9B JUMPI DUP3 SWAP1 SUB PUSH1 0x1F AND DUP3 ADD SWAP2 JUMPDEST POP POP POP SWAP2 DUP4 MSTORE POP POP PUSH1 0x4 SWAP2 SWAP1 SWAP2 ADD SLOAD PUSH1 0xFF AND ISZERO ISZERO PUSH1 0x20 SWAP1 SWAP2 ADD MSTORE DUP3 MLOAD DUP4 SWAP1 PUSH4 0xFFFFFFFF DUP5 AND SWAP1 DUP2 LT PUSH2 0x2FEC JUMPI PUSH2 0x2FEC PUSH2 0x5302 JUMP JUMPDEST PUSH1 0x20 MUL PUSH1 0x20 ADD ADD DUP2 SWAP1 MSTORE POP DUP1 DUP1 PUSH2 0x3002 SWAP1 PUSH2 0x5316 JUMP JUMPDEST SWAP2 POP POP PUSH2 0x2E44 JUMP JUMPDEST POP SWAP3 SWAP2 POP POP JUMP JUMPDEST PUSH0 SWAP2 DUP3 MSTORE PUSH1 0x1 PUSH1 0x20 SWAP1 DUP2 MSTORE PUSH1 0x40 DUP1 DUP5 KECCAK256 PUSH1 0x1 PUSH1 0x1 PUSH1 0xA0 SHL SUB SWAP4 SWAP1 SWAP4 AND DUP5 MSTORE SWAP2 SWAP1 MSTORE SWAP1 KECCAK256 SLOAD PUSH1 0xFF AND SWAP1 JUMP JUMPDEST PUSH2 0x3052 PUSH0 MLOAD PUSH1 0x20 PUSH2 0x5533 PUSH0 CODECOPY PUSH0 MLOAD SWAP1 PUSH0 MSTORE CALLER PUSH2 0x3011 JUMP JUMPDEST PUSH2 0x306E JUMPI PUSH1 0x40 MLOAD PUSH3 0x461BCD PUSH1 0xE5 SHL DUP2 MSTORE PUSH1 0x4 ADD PUSH2 0xB09 SWAP1 PUSH2 0x53F6 JUMP JUMPDEST PUSH2 0x3076 PUSH2 0x3DEB JUMP JUMPDEST PUSH0 DUP2 DUP2 MSTORE PUSH1 0xE PUSH1 0x20 SWAP1 DUP2 MSTORE PUSH1 0x40 DUP1 DUP4 KECCAK256 SLOAD DUP4 MSTORE PUSH1 0xD SWAP1 SWAP2 MSTORE SWAP1 KECCAK256 PUSH1 0x4 ADD SLOAD PUSH1 0xFF AND PUSH2 0x30B3 JUMPI PUSH1 0x40 MLOAD PUSH3 0x461BCD PUSH1 0xE5 SHL DUP2 MSTORE PUSH1 0x4 ADD PUSH2 0xB09 SWAP1 PUSH2 0x5453 JUMP JUMPDEST PUSH1 0x1 PUSH0 DUP3 DUP2 MSTORE PUSH1 0xE PUSH1 0x20 MSTORE PUSH1 0x40 SWAP1 KECCAK256 PUSH1 0x4 ADD SLOAD PUSH1 0xFF AND PUSH1 0x3 DUP2 GT ISZERO PUSH2 0x30DA JUMPI PUSH2 0x30DA PUSH2 0x482B JUMP JUMPDEST SUB PUSH2 0x30F7 JUMPI PUSH1 0x40 MLOAD PUSH3 0x461BCD PUSH1 0xE5 SHL DUP2 MSTORE PUSH1 0x4 ADD PUSH2 0xB09 SWAP1 PUSH2 0x5425 JUMP JUMPDEST PUSH2 0x3102 DUP2 PUSH1 0x1 PUSH2 0x3C7E JUMP JUMPDEST PUSH0 DUP2 DUP2 MSTORE PUSH1 0xE PUSH1 0x20 MSTORE PUSH1 0x40 SWAP1 KECCAK256 SLOAD PUSH2 0x311B SWAP1 DUP3 SWAP1 PUSH2 0x3E13 JUMP JUMPDEST PUSH32 0x5366F255D858CEF60BA6F5DE04388783D1E1A93443056D95C065C3DD1F4650C8 DUP2 CALLER PUSH1 0x40 MLOAD PUSH2 0x2247 SWAP3 SWAP2 SWAP1 PUSH2 0x53A8 JUMP JUMPDEST PUSH1 0x2 DUP1 SLOAD PUSH2 0x240E SWAP1 PUSH2 0x5178 JUMP JUMPDEST PUSH32 0xF0C57E16840DF040F15088DC2F81FE391C3923BEC73E23A9662EFC9C229C6A00 DUP1 SLOAD PUSH1 0x1 PUSH1 0x40 SHL DUP2 DIV PUSH1 0xFF AND ISZERO SWAP1 PUSH1 0x1 PUSH1 0x1 PUSH1 0x40 SHL SUB AND PUSH0 DUP2 ISZERO DUP1 ISZERO PUSH2 0x319D JUMPI POP DUP3 JUMPDEST SWAP1 POP PUSH0 DUP3 PUSH1 0x1 PUSH1 0x1 PUSH1 0x40 SHL SUB AND PUSH1 0x1 EQ DUP1 ISZERO PUSH2 0x31B8 JUMPI POP ADDRESS EXTCODESIZE ISZERO JUMPDEST SWAP1 POP DUP2 ISZERO DUP1 ISZERO PUSH2 0x31C6 JUMPI POP DUP1 ISZERO JUMPDEST ISZERO PUSH2 0x31E4 JUMPI PUSH1 0x40 MLOAD PUSH4 0xF92EE8A9 PUSH1 0xE0 SHL DUP2 MSTORE PUSH1 0x4 ADD PUSH1 0x40 MLOAD DUP1 SWAP2 SUB SWAP1 REVERT JUMPDEST DUP5 SLOAD PUSH8 0xFFFFFFFFFFFFFFFF NOT AND PUSH1 0x1 OR DUP6 SSTORE DUP4 ISZERO PUSH2 0x320E JUMPI DUP5 SLOAD PUSH1 0xFF PUSH1 0x40 SHL NOT AND PUSH1 0x1 PUSH1 0x40 SHL OR DUP6 SSTORE JUMPDEST PUSH1 0x2 PUSH2 0x321A DUP14 DUP3 PUSH2 0x51FB JUMP JUMPDEST POP PUSH1 0x3 PUSH2 0x3227 DUP13 DUP3 PUSH2 0x51FB JUMP JUMPDEST POP PUSH1 0x4 DUP1 SLOAD PUSH1 0x1 PUSH1 0x1 PUSH1 0xA0 SHL SUB DUP1 DUP14 AND PUSH1 0x1 PUSH1 0x1 PUSH1 0xA0 SHL SUB NOT SWAP3 DUP4 AND OR SWAP1 SWAP3 SSTORE PUSH1 0x9 DUP1 SLOAD DUP13 DUP5 AND SWAP1 DUP4 AND DUP2 OR SWAP1 SWAP2 SSTORE PUSH1 0x7 DUP1 SLOAD DUP13 DUP6 AND SWAP1 DUP5 AND OR SWAP1 SSTORE PUSH1 0x6 DUP11 SWAP1 SSTORE PUSH1 0xA DUP1 SLOAD SWAP4 DUP11 AND SWAP4 SWAP1 SWAP3 AND SWAP3 SWAP1 SWAP3 OR SWAP1 SSTORE PUSH2 0x3284 SWAP1 PUSH0 SWAP1 PUSH2 0x3D0A JUMP JUMPDEST POP PUSH1 0x9 SLOAD PUSH2 0x32A9 SWAP1 PUSH0 MLOAD PUSH1 0x20 PUSH2 0x5533 PUSH0 CODECOPY PUSH0 MLOAD SWAP1 PUSH0 MSTORE SWAP1 PUSH1 0x1 PUSH1 0x1 PUSH1 0xA0 SHL SUB AND PUSH2 0x3D0A JUMP JUMPDEST POP PUSH2 0x32C1 PUSH0 MLOAD PUSH1 0x20 PUSH2 0x5533 PUSH0 CODECOPY PUSH0 MLOAD SWAP1 PUSH0 MSTORE PUSH0 PUSH2 0x438C JUMP JUMPDEST DUP4 ISZERO PUSH2 0x3307 JUMPI DUP5 SLOAD PUSH1 0xFF PUSH1 0x40 SHL NOT AND DUP6 SSTORE PUSH1 0x40 MLOAD PUSH1 0x1 DUP2 MSTORE PUSH32 0xC7F505B2F371AE2175EE4913F4499E1F2633A7B5936321EED1CDAEB6115181D2 SWAP1 PUSH1 0x20 ADD PUSH1 0x40 MLOAD DUP1 SWAP2 SUB SWAP1 LOG1 JUMPDEST POP POP POP POP POP POP POP POP POP POP POP POP JUMP JUMPDEST PUSH1 0xC DUP2 DUP2 SLOAD DUP2 LT PUSH2 0x3324 JUMPI PUSH0 DUP1 REVERT JUMPDEST PUSH0 SWAP2 DUP3 MSTORE PUSH1 0x20 SWAP1 SWAP2 KECCAK256 ADD SLOAD PUSH1 0x1 PUSH1 0x1 PUSH1 0xA0 SHL SUB AND SWAP1 POP DUP2 JUMP JUMPDEST PUSH1 0x60 PUSH1 0x11 PUSH0 DUP4 DUP2 MSTORE PUSH1 0x20 ADD SWAP1 DUP2 MSTORE PUSH1 0x20 ADD PUSH0 KECCAK256 DUP1 SLOAD DUP1 PUSH1 0x20 MUL PUSH1 0x20 ADD PUSH1 0x40 MLOAD SWAP1 DUP2 ADD PUSH1 0x40 MSTORE DUP1 SWAP3 SWAP2 SWAP1 DUP2 DUP2 MSTORE PUSH1 0x20 ADD PUSH0 SWAP1 JUMPDEST DUP3 DUP3 LT ISZERO PUSH2 0x33BC JUMPI DUP4 DUP3 SWAP1 PUSH0 MSTORE PUSH1 0x20 PUSH0 KECCAK256 SWAP1 PUSH1 0x3 MUL ADD PUSH1 0x40 MLOAD DUP1 PUSH1 0x60 ADD PUSH1 0x40 MSTORE SWAP1 DUP2 PUSH0 DUP3 ADD SLOAD DUP2 MSTORE PUSH1 0x20 ADD PUSH1 0x1 DUP3 ADD SLOAD DUP2 MSTORE PUSH1 0x20 ADD PUSH1 0x2 DUP3 ADD SLOAD DUP2 MSTORE POP POP DUP2 MSTORE PUSH1 0x20 ADD SWAP1 PUSH1 0x1 ADD SWAP1 PUSH2 0x336F JUMP JUMPDEST POP POP POP POP SWAP1 POP SWAP2 SWAP1 POP JUMP JUMPDEST PUSH0 DUP3 DUP2 MSTORE PUSH1 0x1 PUSH1 0x20 DUP2 SWAP1 MSTORE PUSH1 0x40 SWAP1 SWAP2 KECCAK256 ADD SLOAD PUSH2 0x33E2 DUP2 PUSH2 0x3D00 JUMP JUMPDEST PUSH2 0x1F9A DUP4 DUP4 PUSH2 0x3D80 JUMP JUMPDEST PUSH1 0x9 SLOAD DUP2 SWAP1 PUSH1 0x1 PUSH1 0x1 PUSH1 0xA0 SHL SUB AND CALLER EQ DUP1 PUSH2 0x3419 JUMPI POP PUSH2 0x3419 PUSH0 MLOAD PUSH1 0x20 PUSH2 0x5533 PUSH0 CODECOPY PUSH0 MLOAD SWAP1 PUSH0 MSTORE CALLER PUSH2 0x3011 JUMP JUMPDEST DUP1 PUSH2 0x343C JUMPI POP PUSH0 DUP2 DUP2 MSTORE PUSH1 0xE PUSH1 0x20 MSTORE PUSH1 0x40 SWAP1 KECCAK256 PUSH1 0x1 ADD SLOAD PUSH1 0x1 PUSH1 0x1 PUSH1 0xA0 SHL SUB AND CALLER EQ JUMPDEST PUSH2 0x3458 JUMPI PUSH1 0x40 MLOAD PUSH3 0x461BCD PUSH1 0xE5 SHL DUP2 MSTORE PUSH1 0x4 ADD PUSH2 0xB09 SWAP1 PUSH2 0x5371 JUMP JUMPDEST PUSH0 DUP3 DUP2 MSTORE PUSH1 0xE PUSH1 0x20 SWAP1 DUP2 MSTORE PUSH1 0x40 DUP1 DUP4 KECCAK256 SLOAD DUP4 MSTORE PUSH1 0xD SWAP1 SWAP2 MSTORE SWAP1 KECCAK256 PUSH1 0x4 ADD SLOAD PUSH1 0xFF AND PUSH2 0x3495 JUMPI PUSH1 0x40 MLOAD PUSH3 0x461BCD PUSH1 0xE5 SHL DUP2 MSTORE PUSH1 0x4 ADD PUSH2 0xB09 SWAP1 PUSH2 0x5453 JUMP JUMPDEST PUSH1 0x3 PUSH0 DUP4 DUP2 MSTORE PUSH1 0xE PUSH1 0x20 MSTORE PUSH1 0x40 SWAP1 KECCAK256 PUSH1 0x4 ADD SLOAD PUSH1 0xFF AND PUSH1 0x3 DUP2 GT ISZERO PUSH2 0x34BC JUMPI PUSH2 0x34BC PUSH2 0x482B JUMP JUMPDEST EQ PUSH2 0x34FB JUMPI PUSH1 0x40 MLOAD PUSH3 0x461BCD PUSH1 0xE5 SHL DUP2 MSTORE PUSH1 0x20 PUSH1 0x4 DUP3 ADD MSTORE PUSH1 0xF PUSH1 0x24 DUP3 ADD MSTORE PUSH15 0x18591D881B9BDD081CDD1BDC1C1959 PUSH1 0x8A SHL PUSH1 0x44 DUP3 ADD MSTORE PUSH1 0x64 ADD PUSH2 0xB09 JUMP JUMPDEST PUSH0 DUP3 DUP2 MSTORE PUSH1 0x18 PUSH1 0x20 MSTORE PUSH1 0x40 SWAP1 KECCAK256 SLOAD PUSH1 0xFF AND DUP1 ISZERO PUSH2 0x3530 JUMPI POP PUSH0 DUP3 DUP2 MSTORE PUSH1 0xE PUSH1 0x20 MSTORE PUSH1 0x40 SWAP1 KECCAK256 PUSH1 0x1 ADD SLOAD PUSH1 0x1 PUSH1 0x1 PUSH1 0xA0 SHL SUB AND CALLER EQ JUMPDEST DUP1 PUSH2 0x356D JUMPI POP PUSH0 DUP3 DUP2 MSTORE PUSH1 0x18 PUSH1 0x20 MSTORE PUSH1 0x40 SWAP1 KECCAK256 SLOAD PUSH1 0xFF AND ISZERO DUP1 ISZERO PUSH2 0x356D JUMPI POP PUSH0 DUP3 DUP2 MSTORE PUSH1 0xE PUSH1 0x20 MSTORE PUSH1 0x40 SWAP1 KECCAK256 PUSH1 0x1 ADD SLOAD PUSH1 0x1 PUSH1 0x1 PUSH1 0xA0 SHL SUB AND CALLER EQ ISZERO JUMPDEST PUSH2 0x35AA JUMPI PUSH1 0x40 MLOAD PUSH3 0x461BCD PUSH1 0xE5 SHL DUP2 MSTORE PUSH1 0x20 PUSH1 0x4 DUP3 ADD MSTORE PUSH1 0xE PUSH1 0x24 DUP3 ADD MSTORE PUSH14 0x18D85B9B9BDD081C995CDD185C9D PUSH1 0x92 SHL PUSH1 0x44 DUP3 ADD MSTORE PUSH1 0x64 ADD PUSH2 0xB09 JUMP JUMPDEST PUSH2 0x35B5 DUP3 PUSH1 0x1 PUSH2 0x3C7E JUMP JUMPDEST PUSH32 0xA20F6925C759446EE4FD04C0003AD02FB5B1E5E4EDA18AE1BB99D260E3C3402B DUP3 CALLER PUSH1 0x40 MLOAD PUSH2 0x10CB SWAP3 SWAP2 SWAP1 PUSH2 0x53A8 JUMP JUMPDEST PUSH0 DUP2 DUP2 MSTORE PUSH1 0x14 PUSH1 0x20 SWAP1 DUP2 MSTORE PUSH1 0x40 DUP1 DUP4 KECCAK256 SLOAD PUSH1 0x12 SWAP1 SWAP3 MSTORE DUP3 KECCAK256 SLOAD PUSH2 0xA6A SWAP2 SWAP1 PUSH2 0x512E JUMP JUMPDEST PUSH1 0x9 SLOAD PUSH1 0x1 PUSH1 0x1 PUSH1 0xA0 SHL SUB AND CALLER EQ PUSH2 0x3633 JUMPI PUSH1 0x40 MLOAD PUSH3 0x461BCD PUSH1 0xE5 SHL DUP2 MSTORE PUSH1 0x4 ADD PUSH2 0xB09 SWAP1 PUSH2 0x52D4 JUMP JUMPDEST PUSH1 0x3 PUSH2 0x1F71 DUP3 DUP3 PUSH2 0x51FB JUMP JUMPDEST PUSH0 DUP3 DUP2 MSTORE PUSH1 0xE PUSH1 0x20 MSTORE PUSH1 0x40 SWAP1 KECCAK256 PUSH1 0x1 ADD SLOAD DUP3 SWAP1 PUSH1 0x1 PUSH1 0x1 PUSH1 0xA0 SHL SUB AND CALLER EQ PUSH2 0x3679 JUMPI PUSH1 0x40 MLOAD PUSH3 0x461BCD PUSH1 0xE5 SHL DUP2 MSTORE PUSH1 0x4 ADD PUSH2 0xB09 SWAP1 PUSH2 0x5141 JUMP JUMPDEST PUSH2 0x3681 PUSH2 0x3DEB JUMP JUMPDEST PUSH0 DUP3 GT PUSH2 0x36C1 JUMPI PUSH1 0x40 MLOAD PUSH3 0x461BCD PUSH1 0xE5 SHL DUP2 MSTORE PUSH1 0x20 PUSH1 0x4 DUP3 ADD MSTORE PUSH1 0xE PUSH1 0x24 DUP3 ADD MSTORE PUSH14 0x1A5B9D985B1A5908185B5BDD5B9D PUSH1 0x92 SHL PUSH1 0x44 DUP3 ADD MSTORE PUSH1 0x64 ADD PUSH2 0xB09 JUMP JUMPDEST PUSH0 PUSH2 0x36CB DUP5 PUSH2 0x97B JUMP JUMPDEST SWAP1 POP DUP1 DUP4 GT ISZERO PUSH2 0x3716 JUMPI PUSH1 0x40 MLOAD PUSH3 0x461BCD PUSH1 0xE5 SHL DUP2 MSTORE PUSH1 0x20 PUSH1 0x4 DUP3 ADD MSTORE PUSH1 0x16 PUSH1 0x24 DUP3 ADD MSTORE PUSH22 0x616D6F756E7420657863656564732062616C616E6365 PUSH1 0x50 SHL PUSH1 0x44 DUP3 ADD MSTORE PUSH1 0x64 ADD PUSH2 0xB09 JUMP JUMPDEST PUSH0 DUP5 DUP2 MSTORE PUSH1 0x14 PUSH1 0x20 MSTORE PUSH1 0x40 DUP2 KECCAK256 DUP1 SLOAD DUP6 SWAP3 SWAP1 PUSH2 0x3733 SWAP1 DUP5 SWAP1 PUSH2 0x511B JUMP JUMPDEST SWAP1 SWAP2 SSTORE POP PUSH2 0x3743 SWAP1 POP DUP4 DUP3 PUSH2 0x512E JUMP JUMPDEST ISZERO DUP1 ISZERO PUSH2 0x3774 JUMPI POP PUSH1 0x1 PUSH0 DUP6 DUP2 MSTORE PUSH1 0xE PUSH1 0x20 MSTORE PUSH1 0x40 SWAP1 KECCAK256 PUSH1 0x4 ADD SLOAD PUSH1 0xFF AND PUSH1 0x3 DUP2 GT ISZERO PUSH2 0x3772 JUMPI PUSH2 0x3772 PUSH2 0x482B JUMP JUMPDEST EQ JUMPDEST ISZERO PUSH2 0x3789 JUMPI PUSH2 0x3784 DUP5 PUSH1 0x3 PUSH2 0x3C7E JUMP JUMPDEST PUSH2 0x37D5 JUMP JUMPDEST PUSH0 PUSH2 0x3794 DUP5 DUP4 PUSH2 0x512E JUMP JUMPDEST GT DUP1 ISZERO PUSH2 0x37C6 JUMPI POP PUSH1 0x3 PUSH0 DUP6 DUP2 MSTORE PUSH1 0xE PUSH1 0x20 MSTORE PUSH1 0x40 SWAP1 KECCAK256 PUSH1 0x4 ADD SLOAD PUSH1 0xFF AND PUSH1 0x3 DUP2 GT ISZERO PUSH2 0x37C3 JUMPI PUSH2 0x37C3 PUSH2 0x482B JUMP JUMPDEST EQ ISZERO JUMPDEST ISZERO PUSH2 0x37D5 JUMPI PUSH2 0x37D5 DUP5 PUSH0 PUSH2 0x3F21 JUMP JUMPDEST PUSH1 0x4 DUP1 SLOAD PUSH1 0x40 MLOAD PUSH4 0x95EA7B3 PUSH1 0xE0 SHL DUP2 MSTORE PUSH1 0x1 PUSH1 0x1 PUSH1 0xA0 SHL SUB SWAP1 SWAP2 AND SWAP2 PUSH4 0x95EA7B3 SWAP2 PUSH2 0x3806 SWAP2 ADDRESS SWAP2 DUP9 SWAP2 ADD PUSH2 0x54B4 JUMP JUMPDEST PUSH1 0x20 PUSH1 0x40 MLOAD DUP1 DUP4 SUB DUP2 PUSH0 DUP8 GAS CALL ISZERO DUP1 ISZERO PUSH2 0x3822 JUMPI RETURNDATASIZE PUSH0 PUSH0 RETURNDATACOPY RETURNDATASIZE PUSH0 REVERT JUMPDEST POP POP POP POP PUSH1 0x40 MLOAD RETURNDATASIZE PUSH1 0x1F NOT PUSH1 0x1F DUP3 ADD AND DUP3 ADD DUP1 PUSH1 0x40 MSTORE POP DUP2 ADD SWAP1 PUSH2 0x3846 SWAP2 SWAP1 PUSH2 0x54CD JUMP JUMPDEST POP PUSH2 0x3852 ADDRESS CALLER DUP6 PUSH2 0x407D JUMP JUMPDEST PUSH1 0x40 DUP1 MLOAD DUP6 DUP2 MSTORE PUSH1 0x20 DUP2 ADD DUP6 SWAP1 MSTORE PUSH32 0xFB66AB4D4C4DACC78499E8CA394B0647BEAB00824569423C497D72DD17165FB5 SWAP2 ADD PUSH1 0x40 MLOAD DUP1 SWAP2 SUB SWAP1 LOG1 POP PUSH2 0x2033 PUSH1 0x1 PUSH0 SSTORE JUMP JUMPDEST PUSH1 0x9 SLOAD PUSH1 0x1 PUSH1 0x1 PUSH1 0xA0 SHL SUB AND CALLER EQ PUSH2 0x38BF JUMPI PUSH1 0x40 MLOAD PUSH3 0x461BCD PUSH1 0xE5 SHL DUP2 MSTORE PUSH1 0x4 ADD PUSH2 0xB09 SWAP1 PUSH2 0x52D4 JUMP JUMPDEST PUSH2 0x38C7 PUSH2 0x3DEB JUMP JUMPDEST PUSH0 DUP1 JUMPDEST DUP3 MLOAD DUP2 PUSH4 0xFFFFFFFF AND LT ISZERO PUSH2 0x3969 JUMPI PUSH0 PUSH2 0x3902 DUP5 DUP4 PUSH4 0xFFFFFFFF AND DUP2 MLOAD DUP2 LT PUSH2 0x38F5 JUMPI PUSH2 0x38F5 PUSH2 0x5302 JUMP JUMPDEST PUSH1 0x20 MUL PUSH1 0x20 ADD ADD MLOAD PUSH2 0x3A5B JUMP JUMPDEST SWAP1 POP PUSH2 0x390E DUP2 DUP5 PUSH2 0x511B JUMP JUMPDEST SWAP3 POP DUP1 PUSH1 0x13 PUSH0 DUP7 DUP6 PUSH4 0xFFFFFFFF AND DUP2 MLOAD DUP2 LT PUSH2 0x392C JUMPI PUSH2 0x392C PUSH2 0x5302 JUMP JUMPDEST PUSH1 0x20 MUL PUSH1 0x20 ADD ADD MLOAD DUP2 MSTORE PUSH1 0x20 ADD SWAP1 DUP2 MSTORE PUSH1 0x20 ADD PUSH0 KECCAK256 PUSH0 DUP3 DUP3 SLOAD PUSH2 0x394F SWAP2 SWAP1 PUSH2 0x511B JUMP JUMPDEST SWAP1 SWAP2 SSTORE POP DUP3 SWAP2 POP PUSH2 0x3961 SWAP1 POP DUP2 PUSH2 0x5316 JUMP JUMPDEST SWAP2 POP POP PUSH2 0x38CA JUMP JUMPDEST POP DUP1 PUSH0 SUB PUSH2 0x398E JUMPI DUP2 CALLER PUSH1 0x40 MLOAD PUSH4 0x5C87FF85 PUSH1 0xE1 SHL DUP2 MSTORE PUSH1 0x4 ADD PUSH2 0xB09 SWAP3 SWAP2 SWAP1 PUSH2 0x54E8 JUMP JUMPDEST PUSH1 0x4 DUP1 SLOAD PUSH1 0x40 MLOAD PUSH4 0x95EA7B3 PUSH1 0xE0 SHL DUP2 MSTORE PUSH1 0x1 PUSH1 0x1 PUSH1 0xA0 SHL SUB SWAP1 SWAP2 AND SWAP2 PUSH4 0x95EA7B3 SWAP2 PUSH2 0x39BF SWAP2 ADDRESS SWAP2 DUP7 SWAP2 ADD PUSH2 0x54B4 JUMP JUMPDEST PUSH1 0x20 PUSH1 0x40 MLOAD DUP1 DUP4 SUB DUP2 PUSH0 DUP8 GAS CALL ISZERO DUP1 ISZERO PUSH2 0x39DB JUMPI RETURNDATASIZE PUSH0 PUSH0 RETURNDATACOPY RETURNDATASIZE PUSH0 REVERT JUMPDEST POP POP POP POP PUSH1 0x40 MLOAD RETURNDATASIZE PUSH1 0x1F NOT PUSH1 0x1F DUP3 ADD AND DUP3 ADD DUP1 PUSH1 0x40 MSTORE POP DUP2 ADD SWAP1 PUSH2 0x39FF SWAP2 SWAP1 PUSH2 0x54CD JUMP JUMPDEST POP PUSH1 0x9 SLOAD PUSH2 0x3A18 SWAP1 ADDRESS SWAP1 PUSH1 0x1 PUSH1 0x1 PUSH1 0xA0 SHL SUB AND DUP4 PUSH2 0x407D JUMP JUMPDEST PUSH32 0x2FCB9B6E88B245799C117099197FF6B089EE06B95EE7ED1A442D738501418E05 DUP3 DUP3 PUSH1 0x40 MLOAD PUSH2 0x3A49 SWAP3 SWAP2 SWAP1 PUSH2 0x5511 JUMP JUMPDEST PUSH1 0x40 MLOAD DUP1 SWAP2 SUB SWAP1 LOG1 POP PUSH2 0x2258 PUSH1 0x1 PUSH0 SSTORE JUMP JUMPDEST PUSH0 DUP2 DUP2 MSTORE PUSH1 0x13 PUSH1 0x20 MSTORE PUSH1 0x40 DUP2 KECCAK256 SLOAD PUSH2 0x3A72 DUP4 PUSH2 0x3A7C JUMP JUMPDEST PUSH2 0xA6A SWAP2 SWAP1 PUSH2 0x512E JUMP JUMPDEST PUSH0 PUSH2 0x3A86 DUP3 PUSH2 0x43D8 JUMP JUMPDEST POP PUSH0 DUP3 DUP2 MSTORE PUSH1 0x11 PUSH1 0x20 MSTORE PUSH1 0x40 SWAP1 KECCAK256 DUP1 SLOAD PUSH2 0x3AA2 SWAP1 PUSH1 0x1 SWAP1 PUSH2 0x512E JUMP JUMPDEST DUP2 SLOAD DUP2 LT PUSH2 0x3AB2 JUMPI PUSH2 0x3AB2 PUSH2 0x5302 JUMP JUMPDEST SWAP1 PUSH0 MSTORE PUSH1 0x20 PUSH0 KECCAK256 SWAP1 PUSH1 0x3 MUL ADD PUSH0 ADD SLOAD PUSH0 SUB PUSH2 0x3ACE JUMPI POP PUSH0 SWAP2 SWAP1 POP JUMP JUMPDEST PUSH0 DUP3 DUP2 MSTORE PUSH1 0x11 PUSH1 0x20 SWAP1 DUP2 MSTORE PUSH1 0x40 DUP1 DUP4 KECCAK256 DUP1 SLOAD DUP3 MLOAD DUP2 DUP6 MUL DUP2 ADD DUP6 ADD SWAP1 SWAP4 MSTORE DUP1 DUP4 MSTORE TIMESTAMP SWAP4 DUP6 SWAP4 SWAP3 SWAP2 SWAP1 DUP5 SWAP1 DUP5 ADD JUMPDEST DUP3 DUP3 LT ISZERO PUSH2 0x3B48 JUMPI DUP4 DUP3 SWAP1 PUSH0 MSTORE PUSH1 0x20 PUSH0 KECCAK256 SWAP1 PUSH1 0x3 MUL ADD PUSH1 0x40 MLOAD DUP1 PUSH1 0x60 ADD PUSH1 0x40 MSTORE SWAP1 DUP2 PUSH0 DUP3 ADD SLOAD DUP2 MSTORE PUSH1 0x20 ADD PUSH1 0x1 DUP3 ADD SLOAD DUP2 MSTORE PUSH1 0x20 ADD PUSH1 0x2 DUP3 ADD SLOAD DUP2 MSTORE POP POP DUP2 MSTORE PUSH1 0x20 ADD SWAP1 PUSH1 0x1 ADD SWAP1 PUSH2 0x3AFB JUMP JUMPDEST POP POP POP POP SWAP1 POP DUP1 PUSH1 0x1 DUP3 MLOAD PUSH2 0x3B5D SWAP2 SWAP1 PUSH2 0x512E JUMP JUMPDEST DUP2 MLOAD DUP2 LT PUSH2 0x3B6D JUMPI PUSH2 0x3B6D PUSH2 0x5302 JUMP JUMPDEST PUSH1 0x20 MUL PUSH1 0x20 ADD ADD MLOAD PUSH1 0x20 ADD MLOAD DUP3 GT PUSH2 0x3BB0 JUMPI DUP2 DUP2 PUSH1 0x1 DUP4 MLOAD PUSH2 0x3B8F SWAP2 SWAP1 PUSH2 0x512E JUMP JUMPDEST DUP2 MLOAD DUP2 LT PUSH2 0x3B9F JUMPI PUSH2 0x3B9F PUSH2 0x5302 JUMP JUMPDEST PUSH1 0x20 MUL PUSH1 0x20 ADD ADD MLOAD PUSH1 0x20 ADD DUP2 DUP2 MSTORE POP POP JUMPDEST PUSH1 0x1 JUMPDEST DUP2 MLOAD DUP2 PUSH4 0xFFFFFFFF AND LT ISZERO PUSH2 0x3C75 JUMPI DUP2 DUP2 PUSH4 0xFFFFFFFF AND DUP2 MLOAD DUP2 LT PUSH2 0x3BDA JUMPI PUSH2 0x3BDA PUSH2 0x5302 JUMP JUMPDEST PUSH1 0x20 MUL PUSH1 0x20 ADD ADD MLOAD PUSH0 ADD MLOAD DUP3 DUP3 PUSH4 0xFFFFFFFF AND DUP2 MLOAD DUP2 LT PUSH2 0x3BFD JUMPI PUSH2 0x3BFD PUSH2 0x5302 JUMP JUMPDEST PUSH1 0x20 MUL PUSH1 0x20 ADD ADD MLOAD PUSH1 0x20 ADD MLOAD PUSH2 0x3C13 SWAP2 SWAP1 PUSH2 0x512E JUMP JUMPDEST PUSH0 DUP8 DUP2 MSTORE PUSH1 0x11 PUSH1 0x20 MSTORE PUSH1 0x40 SWAP1 KECCAK256 DUP1 SLOAD SWAP2 SWAP6 POP SWAP1 PUSH4 0xFFFFFFFF DUP4 AND SWAP1 DUP2 LT PUSH2 0x3C3C JUMPI PUSH2 0x3C3C PUSH2 0x5302 JUMP JUMPDEST SWAP1 PUSH0 MSTORE PUSH1 0x20 PUSH0 KECCAK256 SWAP1 PUSH1 0x3 MUL ADD PUSH1 0x2 ADD SLOAD DUP5 PUSH2 0x3C57 SWAP2 SWAP1 PUSH2 0x5104 JUMP JUMPDEST PUSH2 0x3C61 SWAP1 DUP7 PUSH2 0x511B JUMP JUMPDEST SWAP5 POP DUP1 PUSH2 0x3C6D DUP2 PUSH2 0x5316 JUMP JUMPDEST SWAP2 POP POP PUSH2 0x3BB3 JUMP JUMPDEST POP POP POP POP SWAP2 SWAP1 POP JUMP JUMPDEST PUSH2 0x3C87 DUP3 PUSH2 0x43D8 JUMP JUMPDEST POP PUSH0 DUP3 DUP2 MSTORE PUSH1 0xE PUSH1 0x20 MSTORE PUSH1 0x40 SWAP1 KECCAK256 PUSH1 0x4 ADD DUP1 SLOAD DUP3 SWAP2 SWAP1 PUSH1 0xFF NOT AND PUSH1 0x1 DUP4 PUSH1 0x3 DUP2 GT ISZERO PUSH2 0x3CB5 JUMPI PUSH2 0x3CB5 PUSH2 0x482B JUMP JUMPDEST MUL OR SWAP1 SSTORE POP PUSH1 0x1 DUP2 PUSH1 0x3 DUP2 GT ISZERO PUSH2 0x3CCE JUMPI PUSH2 0x3CCE PUSH2 0x482B JUMP JUMPDEST SUB PUSH2 0x3CDC JUMPI PUSH2 0x1F71 DUP3 PUSH2 0x3FE2 JUMP JUMPDEST PUSH1 0x3 DUP2 PUSH1 0x3 DUP2 GT ISZERO PUSH2 0x3CF0 JUMPI PUSH2 0x3CF0 PUSH2 0x482B JUMP JUMPDEST SUB PUSH2 0x1F71 JUMPI PUSH2 0x1F71 DUP3 PUSH1 0x1 PUSH2 0x3F21 JUMP JUMPDEST PUSH2 0x2258 DUP2 CALLER PUSH2 0x4417 JUMP JUMPDEST PUSH0 PUSH2 0x3D15 DUP4 DUP4 PUSH2 0x3011 JUMP JUMPDEST PUSH2 0x3D79 JUMPI PUSH0 DUP4 DUP2 MSTORE PUSH1 0x1 PUSH1 0x20 DUP2 DUP2 MSTORE PUSH1 0x40 DUP1 DUP5 KECCAK256 PUSH1 0x1 PUSH1 0x1 PUSH1 0xA0 SHL SUB DUP8 AND DUP1 DUP7 MSTORE SWAP3 MSTORE DUP1 DUP5 KECCAK256 DUP1 SLOAD PUSH1 0xFF NOT AND SWAP1 SWAP4 OR SWAP1 SWAP3 SSTORE SWAP1 MLOAD CALLER SWAP3 DUP7 SWAP2 PUSH32 0x2F8788117E7EFF1D82E926EC794901D17C78024A50270940304540A733656F0D SWAP2 SWAP1 LOG4 POP PUSH1 0x1 PUSH2 0xA6A JUMP JUMPDEST POP PUSH0 PUSH2 0xA6A JUMP JUMPDEST PUSH0 PUSH2 0x3D8B DUP4 DUP4 PUSH2 0x3011 JUMP JUMPDEST ISZERO PUSH2 0x3D79 JUMPI PUSH0 DUP4 DUP2 MSTORE PUSH1 0x1 PUSH1 0x20 SWAP1 DUP2 MSTORE PUSH1 0x40 DUP1 DUP4 KECCAK256 PUSH1 0x1 PUSH1 0x1 PUSH1 0xA0 SHL SUB DUP7 AND DUP1 DUP6 MSTORE SWAP3 MSTORE DUP1 DUP4 KECCAK256 DUP1 SLOAD PUSH1 0xFF NOT AND SWAP1 SSTORE MLOAD CALLER SWAP3 DUP7 SWAP2 PUSH32 0xF6391F5C32D9C69D2A47EA670B442974B53935D1EDC7FD64EB21E047A839171B SWAP2 SWAP1 LOG4 POP PUSH1 0x1 PUSH2 0xA6A JUMP JUMPDEST PUSH1 0x2 PUSH0 SLOAD SUB PUSH2 0x3E0D JUMPI PUSH1 0x40 MLOAD PUSH4 0x3EE5AEB5 PUSH1 0xE0 SHL DUP2 MSTORE PUSH1 0x4 ADD PUSH1 0x40 MLOAD DUP1 SWAP2 SUB SWAP1 REVERT JUMPDEST PUSH1 0x2 PUSH0 SSTORE JUMP JUMPDEST PUSH0 DUP3 DUP2 MSTORE PUSH1 0x15 PUSH1 0x20 MSTORE PUSH1 0x40 SWAP1 KECCAK256 SLOAD PUSH1 0x1 PUSH1 0x1 PUSH1 0xA0 SHL SUB AND PUSH2 0x1F71 JUMPI PUSH0 DUP3 DUP2 MSTORE PUSH1 0x15 PUSH1 0x20 SWAP1 DUP2 MSTORE PUSH1 0x40 DUP1 DUP4 KECCAK256 DUP1 SLOAD PUSH1 0x1 PUSH1 0x1 PUSH1 0xA0 SHL SUB NOT AND CALLER SWAP1 DUP2 OR SWAP1 SWAP2 SSTORE DUP5 DUP5 MSTORE PUSH1 0xD DUP4 MSTORE DUP2 DUP5 KECCAK256 PUSH1 0x2 ADD SLOAD SWAP1 DUP5 MSTORE PUSH1 0x16 SWAP1 SWAP3 MSTORE DUP3 KECCAK256 DUP1 SLOAD SWAP2 SWAP3 SWAP1 SWAP2 PUSH2 0x3E7A SWAP1 DUP5 SWAP1 PUSH2 0x511B JUMP JUMPDEST SWAP1 SWAP2 SSTORE POP POP PUSH1 0x4 DUP1 SLOAD PUSH0 DUP4 DUP2 MSTORE PUSH1 0xD PUSH1 0x20 MSTORE PUSH1 0x40 SWAP1 DUP2 SWAP1 KECCAK256 PUSH1 0x2 ADD SLOAD SWAP1 MLOAD PUSH4 0x95EA7B3 PUSH1 0xE0 SHL DUP2 MSTORE PUSH1 0x1 PUSH1 0x1 PUSH1 0xA0 SHL SUB SWAP1 SWAP3 AND SWAP3 PUSH4 0x95EA7B3 SWAP3 PUSH2 0x3EC2 SWAP3 ADDRESS SWAP3 SWAP1 SWAP2 ADD PUSH2 0x54B4 JUMP JUMPDEST PUSH1 0x20 PUSH1 0x40 MLOAD DUP1 DUP4 SUB DUP2 PUSH0 DUP8 GAS CALL ISZERO DUP1 ISZERO PUSH2 0x3EDE JUMPI RETURNDATASIZE PUSH0 PUSH0 RETURNDATACOPY RETURNDATASIZE PUSH0 REVERT JUMPDEST POP POP POP POP PUSH1 0x40 MLOAD RETURNDATASIZE PUSH1 0x1F NOT PUSH1 0x1F DUP3 ADD AND DUP3 ADD DUP1 PUSH1 0x40 MSTORE POP DUP2 ADD SWAP1 PUSH2 0x3F02 SWAP2 SWAP1 PUSH2 0x54CD JUMP JUMPDEST POP PUSH0 DUP2 DUP2 MSTORE PUSH1 0xD PUSH1 0x20 MSTORE PUSH1 0x40 SWAP1 KECCAK256 PUSH1 0x2 ADD SLOAD PUSH2 0x1F71 SWAP1 ADDRESS SWAP1 CALLER SWAP1 PUSH2 0x407D JUMP JUMPDEST TIMESTAMP DUP2 ISZERO PUSH2 0x3F6E JUMPI PUSH0 DUP4 DUP2 MSTORE PUSH1 0x11 PUSH1 0x20 MSTORE PUSH1 0x40 SWAP1 KECCAK256 DUP1 SLOAD DUP3 SWAP2 SWAP1 PUSH2 0x3F46 SWAP1 PUSH1 0x1 SWAP1 PUSH2 0x512E JUMP JUMPDEST DUP2 SLOAD DUP2 LT PUSH2 0x3F56 JUMPI PUSH2 0x3F56 PUSH2 0x5302 JUMP JUMPDEST SWAP1 PUSH0 MSTORE PUSH1 0x20 PUSH0 KECCAK256 SWAP1 PUSH1 0x3 MUL ADD PUSH1 0x1 ADD DUP2 SWAP1 SSTORE POP POP POP POP JUMP JUMPDEST PUSH0 DUP4 DUP2 MSTORE PUSH1 0xE PUSH1 0x20 MSTORE PUSH1 0x40 DUP2 KECCAK256 PUSH1 0x6 ADD SLOAD PUSH2 0x3F88 DUP6 PUSH2 0x97B JUMP JUMPDEST PUSH2 0x3F92 SWAP2 SWAP1 PUSH2 0x52B5 JUMP JUMPDEST SWAP1 POP PUSH2 0x3F9E DUP2 DUP4 PUSH2 0x511B JUMP JUMPDEST PUSH0 DUP6 DUP2 MSTORE PUSH1 0x11 PUSH1 0x20 MSTORE PUSH1 0x40 SWAP1 KECCAK256 DUP1 SLOAD PUSH2 0x3FB9 SWAP1 PUSH1 0x1 SWAP1 PUSH2 0x512E JUMP JUMPDEST DUP2 SLOAD DUP2 LT PUSH2 0x3FC9 JUMPI PUSH2 0x3FC9 PUSH2 0x5302 JUMP JUMPDEST SWAP1 PUSH0 MSTORE PUSH1 0x20 PUSH0 KECCAK256 SWAP1 PUSH1 0x3 MUL ADD PUSH1 0x1 ADD DUP2 SWAP1 SSTORE POP POP POP POP POP JUMP JUMPDEST TIMESTAMP PUSH0 PUSH2 0x3FED DUP4 PUSH2 0x97B JUMP JUMPDEST PUSH0 DUP5 DUP2 MSTORE PUSH1 0xE PUSH1 0x20 MSTORE PUSH1 0x40 DUP2 KECCAK256 PUSH1 0x6 ADD SLOAD SWAP2 SWAP3 POP SWAP1 PUSH2 0x400C SWAP1 DUP4 PUSH2 0x52B5 JUMP JUMPDEST PUSH2 0x4016 SWAP1 DUP5 PUSH2 0x511B JUMP JUMPDEST PUSH0 DUP6 DUP2 MSTORE PUSH1 0x11 PUSH1 0x20 SWAP1 DUP2 MSTORE PUSH1 0x40 DUP1 DUP4 KECCAK256 DUP2 MLOAD PUSH1 0x60 DUP2 ADD DUP4 MSTORE SWAP8 DUP9 MSTORE DUP8 DUP4 ADD SWAP5 DUP6 MSTORE SWAP8 DUP4 MSTORE PUSH1 0xE DUP3 MSTORE DUP1 DUP4 KECCAK256 PUSH1 0x6 ADD SLOAD SWAP1 DUP8 ADD SWAP1 DUP2 MSTORE DUP8 SLOAD PUSH1 0x1 DUP2 DUP2 ADD DUP11 SSTORE SWAP9 DUP5 MSTORE SWAP2 SWAP1 SWAP3 KECCAK256 SWAP6 MLOAD PUSH1 0x3 SWAP1 SWAP2 MUL SWAP1 SWAP6 ADD SWAP5 DUP6 SSTORE SWAP1 MLOAD SWAP5 DUP5 ADD SWAP5 SWAP1 SWAP5 SSTORE POP POP SWAP1 MLOAD PUSH1 0x2 SWAP1 SWAP2 ADD SSTORE JUMP JUMPDEST PUSH1 0x4 SLOAD PUSH2 0x2033 SWAP1 PUSH1 0x1 PUSH1 0x1 PUSH1 0xA0 SHL SUB AND DUP5 DUP5 DUP5 PUSH2 0x4442 JUMP JUMPDEST PUSH0 DUP2 DUP2 MSTORE PUSH1 0xD PUSH1 0x20 MSTORE PUSH1 0x40 DUP2 KECCAK256 PUSH1 0x1 ADD DUP1 SLOAD PUSH2 0x40B0 SWAP1 PUSH2 0x5178 JUMP JUMPDEST SWAP1 POP PUSH0 SUB PUSH2 0x40D4 JUMPI PUSH1 0x40 MLOAD PUSH4 0x15E50A43 PUSH1 0xE3 SHL DUP2 MSTORE PUSH1 0x4 DUP2 ADD DUP4 SWAP1 MSTORE PUSH1 0x24 ADD PUSH2 0xB09 JUMP JUMPDEST POP PUSH1 0x1 SWAP2 SWAP1 POP JUMP JUMPDEST PUSH1 0xC SLOAD DUP2 MLOAD PUSH1 0x14 SWAP2 PUSH2 0x40ED SWAP2 PUSH2 0x511B JUMP JUMPDEST GT ISZERO PUSH2 0x4133 JUMPI PUSH1 0x40 MLOAD PUSH3 0x461BCD PUSH1 0xE5 SHL DUP2 MSTORE PUSH1 0x20 PUSH1 0x4 DUP3 ADD MSTORE PUSH1 0x15 PUSH1 0x24 DUP3 ADD MSTORE PUSH21 0x6D6178206D6F6420636F756E742065786365656473 PUSH1 0x58 SHL PUSH1 0x44 DUP3 ADD MSTORE PUSH1 0x64 ADD PUSH2 0xB09 JUMP JUMPDEST PUSH0 JUMPDEST DUP2 MLOAD DUP2 PUSH4 0xFFFFFFFF AND LT ISZERO PUSH2 0x4351 JUMPI PUSH0 PUSH1 0x1 PUSH1 0x1 PUSH1 0xA0 SHL SUB AND DUP3 DUP3 PUSH4 0xFFFFFFFF AND DUP2 MLOAD DUP2 LT PUSH2 0x4166 JUMPI PUSH2 0x4166 PUSH2 0x5302 JUMP JUMPDEST PUSH1 0x20 MUL PUSH1 0x20 ADD ADD MLOAD PUSH1 0x1 PUSH1 0x1 PUSH1 0xA0 SHL SUB AND SUB ISZERO PUSH2 0x433F JUMPI PUSH2 0x41B3 PUSH0 MLOAD PUSH1 0x20 PUSH2 0x5533 PUSH0 CODECOPY PUSH0 MLOAD SWAP1 PUSH0 MSTORE DUP4 DUP4 PUSH4 0xFFFFFFFF AND DUP2 MLOAD DUP2 LT PUSH2 0x41A6 JUMPI PUSH2 0x41A6 PUSH2 0x5302 JUMP JUMPDEST PUSH1 0x20 MUL PUSH1 0x20 ADD ADD MLOAD PUSH2 0x3011 JUMP JUMPDEST PUSH2 0x41EF JUMPI PUSH2 0x41ED PUSH0 MLOAD PUSH1 0x20 PUSH2 0x5533 PUSH0 CODECOPY PUSH0 MLOAD SWAP1 PUSH0 MSTORE DUP4 DUP4 PUSH4 0xFFFFFFFF AND DUP2 MLOAD DUP2 LT PUSH2 0x41E0 JUMPI PUSH2 0x41E0 PUSH2 0x5302 JUMP JUMPDEST PUSH1 0x20 MUL PUSH1 0x20 ADD ADD MLOAD PUSH2 0x3D0A JUMP JUMPDEST POP JUMPDEST PUSH1 0xC DUP3 DUP3 PUSH4 0xFFFFFFFF AND DUP2 MLOAD DUP2 LT PUSH2 0x4209 JUMPI PUSH2 0x4209 PUSH2 0x5302 JUMP JUMPDEST PUSH1 0x20 SWAP1 DUP2 MUL SWAP2 SWAP1 SWAP2 ADD DUP2 ADD MLOAD DUP3 SLOAD PUSH1 0x1 DUP1 DUP3 ADD DUP6 SSTORE PUSH0 SWAP5 DUP6 MSTORE SWAP3 SWAP1 SWAP4 KECCAK256 SWAP1 SWAP3 ADD DUP1 SLOAD PUSH1 0x1 PUSH1 0x1 PUSH1 0xA0 SHL SUB NOT AND PUSH1 0x1 PUSH1 0x1 PUSH1 0xA0 SHL SUB SWAP1 SWAP4 AND SWAP3 SWAP1 SWAP3 OR SWAP1 SWAP2 SSTORE PUSH1 0xC SLOAD PUSH2 0x4254 SWAP2 SWAP1 PUSH2 0x512E JUMP JUMPDEST PUSH1 0x17 PUSH0 DUP5 DUP5 PUSH4 0xFFFFFFFF AND DUP2 MLOAD DUP2 LT PUSH2 0x426F JUMPI PUSH2 0x426F PUSH2 0x5302 JUMP JUMPDEST PUSH1 0x20 MUL PUSH1 0x20 ADD ADD MLOAD PUSH1 0x1 PUSH1 0x1 PUSH1 0xA0 SHL SUB AND PUSH1 0x1 PUSH1 0x1 PUSH1 0xA0 SHL SUB AND DUP2 MSTORE PUSH1 0x20 ADD SWAP1 DUP2 MSTORE PUSH1 0x20 ADD PUSH0 KECCAK256 DUP2 SWAP1 SSTORE POP PUSH1 0xA PUSH0 SWAP1 SLOAD SWAP1 PUSH2 0x100 EXP SWAP1 DIV PUSH1 0x1 PUSH1 0x1 PUSH1 0xA0 SHL SUB AND PUSH1 0x1 PUSH1 0x1 PUSH1 0xA0 SHL SUB AND PUSH4 0xB552EBC8 DUP4 DUP4 PUSH4 0xFFFFFFFF AND DUP2 MLOAD DUP2 LT PUSH2 0x42D5 JUMPI PUSH2 0x42D5 PUSH2 0x5302 JUMP JUMPDEST PUSH1 0x20 MUL PUSH1 0x20 ADD ADD MLOAD ADDRESS PUSH1 0x9 PUSH0 SWAP1 SLOAD SWAP1 PUSH2 0x100 EXP SWAP1 DIV PUSH1 0x1 PUSH1 0x1 PUSH1 0xA0 SHL SUB AND PUSH1 0x40 MLOAD DUP5 PUSH4 0xFFFFFFFF AND PUSH1 0xE0 SHL DUP2 MSTORE PUSH1 0x4 ADD PUSH2 0x4311 SWAP4 SWAP3 SWAP2 SWAP1 PUSH2 0x534E JUMP JUMPDEST PUSH0 PUSH1 0x40 MLOAD DUP1 DUP4 SUB DUP2 PUSH0 DUP8 DUP1 EXTCODESIZE ISZERO DUP1 ISZERO PUSH2 0x4328 JUMPI PUSH0 PUSH0 REVERT JUMPDEST POP GAS CALL ISZERO DUP1 ISZERO PUSH2 0x433A JUMPI RETURNDATASIZE PUSH0 PUSH0 RETURNDATACOPY RETURNDATASIZE PUSH0 REVERT JUMPDEST POP POP POP POP JUMPDEST DUP1 PUSH2 0x4349 DUP2 PUSH2 0x5316 JUMP JUMPDEST SWAP2 POP POP PUSH2 0x4135 JUMP JUMPDEST POP PUSH32 0xDC44D8AFFA5D382F99B0912419A4B30B4FD04C7C5AD2C96635C7F9D4CA6E3F0E DUP2 PUSH1 0x40 MLOAD PUSH2 0x4381 SWAP2 SWAP1 PUSH2 0x4CAB JUMP JUMPDEST PUSH1 0x40 MLOAD DUP1 SWAP2 SUB SWAP1 LOG1 POP JUMP JUMPDEST PUSH0 DUP3 DUP2 MSTORE PUSH1 0x1 PUSH1 0x20 DUP2 SWAP1 MSTORE PUSH1 0x40 DUP1 DUP4 KECCAK256 SWAP1 SWAP2 ADD DUP1 SLOAD SWAP1 DUP5 SWAP1 SSTORE SWAP1 MLOAD SWAP1 SWAP2 DUP4 SWAP2 DUP4 SWAP2 DUP7 SWAP2 PUSH32 0xBD79B86FFE0AB8E8776151514217CD7CACD52C909F66475C3AF44E129F0B00FF SWAP2 SWAP1 LOG4 POP POP POP JUMP JUMPDEST PUSH0 DUP2 DUP2 MSTORE PUSH1 0xE PUSH1 0x20 MSTORE PUSH1 0x40 DUP2 KECCAK256 PUSH1 0x2 ADD DUP1 SLOAD PUSH2 0x43F3 SWAP1 PUSH2 0x5178 JUMP JUMPDEST SWAP1 POP PUSH0 SUB PUSH2 0x40D4 JUMPI PUSH1 0x40 MLOAD PUSH4 0x7E6BD239 PUSH1 0xE0 SHL DUP2 MSTORE PUSH1 0x4 DUP2 ADD DUP4 SWAP1 MSTORE PUSH1 0x24 ADD PUSH2 0xB09 JUMP JUMPDEST PUSH2 0x4421 DUP3 DUP3 PUSH2 0x3011 JUMP JUMPDEST PUSH2 0x1F71 JUMPI DUP1 DUP3 PUSH1 0x40 MLOAD PUSH4 0xE2517D3F PUSH1 0xE0 SHL DUP2 MSTORE PUSH1 0x4 ADD PUSH2 0xB09 SWAP3 SWAP2 SWAP1 PUSH2 0x54B4 JUMP JUMPDEST PUSH1 0x40 DUP1 MLOAD PUSH1 0x1 PUSH1 0x1 PUSH1 0xA0 SHL SUB DUP6 DUP2 AND PUSH1 0x24 DUP4 ADD MSTORE DUP5 AND PUSH1 0x44 DUP3 ADD MSTORE PUSH1 0x64 DUP1 DUP3 ADD DUP5 SWAP1 MSTORE DUP3 MLOAD DUP1 DUP4 SUB SWAP1 SWAP2 ADD DUP2 MSTORE PUSH1 0x84 SWAP1 SWAP2 ADD SWAP1 SWAP2 MSTORE PUSH1 0x20 DUP1 DUP3 ADD DUP1 MLOAD PUSH1 0x1 PUSH1 0x1 PUSH1 0xE0 SHL SUB AND PUSH4 0x23B872DD PUSH1 0xE0 SHL OR DUP2 MSTORE DUP3 MLOAD PUSH2 0x1F9A SWAP4 DUP9 SWAP4 SWAP1 SWAP3 PUSH0 SWAP3 DUP4 SWAP3 SWAP2 DUP4 SWAP2 SWAP1 DUP3 DUP9 GAS CALL DUP1 PUSH2 0x44B8 JUMPI PUSH1 0x40 MLOAD RETURNDATASIZE PUSH0 DUP3 RETURNDATACOPY RETURNDATASIZE DUP2 REVERT JUMPDEST POP POP PUSH0 MLOAD RETURNDATASIZE SWAP2 POP DUP2 ISZERO PUSH2 0x44CF JUMPI DUP1 PUSH1 0x1 EQ ISZERO PUSH2 0x44DC JUMP JUMPDEST PUSH1 0x1 PUSH1 0x1 PUSH1 0xA0 SHL SUB DUP5 AND EXTCODESIZE ISZERO JUMPDEST ISZERO PUSH2 0x1F9A JUMPI PUSH1 0x40 MLOAD PUSH4 0x5274AFE7 PUSH1 0xE0 SHL DUP2 MSTORE PUSH1 0x1 PUSH1 0x1 PUSH1 0xA0 SHL SUB DUP6 AND PUSH1 0x4 DUP3 ADD MSTORE PUSH1 0x24 ADD PUSH2 0xB09 JUMP JUMPDEST DUP3 DUP1 SLOAD DUP3 DUP3 SSTORE SWAP1 PUSH0 MSTORE PUSH1 0x20 PUSH0 KECCAK256 SWAP1 DUP2 ADD SWAP3 DUP3 ISZERO PUSH2 0x4549 JUMPI SWAP2 PUSH1 0x20 MUL DUP3 ADD JUMPDEST DUP3 DUP2 GT ISZERO PUSH2 0x4549 JUMPI DUP3 MLOAD DUP3 SWAP1 PUSH2 0x4539 SWAP1 DUP3 PUSH2 0x51FB JUMP JUMPDEST POP SWAP2 PUSH1 0x20 ADD SWAP2 SWAP1 PUSH1 0x1 ADD SWAP1 PUSH2 0x4523 JUMP JUMPDEST POP PUSH2 0x4555 SWAP3 SWAP2 POP PUSH2 0x45B4 JUMP JUMPDEST POP SWAP1 JUMP JUMPDEST PUSH1 0x40 MLOAD DUP1 PUSH2 0x100 ADD PUSH1 0x40 MSTORE DUP1 PUSH0 DUP2 MSTORE PUSH1 0x20 ADD PUSH0 PUSH1 0x1 PUSH1 0x1 PUSH1 0xA0 SHL SUB AND DUP2 MSTORE PUSH1 0x20 ADD PUSH1 0x60 DUP2 MSTORE PUSH1 0x20 ADD PUSH1 0x60 DUP2 MSTORE PUSH1 0x20 ADD PUSH0 PUSH1 0x3 DUP2 GT ISZERO PUSH2 0x459A JUMPI PUSH2 0x459A PUSH2 0x482B JUMP JUMPDEST DUP2 MSTORE PUSH1 0x20 ADD PUSH1 0x60 DUP2 MSTORE PUSH1 0x20 ADD PUSH0 DUP2 MSTORE PUSH1 0x20 ADD PUSH1 0x60 DUP2 MSTORE POP SWAP1 JUMP JUMPDEST DUP1 DUP3 GT ISZERO PUSH2 0x4555 JUMPI PUSH0 PUSH2 0x45C7 DUP3 DUP3 PUSH2 0x45D0 JUMP JUMPDEST POP PUSH1 0x1 ADD PUSH2 0x45B4 JUMP JUMPDEST POP DUP1 SLOAD PUSH2 0x45DC SWAP1 PUSH2 0x5178 JUMP JUMPDEST PUSH0 DUP3 SSTORE DUP1 PUSH1 0x1F LT PUSH2 0x45EB JUMPI POP POP JUMP JUMPDEST PUSH1 0x1F ADD PUSH1 0x20 SWAP1 DIV SWAP1 PUSH0 MSTORE PUSH1 0x20 PUSH0 KECCAK256 SWAP1 DUP2 ADD SWAP1 PUSH2 0x2258 SWAP2 SWAP1 JUMPDEST DUP1 DUP3 GT ISZERO PUSH2 0x4555 JUMPI PUSH0 DUP2 SSTORE PUSH1 0x1 ADD PUSH2 0x4603 JUMP JUMPDEST PUSH0 PUSH1 0x20 DUP3 DUP5 SUB SLT ISZERO PUSH2 0x4626 JUMPI PUSH0 PUSH0 REVERT JUMPDEST POP CALLDATALOAD SWAP2 SWAP1 POP JUMP JUMPDEST PUSH0 PUSH1 0x20 DUP3 DUP5 SUB SLT ISZERO PUSH2 0x463D JUMPI PUSH0 PUSH0 REVERT JUMPDEST DUP2 CALLDATALOAD PUSH1 0x1 PUSH1 0x1 PUSH1 0xE0 SHL SUB NOT DUP2 AND DUP2 EQ PUSH2 0x4654 JUMPI PUSH0 PUSH0 REVERT JUMPDEST SWAP4 SWAP3 POP POP POP JUMP JUMPDEST PUSH0 DUP2 MLOAD DUP1 DUP5 MSTORE PUSH1 0x20 DUP5 ADD SWAP4 POP PUSH1 0x20 DUP4 ADD PUSH0 JUMPDEST DUP3 DUP2 LT ISZERO PUSH2 0x468B JUMPI DUP2 MLOAD DUP7 MSTORE PUSH1 0x20 SWAP6 DUP7 ADD SWAP6 SWAP1 SWAP2 ADD SWAP1 PUSH1 0x1 ADD PUSH2 0x466D JUMP JUMPDEST POP SWAP4 SWAP5 SWAP4 POP POP POP POP JUMP JUMPDEST PUSH1 0x20 DUP2 MSTORE PUSH0 PUSH2 0x4654 PUSH1 0x20 DUP4 ADD DUP5 PUSH2 0x465B JUMP JUMPDEST PUSH0 PUSH0 PUSH1 0x40 DUP4 DUP6 SUB SLT ISZERO PUSH2 0x46B8 JUMPI PUSH0 PUSH0 REVERT JUMPDEST POP POP DUP1 CALLDATALOAD SWAP3 PUSH1 0x20 SWAP1 SWAP2 ADD CALLDATALOAD SWAP2 POP JUMP JUMPDEST DUP1 ISZERO ISZERO DUP2 EQ PUSH2 0x2258 JUMPI PUSH0 PUSH0 REVERT JUMPDEST PUSH0 PUSH0 PUSH1 0x40 DUP4 DUP6 SUB SLT ISZERO PUSH2 0x46E5 JUMPI PUSH0 PUSH0 REVERT JUMPDEST DUP3 CALLDATALOAD SWAP2 POP PUSH1 0x20 DUP4 ADD CALLDATALOAD PUSH2 0x46F7 DUP2 PUSH2 0x46C7 JUMP JUMPDEST DUP1 SWAP2 POP POP SWAP3 POP SWAP3 SWAP1 POP JUMP JUMPDEST PUSH4 0x4E487B71 PUSH1 0xE0 SHL PUSH0 MSTORE PUSH1 0x41 PUSH1 0x4 MSTORE PUSH1 0x24 PUSH0 REVERT JUMPDEST PUSH1 0x40 MLOAD PUSH1 0x1F DUP3 ADD PUSH1 0x1F NOT AND DUP2 ADD PUSH1 0x1 PUSH1 0x1 PUSH1 0x40 SHL SUB DUP2 GT DUP3 DUP3 LT OR ISZERO PUSH2 0x473E JUMPI PUSH2 0x473E PUSH2 0x4702 JUMP JUMPDEST PUSH1 0x40 MSTORE SWAP2 SWAP1 POP JUMP JUMPDEST PUSH0 PUSH1 0x1 PUSH1 0x1 PUSH1 0x40 SHL SUB DUP3 GT ISZERO PUSH2 0x475E JUMPI PUSH2 0x475E PUSH2 0x4702 JUMP JUMPDEST POP PUSH1 0x5 SHL PUSH1 0x20 ADD SWAP1 JUMP JUMPDEST PUSH0 PUSH1 0x20 DUP3 DUP5 SUB SLT ISZERO PUSH2 0x4778 JUMPI PUSH0 PUSH0 REVERT JUMPDEST DUP2 CALLDATALOAD PUSH1 0x1 PUSH1 0x1 PUSH1 0x40 SHL SUB DUP2 GT ISZERO PUSH2 0x478D JUMPI PUSH0 PUSH0 REVERT JUMPDEST DUP3 ADD PUSH1 0x1F DUP2 ADD DUP5 SGT PUSH2 0x479D JUMPI PUSH0 PUSH0 REVERT JUMPDEST DUP1 CALLDATALOAD PUSH2 0x47B0 PUSH2 0x47AB DUP3 PUSH2 0x4746 JUMP JUMPDEST PUSH2 0x4716 JUMP JUMPDEST DUP1 DUP3 DUP3 MSTORE PUSH1 0x20 DUP3 ADD SWAP2 POP PUSH1 0x20 DUP4 PUSH1 0x5 SHL DUP6 ADD ADD SWAP3 POP DUP7 DUP4 GT ISZERO PUSH2 0x47D1 JUMPI PUSH0 PUSH0 REVERT JUMPDEST PUSH1 0x20 DUP5 ADD SWAP4 POP JUMPDEST DUP3 DUP5 LT ISZERO PUSH2 0x47F3 JUMPI DUP4 CALLDATALOAD DUP3 MSTORE PUSH1 0x20 SWAP4 DUP5 ADD SWAP4 SWAP1 SWAP2 ADD SWAP1 PUSH2 0x47D8 JUMP JUMPDEST SWAP7 SWAP6 POP POP POP POP POP POP JUMP JUMPDEST PUSH0 DUP2 MLOAD DUP1 DUP5 MSTORE DUP1 PUSH1 0x20 DUP5 ADD PUSH1 0x20 DUP7 ADD MCOPY PUSH0 PUSH1 0x20 DUP3 DUP7 ADD ADD MSTORE PUSH1 0x20 PUSH1 0x1F NOT PUSH1 0x1F DUP4 ADD AND DUP6 ADD ADD SWAP2 POP POP SWAP3 SWAP2 POP POP JUMP JUMPDEST PUSH4 0x4E487B71 PUSH1 0xE0 SHL PUSH0 MSTORE PUSH1 0x21 PUSH1 0x4 MSTORE PUSH1 0x24 PUSH0 REVERT JUMPDEST PUSH1 0x4 DUP2 LT PUSH2 0x485B JUMPI PUSH4 0x4E487B71 PUSH1 0xE0 SHL PUSH0 MSTORE PUSH1 0x21 PUSH1 0x4 MSTORE PUSH1 0x24 PUSH0 REVERT JUMPDEST SWAP1 MSTORE JUMP JUMPDEST PUSH0 DUP3 DUP3 MLOAD DUP1 DUP6 MSTORE PUSH1 0x20 DUP6 ADD SWAP5 POP PUSH1 0x20 DUP2 PUSH1 0x5 SHL DUP4 ADD ADD PUSH1 0x20 DUP6 ADD PUSH0 JUMPDEST DUP4 DUP2 LT ISZERO PUSH2 0x48AD JUMPI PUSH1 0x1F NOT DUP6 DUP5 SUB ADD DUP9 MSTORE PUSH2 0x4897 DUP4 DUP4 MLOAD PUSH2 0x47FD JUMP JUMPDEST PUSH1 0x20 SWAP9 DUP10 ADD SWAP9 SWAP1 SWAP4 POP SWAP2 SWAP1 SWAP2 ADD SWAP1 PUSH1 0x1 ADD PUSH2 0x487B JUMP JUMPDEST POP SWAP1 SWAP7 SWAP6 POP POP POP POP POP POP JUMP JUMPDEST PUSH0 DUP2 MLOAD DUP1 DUP5 MSTORE PUSH1 0x20 DUP5 ADD SWAP4 POP PUSH1 0x20 DUP4 ADD PUSH0 JUMPDEST DUP3 DUP2 LT ISZERO PUSH2 0x468B JUMPI DUP2 MLOAD ISZERO ISZERO DUP7 MSTORE PUSH1 0x20 SWAP6 DUP7 ADD SWAP6 SWAP1 SWAP2 ADD SWAP1 PUSH1 0x1 ADD PUSH2 0x48CB JUMP JUMPDEST PUSH0 PUSH1 0x40 DUP3 ADD PUSH1 0x40 DUP4 MSTORE DUP1 DUP6 MLOAD DUP1 DUP4 MSTORE PUSH1 0x60 DUP6 ADD SWAP2 POP PUSH1 0x60 DUP2 PUSH1 0x5 SHL DUP7 ADD ADD SWAP3 POP PUSH1 0x20 DUP8 ADD PUSH0 JUMPDEST DUP3 DUP2 LT ISZERO PUSH2 0x49E1 JUMPI PUSH1 0x5F NOT DUP8 DUP7 SUB ADD DUP5 MSTORE DUP2 MLOAD DUP1 MLOAD DUP7 MSTORE PUSH1 0x20 DUP2 ADD MLOAD PUSH2 0x4942 PUSH1 0x20 DUP9 ADD DUP3 PUSH1 0x1 PUSH1 0x1 PUSH1 0xA0 SHL SUB AND SWAP1 MSTORE JUMP JUMPDEST POP PUSH1 0x40 DUP2 ADD MLOAD PUSH2 0x100 PUSH1 0x40 DUP9 ADD MSTORE PUSH2 0x495E PUSH2 0x100 DUP9 ADD DUP3 PUSH2 0x47FD JUMP JUMPDEST SWAP1 POP PUSH1 0x60 DUP3 ADD MLOAD DUP8 DUP3 SUB PUSH1 0x60 DUP10 ADD MSTORE PUSH2 0x4977 DUP3 DUP3 PUSH2 0x47FD JUMP JUMPDEST SWAP2 POP POP PUSH1 0x80 DUP3 ADD MLOAD PUSH2 0x498C PUSH1 0x80 DUP10 ADD DUP3 PUSH2 0x483F JUMP JUMPDEST POP PUSH1 0xA0 DUP3 ADD MLOAD DUP8 DUP3 SUB PUSH1 0xA0 DUP10 ADD MSTORE PUSH2 0x49A4 DUP3 DUP3 PUSH2 0x485F JUMP JUMPDEST SWAP2 POP POP PUSH1 0xC0 DUP3 ADD MLOAD PUSH1 0xC0 DUP9 ADD MSTORE PUSH1 0xE0 DUP3 ADD MLOAD SWAP2 POP DUP7 DUP2 SUB PUSH1 0xE0 DUP9 ADD MSTORE PUSH2 0x49CA DUP2 DUP4 PUSH2 0x47FD JUMP JUMPDEST SWAP7 POP POP POP PUSH1 0x20 SWAP4 DUP5 ADD SWAP4 SWAP2 SWAP1 SWAP2 ADD SWAP1 PUSH1 0x1 ADD PUSH2 0x4911 JUMP JUMPDEST POP POP POP POP DUP3 DUP2 SUB PUSH1 0x20 DUP5 ADD MSTORE PUSH2 0xA31 DUP2 DUP6 PUSH2 0x48B9 JUMP JUMPDEST PUSH0 DUP3 PUSH1 0x1F DUP4 ADD SLT PUSH2 0x4A06 JUMPI PUSH0 PUSH0 REVERT JUMPDEST DUP2 CALLDATALOAD PUSH1 0x1 PUSH1 0x1 PUSH1 0x40 SHL SUB DUP2 GT ISZERO PUSH2 0x4A1F JUMPI PUSH2 0x4A1F PUSH2 0x4702 JUMP JUMPDEST PUSH2 0x4A32 PUSH1 0x1F DUP3 ADD PUSH1 0x1F NOT AND PUSH1 0x20 ADD PUSH2 0x4716 JUMP JUMPDEST DUP2 DUP2 MSTORE DUP5 PUSH1 0x20 DUP4 DUP7 ADD ADD GT ISZERO PUSH2 0x4A46 JUMPI PUSH0 PUSH0 REVERT JUMPDEST DUP2 PUSH1 0x20 DUP6 ADD PUSH1 0x20 DUP4 ADD CALLDATACOPY PUSH0 SWAP2 DUP2 ADD PUSH1 0x20 ADD SWAP2 SWAP1 SWAP2 MSTORE SWAP4 SWAP3 POP POP POP JUMP JUMPDEST PUSH0 DUP3 PUSH1 0x1F DUP4 ADD SLT PUSH2 0x4A71 JUMPI PUSH0 PUSH0 REVERT JUMPDEST DUP2 CALLDATALOAD PUSH2 0x4A7F PUSH2 0x47AB DUP3 PUSH2 0x4746 JUMP JUMPDEST DUP1 DUP3 DUP3 MSTORE PUSH1 0x20 DUP3 ADD SWAP2 POP PUSH1 0x20 DUP4 PUSH1 0x5 SHL DUP7 ADD ADD SWAP3 POP DUP6 DUP4 GT ISZERO PUSH2 0x4AA0 JUMPI PUSH0 PUSH0 REVERT JUMPDEST PUSH1 0x20 DUP6 ADD JUMPDEST DUP4 DUP2 LT ISZERO PUSH2 0x4AE0 JUMPI DUP1 CALLDATALOAD PUSH1 0x1 PUSH1 0x1 PUSH1 0x40 SHL SUB DUP2 GT ISZERO PUSH2 0x4AC2 JUMPI PUSH0 PUSH0 REVERT JUMPDEST PUSH2 0x4AD1 DUP9 PUSH1 0x20 DUP4 DUP11 ADD ADD PUSH2 0x49F7 JUMP JUMPDEST DUP5 MSTORE POP PUSH1 0x20 SWAP3 DUP4 ADD SWAP3 ADD PUSH2 0x4AA5 JUMP JUMPDEST POP SWAP6 SWAP5 POP POP POP POP POP JUMP JUMPDEST PUSH0 PUSH0 PUSH0 PUSH0 PUSH0 PUSH1 0xA0 DUP7 DUP9 SUB SLT ISZERO PUSH2 0x4AFE JUMPI PUSH0 PUSH0 REVERT JUMPDEST DUP6 CALLDATALOAD SWAP5 POP PUSH1 0x20 DUP7 ADD CALLDATALOAD PUSH1 0x1 PUSH1 0x1 PUSH1 0x40 SHL SUB DUP2 GT ISZERO PUSH2 0x4B1A JUMPI PUSH0 PUSH0 REVERT JUMPDEST PUSH2 0x4B26 DUP9 DUP3 DUP10 ADD PUSH2 0x49F7 JUMP JUMPDEST SWAP5 POP POP PUSH1 0x40 DUP7 ADD CALLDATALOAD PUSH1 0x1 PUSH1 0x1 PUSH1 0x40 SHL SUB DUP2 GT ISZERO PUSH2 0x4B41 JUMPI PUSH0 PUSH0 REVERT JUMPDEST PUSH2 0x4B4D DUP9 DUP3 DUP10 ADD PUSH2 0x49F7 JUMP JUMPDEST SWAP4 POP POP PUSH1 0x60 DUP7 ADD CALLDATALOAD PUSH1 0x1 PUSH1 0x1 PUSH1 0x40 SHL SUB DUP2 GT ISZERO PUSH2 0x4B68 JUMPI PUSH0 PUSH0 REVERT JUMPDEST PUSH2 0x4B74 DUP9 DUP3 DUP10 ADD PUSH2 0x4A62 JUMP JUMPDEST SWAP3 POP POP PUSH1 0x80 DUP7 ADD CALLDATALOAD PUSH1 0x1 PUSH1 0x1 PUSH1 0x40 SHL SUB DUP2 GT ISZERO PUSH2 0x4B8F JUMPI PUSH0 PUSH0 REVERT JUMPDEST PUSH2 0x4B9B DUP9 DUP3 DUP10 ADD PUSH2 0x49F7 JUMP JUMPDEST SWAP2 POP POP SWAP3 SWAP6 POP SWAP3 SWAP6 SWAP1 SWAP4 POP JUMP JUMPDEST DUP1 CALLDATALOAD PUSH1 0x1 PUSH1 0x1 PUSH1 0xA0 SHL SUB DUP2 AND DUP2 EQ PUSH2 0x4BBE JUMPI PUSH0 PUSH0 REVERT JUMPDEST SWAP2 SWAP1 POP JUMP JUMPDEST PUSH0 PUSH1 0x20 DUP3 DUP5 SUB SLT ISZERO PUSH2 0x4BD3 JUMPI PUSH0 PUSH0 REVERT JUMPDEST DUP2 CALLDATALOAD PUSH1 0x1 PUSH1 0x1 PUSH1 0x40 SHL SUB DUP2 GT ISZERO PUSH2 0x4BE8 JUMPI PUSH0 PUSH0 REVERT JUMPDEST DUP3 ADD PUSH1 0x1F DUP2 ADD DUP5 SGT PUSH2 0x4BF8 JUMPI PUSH0 PUSH0 REVERT JUMPDEST DUP1 CALLDATALOAD PUSH2 0x4C06 PUSH2 0x47AB DUP3 PUSH2 0x4746 JUMP JUMPDEST DUP1 DUP3 DUP3 MSTORE PUSH1 0x20 DUP3 ADD SWAP2 POP PUSH1 0x20 DUP4 PUSH1 0x5 SHL DUP6 ADD ADD SWAP3 POP DUP7 DUP4 GT ISZERO PUSH2 0x4C27 JUMPI PUSH0 PUSH0 REVERT JUMPDEST PUSH1 0x20 DUP5 ADD SWAP4 POP JUMPDEST DUP3 DUP5 LT ISZERO PUSH2 0x47F3 JUMPI PUSH2 0x4C3F DUP5 PUSH2 0x4BA8 JUMP JUMPDEST DUP3 MSTORE PUSH1 0x20 SWAP4 DUP5 ADD SWAP4 SWAP1 SWAP2 ADD SWAP1 PUSH2 0x4C2E JUMP JUMPDEST PUSH0 PUSH1 0x20 DUP3 DUP5 SUB SLT ISZERO PUSH2 0x4C60 JUMPI PUSH0 PUSH0 REVERT JUMPDEST DUP2 CALLDATALOAD PUSH1 0x1 PUSH1 0x1 PUSH1 0x40 SHL SUB DUP2 GT ISZERO PUSH2 0x4C75 JUMPI PUSH0 PUSH0 REVERT JUMPDEST PUSH2 0x27D8 DUP5 DUP3 DUP6 ADD PUSH2 0x49F7 JUMP JUMPDEST PUSH0 PUSH0 PUSH1 0x40 DUP4 DUP6 SUB SLT ISZERO PUSH2 0x4C92 JUMPI PUSH0 PUSH0 REVERT JUMPDEST DUP3 CALLDATALOAD SWAP2 POP PUSH2 0x4CA2 PUSH1 0x20 DUP5 ADD PUSH2 0x4BA8 JUMP JUMPDEST SWAP1 POP SWAP3 POP SWAP3 SWAP1 POP JUMP JUMPDEST PUSH1 0x20 DUP1 DUP3 MSTORE DUP3 MLOAD DUP3 DUP3 ADD DUP2 SWAP1 MSTORE PUSH0 SWAP2 DUP5 ADD SWAP1 PUSH1 0x40 DUP5 ADD SWAP1 DUP4 JUMPDEST DUP2 DUP2 LT ISZERO PUSH2 0x4CEB JUMPI DUP4 MLOAD PUSH1 0x1 PUSH1 0x1 PUSH1 0xA0 SHL SUB AND DUP4 MSTORE PUSH1 0x20 SWAP4 DUP5 ADD SWAP4 SWAP1 SWAP3 ADD SWAP2 PUSH1 0x1 ADD PUSH2 0x4CC4 JUMP JUMPDEST POP SWAP1 SWAP6 SWAP5 POP POP POP POP POP JUMP JUMPDEST PUSH0 PUSH0 PUSH1 0x40 DUP4 DUP6 SUB SLT ISZERO PUSH2 0x4D07 JUMPI PUSH0 PUSH0 REVERT JUMPDEST PUSH2 0x4D10 DUP4 PUSH2 0x4BA8 JUMP JUMPDEST SWAP5 PUSH1 0x20 SWAP4 SWAP1 SWAP4 ADD CALLDATALOAD SWAP4 POP POP POP JUMP JUMPDEST PUSH0 PUSH0 PUSH0 PUSH1 0x60 DUP5 DUP7 SUB SLT ISZERO PUSH2 0x4D30 JUMPI PUSH0 PUSH0 REVERT JUMPDEST PUSH2 0x4D39 DUP5 PUSH2 0x4BA8 JUMP JUMPDEST SWAP3 POP PUSH1 0x20 DUP5 ADD CALLDATALOAD PUSH1 0x1 PUSH1 0x1 PUSH1 0x40 SHL SUB DUP2 GT ISZERO PUSH2 0x4D53 JUMPI PUSH0 PUSH0 REVERT JUMPDEST PUSH2 0x4D5F DUP7 DUP3 DUP8 ADD PUSH2 0x49F7 JUMP JUMPDEST SWAP4 SWAP7 SWAP4 SWAP6 POP POP POP POP PUSH1 0x40 SWAP2 SWAP1 SWAP2 ADD CALLDATALOAD SWAP1 JUMP JUMPDEST PUSH1 0x20 DUP2 MSTORE PUSH0 PUSH2 0x4654 PUSH1 0x20 DUP4 ADD DUP5 PUSH2 0x47FD JUMP JUMPDEST PUSH0 PUSH0 PUSH0 PUSH0 PUSH0 PUSH1 0xA0 DUP7 DUP9 SUB SLT ISZERO PUSH2 0x4D97 JUMPI PUSH0 PUSH0 REVERT JUMPDEST DUP6 CALLDATALOAD SWAP5 POP PUSH1 0x20 DUP7 ADD CALLDATALOAD SWAP4 POP PUSH1 0x40 DUP7 ADD CALLDATALOAD PUSH1 0x1 PUSH1 0x1 PUSH1 0x40 SHL SUB DUP2 GT ISZERO PUSH2 0x4DBA JUMPI PUSH0 PUSH0 REVERT JUMPDEST PUSH2 0x4DC6 DUP9 DUP3 DUP10 ADD PUSH2 0x49F7 JUMP JUMPDEST SWAP4 POP POP PUSH1 0x60 DUP7 ADD CALLDATALOAD SWAP2 POP PUSH1 0x80 DUP7 ADD CALLDATALOAD PUSH1 0x1 PUSH1 0x1 PUSH1 0x40 SHL SUB DUP2 GT ISZERO PUSH2 0x4B8F JUMPI PUSH0 PUSH0 REVERT JUMPDEST PUSH0 PUSH1 0x20 DUP3 DUP5 SUB SLT ISZERO PUSH2 0x4DF8 JUMPI PUSH0 PUSH0 REVERT JUMPDEST PUSH2 0x4654 DUP3 PUSH2 0x4BA8 JUMP JUMPDEST PUSH0 PUSH0 PUSH0 PUSH0 PUSH0 PUSH0 PUSH0 PUSH1 0xE0 DUP9 DUP11 SUB SLT ISZERO PUSH2 0x4E17 JUMPI PUSH0 PUSH0 REVERT JUMPDEST DUP8 CALLDATALOAD SWAP7 POP PUSH1 0x20 DUP9 ADD CALLDATALOAD PUSH1 0x1 PUSH1 0x1 PUSH1 0x40 SHL SUB DUP2 GT ISZERO PUSH2 0x4E33 JUMPI PUSH0 PUSH0 REVERT JUMPDEST PUSH2 0x4E3F DUP11 DUP3 DUP12 ADD PUSH2 0x49F7 JUMP JUMPDEST SWAP7 POP POP PUSH1 0x40 DUP9 ADD CALLDATALOAD PUSH1 0x1 PUSH1 0x1 PUSH1 0x40 SHL SUB DUP2 GT ISZERO PUSH2 0x4E5A JUMPI PUSH0 PUSH0 REVERT JUMPDEST PUSH2 0x4E66 DUP11 DUP3 DUP12 ADD PUSH2 0x49F7 JUMP JUMPDEST SWAP6 POP POP PUSH1 0x60 DUP9 ADD CALLDATALOAD PUSH1 0x1 PUSH1 0x1 PUSH1 0x40 SHL SUB DUP2 GT ISZERO PUSH2 0x4E81 JUMPI PUSH0 PUSH0 REVERT JUMPDEST PUSH2 0x4E8D DUP11 DUP3 DUP12 ADD PUSH2 0x4A62 JUMP JUMPDEST SWAP5 POP POP PUSH1 0x80 DUP9 ADD CALLDATALOAD SWAP3 POP PUSH1 0xA0 DUP9 ADD CALLDATALOAD SWAP2 POP PUSH1 0xC0 DUP9 ADD CALLDATALOAD PUSH1 0x1 PUSH1 0x1 PUSH1 0x40 SHL SUB DUP2 GT ISZERO PUSH2 0x4EB6 JUMPI PUSH0 PUSH0 REVERT JUMPDEST PUSH2 0x4EC2 DUP11 DUP3 DUP12 ADD PUSH2 0x49F7 JUMP JUMPDEST SWAP2 POP POP SWAP3 SWAP6 SWAP9 SWAP2 SWAP5 SWAP8 POP SWAP3 SWAP6 POP JUMP JUMPDEST PUSH0 PUSH0 PUSH0 PUSH0 PUSH1 0x80 DUP6 DUP8 SUB SLT ISZERO PUSH2 0x4EE4 JUMPI PUSH0 PUSH0 REVERT JUMPDEST DUP5 CALLDATALOAD SWAP4 POP PUSH1 0x20 DUP6 ADD CALLDATALOAD PUSH1 0x1 PUSH1 0x1 PUSH1 0x40 SHL SUB DUP2 GT ISZERO PUSH2 0x4F00 JUMPI PUSH0 PUSH0 REVERT JUMPDEST PUSH2 0x4F0C DUP8 DUP3 DUP9 ADD PUSH2 0x49F7 JUMP JUMPDEST SWAP4 POP POP PUSH1 0x40 DUP6 ADD CALLDATALOAD SWAP2 POP PUSH1 0x60 DUP6 ADD CALLDATALOAD PUSH1 0x1 PUSH1 0x1 PUSH1 0x40 SHL SUB DUP2 GT ISZERO PUSH2 0x4F2E JUMPI PUSH0 PUSH0 REVERT JUMPDEST PUSH2 0x4F3A DUP8 DUP3 DUP9 ADD PUSH2 0x49F7 JUMP JUMPDEST SWAP2 POP POP SWAP3 SWAP6 SWAP2 SWAP5 POP SWAP3 POP JUMP JUMPDEST PUSH0 PUSH1 0x20 DUP3 ADD PUSH1 0x20 DUP4 MSTORE DUP1 DUP5 MLOAD DUP1 DUP4 MSTORE PUSH1 0x40 DUP6 ADD SWAP2 POP PUSH1 0x40 DUP2 PUSH1 0x5 SHL DUP7 ADD ADD SWAP3 POP PUSH1 0x20 DUP7 ADD PUSH0 JUMPDEST DUP3 DUP2 LT ISZERO PUSH2 0x4FE5 JUMPI PUSH1 0x3F NOT DUP8 DUP7 SUB ADD DUP5 MSTORE DUP2 MLOAD DUP1 MLOAD DUP7 MSTORE PUSH1 0x20 DUP2 ADD MLOAD PUSH1 0xA0 PUSH1 0x20 DUP9 ADD MSTORE PUSH2 0x4F9C PUSH1 0xA0 DUP9 ADD DUP3 PUSH2 0x47FD JUMP JUMPDEST SWAP1 POP PUSH1 0x40 DUP3 ADD MLOAD PUSH1 0x40 DUP9 ADD MSTORE PUSH1 0x60 DUP3 ADD MLOAD DUP8 DUP3 SUB PUSH1 0x60 DUP10 ADD MSTORE PUSH2 0x4FBF DUP3 DUP3 PUSH2 0x47FD JUMP JUMPDEST PUSH1 0x80 SWAP4 DUP5 ADD MLOAD ISZERO ISZERO SWAP9 SWAP1 SWAP4 ADD SWAP8 SWAP1 SWAP8 MSTORE POP SWAP5 POP PUSH1 0x20 SWAP4 DUP5 ADD SWAP4 SWAP2 SWAP1 SWAP2 ADD SWAP1 PUSH1 0x1 ADD PUSH2 0x4F6C JUMP JUMPDEST POP SWAP3 SWAP7 SWAP6 POP POP POP POP POP POP JUMP JUMPDEST PUSH0 PUSH0 PUSH0 PUSH0 PUSH0 PUSH0 PUSH0 PUSH1 0xE0 DUP9 DUP11 SUB SLT ISZERO PUSH2 0x5007 JUMPI PUSH0 PUSH0 REVERT JUMPDEST DUP8 CALLDATALOAD PUSH1 0x1 PUSH1 0x1 PUSH1 0x40 SHL SUB DUP2 GT ISZERO PUSH2 0x501C JUMPI PUSH0 PUSH0 REVERT JUMPDEST PUSH2 0x5028 DUP11 DUP3 DUP12 ADD PUSH2 0x49F7 JUMP JUMPDEST SWAP8 POP POP PUSH1 0x20 DUP9 ADD CALLDATALOAD PUSH1 0x1 PUSH1 0x1 PUSH1 0x40 SHL SUB DUP2 GT ISZERO PUSH2 0x5043 JUMPI PUSH0 PUSH0 REVERT JUMPDEST PUSH2 0x504F DUP11 DUP3 DUP12 ADD PUSH2 0x49F7 JUMP JUMPDEST SWAP7 POP POP PUSH2 0x505E PUSH1 0x40 DUP10 ADD PUSH2 0x4BA8 JUMP JUMPDEST SWAP5 POP PUSH2 0x506C PUSH1 0x60 DUP10 ADD PUSH2 0x4BA8 JUMP JUMPDEST SWAP4 POP PUSH2 0x507A PUSH1 0x80 DUP10 ADD PUSH2 0x4BA8 JUMP JUMPDEST SWAP3 POP PUSH1 0xA0 DUP9 ADD CALLDATALOAD SWAP2 POP PUSH2 0x508F PUSH1 0xC0 DUP10 ADD PUSH2 0x4BA8 JUMP JUMPDEST SWAP1 POP SWAP3 SWAP6 SWAP9 SWAP2 SWAP5 SWAP8 POP SWAP3 SWAP6 POP JUMP JUMPDEST PUSH1 0x20 DUP1 DUP3 MSTORE DUP3 MLOAD DUP3 DUP3 ADD DUP2 SWAP1 MSTORE PUSH0 SWAP2 DUP5 ADD SWAP1 PUSH1 0x40 DUP5 ADD SWAP1 DUP4 JUMPDEST DUP2 DUP2 LT ISZERO PUSH2 0x4CEB JUMPI DUP4 MLOAD DUP1 MLOAD DUP5 MSTORE PUSH1 0x20 DUP2 ADD MLOAD PUSH1 0x20 DUP6 ADD MSTORE PUSH1 0x40 DUP2 ADD MLOAD PUSH1 0x40 DUP6 ADD MSTORE POP PUSH1 0x60 DUP4 ADD SWAP3 POP PUSH1 0x20 DUP5 ADD SWAP4 POP PUSH1 0x1 DUP2 ADD SWAP1 POP PUSH2 0x50B6 JUMP JUMPDEST PUSH4 0x4E487B71 PUSH1 0xE0 SHL PUSH0 MSTORE PUSH1 0x11 PUSH1 0x4 MSTORE PUSH1 0x24 PUSH0 REVERT JUMPDEST DUP1 DUP3 MUL DUP2 ISZERO DUP3 DUP3 DIV DUP5 EQ OR PUSH2 0xA6A JUMPI PUSH2 0xA6A PUSH2 0x50F0 JUMP JUMPDEST DUP1 DUP3 ADD DUP1 DUP3 GT ISZERO PUSH2 0xA6A JUMPI PUSH2 0xA6A PUSH2 0x50F0 JUMP JUMPDEST DUP2 DUP2 SUB DUP2 DUP2 GT ISZERO PUSH2 0xA6A JUMPI PUSH2 0xA6A PUSH2 0x50F0 JUMP JUMPDEST PUSH1 0x20 DUP1 DUP3 MSTORE PUSH1 0x1D SWAP1 DUP3 ADD MSTORE PUSH32 0x6F6E6C792061636365737369626C6520746F2061647665727469736572000000 PUSH1 0x40 DUP3 ADD MSTORE PUSH1 0x60 ADD SWAP1 JUMP JUMPDEST PUSH1 0x1 DUP2 DUP2 SHR SWAP1 DUP3 AND DUP1 PUSH2 0x518C JUMPI PUSH1 0x7F DUP3 AND SWAP2 POP JUMPDEST PUSH1 0x20 DUP3 LT DUP2 SUB PUSH2 0x51AA JUMPI PUSH4 0x4E487B71 PUSH1 0xE0 SHL PUSH0 MSTORE PUSH1 0x22 PUSH1 0x4 MSTORE PUSH1 0x24 PUSH0 REVERT JUMPDEST POP SWAP2 SWAP1 POP JUMP JUMPDEST PUSH1 0x1F DUP3 GT ISZERO PUSH2 0x2033 JUMPI DUP1 PUSH0 MSTORE PUSH1 0x20 PUSH0 KECCAK256 PUSH1 0x1F DUP5 ADD PUSH1 0x5 SHR DUP2 ADD PUSH1 0x20 DUP6 LT ISZERO PUSH2 0x51D5 JUMPI POP DUP1 JUMPDEST PUSH1 0x1F DUP5 ADD PUSH1 0x5 SHR DUP3 ADD SWAP2 POP JUMPDEST DUP2 DUP2 LT ISZERO PUSH2 0x51F4 JUMPI PUSH0 DUP2 SSTORE PUSH1 0x1 ADD PUSH2 0x51E1 JUMP JUMPDEST POP POP POP POP POP JUMP JUMPDEST DUP2 MLOAD PUSH1 0x1 PUSH1 0x1 PUSH1 0x40 SHL SUB DUP2 GT ISZERO PUSH2 0x5214 JUMPI PUSH2 0x5214 PUSH2 0x4702 JUMP JUMPDEST PUSH2 0x5228 DUP2 PUSH2 0x5222 DUP5 SLOAD PUSH2 0x5178 JUMP JUMPDEST DUP5 PUSH2 0x51B0 JUMP JUMPDEST PUSH1 0x20 PUSH1 0x1F DUP3 GT PUSH1 0x1 DUP2 EQ PUSH2 0x525A JUMPI PUSH0 DUP4 ISZERO PUSH2 0x5243 JUMPI POP DUP5 DUP3 ADD MLOAD JUMPDEST PUSH0 NOT PUSH1 0x3 DUP6 SWAP1 SHL SHR NOT AND PUSH1 0x1 DUP5 SWAP1 SHL OR DUP5 SSTORE PUSH2 0x51F4 JUMP JUMPDEST PUSH0 DUP5 DUP2 MSTORE PUSH1 0x20 DUP2 KECCAK256 PUSH1 0x1F NOT DUP6 AND SWAP2 JUMPDEST DUP3 DUP2 LT ISZERO PUSH2 0x5289 JUMPI DUP8 DUP6 ADD MLOAD DUP3 SSTORE PUSH1 0x20 SWAP5 DUP6 ADD SWAP5 PUSH1 0x1 SWAP1 SWAP3 ADD SWAP2 ADD PUSH2 0x5269 JUMP JUMPDEST POP DUP5 DUP3 LT ISZERO PUSH2 0x52A6 JUMPI DUP7 DUP5 ADD MLOAD PUSH0 NOT PUSH1 0x3 DUP8 SWAP1 SHL PUSH1 0xF8 AND SHR NOT AND DUP2 SSTORE JUMPDEST POP POP POP POP PUSH1 0x1 SWAP1 DUP2 SHL ADD SWAP1 SSTORE POP JUMP JUMPDEST PUSH0 DUP3 PUSH2 0x52CF JUMPI PUSH4 0x4E487B71 PUSH1 0xE0 SHL PUSH0 MSTORE PUSH1 0x12 PUSH1 0x4 MSTORE PUSH1 0x24 PUSH0 REVERT JUMPDEST POP DIV SWAP1 JUMP JUMPDEST PUSH1 0x20 DUP1 DUP3 MSTORE PUSH1 0x14 SWAP1 DUP3 ADD MSTORE PUSH20 0x31B0B63632B9103737BA10383AB13634B9B432B9 PUSH1 0x61 SHL PUSH1 0x40 DUP3 ADD MSTORE PUSH1 0x60 ADD SWAP1 JUMP JUMPDEST PUSH4 0x4E487B71 PUSH1 0xE0 SHL PUSH0 MSTORE PUSH1 0x32 PUSH1 0x4 MSTORE PUSH1 0x24 PUSH0 REVERT JUMPDEST PUSH0 PUSH4 0xFFFFFFFF DUP3 AND PUSH4 0xFFFFFFFF DUP2 SUB PUSH2 0x5331 JUMPI PUSH2 0x5331 PUSH2 0x50F0 JUMP JUMPDEST PUSH1 0x1 ADD SWAP3 SWAP2 POP POP JUMP JUMPDEST PUSH4 0x4E487B71 PUSH1 0xE0 SHL PUSH0 MSTORE PUSH1 0x31 PUSH1 0x4 MSTORE PUSH1 0x24 PUSH0 REVERT JUMPDEST PUSH1 0x1 PUSH1 0x1 PUSH1 0xA0 SHL SUB SWAP4 DUP5 AND DUP2 MSTORE SWAP2 DUP4 AND PUSH1 0x20 DUP4 ADD MSTORE SWAP1 SWAP2 AND PUSH1 0x40 DUP3 ADD MSTORE PUSH1 0x60 ADD SWAP1 JUMP JUMPDEST PUSH1 0x20 DUP1 DUP3 MSTORE PUSH1 0x1F SWAP1 DUP3 ADD MSTORE PUSH32 0x63616C6C6572206973206E6F74206D6F64206F72206164766572746973657200 PUSH1 0x40 DUP3 ADD MSTORE PUSH1 0x60 ADD SWAP1 JUMP JUMPDEST SWAP2 DUP3 MSTORE PUSH1 0x1 PUSH1 0x1 PUSH1 0xA0 SHL SUB AND PUSH1 0x20 DUP3 ADD MSTORE PUSH1 0x40 ADD SWAP1 JUMP JUMPDEST PUSH12 0xFFFFFFFFFFFFFFFFFFFFFFFF NOT DUP5 PUSH1 0x60 SHL AND DUP2 MSTORE PUSH0 DUP4 MLOAD DUP1 PUSH1 0x20 DUP7 ADD PUSH1 0x14 DUP6 ADD MCOPY PUSH1 0x14 SWAP3 ADD SWAP2 DUP3 ADD SWAP3 SWAP1 SWAP3 MSTORE PUSH1 0x34 ADD SWAP4 SWAP3 POP POP POP JUMP JUMPDEST PUSH1 0x20 DUP1 DUP3 MSTORE PUSH1 0x15 SWAP1 DUP3 ADD MSTORE PUSH21 0x6E656564206D6F64657261746F7220616363657373 PUSH1 0x58 SHL PUSH1 0x40 DUP3 ADD MSTORE PUSH1 0x60 ADD SWAP1 JUMP JUMPDEST PUSH1 0x20 DUP1 DUP3 MSTORE PUSH1 0x14 SWAP1 DUP3 ADD MSTORE PUSH20 0x10591D88185B1C9958591E48185C1C1C9BDD9959 PUSH1 0x62 SHL PUSH1 0x40 DUP3 ADD MSTORE PUSH1 0x60 ADD SWAP1 JUMP JUMPDEST PUSH1 0x20 DUP1 DUP3 MSTORE PUSH1 0x11 SWAP1 DUP3 ADD MSTORE PUSH17 0x18591D9CDC1858D948191A5CD8589B1959 PUSH1 0x7A SHL PUSH1 0x40 DUP3 ADD MSTORE PUSH1 0x60 ADD SWAP1 JUMP JUMPDEST PUSH0 PUSH1 0x1 DUP3 ADD PUSH2 0x548F JUMPI PUSH2 0x548F PUSH2 0x50F0 JUMP JUMPDEST POP PUSH1 0x1 ADD SWAP1 JUMP JUMPDEST DUP4 DUP2 MSTORE DUP3 PUSH1 0x20 DUP3 ADD MSTORE PUSH1 0x60 PUSH1 0x40 DUP3 ADD MSTORE PUSH0 PUSH2 0xA31 PUSH1 0x60 DUP4 ADD DUP5 PUSH2 0x47FD JUMP JUMPDEST PUSH1 0x1 PUSH1 0x1 PUSH1 0xA0 SHL SUB SWAP3 SWAP1 SWAP3 AND DUP3 MSTORE PUSH1 0x20 DUP3 ADD MSTORE PUSH1 0x40 ADD SWAP1 JUMP JUMPDEST PUSH0 PUSH1 0x20 DUP3 DUP5 SUB SLT ISZERO PUSH2 0x54DD JUMPI PUSH0 PUSH0 REVERT JUMPDEST DUP2 MLOAD PUSH2 0x4654 DUP2 PUSH2 0x46C7 JUMP JUMPDEST PUSH1 0x40 DUP2 MSTORE PUSH0 PUSH2 0x54FA PUSH1 0x40 DUP4 ADD DUP6 PUSH2 0x465B JUMP JUMPDEST SWAP1 POP PUSH1 0x1 DUP1 PUSH1 0xA0 SHL SUB DUP4 AND PUSH1 0x20 DUP4 ADD MSTORE SWAP4 SWAP3 POP POP POP JUMP JUMPDEST PUSH1 0x40 DUP2 MSTORE PUSH0 PUSH2 0x5523 PUSH1 0x40 DUP4 ADD DUP6 PUSH2 0x465B JUMP JUMPDEST SWAP1 POP DUP3 PUSH1 0x20 DUP4 ADD MSTORE SWAP4 SWAP3 POP POP POP JUMP INVALID PC 0xC8 0xE1 SAR 0xEA 0xB7 SWAP2 0xE DUP10 0xBF XOR LOG1 AND DUP13 PUSH15 0x6EF28748F00FD3094549459F01CEC5 0xE0 0xAA LOG2 PUSH5 0x6970667358 0x22 SLT KECCAK256 SWAP9 LOG4 DUP7 0xD7 BYTE BLOBBASEFEE 0xBF GASLIMIT 0xD4 0xBA 0xE5 JUMPI 0x1F PUSH31 0x2858C9CB9E20D1E5332798E1E058A5711DE364736F6C634300081C00330000 "
		},
		"gasEstimates": {
			"creation": {
				"codeDepositCost": "4379200",
				"executionCost": "56804",
				"totalCost": "4436004"
			},
			"external": {
				"DEFAULT_ADMIN_ROLE()": "315",
				"MODERATOR()": "infinite",
				"addModerators(address[])": "infinite",
				"advAdvertiserWithdrawnAmt(bytes32)": "2535",
				"advDepositAmount(bytes32)": "infinite",
				"advIdToModeratorPaid(bytes32)": "2630",
				"advPubWithdrawnAmt(bytes32)": "2491",
				"advSpaceCount()": "2328",
				"approveAdv(bytes32)": "infinite",
				"balOfAdvertiserByAdvId(bytes32)": "infinite",
				"balOfPubByAdvId(bytes32)": "infinite",
				"createAdvAndAddToAdvSpace(bytes32,string,string,string[],uint256,uint256,string)": "infinite",
				"createAdvSpace(bytes32,string,uint256,string)": "infinite",
				"depositForAdv(bytes32,uint256)": "infinite",
				"description()": "infinite",
				"erc20TokenAddress()": "2468",
				"getAdsByIds(bytes32[])": "infinite",
				"getAdvDurationCycles(bytes32)": "infinite",
				"getAdvId(address,string,bytes32)": "infinite",
				"getAdvIdsOfAdvSpace(bytes32)": "infinite",
				"getAdvIdsOfAdvertiser(address)": "infinite",
				"getAdvSpaceId(address,uint256)": "663",
				"getAdvSpacesByIds(bytes32[])": "infinite",
				"getAllAdvSpaceIds()": "infinite",
				"getIfAdvIsActive(bytes32)": "11391",
				"getModerators()": "infinite",
				"getRoleAdmin(bytes32)": "2570",
				"grantRole(bytes32,address)": "infinite",
				"hasRole(bytes32,address)": "2817",
				"initialize(string,string,address,address,address,uint256,address)": "infinite",
				"moderatorRecvdFees(address)": "2594",
				"moderators(uint256)": "4678",
				"platformFeeAddress()": "2402",
				"platformFeesPercentInBPS()": "2418",
				"publisher()": "2426",
				"rejectAdv(bytes32)": "infinite",
				"removeModerators(address[])": "infinite",
				"renounceRole(bytes32,address)": "29113",
				"restartAdv(bytes32)": "infinite",
				"revokeRole(bytes32,address)": "infinite",
				"setAdvSpaceStatus(bytes32,bool)": "28261",
				"siteURL()": "infinite",
				"stopAdv(bytes32)": "infinite",
				"supportsInterface(bytes4)": "503",
				"totalAdvCount()": "2393",
				"updateAdvContent(bytes32,string,string,string[],string)": "infinite",
				"updateAdvPayment(bytes32,uint256)": "infinite",
				"updateAdvSpace(bytes32,bytes32,string,uint256,string)": "infinite",
				"updateDescription(string)": "infinite",
				"updateSiteURL(string)": "infinite",
				"withdrawAdvertiser(bytes32,uint256)": "infinite",
				"withdrawPublisher(bytes32[])": "infinite"
			},
			"internal": {
				"_addModerator(address[] memory)": "infinite",
				"_checkIfAdvSpaceExists(bytes32)": "infinite",
				"_checkIfAdvertiseExists(bytes32)": "infinite",
				"_consumedByAdv(bytes32)": "infinite",
				"_payModerator(bytes32,bytes32)": "infinite",
				"_setAdvStatus(bytes32,enum IDecentrad.AdvStatus)": "infinite",
				"_setDurationForAdv(bytes32)": "infinite",
				"_tranferERC20Amount(address,address,uint256)": "infinite",
				"_updateEndDurationForAdv(bytes32,bool)": "infinite"
			}
		},
		"methodIdentifiers": {
			"DEFAULT_ADMIN_ROLE()": "a217fddf",
			"MODERATOR()": "34b4e625",
			"addModerators(address[])": "858e2fe8",
			"advAdvertiserWithdrawnAmt(bytes32)": "a0678c57",
			"advDepositAmount(bytes32)": "e611a015",
			"advIdToModeratorPaid(bytes32)": "48b284a4",
			"advPubWithdrawnAmt(bytes32)": "96a40483",
			"advSpaceCount()": "9257ca1c",
			"approveAdv(bytes32)": "a42d18de",
			"balOfAdvertiserByAdvId(bytes32)": "01103ee0",
			"balOfPubByAdvId(bytes32)": "fe0497d9",
			"createAdvAndAddToAdvSpace(bytes32,string,string,string[],uint256,uint256,string)": "87ef1d2a",
			"createAdvSpace(bytes32,string,uint256,string)": "8cb0274c",
			"depositForAdv(bytes32,uint256)": "63f8860e",
			"description()": "7284e416",
			"erc20TokenAddress()": "f835cd3c",
			"getAdsByIds(bytes32[])": "09a2ef36",
			"getAdvDurationCycles(bytes32)": "c6271e80",
			"getAdvId(address,string,bytes32)": "575723bb",
			"getAdvIdsOfAdvSpace(bytes32)": "035193ee",
			"getAdvIdsOfAdvertiser(address)": "7a2f5aef",
			"getAdvSpaceId(address,uint256)": "372f3c4a",
			"getAdvSpacesByIds(bytes32[])": "8dec83ff",
			"getAllAdvSpaceIds()": "419f57eb",
			"getIfAdvIsActive(bytes32)": "7cfb1048",
			"getModerators()": "2fc3f194",
			"getRoleAdmin(bytes32)": "248a9ca3",
			"grantRole(bytes32,address)": "2f2ff15d",
			"hasRole(bytes32,address)": "91d14854",
			"initialize(string,string,address,address,address,uint256,address)": "b9fbaaf9",
			"moderatorRecvdFees(address)": "97c504c0",
			"moderators(uint256)": "bd842a11",
			"platformFeeAddress()": "ed14834f",
			"platformFeesPercentInBPS()": "07dc6749",
			"publisher()": "8c72c54e",
			"rejectAdv(bytes32)": "5a8f9718",
			"removeModerators(address[])": "1c990ecf",
			"renounceRole(bytes32,address)": "36568abe",
			"restartAdv(bytes32)": "d5fa6855",
			"revokeRole(bytes32,address)": "d547741f",
			"setAdvSpaceStatus(bytes32,bool)": "07f3759d",
			"siteURL()": "a780b94e",
			"stopAdv(bytes32)": "221413f9",
			"supportsInterface(bytes4)": "01ffc9a7",
			"totalAdvCount()": "f342428d",
			"updateAdvContent(bytes32,string,string,string[],string)": "14b5e5a3",
			"updateAdvPayment(bytes32,uint256)": "0751c968",
			"updateAdvSpace(bytes32,bytes32,string,uint256,string)": "770a687c",
			"updateDescription(string)": "e735b48a",
			"updateSiteURL(string)": "2ea20214",
			"withdrawAdvertiser(bytes32,uint256)": "f01bbf57",
			"withdrawPublisher(bytes32[])": "fd923fd4"
		}
	},
	"abi": [
		{
			"inputs": [],
			"stateMutability": "nonpayable",
			"type": "constructor"
		},
		{
			"inputs": [],
			"name": "AccessControlBadConfirmation",
			"type": "error"
		},
		{
			"inputs": [
				{
					"internalType": "address",
					"name": "account",
					"type": "address"
				},
				{
					"internalType": "bytes32",
					"name": "neededRole",
					"type": "bytes32"
				}
			],
			"name": "AccessControlUnauthorizedAccount",
			"type": "error"
		},
		{
			"inputs": [],
			"name": "InvalidInitialization",
			"type": "error"
		},
		{
			"inputs": [],
			"name": "NotInitializing",
			"type": "error"
		},
		{
			"inputs": [],
			"name": "ReentrancyGuardReentrantCall",
			"type": "error"
		},
		{
			"inputs": [
				{
					"internalType": "address",
					"name": "token",
					"type": "address"
				}
			],
			"name": "SafeERC20FailedOperation",
			"type": "error"
		},
		{
			"inputs": [
				{
					"internalType": "bytes32",
					"name": "advId",
					"type": "bytes32"
				}
			],
			"name": "advIdAlreadyExist",
			"type": "error"
		},
		{
			"inputs": [
				{
					"internalType": "bytes32",
					"name": "advSpaceId",
					"type": "bytes32"
				}
			],
			"name": "advSpaceDoesntExist",
			"type": "error"
		},
		{
			"inputs": [
				{
					"internalType": "bytes32",
					"name": "advId",
					"type": "bytes32"
				}
			],
			"name": "advertiseDoesntExist",
			"type": "error"
		},
		{
			"inputs": [
				{
					"internalType": "bytes32[]",
					"name": "advIds",
					"type": "bytes32[]"
				},
				{
					"internalType": "address",
					"name": "walletAddr",
					"type": "address"
				}
			],
			"name": "zeroBalanceForAdv",
			"type": "error"
		},
		{
			"anonymous": false,
			"inputs": [
				{
					"indexed": false,
					"internalType": "bytes32",
					"name": "_advSpaceId",
					"type": "bytes32"
				},
				{
					"indexed": false,
					"internalType": "bytes32",
					"name": "_advId",
					"type": "bytes32"
				},
				{
					"indexed": false,
					"internalType": "address",
					"name": "_advertiser",
					"type": "address"
				}
			],
			"name": "AdvAddedToAdvSpace",
			"type": "event"
		},
		{
			"anonymous": false,
			"inputs": [
				{
					"indexed": false,
					"internalType": "bytes32",
					"name": "_advId",
					"type": "bytes32"
				},
				{
					"indexed": false,
					"internalType": "address",
					"name": "_approvedBy",
					"type": "address"
				}
			],
			"name": "AdvApproved",
			"type": "event"
		},
		{
			"anonymous": false,
			"inputs": [
				{
					"indexed": false,
					"internalType": "bytes32",
					"name": "_advId",
					"type": "bytes32"
				}
			],
			"name": "AdvContentUpdated",
			"type": "event"
		},
		{
			"anonymous": false,
			"inputs": [
				{
					"indexed": false,
					"internalType": "bytes32",
					"name": "_advId",
					"type": "bytes32"
				},
				{
					"indexed": false,
					"internalType": "uint256",
					"name": "_prevPayRate",
					"type": "uint256"
				},
				{
					"indexed": false,
					"internalType": "uint256",
					"name": "_newPayRate",
					"type": "uint256"
				}
			],
			"name": "AdvPaymentUpdated",
			"type": "event"
		},
		{
			"anonymous": false,
			"inputs": [
				{
					"indexed": false,
					"internalType": "bytes32",
					"name": "_advId",
					"type": "bytes32"
				},
				{
					"indexed": false,
					"internalType": "address",
					"name": "_rejectedBy",
					"type": "address"
				}
			],
			"name": "AdvRejected",
			"type": "event"
		},
		{
			"anonymous": false,
			"inputs": [
				{
					"indexed": false,
					"internalType": "bytes32",
					"name": "_advId",
					"type": "bytes32"
				},
				{
					"indexed": false,
					"internalType": "address",
					"name": "_restartedBy",
					"type": "address"
				}
			],
			"name": "AdvRestarted",
			"type": "event"
		},
		{
			"anonymous": false,
			"inputs": [
				{
					"indexed": false,
					"internalType": "bytes32",
					"name": "_advSpaceId",
					"type": "bytes32"
				},
				{
					"indexed": false,
					"internalType": "bytes32",
					"name": "_size",
					"type": "bytes32"
				},
				{
					"indexed": false,
					"internalType": "string",
					"name": "_pageURL",
					"type": "string"
				}
			],
			"name": "AdvSpaceCreated",
			"type": "event"
		},
		{
			"anonymous": false,
			"inputs": [
				{
					"indexed": false,
					"internalType": "bytes32",
					"name": "_advSpaceId",
					"type": "bytes32"
				},
				{
					"indexed": false,
					"internalType": "bool",
					"name": "_isEnabled",
					"type": "bool"
				}
			],
			"name": "AdvSpaceStatusChanged",
			"type": "event"
		},
		{
			"anonymous": false,
			"inputs": [
				{
					"indexed": false,
					"internalType": "bytes32",
					"name": "_advSpaceId",
					"type": "bytes32"
				}
			],
			"name": "AdvSpaceUpdated",
			"type": "event"
		},
		{
			"anonymous": false,
			"inputs": [
				{
					"indexed": false,
					"internalType": "bytes32",
					"name": "_advId",
					"type": "bytes32"
				},
				{
					"indexed": false,
					"internalType": "address",
					"name": "_stoppedBy",
					"type": "address"
				}
			],
			"name": "AdvStopped",
			"type": "event"
		},
		{
			"anonymous": false,
			"inputs": [
				{
					"indexed": false,
					"internalType": "bytes32",
					"name": "_advId",
					"type": "bytes32"
				},
				{
					"indexed": false,
					"internalType": "uint256",
					"name": "_amount",
					"type": "uint256"
				}
			],
			"name": "AdvertiserWithdraw",
			"type": "event"
		},
		{
			"anonymous": false,
			"inputs": [
				{
					"indexed": false,
					"internalType": "uint64",
					"name": "version",
					"type": "uint64"
				}
			],
			"name": "Initialized",
			"type": "event"
		},
		{
			"anonymous": false,
			"inputs": [
				{
					"indexed": false,
					"internalType": "address[]",
					"name": "_modAddress",
					"type": "address[]"
				}
			],
			"name": "ModeratorAdded",
			"type": "event"
		},
		{
			"anonymous": false,
			"inputs": [
				{
					"indexed": false,
					"internalType": "address[]",
					"name": "_modAddress",
					"type": "address[]"
				}
			],
			"name": "ModeratorRemoved",
			"type": "event"
		},
		{
			"anonymous": false,
			"inputs": [
				{
					"indexed": false,
					"internalType": "bytes32[]",
					"name": "_advIds",
					"type": "bytes32[]"
				},
				{
					"indexed": false,
					"internalType": "uint256",
					"name": "_amount",
					"type": "uint256"
				}
			],
			"name": "PublisherWithdraw",
			"type": "event"
		},
		{
			"anonymous": false,
			"inputs": [
				{
					"indexed": true,
					"internalType": "bytes32",
					"name": "role",
					"type": "bytes32"
				},
				{
					"indexed": true,
					"internalType": "bytes32",
					"name": "previousAdminRole",
					"type": "bytes32"
				},
				{
					"indexed": true,
					"internalType": "bytes32",
					"name": "newAdminRole",
					"type": "bytes32"
				}
			],
			"name": "RoleAdminChanged",
			"type": "event"
		},
		{
			"anonymous": false,
			"inputs": [
				{
					"indexed": true,
					"internalType": "bytes32",
					"name": "role",
					"type": "bytes32"
				},
				{
					"indexed": true,
					"internalType": "address",
					"name": "account",
					"type": "address"
				},
				{
					"indexed": true,
					"internalType": "address",
					"name": "sender",
					"type": "address"
				}
			],
			"name": "RoleGranted",
			"type": "event"
		},
		{
			"anonymous": false,
			"inputs": [
				{
					"indexed": true,
					"internalType": "bytes32",
					"name": "role",
					"type": "bytes32"
				},
				{
					"indexed": true,
					"internalType": "address",
					"name": "account",
					"type": "address"
				},
				{
					"indexed": true,
					"internalType": "address",
					"name": "sender",
					"type": "address"
				}
			],
			"name": "RoleRevoked",
			"type": "event"
		},
		{
			"anonymous": false,
			"inputs": [
				{
					"indexed": false,
					"internalType": "bytes32",
					"name": "_advId",
					"type": "bytes32"
				},
				{
					"indexed": false,
					"internalType": "uint256",
					"name": "_amount",
					"type": "uint256"
				}
			],
			"name": "TokensDeposited",
			"type": "event"
		},
		{
			"inputs": [],
			"name": "DEFAULT_ADMIN_ROLE",
			"outputs": [
				{
					"internalType": "bytes32",
					"name": "",
					"type": "bytes32"
				}
			],
			"stateMutability": "view",
			"type": "function"
		},
		{
			"inputs": [],
			"name": "MODERATOR",
			"outputs": [
				{
					"internalType": "bytes32",
					"name": "",
					"type": "bytes32"
				}
			],
			"stateMutability": "view",
			"type": "function"
		},
		{
			"inputs": [
				{
					"internalType": "address[]",
					"name": "_modAddresses",
					"type": "address[]"
				}
			],
			"name": "addModerators",
			"outputs": [],
			"stateMutability": "nonpayable",
			"type": "function"
		},
		{
			"inputs": [
				{
					"internalType": "bytes32",
					"name": "",
					"type": "bytes32"
				}
			],
			"name": "advAdvertiserWithdrawnAmt",
			"outputs": [
				{
					"internalType": "uint256",
					"name": "",
					"type": "uint256"
				}
			],
			"stateMutability": "view",
			"type": "function"
		},
		{
			"inputs": [
				{
					"internalType": "bytes32",
					"name": "_advId",
					"type": "bytes32"
				}
			],
			"name": "advDepositAmount",
			"outputs": [
				{
					"internalType": "uint256",
					"name": "balance",
					"type": "uint256"
				}
			],
			"stateMutability": "view",
			"type": "function"
		},
		{
			"inputs": [
				{
					"internalType": "bytes32",
					"name": "",
					"type": "bytes32"
				}
			],
			"name": "advIdToModeratorPaid",
			"outputs": [
				{
					"internalType": "address",
					"name": "",
					"type": "address"
				}
			],
			"stateMutability": "view",
			"type": "function"
		},
		{
			"inputs": [
				{
					"internalType": "bytes32",
					"name": "",
					"type": "bytes32"
				}
			],
			"name": "advPubWithdrawnAmt",
			"outputs": [
				{
					"internalType": "uint256",
					"name": "",
					"type": "uint256"
				}
			],
			"stateMutability": "view",
			"type": "function"
		},
		{
			"inputs": [],
			"name": "advSpaceCount",
			"outputs": [
				{
					"internalType": "uint256",
					"name": "",
					"type": "uint256"
				}
			],
			"stateMutability": "view",
			"type": "function"
		},
		{
			"inputs": [
				{
					"internalType": "bytes32",
					"name": "_advId",
					"type": "bytes32"
				}
			],
			"name": "approveAdv",
			"outputs": [],
			"stateMutability": "nonpayable",
			"type": "function"
		},
		{
			"inputs": [
				{
					"internalType": "bytes32",
					"name": "_advId",
					"type": "bytes32"
				}
			],
			"name": "balOfAdvertiserByAdvId",
			"outputs": [
				{
					"internalType": "uint256",
					"name": "balance",
					"type": "uint256"
				}
			],
			"stateMutability": "view",
			"type": "function"
		},
		{
			"inputs": [
				{
					"internalType": "bytes32",
					"name": "_advId",
					"type": "bytes32"
				}
			],
			"name": "balOfPubByAdvId",
			"outputs": [
				{
					"internalType": "uint256",
					"name": "balance",
					"type": "uint256"
				}
			],
			"stateMutability": "view",
			"type": "function"
		},
		{
			"inputs": [
				{
					"internalType": "bytes32",
					"name": "_advSpaceId",
					"type": "bytes32"
				},
				{
					"internalType": "string",
					"name": "_advTitle",
					"type": "string"
				},
				{
					"internalType": "string",
					"name": "_advText",
					"type": "string"
				},
				{
					"internalType": "string[]",
					"name": "_ipfsHashes",
					"type": "string[]"
				},
				{
					"internalType": "uint256",
					"name": "_paymentRatePerSec",
					"type": "uint256"
				},
				{
					"internalType": "uint256",
					"name": "_depositAmount",
					"type": "uint256"
				},
				{
					"internalType": "string",
					"name": "_advLink",
					"type": "string"
				}
			],
			"name": "createAdvAndAddToAdvSpace",
			"outputs": [],
			"stateMutability": "payable",
			"type": "function"
		},
		{
			"inputs": [
				{
					"internalType": "bytes32",
					"name": "_size",
					"type": "bytes32"
				},
				{
					"internalType": "string",
					"name": "_pageURL",
					"type": "string"
				},
				{
					"internalType": "uint256",
					"name": "_moderationFees",
					"type": "uint256"
				},
				{
					"internalType": "string",
					"name": "_description",
					"type": "string"
				}
			],
			"name": "createAdvSpace",
			"outputs": [],
			"stateMutability": "nonpayable",
			"type": "function"
		},
		{
			"inputs": [
				{
					"internalType": "bytes32",
					"name": "_advId",
					"type": "bytes32"
				},
				{
					"internalType": "uint256",
					"name": "_amount",
					"type": "uint256"
				}
			],
			"name": "depositForAdv",
			"outputs": [],
			"stateMutability": "nonpayable",
			"type": "function"
		},
		{
			"inputs": [],
			"name": "description",
			"outputs": [
				{
					"internalType": "string",
					"name": "",
					"type": "string"
				}
			],
			"stateMutability": "view",
			"type": "function"
		},
		{
			"inputs": [],
			"name": "erc20TokenAddress",
			"outputs": [
				{
					"internalType": "contract IERC20",
					"name": "",
					"type": "address"
				}
			],
			"stateMutability": "view",
			"type": "function"
		},
		{
			"inputs": [
				{
					"internalType": "bytes32[]",
					"name": "_advIds",
					"type": "bytes32[]"
				}
			],
			"name": "getAdsByIds",
			"outputs": [
				{
					"components": [
						{
							"internalType": "bytes32",
							"name": "advSpaceId",
							"type": "bytes32"
						},
						{
							"internalType": "address",
							"name": "advertiser",
							"type": "address"
						},
						{
							"internalType": "string",
							"name": "advTitle",
							"type": "string"
						},
						{
							"internalType": "string",
							"name": "advText",
							"type": "string"
						},
						{
							"internalType": "enum IDecentrad.AdvStatus",
							"name": "advStatus",
							"type": "uint8"
						},
						{
							"internalType": "string[]",
							"name": "ipfsHashes",
							"type": "string[]"
						},
						{
							"internalType": "uint256",
							"name": "paymentRatePerSec",
							"type": "uint256"
						},
						{
							"internalType": "string",
							"name": "advLink",
							"type": "string"
						}
					],
					"internalType": "struct Decentrad.Advertise[]",
					"name": "",
					"type": "tuple[]"
				},
				{
					"internalType": "bool[]",
					"name": "",
					"type": "bool[]"
				}
			],
			"stateMutability": "view",
			"type": "function"
		},
		{
			"inputs": [
				{
					"internalType": "bytes32",
					"name": "_advId",
					"type": "bytes32"
				}
			],
			"name": "getAdvDurationCycles",
			"outputs": [
				{
					"components": [
						{
							"internalType": "uint256",
							"name": "startTime",
							"type": "uint256"
						},
						{
							"internalType": "uint256",
							"name": "stopTime",
							"type": "uint256"
						},
						{
							"internalType": "uint256",
							"name": "payRatePerSecond",
							"type": "uint256"
						}
					],
					"internalType": "struct Decentrad.ActiveDuration[]",
					"name": "",
					"type": "tuple[]"
				}
			],
			"stateMutability": "view",
			"type": "function"
		},
		{
			"inputs": [
				{
					"internalType": "address",
					"name": "_advAddress",
					"type": "address"
				},
				{
					"internalType": "string",
					"name": "_advTitle",
					"type": "string"
				},
				{
					"internalType": "bytes32",
					"name": "_advSpaceId",
					"type": "bytes32"
				}
			],
			"name": "getAdvId",
			"outputs": [
				{
					"internalType": "bytes32",
					"name": "",
					"type": "bytes32"
				}
			],
			"stateMutability": "pure",
			"type": "function"
		},
		{
			"inputs": [
				{
					"internalType": "bytes32",
					"name": "_advSpaceId",
					"type": "bytes32"
				}
			],
			"name": "getAdvIdsOfAdvSpace",
			"outputs": [
				{
					"internalType": "bytes32[]",
					"name": "",
					"type": "bytes32[]"
				}
			],
			"stateMutability": "view",
			"type": "function"
		},
		{
			"inputs": [
				{
					"internalType": "address",
					"name": "_advertiserAddr",
					"type": "address"
				}
			],
			"name": "getAdvIdsOfAdvertiser",
			"outputs": [
				{
					"internalType": "bytes32[]",
					"name": "",
					"type": "bytes32[]"
				}
			],
			"stateMutability": "view",
			"type": "function"
		},
		{
			"inputs": [
				{
					"internalType": "address",
					"name": "_pubAddress",
					"type": "address"
				},
				{
					"internalType": "uint256",
					"name": "_count",
					"type": "uint256"
				}
			],
			"name": "getAdvSpaceId",
			"outputs": [
				{
					"internalType": "bytes32",
					"name": "",
					"type": "bytes32"
				}
			],
			"stateMutability": "pure",
			"type": "function"
		},
		{
			"inputs": [
				{
					"internalType": "bytes32[]",
					"name": "_advSpaceIds",
					"type": "bytes32[]"
				}
			],
			"name": "getAdvSpacesByIds",
			"outputs": [
				{
					"components": [
						{
							"internalType": "bytes32",
							"name": "size",
							"type": "bytes32"
						},
						{
							"internalType": "string",
							"name": "pageURL",
							"type": "string"
						},
						{
							"internalType": "uint256",
							"name": "moderationFees",
							"type": "uint256"
						},
						{
							"internalType": "string",
							"name": "description",
							"type": "string"
						},
						{
							"internalType": "bool",
							"name": "isEnabled",
							"type": "bool"
						}
					],
					"internalType": "struct Decentrad.AdvSpace[]",
					"name": "",
					"type": "tuple[]"
				}
			],
			"stateMutability": "view",
			"type": "function"
		},
		{
			"inputs": [],
			"name": "getAllAdvSpaceIds",
			"outputs": [
				{
					"internalType": "bytes32[]",
					"name": "",
					"type": "bytes32[]"
				}
			],
			"stateMutability": "view",
			"type": "function"
		},
		{
			"inputs": [
				{
					"internalType": "bytes32",
					"name": "_advId",
					"type": "bytes32"
				}
			],
			"name": "getIfAdvIsActive",
			"outputs": [
				{
					"internalType": "bool",
					"name": "",
					"type": "bool"
				}
			],
			"stateMutability": "view",
			"type": "function"
		},
		{
			"inputs": [],
			"name": "getModerators",
			"outputs": [
				{
					"internalType": "address[]",
					"name": "",
					"type": "address[]"
				}
			],
			"stateMutability": "view",
			"type": "function"
		},
		{
			"inputs": [
				{
					"internalType": "bytes32",
					"name": "role",
					"type": "bytes32"
				}
			],
			"name": "getRoleAdmin",
			"outputs": [
				{
					"internalType": "bytes32",
					"name": "",
					"type": "bytes32"
				}
			],
			"stateMutability": "view",
			"type": "function"
		},
		{
			"inputs": [
				{
					"internalType": "bytes32",
					"name": "role",
					"type": "bytes32"
				},
				{
					"internalType": "address",
					"name": "account",
					"type": "address"
				}
			],
			"name": "grantRole",
			"outputs": [],
			"stateMutability": "nonpayable",
			"type": "function"
		},
		{
			"inputs": [
				{
					"internalType": "bytes32",
					"name": "role",
					"type": "bytes32"
				},
				{
					"internalType": "address",
					"name": "account",
					"type": "address"
				}
			],
			"name": "hasRole",
			"outputs": [
				{
					"internalType": "bool",
					"name": "",
					"type": "bool"
				}
			],
			"stateMutability": "view",
			"type": "function"
		},
		{
			"inputs": [
				{
					"internalType": "string",
					"name": "_siteURL",
					"type": "string"
				},
				{
					"internalType": "string",
					"name": "_description",
					"type": "string"
				},
				{
					"internalType": "address",
					"name": "_erc20TokenAddress",
					"type": "address"
				},
				{
					"internalType": "address",
					"name": "_publisher",
					"type": "address"
				},
				{
					"internalType": "address",
					"name": "_platformFeeAddress",
					"type": "address"
				},
				{
					"internalType": "uint256",
					"name": "_platformFeesPercentInBPS",
					"type": "uint256"
				},
				{
					"internalType": "address",
					"name": "_pubFactoryAddr",
					"type": "address"
				}
			],
			"name": "initialize",
			"outputs": [],
			"stateMutability": "nonpayable",
			"type": "function"
		},
		{
			"inputs": [
				{
					"internalType": "address",
					"name": "",
					"type": "address"
				}
			],
			"name": "moderatorRecvdFees",
			"outputs": [
				{
					"internalType": "uint256",
					"name": "",
					"type": "uint256"
				}
			],
			"stateMutability": "view",
			"type": "function"
		},
		{
			"inputs": [
				{
					"internalType": "uint256",
					"name": "",
					"type": "uint256"
				}
			],
			"name": "moderators",
			"outputs": [
				{
					"internalType": "address",
					"name": "",
					"type": "address"
				}
			],
			"stateMutability": "view",
			"type": "function"
		},
		{
			"inputs": [],
			"name": "platformFeeAddress",
			"outputs": [
				{
					"internalType": "address",
					"name": "",
					"type": "address"
				}
			],
			"stateMutability": "view",
			"type": "function"
		},
		{
			"inputs": [],
			"name": "platformFeesPercentInBPS",
			"outputs": [
				{
					"internalType": "uint256",
					"name": "",
					"type": "uint256"
				}
			],
			"stateMutability": "view",
			"type": "function"
		},
		{
			"inputs": [],
			"name": "publisher",
			"outputs": [
				{
					"internalType": "address",
					"name": "",
					"type": "address"
				}
			],
			"stateMutability": "view",
			"type": "function"
		},
		{
			"inputs": [
				{
					"internalType": "bytes32",
					"name": "_advId",
					"type": "bytes32"
				}
			],
			"name": "rejectAdv",
			"outputs": [],
			"stateMutability": "nonpayable",
			"type": "function"
		},
		{
			"inputs": [
				{
					"internalType": "address[]",
					"name": "_modAddresses",
					"type": "address[]"
				}
			],
			"name": "removeModerators",
			"outputs": [],
			"stateMutability": "nonpayable",
			"type": "function"
		},
		{
			"inputs": [
				{
					"internalType": "bytes32",
					"name": "role",
					"type": "bytes32"
				},
				{
					"internalType": "address",
					"name": "callerConfirmation",
					"type": "address"
				}
			],
			"name": "renounceRole",
			"outputs": [],
			"stateMutability": "nonpayable",
			"type": "function"
		},
		{
			"inputs": [
				{
					"internalType": "bytes32",
					"name": "_advId",
					"type": "bytes32"
				}
			],
			"name": "restartAdv",
			"outputs": [],
			"stateMutability": "nonpayable",
			"type": "function"
		},
		{
			"inputs": [
				{
					"internalType": "bytes32",
					"name": "role",
					"type": "bytes32"
				},
				{
					"internalType": "address",
					"name": "account",
					"type": "address"
				}
			],
			"name": "revokeRole",
			"outputs": [],
			"stateMutability": "nonpayable",
			"type": "function"
		},
		{
			"inputs": [
				{
					"internalType": "bytes32",
					"name": "_advSpaceId",
					"type": "bytes32"
				},
				{
					"internalType": "bool",
					"name": "_isEnabled",
					"type": "bool"
				}
			],
			"name": "setAdvSpaceStatus",
			"outputs": [],
			"stateMutability": "nonpayable",
			"type": "function"
		},
		{
			"inputs": [],
			"name": "siteURL",
			"outputs": [
				{
					"internalType": "string",
					"name": "",
					"type": "string"
				}
			],
			"stateMutability": "view",
			"type": "function"
		},
		{
			"inputs": [
				{
					"internalType": "bytes32",
					"name": "_advId",
					"type": "bytes32"
				}
			],
			"name": "stopAdv",
			"outputs": [],
			"stateMutability": "nonpayable",
			"type": "function"
		},
		{
			"inputs": [
				{
					"internalType": "bytes4",
					"name": "interfaceId",
					"type": "bytes4"
				}
			],
			"name": "supportsInterface",
			"outputs": [
				{
					"internalType": "bool",
					"name": "",
					"type": "bool"
				}
			],
			"stateMutability": "view",
			"type": "function"
		},
		{
			"inputs": [],
			"name": "totalAdvCount",
			"outputs": [
				{
					"internalType": "uint256",
					"name": "",
					"type": "uint256"
				}
			],
			"stateMutability": "view",
			"type": "function"
		},
		{
			"inputs": [
				{
					"internalType": "bytes32",
					"name": "_advId",
					"type": "bytes32"
				},
				{
					"internalType": "string",
					"name": "_advText",
					"type": "string"
				},
				{
					"internalType": "string",
					"name": "_advTitle",
					"type": "string"
				},
				{
					"internalType": "string[]",
					"name": "_ipfsHashes",
					"type": "string[]"
				},
				{
					"internalType": "string",
					"name": "_advLink",
					"type": "string"
				}
			],
			"name": "updateAdvContent",
			"outputs": [],
			"stateMutability": "nonpayable",
			"type": "function"
		},
		{
			"inputs": [
				{
					"internalType": "bytes32",
					"name": "_advId",
					"type": "bytes32"
				},
				{
					"internalType": "uint256",
					"name": "_paymentRatePerSec",
					"type": "uint256"
				}
			],
			"name": "updateAdvPayment",
			"outputs": [],
			"stateMutability": "nonpayable",
			"type": "function"
		},
		{
			"inputs": [
				{
					"internalType": "bytes32",
					"name": "_advSpaceId",
					"type": "bytes32"
				},
				{
					"internalType": "bytes32",
					"name": "_size",
					"type": "bytes32"
				},
				{
					"internalType": "string",
					"name": "_pageURL",
					"type": "string"
				},
				{
					"internalType": "uint256",
					"name": "_moderationFees",
					"type": "uint256"
				},
				{
					"internalType": "string",
					"name": "_description",
					"type": "string"
				}
			],
			"name": "updateAdvSpace",
			"outputs": [],
			"stateMutability": "nonpayable",
			"type": "function"
		},
		{
			"inputs": [
				{
					"internalType": "string",
					"name": "_newDescription",
					"type": "string"
				}
			],
			"name": "updateDescription",
			"outputs": [],
			"stateMutability": "nonpayable",
			"type": "function"
		},
		{
			"inputs": [
				{
					"internalType": "string",
					"name": "_newSiteURL",
					"type": "string"
				}
			],
			"name": "updateSiteURL",
			"outputs": [],
			"stateMutability": "nonpayable",
			"type": "function"
		},
		{
			"inputs": [
				{
					"internalType": "bytes32",
					"name": "_advId",
					"type": "bytes32"
				},
				{
					"internalType": "uint256",
					"name": "_amount",
					"type": "uint256"
				}
			],
			"name": "withdrawAdvertiser",
			"outputs": [],
			"stateMutability": "nonpayable",
			"type": "function"
		},
		{
			"inputs": [
				{
					"internalType": "bytes32[]",
					"name": "_advIds",
					"type": "bytes32[]"
				}
			],
			"name": "withdrawPublisher",
			"outputs": [],
			"stateMutability": "nonpayable",
			"type": "function"
		}
	]
}