{
	"data": {
		"bytecode": {
			"linkReferences": {},
			"object": "608060405234801561000f575f5ffd5b50604051611b34380380611b3483398101604081905261002e916101ac565b338061005457604051631e4fbdf760e01b81525f60048201526024015b60405180910390fd5b61005d81610142565b506001600160a01b0383166100b45760405162461bcd60e51b815260206004820152601e60248201527f696e76616c696420696d706c656d656e746174696f6e20616464726573730000604482015260640161004b565b6001600160a01b03821661010a5760405162461bcd60e51b815260206004820152601a60248201527f696e76616c696420706c6174666f726d46656541646472657373000000000000604482015260640161004b565b600180546001600160a01b039485166001600160a01b03199182161790915560038054939094169216919091179091556002556101e5565b5f80546001600160a01b038381166001600160a01b0319831681178455604051919092169283917f8be0079c531659141344cd1fd0a4f28419497f9722a3daafe3b4186f6b6457e09190a35050565b80516001600160a01b03811681146101a7575f5ffd5b919050565b5f5f5f606084860312156101be575f5ffd5b6101c784610191565b92506101d560208501610191565b9150604084015190509250925092565b611942806101f25f395ff3fe608060405234801561000f575f5ffd5b506004361061015e575f3560e01c80638da5cb5b116100ca578063b552ebc811610084578063b552ebc81461032d578063c2b602f314610340578063d414a3f214610353578063df7ae38214610373578063ed14834f1461039d578063f2fde38b146103b0578063f336aa35146103c3575f5ffd5b80638da5cb5b146102b45780639375da5a146102c45780639472a969146102d75780639b1ec6a3146102ff5780639d209a3014610307578063b28602981461031a575f5ffd5b80635c60da1b1161011b5780635c60da1b1461020c57806364eb68eb1461022c578063715018a61461024c57806377b4300014610254578063841a0cbe146102815780638b0d4377146102a1575f5ffd5b806307dc67491461016257806314f9ff211461017e578063172c2664146101bb57806323e49534146101dc5780632e4e56cf146101e45780634f568db3146101f9575b5f5ffd5b61016b60025481565b6040519081526020015b60405180910390f35b6101ab61018c36600461134b565b600960209081525f928352604080842090915290825290205460ff1681565b6040519015158152602001610175565b6101ce6101c936600461137c565b6103d6565b6040516101759291906113d2565b60045461016b565b6101f76101f23660046113fb565b61049f565b005b6101f76102073660046114b3565b610524565b60015461021f906001600160a01b031681565b6040516101759190611527565b61023f61023a3660046113fb565b6107f3565b604051610175919061156c565b6101f7610907565b6101ab61026236600461134b565b600b60209081525f928352604080842090915290825290205460ff1681565b61029461028f3660046113fb565b61091a565b60405161017591906115cf565b6101f76102af36600461161a565b61098d565b5f546001600160a01b031661021f565b6101f76102d23660046113fb565b610b8e565b61016b6102e53660046113fb565b6001600160a01b03165f9081526006602052604090205490565b61023f610c03565b6102946103153660046113fb565b610d01565b6101ce610328366004611651565b610d72565b6101f761033b36600461161a565b610da0565b6101f761034e366004611651565b610ee4565b61036661036136600461134b565b610ef1565b6040516101759190611668565b61016b61038136600461134b565b600860209081525f928352604080842090915290825290205481565b60035461021f906001600160a01b031681565b6101f76103be3660046113fb565b611004565b6101f76103d136600461161a565b611041565b6006602052815f5260405f2081815481106103ef575f80fd5b905f5260205f2090600202015f9150915050805f01805461040f9061167a565b80601f016020809104026020016040519081016040528092919081815260200182805461043b9061167a565b80156104865780601f1061045d57610100808354040283529160200191610486565b820191905f5260205f20905b81548152906001019060200180831161046957829003601f168201915b505050600190930154919250506001600160a01b031682565b6104a7611179565b6001600160a01b0381166105025760405162461bcd60e51b815260206004820152601e60248201527f696e76616c696420696d706c656d656e746174696f6e2061646472657373000060448201526064015b60405180910390fd5b600180546001600160a01b0319166001600160a01b0392909216919091179055565b5f8351116105665760405162461bcd60e51b815260206004820152600f60248201526e1a5b9d985b1a59081cda5d19555493608a1b60448201526064016104f9565b6001600160a01b0381166105bc5760405162461bcd60e51b815260206004820152601a60248201527f696e76616c696420657263323020746f6b656e4164647265737300000000000060448201526064016104f9565b5f836040516020016105ce91906116b2565b60408051601f1981840301815291905280516020909101206001549091505f90610601906001600160a01b0316836111a5565b60035460025460405163b9fbaaf960e01b81529293506001600160a01b038085169363b9fbaaf993610643938b938b938b9333939216919030906004016116c8565b5f604051808303815f87803b15801561065a575f5ffd5b505af115801561066c573d5f5f3e3d5ffd5b50506040805180820182528881526001600160a01b038516602080830191909152335f9081526006825292832080546001810182559084529220815191945084935060029092029091019081906106c39082611773565b50602091820151600191820180546001600160a01b0319166001600160a01b03909216919091179055335f9081526006909252604090912054610706919061182e565b6001600160a01b0383165f90815260056020526040812091909155600480546001810182559152815182916002027f8a35acfbc15ff81a39ae7d344fd709f28e8600b4aa8c65c6b64bfe7fe36bd19b019081906107639082611773565b50602091820151600190910180546001600160a01b0319166001600160a01b03928316179055604080514281526060938101849052600d938101939093526c10db1bdb994818dc99585d1959609a1b6080840152908416908201527fe12a742b5953ffc54c73c10d0160a24eb8f9df9d50143eccc19239340884348f9060a00160405180910390a1505050505050565b6001600160a01b0381165f908152600660209081526040808320805482518185028101850190935280835260609492939192909184015b828210156108fc578382905f5260205f2090600202016040518060400160405290815f8201805461085a9061167a565b80601f01602080910402602001604051908101604052809291908181526020018280546108869061167a565b80156108d15780601f106108a8576101008083540402835291602001916108d1565b820191905f5260205f20905b8154815290600101906020018083116108b457829003601f168201915b50505091835250506001918201546001600160a01b031660209182015291835292909201910161082a565b505050509050919050565b61090f611179565b6109185f6111b8565b565b6001600160a01b0381165f908152600a602090815260409182902080548351818402810184019094528084526060939283018282801561098157602002820191905f5260205f20905b81546001600160a01b03168152600190910190602001808311610963575b50505050509050919050565b6001600160a01b0383166109b35760405162461bcd60e51b81526004016104f99061184d565b6001600160a01b0382166109d95760405162461bcd60e51b81526004016104f990611880565b6001600160a01b0381166109ff5760405162461bcd60e51b81526004016104f9906118b1565b610a098282611207565b6001600160a01b0383165f9081526007602052604090208054610a2e9060019061182e565b81548110610a3e57610a3e6118e4565b5f9182526020808320909101546001600160a01b03868116845260078352604080852060088552818620888416875290945290932054825493909116928110610a8957610a896118e4565b5f91825260208083209190910180546001600160a01b0319166001600160a01b039485161790558583168083526008825260408084209487168452848352808420549184526007909252908220805491939291610ae89060019061182e565b81548110610af857610af86118e4565b5f9182526020808320909101546001600160a01b0390811684528382019490945260409283018220949094559186168252600790925220805480610b3e57610b3e6118f8565b5f828152602080822083015f1990810180546001600160a01b03191690559092019092556001600160a01b039485168252600981526040808320949095168252929092525020805460ff19169055565b610b96611179565b6001600160a01b038116610be15760405162461bcd60e51b8152602060048201526012602482015271696e76616c6964206665654164647265737360701b60448201526064016104f9565b600380546001600160a01b0319166001600160a01b0392909216919091179055565b60606004805480602002602001604051908101604052809291908181526020015f905b82821015610cf8578382905f5260205f2090600202016040518060400160405290815f82018054610c569061167a565b80601f0160208091040260200160405190810160405280929190818152602001828054610c829061167a565b8015610ccd5780601f10610ca457610100808354040283529160200191610ccd565b820191905f5260205f20905b815481529060010190602001808311610cb057829003601f168201915b50505091835250506001918201546001600160a01b0316602091820152918352929092019101610c26565b50505050905090565b6001600160a01b0381165f9081526007602090815260409182902080548351818402810184019094528084526060939283018282801561098157602002820191905f5260205f209081546001600160a01b031681526001909101906020018083116109635750505050509050919050565b60048181548110610d81575f80fd5b905f5260205f2090600202015f91509050805f01805461040f9061167a565b6001600160a01b038316610dc65760405162461bcd60e51b81526004016104f99061184d565b6001600160a01b038216610dec5760405162461bcd60e51b81526004016104f990611880565b6001600160a01b038116610e125760405162461bcd60e51b81526004016104f9906118b1565b610e1c8282611207565b6001600160a01b038084165f9081526009602090815260408083209386168352929052205460ff16610edf576001600160a01b038381165f81815260076020908152604082208054600180820183558285529284200180546001600160a01b031916958816959095179094559190529054610e97919061182e565b6001600160a01b038085165f818152600860209081526040808320948816808452948252808320959095559181526009825283812092815291905220805460ff191660011790555b505050565b610eec611179565b600255565b60408051808201909152606081525f60208201526001600160a01b038083165f90815260056020908152604080832054938716835260069091529020805482908110610f3f57610f3f6118e4565b905f5260205f2090600202016040518060400160405290815f82018054610f659061167a565b80601f0160208091040260200160405190810160405280929190818152602001828054610f919061167a565b8015610fdc5780601f10610fb357610100808354040283529160200191610fdc565b820191905f5260205f20905b815481529060010190602001808311610fbf57829003601f168201915b5050509183525050600191909101546001600160a01b03166020909101529150505b92915050565b61100c611179565b6001600160a01b038116611035575f604051631e4fbdf760e01b81526004016104f99190611527565b61103e816111b8565b50565b6001600160a01b0383166110975760405162461bcd60e51b815260206004820152601a60248201527f696e76616c69642061647665727469736572206164647265737300000000000060448201526064016104f9565b6001600160a01b0382166110bd5760405162461bcd60e51b81526004016104f990611880565b6001600160a01b0381166110e35760405162461bcd60e51b81526004016104f9906118b1565b6110ed8282611207565b6001600160a01b038084165f908152600b602090815260408083209386168352929052205460ff16610edf576001600160a01b038084165f818152600b60209081526040808320948716808452948252808320805460ff19166001908117909155938352600a8252822080549384018155825290200180546001600160a01b0319169091179055505050565b5f546001600160a01b03163314610918573360405163118cdaa760e01b81526004016104f99190611527565b5f6111b183835f61129b565b9392505050565b5f80546001600160a01b038381166001600160a01b0319831681178455604051919092169283917f8be0079c531659141344cd1fd0a4f28419497f9722a3daafe3b4186f6b6457e09190a35050565b5f6112128284610ef1565b9050826001600160a01b031681602001516001600160a01b03161480156112415750336001600160a01b038416145b610edf5760405162461bcd60e51b815260206004820152602560248201527f63616c6c65722063616e206265207075626c697368657220636f6e7472616374604482015264206f6e6c7960d81b60648201526084016104f9565b5f814710156112c65760405163cf47918160e01b8152476004820152602481018390526044016104f9565b763d602d80600a3d3981f3363d3d373d3d3d363d730000008460601b60e81c175f526e5af43d82803e903d91602b57fd5bf38460781b17602052826037600984f590506001600160a01b0381166111b15760405163b06ebf3d60e01b815260040160405180910390fd5b80356001600160a01b0381168114611346575f5ffd5b919050565b5f5f6040838503121561135c575f5ffd5b61136583611330565b915061137360208401611330565b90509250929050565b5f5f6040838503121561138d575f5ffd5b61139683611330565b946020939093013593505050565b5f81518084528060208401602086015e5f602082860101526020601f19601f83011685010191505092915050565b604081525f6113e460408301856113a4565b905060018060a01b03831660208301529392505050565b5f6020828403121561140b575f5ffd5b6111b182611330565b634e487b7160e01b5f52604160045260245ffd5b5f82601f830112611437575f5ffd5b813567ffffffffffffffff81111561145157611451611414565b604051601f8201601f19908116603f0116810167ffffffffffffffff8111828210171561148057611480611414565b604052818152838201602001851015611497575f5ffd5b816020850160208301375f918101602001919091529392505050565b5f5f5f606084860312156114c5575f5ffd5b833567ffffffffffffffff8111156114db575f5ffd5b6114e786828701611428565b935050602084013567ffffffffffffffff811115611503575f5ffd5b61150f86828701611428565b92505061151e60408501611330565b90509250925092565b6001600160a01b0391909116815260200190565b5f81516040845261154f60408501826113a4565b6020938401516001600160a01b0316949093019390935250919050565b5f602082016020835280845180835260408501915060408160051b8601019250602086015f5b828110156115c357603f198786030184526115ae85835161153b565b94506020938401939190910190600101611592565b50929695505050505050565b602080825282518282018190525f918401906040840190835b8181101561160f5783516001600160a01b03168352602093840193909201916001016115e8565b509095945050505050565b5f5f5f6060848603121561162c575f5ffd5b61163584611330565b925061164360208501611330565b915061151e60408501611330565b5f60208284031215611661575f5ffd5b5035919050565b602081525f6111b1602083018461153b565b600181811c9082168061168e57607f821691505b6020821081036116ac57634e487b7160e01b5f52602260045260245ffd5b50919050565b5f82518060208501845e5f920191825250919050565b60e081525f6116da60e083018a6113a4565b82810360208401526116ec818a6113a4565b6001600160a01b03988916604085015296881660608401525050928516608084015260a083019190915290921660c09092019190915292915050565b601f821115610edf57805f5260205f20601f840160051c8101602085101561174d5750805b601f840160051c820191505b8181101561176c575f8155600101611759565b5050505050565b815167ffffffffffffffff81111561178d5761178d611414565b6117a18161179b845461167a565b84611728565b6020601f8211600181146117d3575f83156117bc5750848201515b5f19600385901b1c1916600184901b17845561176c565b5f84815260208120601f198516915b8281101561180257878501518255602094850194600190920191016117e2565b508482101561181f57868401515f19600387901b60f8161c191681555b50505050600190811b01905550565b81810381811115610ffe57634e487b7160e01b5f52601160045260245ffd5b602080825260199082015278696e76616c6964206d6f64657261746f72206164647265737360381b604082015260600190565b602080825260179082015276696e76616c696420636f6e74726163744164647265737360481b604082015260600190565b602080825260199082015278696e76616c6964207075626c6973686572206164647265737360381b604082015260600190565b634e487b7160e01b5f52603260045260245ffd5b634e487b7160e01b5f52603160045260245ffdfea2646970667358221220b6d9d8e3f0c1b51bde2fc7fabcc3dbfcded26300fd3b1301b3d4463b29dc803164736f6c634300081c0033",
			"opcodes": "PUSH1 0x80 PUSH1 0x40 MSTORE CALLVALUE DUP1 ISZERO PUSH2 0xF JUMPI PUSH0 PUSH0 REVERT JUMPDEST POP PUSH1 0x40 MLOAD PUSH2 0x1B34 CODESIZE SUB DUP1 PUSH2 0x1B34 DUP4 CODECOPY DUP2 ADD PUSH1 0x40 DUP2 SWAP1 MSTORE PUSH2 0x2E SWAP2 PUSH2 0x1AC JUMP JUMPDEST CALLER DUP1 PUSH2 0x54 JUMPI PUSH1 0x40 MLOAD PUSH4 0x1E4FBDF7 PUSH1 0xE0 SHL DUP2 MSTORE PUSH0 PUSH1 0x4 DUP3 ADD MSTORE PUSH1 0x24 ADD JUMPDEST PUSH1 0x40 MLOAD DUP1 SWAP2 SUB SWAP1 REVERT JUMPDEST PUSH2 0x5D DUP2 PUSH2 0x142 JUMP JUMPDEST POP PUSH1 0x1 PUSH1 0x1 PUSH1 0xA0 SHL SUB DUP4 AND PUSH2 0xB4 JUMPI PUSH1 0x40 MLOAD PUSH3 0x461BCD PUSH1 0xE5 SHL DUP2 MSTORE PUSH1 0x20 PUSH1 0x4 DUP3 ADD MSTORE PUSH1 0x1E PUSH1 0x24 DUP3 ADD MSTORE PUSH32 0x696E76616C696420696D706C656D656E746174696F6E20616464726573730000 PUSH1 0x44 DUP3 ADD MSTORE PUSH1 0x64 ADD PUSH2 0x4B JUMP JUMPDEST PUSH1 0x1 PUSH1 0x1 PUSH1 0xA0 SHL SUB DUP3 AND PUSH2 0x10A JUMPI PUSH1 0x40 MLOAD PUSH3 0x461BCD PUSH1 0xE5 SHL DUP2 MSTORE PUSH1 0x20 PUSH1 0x4 DUP3 ADD MSTORE PUSH1 0x1A PUSH1 0x24 DUP3 ADD MSTORE PUSH32 0x696E76616C696420706C6174666F726D46656541646472657373000000000000 PUSH1 0x44 DUP3 ADD MSTORE PUSH1 0x64 ADD PUSH2 0x4B JUMP JUMPDEST PUSH1 0x1 DUP1 SLOAD PUSH1 0x1 PUSH1 0x1 PUSH1 0xA0 SHL SUB SWAP5 DUP6 AND PUSH1 0x1 PUSH1 0x1 PUSH1 0xA0 SHL SUB NOT SWAP2 DUP3 AND OR SWAP1 SWAP2 SSTORE PUSH1 0x3 DUP1 SLOAD SWAP4 SWAP1 SWAP5 AND SWAP3 AND SWAP2 SWAP1 SWAP2 OR SWAP1 SWAP2 SSTORE PUSH1 0x2 SSTORE PUSH2 0x1E5 JUMP JUMPDEST PUSH0 DUP1 SLOAD PUSH1 0x1 PUSH1 0x1 PUSH1 0xA0 SHL SUB DUP4 DUP2 AND PUSH1 0x1 PUSH1 0x1 PUSH1 0xA0 SHL SUB NOT DUP4 AND DUP2 OR DUP5 SSTORE PUSH1 0x40 MLOAD SWAP2 SWAP1 SWAP3 AND SWAP3 DUP4 SWAP2 PUSH32 0x8BE0079C531659141344CD1FD0A4F28419497F9722A3DAAFE3B4186F6B6457E0 SWAP2 SWAP1 LOG3 POP POP JUMP JUMPDEST DUP1 MLOAD PUSH1 0x1 PUSH1 0x1 PUSH1 0xA0 SHL SUB DUP2 AND DUP2 EQ PUSH2 0x1A7 JUMPI PUSH0 PUSH0 REVERT JUMPDEST SWAP2 SWAP1 POP JUMP JUMPDEST PUSH0 PUSH0 PUSH0 PUSH1 0x60 DUP5 DUP7 SUB SLT ISZERO PUSH2 0x1BE JUMPI PUSH0 PUSH0 REVERT JUMPDEST PUSH2 0x1C7 DUP5 PUSH2 0x191 JUMP JUMPDEST SWAP3 POP PUSH2 0x1D5 PUSH1 0x20 DUP6 ADD PUSH2 0x191 JUMP JUMPDEST SWAP2 POP PUSH1 0x40 DUP5 ADD MLOAD SWAP1 POP SWAP3 POP SWAP3 POP SWAP3 JUMP JUMPDEST PUSH2 0x1942 DUP1 PUSH2 0x1F2 PUSH0 CODECOPY PUSH0 RETURN INVALID PUSH1 0x80 PUSH1 0x40 MSTORE CALLVALUE DUP1 ISZERO PUSH2 0xF JUMPI PUSH0 PUSH0 REVERT JUMPDEST POP PUSH1 0x4 CALLDATASIZE LT PUSH2 0x15E JUMPI PUSH0 CALLDATALOAD PUSH1 0xE0 SHR DUP1 PUSH4 0x8DA5CB5B GT PUSH2 0xCA JUMPI DUP1 PUSH4 0xB552EBC8 GT PUSH2 0x84 JUMPI DUP1 PUSH4 0xB552EBC8 EQ PUSH2 0x32D JUMPI DUP1 PUSH4 0xC2B602F3 EQ PUSH2 0x340 JUMPI DUP1 PUSH4 0xD414A3F2 EQ PUSH2 0x353 JUMPI DUP1 PUSH4 0xDF7AE382 EQ PUSH2 0x373 JUMPI DUP1 PUSH4 0xED14834F EQ PUSH2 0x39D JUMPI DUP1 PUSH4 0xF2FDE38B EQ PUSH2 0x3B0 JUMPI DUP1 PUSH4 0xF336AA35 EQ PUSH2 0x3C3 JUMPI PUSH0 PUSH0 REVERT JUMPDEST DUP1 PUSH4 0x8DA5CB5B EQ PUSH2 0x2B4 JUMPI DUP1 PUSH4 0x9375DA5A EQ PUSH2 0x2C4 JUMPI DUP1 PUSH4 0x9472A969 EQ PUSH2 0x2D7 JUMPI DUP1 PUSH4 0x9B1EC6A3 EQ PUSH2 0x2FF JUMPI DUP1 PUSH4 0x9D209A30 EQ PUSH2 0x307 JUMPI DUP1 PUSH4 0xB2860298 EQ PUSH2 0x31A JUMPI PUSH0 PUSH0 REVERT JUMPDEST DUP1 PUSH4 0x5C60DA1B GT PUSH2 0x11B JUMPI DUP1 PUSH4 0x5C60DA1B EQ PUSH2 0x20C JUMPI DUP1 PUSH4 0x64EB68EB EQ PUSH2 0x22C JUMPI DUP1 PUSH4 0x715018A6 EQ PUSH2 0x24C JUMPI DUP1 PUSH4 0x77B43000 EQ PUSH2 0x254 JUMPI DUP1 PUSH4 0x841A0CBE EQ PUSH2 0x281 JUMPI DUP1 PUSH4 0x8B0D4377 EQ PUSH2 0x2A1 JUMPI PUSH0 PUSH0 REVERT JUMPDEST DUP1 PUSH4 0x7DC6749 EQ PUSH2 0x162 JUMPI DUP1 PUSH4 0x14F9FF21 EQ PUSH2 0x17E JUMPI DUP1 PUSH4 0x172C2664 EQ PUSH2 0x1BB JUMPI DUP1 PUSH4 0x23E49534 EQ PUSH2 0x1DC JUMPI DUP1 PUSH4 0x2E4E56CF EQ PUSH2 0x1E4 JUMPI DUP1 PUSH4 0x4F568DB3 EQ PUSH2 0x1F9 JUMPI JUMPDEST PUSH0 PUSH0 REVERT JUMPDEST PUSH2 0x16B PUSH1 0x2 SLOAD DUP2 JUMP JUMPDEST PUSH1 0x40 MLOAD SWAP1 DUP2 MSTORE PUSH1 0x20 ADD JUMPDEST PUSH1 0x40 MLOAD DUP1 SWAP2 SUB SWAP1 RETURN JUMPDEST PUSH2 0x1AB PUSH2 0x18C CALLDATASIZE PUSH1 0x4 PUSH2 0x134B JUMP JUMPDEST PUSH1 0x9 PUSH1 0x20 SWAP1 DUP2 MSTORE PUSH0 SWAP3 DUP4 MSTORE PUSH1 0x40 DUP1 DUP5 KECCAK256 SWAP1 SWAP2 MSTORE SWAP1 DUP3 MSTORE SWAP1 KECCAK256 SLOAD PUSH1 0xFF AND DUP2 JUMP JUMPDEST PUSH1 0x40 MLOAD SWAP1 ISZERO ISZERO DUP2 MSTORE PUSH1 0x20 ADD PUSH2 0x175 JUMP JUMPDEST PUSH2 0x1CE PUSH2 0x1C9 CALLDATASIZE PUSH1 0x4 PUSH2 0x137C JUMP JUMPDEST PUSH2 0x3D6 JUMP JUMPDEST PUSH1 0x40 MLOAD PUSH2 0x175 SWAP3 SWAP2 SWAP1 PUSH2 0x13D2 JUMP JUMPDEST PUSH1 0x4 SLOAD PUSH2 0x16B JUMP JUMPDEST PUSH2 0x1F7 PUSH2 0x1F2 CALLDATASIZE PUSH1 0x4 PUSH2 0x13FB JUMP JUMPDEST PUSH2 0x49F JUMP JUMPDEST STOP JUMPDEST PUSH2 0x1F7 PUSH2 0x207 CALLDATASIZE PUSH1 0x4 PUSH2 0x14B3 JUMP JUMPDEST PUSH2 0x524 JUMP JUMPDEST PUSH1 0x1 SLOAD PUSH2 0x21F SWAP1 PUSH1 0x1 PUSH1 0x1 PUSH1 0xA0 SHL SUB AND DUP2 JUMP JUMPDEST PUSH1 0x40 MLOAD PUSH2 0x175 SWAP2 SWAP1 PUSH2 0x1527 JUMP JUMPDEST PUSH2 0x23F PUSH2 0x23A CALLDATASIZE PUSH1 0x4 PUSH2 0x13FB JUMP JUMPDEST PUSH2 0x7F3 JUMP JUMPDEST PUSH1 0x40 MLOAD PUSH2 0x175 SWAP2 SWAP1 PUSH2 0x156C JUMP JUMPDEST PUSH2 0x1F7 PUSH2 0x907 JUMP JUMPDEST PUSH2 0x1AB PUSH2 0x262 CALLDATASIZE PUSH1 0x4 PUSH2 0x134B JUMP JUMPDEST PUSH1 0xB PUSH1 0x20 SWAP1 DUP2 MSTORE PUSH0 SWAP3 DUP4 MSTORE PUSH1 0x40 DUP1 DUP5 KECCAK256 SWAP1 SWAP2 MSTORE SWAP1 DUP3 MSTORE SWAP1 KECCAK256 SLOAD PUSH1 0xFF AND DUP2 JUMP JUMPDEST PUSH2 0x294 PUSH2 0x28F CALLDATASIZE PUSH1 0x4 PUSH2 0x13FB JUMP JUMPDEST PUSH2 0x91A JUMP JUMPDEST PUSH1 0x40 MLOAD PUSH2 0x175 SWAP2 SWAP1 PUSH2 0x15CF JUMP JUMPDEST PUSH2 0x1F7 PUSH2 0x2AF CALLDATASIZE PUSH1 0x4 PUSH2 0x161A JUMP JUMPDEST PUSH2 0x98D JUMP JUMPDEST PUSH0 SLOAD PUSH1 0x1 PUSH1 0x1 PUSH1 0xA0 SHL SUB AND PUSH2 0x21F JUMP JUMPDEST PUSH2 0x1F7 PUSH2 0x2D2 CALLDATASIZE PUSH1 0x4 PUSH2 0x13FB JUMP JUMPDEST PUSH2 0xB8E JUMP JUMPDEST PUSH2 0x16B PUSH2 0x2E5 CALLDATASIZE PUSH1 0x4 PUSH2 0x13FB JUMP JUMPDEST PUSH1 0x1 PUSH1 0x1 PUSH1 0xA0 SHL SUB AND PUSH0 SWAP1 DUP2 MSTORE PUSH1 0x6 PUSH1 0x20 MSTORE PUSH1 0x40 SWAP1 KECCAK256 SLOAD SWAP1 JUMP JUMPDEST PUSH2 0x23F PUSH2 0xC03 JUMP JUMPDEST PUSH2 0x294 PUSH2 0x315 CALLDATASIZE PUSH1 0x4 PUSH2 0x13FB JUMP JUMPDEST PUSH2 0xD01 JUMP JUMPDEST PUSH2 0x1CE PUSH2 0x328 CALLDATASIZE PUSH1 0x4 PUSH2 0x1651 JUMP JUMPDEST PUSH2 0xD72 JUMP JUMPDEST PUSH2 0x1F7 PUSH2 0x33B CALLDATASIZE PUSH1 0x4 PUSH2 0x161A JUMP JUMPDEST PUSH2 0xDA0 JUMP JUMPDEST PUSH2 0x1F7 PUSH2 0x34E CALLDATASIZE PUSH1 0x4 PUSH2 0x1651 JUMP JUMPDEST PUSH2 0xEE4 JUMP JUMPDEST PUSH2 0x366 PUSH2 0x361 CALLDATASIZE PUSH1 0x4 PUSH2 0x134B JUMP JUMPDEST PUSH2 0xEF1 JUMP JUMPDEST PUSH1 0x40 MLOAD PUSH2 0x175 SWAP2 SWAP1 PUSH2 0x1668 JUMP JUMPDEST PUSH2 0x16B PUSH2 0x381 CALLDATASIZE PUSH1 0x4 PUSH2 0x134B JUMP JUMPDEST PUSH1 0x8 PUSH1 0x20 SWAP1 DUP2 MSTORE PUSH0 SWAP3 DUP4 MSTORE PUSH1 0x40 DUP1 DUP5 KECCAK256 SWAP1 SWAP2 MSTORE SWAP1 DUP3 MSTORE SWAP1 KECCAK256 SLOAD DUP2 JUMP JUMPDEST PUSH1 0x3 SLOAD PUSH2 0x21F SWAP1 PUSH1 0x1 PUSH1 0x1 PUSH1 0xA0 SHL SUB AND DUP2 JUMP JUMPDEST PUSH2 0x1F7 PUSH2 0x3BE CALLDATASIZE PUSH1 0x4 PUSH2 0x13FB JUMP JUMPDEST PUSH2 0x1004 JUMP JUMPDEST PUSH2 0x1F7 PUSH2 0x3D1 CALLDATASIZE PUSH1 0x4 PUSH2 0x161A JUMP JUMPDEST PUSH2 0x1041 JUMP JUMPDEST PUSH1 0x6 PUSH1 0x20 MSTORE DUP2 PUSH0 MSTORE PUSH1 0x40 PUSH0 KECCAK256 DUP2 DUP2 SLOAD DUP2 LT PUSH2 0x3EF JUMPI PUSH0 DUP1 REVERT JUMPDEST SWAP1 PUSH0 MSTORE PUSH1 0x20 PUSH0 KECCAK256 SWAP1 PUSH1 0x2 MUL ADD PUSH0 SWAP2 POP SWAP2 POP POP DUP1 PUSH0 ADD DUP1 SLOAD PUSH2 0x40F SWAP1 PUSH2 0x167A JUMP JUMPDEST DUP1 PUSH1 0x1F ADD PUSH1 0x20 DUP1 SWAP2 DIV MUL PUSH1 0x20 ADD PUSH1 0x40 MLOAD SWAP1 DUP2 ADD PUSH1 0x40 MSTORE DUP1 SWAP3 SWAP2 SWAP1 DUP2 DUP2 MSTORE PUSH1 0x20 ADD DUP3 DUP1 SLOAD PUSH2 0x43B SWAP1 PUSH2 0x167A JUMP JUMPDEST DUP1 ISZERO PUSH2 0x486 JUMPI DUP1 PUSH1 0x1F LT PUSH2 0x45D JUMPI PUSH2 0x100 DUP1 DUP4 SLOAD DIV MUL DUP4 MSTORE SWAP2 PUSH1 0x20 ADD SWAP2 PUSH2 0x486 JUMP JUMPDEST DUP3 ADD SWAP2 SWAP1 PUSH0 MSTORE PUSH1 0x20 PUSH0 KECCAK256 SWAP1 JUMPDEST DUP2 SLOAD DUP2 MSTORE SWAP1 PUSH1 0x1 ADD SWAP1 PUSH1 0x20 ADD DUP1 DUP4 GT PUSH2 0x469 JUMPI DUP3 SWAP1 SUB PUSH1 0x1F AND DUP3 ADD SWAP2 JUMPDEST POP POP POP PUSH1 0x1 SWAP1 SWAP4 ADD SLOAD SWAP2 SWAP3 POP POP PUSH1 0x1 PUSH1 0x1 PUSH1 0xA0 SHL SUB AND DUP3 JUMP JUMPDEST PUSH2 0x4A7 PUSH2 0x1179 JUMP JUMPDEST PUSH1 0x1 PUSH1 0x1 PUSH1 0xA0 SHL SUB DUP2 AND PUSH2 0x502 JUMPI PUSH1 0x40 MLOAD PUSH3 0x461BCD PUSH1 0xE5 SHL DUP2 MSTORE PUSH1 0x20 PUSH1 0x4 DUP3 ADD MSTORE PUSH1 0x1E PUSH1 0x24 DUP3 ADD MSTORE PUSH32 0x696E76616C696420696D706C656D656E746174696F6E20616464726573730000 PUSH1 0x44 DUP3 ADD MSTORE PUSH1 0x64 ADD JUMPDEST PUSH1 0x40 MLOAD DUP1 SWAP2 SUB SWAP1 REVERT JUMPDEST PUSH1 0x1 DUP1 SLOAD PUSH1 0x1 PUSH1 0x1 PUSH1 0xA0 SHL SUB NOT AND PUSH1 0x1 PUSH1 0x1 PUSH1 0xA0 SHL SUB SWAP3 SWAP1 SWAP3 AND SWAP2 SWAP1 SWAP2 OR SWAP1 SSTORE JUMP JUMPDEST PUSH0 DUP4 MLOAD GT PUSH2 0x566 JUMPI PUSH1 0x40 MLOAD PUSH3 0x461BCD PUSH1 0xE5 SHL DUP2 MSTORE PUSH1 0x20 PUSH1 0x4 DUP3 ADD MSTORE PUSH1 0xF PUSH1 0x24 DUP3 ADD MSTORE PUSH15 0x1A5B9D985B1A59081CDA5D19555493 PUSH1 0x8A SHL PUSH1 0x44 DUP3 ADD MSTORE PUSH1 0x64 ADD PUSH2 0x4F9 JUMP JUMPDEST PUSH1 0x1 PUSH1 0x1 PUSH1 0xA0 SHL SUB DUP2 AND PUSH2 0x5BC JUMPI PUSH1 0x40 MLOAD PUSH3 0x461BCD PUSH1 0xE5 SHL DUP2 MSTORE PUSH1 0x20 PUSH1 0x4 DUP3 ADD MSTORE PUSH1 0x1A PUSH1 0x24 DUP3 ADD MSTORE PUSH32 0x696E76616C696420657263323020746F6B656E41646472657373000000000000 PUSH1 0x44 DUP3 ADD MSTORE PUSH1 0x64 ADD PUSH2 0x4F9 JUMP JUMPDEST PUSH0 DUP4 PUSH1 0x40 MLOAD PUSH1 0x20 ADD PUSH2 0x5CE SWAP2 SWAP1 PUSH2 0x16B2 JUMP JUMPDEST PUSH1 0x40 DUP1 MLOAD PUSH1 0x1F NOT DUP2 DUP5 SUB ADD DUP2 MSTORE SWAP2 SWAP1 MSTORE DUP1 MLOAD PUSH1 0x20 SWAP1 SWAP2 ADD KECCAK256 PUSH1 0x1 SLOAD SWAP1 SWAP2 POP PUSH0 SWAP1 PUSH2 0x601 SWAP1 PUSH1 0x1 PUSH1 0x1 PUSH1 0xA0 SHL SUB AND DUP4 PUSH2 0x11A5 JUMP JUMPDEST PUSH1 0x3 SLOAD PUSH1 0x2 SLOAD PUSH1 0x40 MLOAD PUSH4 0xB9FBAAF9 PUSH1 0xE0 SHL DUP2 MSTORE SWAP3 SWAP4 POP PUSH1 0x1 PUSH1 0x1 PUSH1 0xA0 SHL SUB DUP1 DUP6 AND SWAP4 PUSH4 0xB9FBAAF9 SWAP4 PUSH2 0x643 SWAP4 DUP12 SWAP4 DUP12 SWAP4 DUP12 SWAP4 CALLER SWAP4 SWAP3 AND SWAP2 SWAP1 ADDRESS SWAP1 PUSH1 0x4 ADD PUSH2 0x16C8 JUMP JUMPDEST PUSH0 PUSH1 0x40 MLOAD DUP1 DUP4 SUB DUP2 PUSH0 DUP8 DUP1 EXTCODESIZE ISZERO DUP1 ISZERO PUSH2 0x65A JUMPI PUSH0 PUSH0 REVERT JUMPDEST POP GAS CALL ISZERO DUP1 ISZERO PUSH2 0x66C JUMPI RETURNDATASIZE PUSH0 PUSH0 RETURNDATACOPY RETURNDATASIZE PUSH0 REVERT JUMPDEST POP POP PUSH1 0x40 DUP1 MLOAD DUP1 DUP3 ADD DUP3 MSTORE DUP9 DUP2 MSTORE PUSH1 0x1 PUSH1 0x1 PUSH1 0xA0 SHL SUB DUP6 AND PUSH1 0x20 DUP1 DUP4 ADD SWAP2 SWAP1 SWAP2 MSTORE CALLER PUSH0 SWAP1 DUP2 MSTORE PUSH1 0x6 DUP3 MSTORE SWAP3 DUP4 KECCAK256 DUP1 SLOAD PUSH1 0x1 DUP2 ADD DUP3 SSTORE SWAP1 DUP5 MSTORE SWAP3 KECCAK256 DUP2 MLOAD SWAP2 SWAP5 POP DUP5 SWAP4 POP PUSH1 0x2 SWAP1 SWAP3 MUL SWAP1 SWAP2 ADD SWAP1 DUP2 SWAP1 PUSH2 0x6C3 SWAP1 DUP3 PUSH2 0x1773 JUMP JUMPDEST POP PUSH1 0x20 SWAP2 DUP3 ADD MLOAD PUSH1 0x1 SWAP2 DUP3 ADD DUP1 SLOAD PUSH1 0x1 PUSH1 0x1 PUSH1 0xA0 SHL SUB NOT AND PUSH1 0x1 PUSH1 0x1 PUSH1 0xA0 SHL SUB SWAP1 SWAP3 AND SWAP2 SWAP1 SWAP2 OR SWAP1 SSTORE CALLER PUSH0 SWAP1 DUP2 MSTORE PUSH1 0x6 SWAP1 SWAP3 MSTORE PUSH1 0x40 SWAP1 SWAP2 KECCAK256 SLOAD PUSH2 0x706 SWAP2 SWAP1 PUSH2 0x182E JUMP JUMPDEST PUSH1 0x1 PUSH1 0x1 PUSH1 0xA0 SHL SUB DUP4 AND PUSH0 SWAP1 DUP2 MSTORE PUSH1 0x5 PUSH1 0x20 MSTORE PUSH1 0x40 DUP2 KECCAK256 SWAP2 SWAP1 SWAP2 SSTORE PUSH1 0x4 DUP1 SLOAD PUSH1 0x1 DUP2 ADD DUP3 SSTORE SWAP2 MSTORE DUP2 MLOAD DUP3 SWAP2 PUSH1 0x2 MUL PUSH32 0x8A35ACFBC15FF81A39AE7D344FD709F28E8600B4AA8C65C6B64BFE7FE36BD19B ADD SWAP1 DUP2 SWAP1 PUSH2 0x763 SWAP1 DUP3 PUSH2 0x1773 JUMP JUMPDEST POP PUSH1 0x20 SWAP2 DUP3 ADD MLOAD PUSH1 0x1 SWAP1 SWAP2 ADD DUP1 SLOAD PUSH1 0x1 PUSH1 0x1 PUSH1 0xA0 SHL SUB NOT AND PUSH1 0x1 PUSH1 0x1 PUSH1 0xA0 SHL SUB SWAP3 DUP4 AND OR SWAP1 SSTORE PUSH1 0x40 DUP1 MLOAD TIMESTAMP DUP2 MSTORE PUSH1 0x60 SWAP4 DUP2 ADD DUP5 SWAP1 MSTORE PUSH1 0xD SWAP4 DUP2 ADD SWAP4 SWAP1 SWAP4 MSTORE PUSH13 0x10DB1BDB994818DC99585D1959 PUSH1 0x9A SHL PUSH1 0x80 DUP5 ADD MSTORE SWAP1 DUP5 AND SWAP1 DUP3 ADD MSTORE PUSH32 0xE12A742B5953FFC54C73C10D0160A24EB8F9DF9D50143ECCC19239340884348F SWAP1 PUSH1 0xA0 ADD PUSH1 0x40 MLOAD DUP1 SWAP2 SUB SWAP1 LOG1 POP POP POP POP POP POP JUMP JUMPDEST PUSH1 0x1 PUSH1 0x1 PUSH1 0xA0 SHL SUB DUP2 AND PUSH0 SWAP1 DUP2 MSTORE PUSH1 0x6 PUSH1 0x20 SWAP1 DUP2 MSTORE PUSH1 0x40 DUP1 DUP4 KECCAK256 DUP1 SLOAD DUP3 MLOAD DUP2 DUP6 MUL DUP2 ADD DUP6 ADD SWAP1 SWAP4 MSTORE DUP1 DUP4 MSTORE PUSH1 0x60 SWAP5 SWAP3 SWAP4 SWAP2 SWAP3 SWAP1 SWAP2 DUP5 ADD JUMPDEST DUP3 DUP3 LT ISZERO PUSH2 0x8FC JUMPI DUP4 DUP3 SWAP1 PUSH0 MSTORE PUSH1 0x20 PUSH0 KECCAK256 SWAP1 PUSH1 0x2 MUL ADD PUSH1 0x40 MLOAD DUP1 PUSH1 0x40 ADD PUSH1 0x40 MSTORE SWAP1 DUP2 PUSH0 DUP3 ADD DUP1 SLOAD PUSH2 0x85A SWAP1 PUSH2 0x167A JUMP JUMPDEST DUP1 PUSH1 0x1F ADD PUSH1 0x20 DUP1 SWAP2 DIV MUL PUSH1 0x20 ADD PUSH1 0x40 MLOAD SWAP1 DUP2 ADD PUSH1 0x40 MSTORE DUP1 SWAP3 SWAP2 SWAP1 DUP2 DUP2 MSTORE PUSH1 0x20 ADD DUP3 DUP1 SLOAD PUSH2 0x886 SWAP1 PUSH2 0x167A JUMP JUMPDEST DUP1 ISZERO PUSH2 0x8D1 JUMPI DUP1 PUSH1 0x1F LT PUSH2 0x8A8 JUMPI PUSH2 0x100 DUP1 DUP4 SLOAD DIV MUL DUP4 MSTORE SWAP2 PUSH1 0x20 ADD SWAP2 PUSH2 0x8D1 JUMP JUMPDEST DUP3 ADD SWAP2 SWAP1 PUSH0 MSTORE PUSH1 0x20 PUSH0 KECCAK256 SWAP1 JUMPDEST DUP2 SLOAD DUP2 MSTORE SWAP1 PUSH1 0x1 ADD SWAP1 PUSH1 0x20 ADD DUP1 DUP4 GT PUSH2 0x8B4 JUMPI DUP3 SWAP1 SUB PUSH1 0x1F AND DUP3 ADD SWAP2 JUMPDEST POP POP POP SWAP2 DUP4 MSTORE POP POP PUSH1 0x1 SWAP2 DUP3 ADD SLOAD PUSH1 0x1 PUSH1 0x1 PUSH1 0xA0 SHL SUB AND PUSH1 0x20 SWAP2 DUP3 ADD MSTORE SWAP2 DUP4 MSTORE SWAP3 SWAP1 SWAP3 ADD SWAP2 ADD PUSH2 0x82A JUMP JUMPDEST POP POP POP POP SWAP1 POP SWAP2 SWAP1 POP JUMP JUMPDEST PUSH2 0x90F PUSH2 0x1179 JUMP JUMPDEST PUSH2 0x918 PUSH0 PUSH2 0x11B8 JUMP JUMPDEST JUMP JUMPDEST PUSH1 0x1 PUSH1 0x1 PUSH1 0xA0 SHL SUB DUP2 AND PUSH0 SWAP1 DUP2 MSTORE PUSH1 0xA PUSH1 0x20 SWAP1 DUP2 MSTORE PUSH1 0x40 SWAP2 DUP3 SWAP1 KECCAK256 DUP1 SLOAD DUP4 MLOAD DUP2 DUP5 MUL DUP2 ADD DUP5 ADD SWAP1 SWAP5 MSTORE DUP1 DUP5 MSTORE PUSH1 0x60 SWAP4 SWAP3 DUP4 ADD DUP3 DUP3 DUP1 ISZERO PUSH2 0x981 JUMPI PUSH1 0x20 MUL DUP3 ADD SWAP2 SWAP1 PUSH0 MSTORE PUSH1 0x20 PUSH0 KECCAK256 SWAP1 JUMPDEST DUP2 SLOAD PUSH1 0x1 PUSH1 0x1 PUSH1 0xA0 SHL SUB AND DUP2 MSTORE PUSH1 0x1 SWAP1 SWAP2 ADD SWAP1 PUSH1 0x20 ADD DUP1 DUP4 GT PUSH2 0x963 JUMPI JUMPDEST POP POP POP POP POP SWAP1 POP SWAP2 SWAP1 POP JUMP JUMPDEST PUSH1 0x1 PUSH1 0x1 PUSH1 0xA0 SHL SUB DUP4 AND PUSH2 0x9B3 JUMPI PUSH1 0x40 MLOAD PUSH3 0x461BCD PUSH1 0xE5 SHL DUP2 MSTORE PUSH1 0x4 ADD PUSH2 0x4F9 SWAP1 PUSH2 0x184D JUMP JUMPDEST PUSH1 0x1 PUSH1 0x1 PUSH1 0xA0 SHL SUB DUP3 AND PUSH2 0x9D9 JUMPI PUSH1 0x40 MLOAD PUSH3 0x461BCD PUSH1 0xE5 SHL DUP2 MSTORE PUSH1 0x4 ADD PUSH2 0x4F9 SWAP1 PUSH2 0x1880 JUMP JUMPDEST PUSH1 0x1 PUSH1 0x1 PUSH1 0xA0 SHL SUB DUP2 AND PUSH2 0x9FF JUMPI PUSH1 0x40 MLOAD PUSH3 0x461BCD PUSH1 0xE5 SHL DUP2 MSTORE PUSH1 0x4 ADD PUSH2 0x4F9 SWAP1 PUSH2 0x18B1 JUMP JUMPDEST PUSH2 0xA09 DUP3 DUP3 PUSH2 0x1207 JUMP JUMPDEST PUSH1 0x1 PUSH1 0x1 PUSH1 0xA0 SHL SUB DUP4 AND PUSH0 SWAP1 DUP2 MSTORE PUSH1 0x7 PUSH1 0x20 MSTORE PUSH1 0x40 SWAP1 KECCAK256 DUP1 SLOAD PUSH2 0xA2E SWAP1 PUSH1 0x1 SWAP1 PUSH2 0x182E JUMP JUMPDEST DUP2 SLOAD DUP2 LT PUSH2 0xA3E JUMPI PUSH2 0xA3E PUSH2 0x18E4 JUMP JUMPDEST PUSH0 SWAP2 DUP3 MSTORE PUSH1 0x20 DUP1 DUP4 KECCAK256 SWAP1 SWAP2 ADD SLOAD PUSH1 0x1 PUSH1 0x1 PUSH1 0xA0 SHL SUB DUP7 DUP2 AND DUP5 MSTORE PUSH1 0x7 DUP4 MSTORE PUSH1 0x40 DUP1 DUP6 KECCAK256 PUSH1 0x8 DUP6 MSTORE DUP2 DUP7 KECCAK256 DUP9 DUP5 AND DUP8 MSTORE SWAP1 SWAP5 MSTORE SWAP1 SWAP4 KECCAK256 SLOAD DUP3 SLOAD SWAP4 SWAP1 SWAP2 AND SWAP3 DUP2 LT PUSH2 0xA89 JUMPI PUSH2 0xA89 PUSH2 0x18E4 JUMP JUMPDEST PUSH0 SWAP2 DUP3 MSTORE PUSH1 0x20 DUP1 DUP4 KECCAK256 SWAP2 SWAP1 SWAP2 ADD DUP1 SLOAD PUSH1 0x1 PUSH1 0x1 PUSH1 0xA0 SHL SUB NOT AND PUSH1 0x1 PUSH1 0x1 PUSH1 0xA0 SHL SUB SWAP5 DUP6 AND OR SWAP1 SSTORE DUP6 DUP4 AND DUP1 DUP4 MSTORE PUSH1 0x8 DUP3 MSTORE PUSH1 0x40 DUP1 DUP5 KECCAK256 SWAP5 DUP8 AND DUP5 MSTORE DUP5 DUP4 MSTORE DUP1 DUP5 KECCAK256 SLOAD SWAP2 DUP5 MSTORE PUSH1 0x7 SWAP1 SWAP3 MSTORE SWAP1 DUP3 KECCAK256 DUP1 SLOAD SWAP2 SWAP4 SWAP3 SWAP2 PUSH2 0xAE8 SWAP1 PUSH1 0x1 SWAP1 PUSH2 0x182E JUMP JUMPDEST DUP2 SLOAD DUP2 LT PUSH2 0xAF8 JUMPI PUSH2 0xAF8 PUSH2 0x18E4 JUMP JUMPDEST PUSH0 SWAP2 DUP3 MSTORE PUSH1 0x20 DUP1 DUP4 KECCAK256 SWAP1 SWAP2 ADD SLOAD PUSH1 0x1 PUSH1 0x1 PUSH1 0xA0 SHL SUB SWAP1 DUP2 AND DUP5 MSTORE DUP4 DUP3 ADD SWAP5 SWAP1 SWAP5 MSTORE PUSH1 0x40 SWAP3 DUP4 ADD DUP3 KECCAK256 SWAP5 SWAP1 SWAP5 SSTORE SWAP2 DUP7 AND DUP3 MSTORE PUSH1 0x7 SWAP1 SWAP3 MSTORE KECCAK256 DUP1 SLOAD DUP1 PUSH2 0xB3E JUMPI PUSH2 0xB3E PUSH2 0x18F8 JUMP JUMPDEST PUSH0 DUP3 DUP2 MSTORE PUSH1 0x20 DUP1 DUP3 KECCAK256 DUP4 ADD PUSH0 NOT SWAP1 DUP2 ADD DUP1 SLOAD PUSH1 0x1 PUSH1 0x1 PUSH1 0xA0 SHL SUB NOT AND SWAP1 SSTORE SWAP1 SWAP3 ADD SWAP1 SWAP3 SSTORE PUSH1 0x1 PUSH1 0x1 PUSH1 0xA0 SHL SUB SWAP5 DUP6 AND DUP3 MSTORE PUSH1 0x9 DUP2 MSTORE PUSH1 0x40 DUP1 DUP4 KECCAK256 SWAP5 SWAP1 SWAP6 AND DUP3 MSTORE SWAP3 SWAP1 SWAP3 MSTORE POP KECCAK256 DUP1 SLOAD PUSH1 0xFF NOT AND SWAP1 SSTORE JUMP JUMPDEST PUSH2 0xB96 PUSH2 0x1179 JUMP JUMPDEST PUSH1 0x1 PUSH1 0x1 PUSH1 0xA0 SHL SUB DUP2 AND PUSH2 0xBE1 JUMPI PUSH1 0x40 MLOAD PUSH3 0x461BCD PUSH1 0xE5 SHL DUP2 MSTORE PUSH1 0x20 PUSH1 0x4 DUP3 ADD MSTORE PUSH1 0x12 PUSH1 0x24 DUP3 ADD MSTORE PUSH18 0x696E76616C69642066656541646472657373 PUSH1 0x70 SHL PUSH1 0x44 DUP3 ADD MSTORE PUSH1 0x64 ADD PUSH2 0x4F9 JUMP JUMPDEST PUSH1 0x3 DUP1 SLOAD PUSH1 0x1 PUSH1 0x1 PUSH1 0xA0 SHL SUB NOT AND PUSH1 0x1 PUSH1 0x1 PUSH1 0xA0 SHL SUB SWAP3 SWAP1 SWAP3 AND SWAP2 SWAP1 SWAP2 OR SWAP1 SSTORE JUMP JUMPDEST PUSH1 0x60 PUSH1 0x4 DUP1 SLOAD DUP1 PUSH1 0x20 MUL PUSH1 0x20 ADD PUSH1 0x40 MLOAD SWAP1 DUP2 ADD PUSH1 0x40 MSTORE DUP1 SWAP3 SWAP2 SWAP1 DUP2 DUP2 MSTORE PUSH1 0x20 ADD PUSH0 SWAP1 JUMPDEST DUP3 DUP3 LT ISZERO PUSH2 0xCF8 JUMPI DUP4 DUP3 SWAP1 PUSH0 MSTORE PUSH1 0x20 PUSH0 KECCAK256 SWAP1 PUSH1 0x2 MUL ADD PUSH1 0x40 MLOAD DUP1 PUSH1 0x40 ADD PUSH1 0x40 MSTORE SWAP1 DUP2 PUSH0 DUP3 ADD DUP1 SLOAD PUSH2 0xC56 SWAP1 PUSH2 0x167A JUMP JUMPDEST DUP1 PUSH1 0x1F ADD PUSH1 0x20 DUP1 SWAP2 DIV MUL PUSH1 0x20 ADD PUSH1 0x40 MLOAD SWAP1 DUP2 ADD PUSH1 0x40 MSTORE DUP1 SWAP3 SWAP2 SWAP1 DUP2 DUP2 MSTORE PUSH1 0x20 ADD DUP3 DUP1 SLOAD PUSH2 0xC82 SWAP1 PUSH2 0x167A JUMP JUMPDEST DUP1 ISZERO PUSH2 0xCCD JUMPI DUP1 PUSH1 0x1F LT PUSH2 0xCA4 JUMPI PUSH2 0x100 DUP1 DUP4 SLOAD DIV MUL DUP4 MSTORE SWAP2 PUSH1 0x20 ADD SWAP2 PUSH2 0xCCD JUMP JUMPDEST DUP3 ADD SWAP2 SWAP1 PUSH0 MSTORE PUSH1 0x20 PUSH0 KECCAK256 SWAP1 JUMPDEST DUP2 SLOAD DUP2 MSTORE SWAP1 PUSH1 0x1 ADD SWAP1 PUSH1 0x20 ADD DUP1 DUP4 GT PUSH2 0xCB0 JUMPI DUP3 SWAP1 SUB PUSH1 0x1F AND DUP3 ADD SWAP2 JUMPDEST POP POP POP SWAP2 DUP4 MSTORE POP POP PUSH1 0x1 SWAP2 DUP3 ADD SLOAD PUSH1 0x1 PUSH1 0x1 PUSH1 0xA0 SHL SUB AND PUSH1 0x20 SWAP2 DUP3 ADD MSTORE SWAP2 DUP4 MSTORE SWAP3 SWAP1 SWAP3 ADD SWAP2 ADD PUSH2 0xC26 JUMP JUMPDEST POP POP POP POP SWAP1 POP SWAP1 JUMP JUMPDEST PUSH1 0x1 PUSH1 0x1 PUSH1 0xA0 SHL SUB DUP2 AND PUSH0 SWAP1 DUP2 MSTORE PUSH1 0x7 PUSH1 0x20 SWAP1 DUP2 MSTORE PUSH1 0x40 SWAP2 DUP3 SWAP1 KECCAK256 DUP1 SLOAD DUP4 MLOAD DUP2 DUP5 MUL DUP2 ADD DUP5 ADD SWAP1 SWAP5 MSTORE DUP1 DUP5 MSTORE PUSH1 0x60 SWAP4 SWAP3 DUP4 ADD DUP3 DUP3 DUP1 ISZERO PUSH2 0x981 JUMPI PUSH1 0x20 MUL DUP3 ADD SWAP2 SWAP1 PUSH0 MSTORE PUSH1 0x20 PUSH0 KECCAK256 SWAP1 DUP2 SLOAD PUSH1 0x1 PUSH1 0x1 PUSH1 0xA0 SHL SUB AND DUP2 MSTORE PUSH1 0x1 SWAP1 SWAP2 ADD SWAP1 PUSH1 0x20 ADD DUP1 DUP4 GT PUSH2 0x963 JUMPI POP POP POP POP POP SWAP1 POP SWAP2 SWAP1 POP JUMP JUMPDEST PUSH1 0x4 DUP2 DUP2 SLOAD DUP2 LT PUSH2 0xD81 JUMPI PUSH0 DUP1 REVERT JUMPDEST SWAP1 PUSH0 MSTORE PUSH1 0x20 PUSH0 KECCAK256 SWAP1 PUSH1 0x2 MUL ADD PUSH0 SWAP2 POP SWAP1 POP DUP1 PUSH0 ADD DUP1 SLOAD PUSH2 0x40F SWAP1 PUSH2 0x167A JUMP JUMPDEST PUSH1 0x1 PUSH1 0x1 PUSH1 0xA0 SHL SUB DUP4 AND PUSH2 0xDC6 JUMPI PUSH1 0x40 MLOAD PUSH3 0x461BCD PUSH1 0xE5 SHL DUP2 MSTORE PUSH1 0x4 ADD PUSH2 0x4F9 SWAP1 PUSH2 0x184D JUMP JUMPDEST PUSH1 0x1 PUSH1 0x1 PUSH1 0xA0 SHL SUB DUP3 AND PUSH2 0xDEC JUMPI PUSH1 0x40 MLOAD PUSH3 0x461BCD PUSH1 0xE5 SHL DUP2 MSTORE PUSH1 0x4 ADD PUSH2 0x4F9 SWAP1 PUSH2 0x1880 JUMP JUMPDEST PUSH1 0x1 PUSH1 0x1 PUSH1 0xA0 SHL SUB DUP2 AND PUSH2 0xE12 JUMPI PUSH1 0x40 MLOAD PUSH3 0x461BCD PUSH1 0xE5 SHL DUP2 MSTORE PUSH1 0x4 ADD PUSH2 0x4F9 SWAP1 PUSH2 0x18B1 JUMP JUMPDEST PUSH2 0xE1C DUP3 DUP3 PUSH2 0x1207 JUMP JUMPDEST PUSH1 0x1 PUSH1 0x1 PUSH1 0xA0 SHL SUB DUP1 DUP5 AND PUSH0 SWAP1 DUP2 MSTORE PUSH1 0x9 PUSH1 0x20 SWAP1 DUP2 MSTORE PUSH1 0x40 DUP1 DUP4 KECCAK256 SWAP4 DUP7 AND DUP4 MSTORE SWAP3 SWAP1 MSTORE KECCAK256 SLOAD PUSH1 0xFF AND PUSH2 0xEDF JUMPI PUSH1 0x1 PUSH1 0x1 PUSH1 0xA0 SHL SUB DUP4 DUP2 AND PUSH0 DUP2 DUP2 MSTORE PUSH1 0x7 PUSH1 0x20 SWAP1 DUP2 MSTORE PUSH1 0x40 DUP3 KECCAK256 DUP1 SLOAD PUSH1 0x1 DUP1 DUP3 ADD DUP4 SSTORE DUP3 DUP6 MSTORE SWAP3 DUP5 KECCAK256 ADD DUP1 SLOAD PUSH1 0x1 PUSH1 0x1 PUSH1 0xA0 SHL SUB NOT AND SWAP6 DUP9 AND SWAP6 SWAP1 SWAP6 OR SWAP1 SWAP5 SSTORE SWAP2 SWAP1 MSTORE SWAP1 SLOAD PUSH2 0xE97 SWAP2 SWAP1 PUSH2 0x182E JUMP JUMPDEST PUSH1 0x1 PUSH1 0x1 PUSH1 0xA0 SHL SUB DUP1 DUP6 AND PUSH0 DUP2 DUP2 MSTORE PUSH1 0x8 PUSH1 0x20 SWAP1 DUP2 MSTORE PUSH1 0x40 DUP1 DUP4 KECCAK256 SWAP5 DUP9 AND DUP1 DUP5 MSTORE SWAP5 DUP3 MSTORE DUP1 DUP4 KECCAK256 SWAP6 SWAP1 SWAP6 SSTORE SWAP2 DUP2 MSTORE PUSH1 0x9 DUP3 MSTORE DUP4 DUP2 KECCAK256 SWAP3 DUP2 MSTORE SWAP2 SWAP1 MSTORE KECCAK256 DUP1 SLOAD PUSH1 0xFF NOT AND PUSH1 0x1 OR SWAP1 SSTORE JUMPDEST POP POP POP JUMP JUMPDEST PUSH2 0xEEC PUSH2 0x1179 JUMP JUMPDEST PUSH1 0x2 SSTORE JUMP JUMPDEST PUSH1 0x40 DUP1 MLOAD DUP1 DUP3 ADD SWAP1 SWAP2 MSTORE PUSH1 0x60 DUP2 MSTORE PUSH0 PUSH1 0x20 DUP3 ADD MSTORE PUSH1 0x1 PUSH1 0x1 PUSH1 0xA0 SHL SUB DUP1 DUP4 AND PUSH0 SWAP1 DUP2 MSTORE PUSH1 0x5 PUSH1 0x20 SWAP1 DUP2 MSTORE PUSH1 0x40 DUP1 DUP4 KECCAK256 SLOAD SWAP4 DUP8 AND DUP4 MSTORE PUSH1 0x6 SWAP1 SWAP2 MSTORE SWAP1 KECCAK256 DUP1 SLOAD DUP3 SWAP1 DUP2 LT PUSH2 0xF3F JUMPI PUSH2 0xF3F PUSH2 0x18E4 JUMP JUMPDEST SWAP1 PUSH0 MSTORE PUSH1 0x20 PUSH0 KECCAK256 SWAP1 PUSH1 0x2 MUL ADD PUSH1 0x40 MLOAD DUP1 PUSH1 0x40 ADD PUSH1 0x40 MSTORE SWAP1 DUP2 PUSH0 DUP3 ADD DUP1 SLOAD PUSH2 0xF65 SWAP1 PUSH2 0x167A JUMP JUMPDEST DUP1 PUSH1 0x1F ADD PUSH1 0x20 DUP1 SWAP2 DIV MUL PUSH1 0x20 ADD PUSH1 0x40 MLOAD SWAP1 DUP2 ADD PUSH1 0x40 MSTORE DUP1 SWAP3 SWAP2 SWAP1 DUP2 DUP2 MSTORE PUSH1 0x20 ADD DUP3 DUP1 SLOAD PUSH2 0xF91 SWAP1 PUSH2 0x167A JUMP JUMPDEST DUP1 ISZERO PUSH2 0xFDC JUMPI DUP1 PUSH1 0x1F LT PUSH2 0xFB3 JUMPI PUSH2 0x100 DUP1 DUP4 SLOAD DIV MUL DUP4 MSTORE SWAP2 PUSH1 0x20 ADD SWAP2 PUSH2 0xFDC JUMP JUMPDEST DUP3 ADD SWAP2 SWAP1 PUSH0 MSTORE PUSH1 0x20 PUSH0 KECCAK256 SWAP1 JUMPDEST DUP2 SLOAD DUP2 MSTORE SWAP1 PUSH1 0x1 ADD SWAP1 PUSH1 0x20 ADD DUP1 DUP4 GT PUSH2 0xFBF JUMPI DUP3 SWAP1 SUB PUSH1 0x1F AND DUP3 ADD SWAP2 JUMPDEST POP POP POP SWAP2 DUP4 MSTORE POP POP PUSH1 0x1 SWAP2 SWAP1 SWAP2 ADD SLOAD PUSH1 0x1 PUSH1 0x1 PUSH1 0xA0 SHL SUB AND PUSH1 0x20 SWAP1 SWAP2 ADD MSTORE SWAP2 POP POP JUMPDEST SWAP3 SWAP2 POP POP JUMP JUMPDEST PUSH2 0x100C PUSH2 0x1179 JUMP JUMPDEST PUSH1 0x1 PUSH1 0x1 PUSH1 0xA0 SHL SUB DUP2 AND PUSH2 0x1035 JUMPI PUSH0 PUSH1 0x40 MLOAD PUSH4 0x1E4FBDF7 PUSH1 0xE0 SHL DUP2 MSTORE PUSH1 0x4 ADD PUSH2 0x4F9 SWAP2 SWAP1 PUSH2 0x1527 JUMP JUMPDEST PUSH2 0x103E DUP2 PUSH2 0x11B8 JUMP JUMPDEST POP JUMP JUMPDEST PUSH1 0x1 PUSH1 0x1 PUSH1 0xA0 SHL SUB DUP4 AND PUSH2 0x1097 JUMPI PUSH1 0x40 MLOAD PUSH3 0x461BCD PUSH1 0xE5 SHL DUP2 MSTORE PUSH1 0x20 PUSH1 0x4 DUP3 ADD MSTORE PUSH1 0x1A PUSH1 0x24 DUP3 ADD MSTORE PUSH32 0x696E76616C696420616476657274697365722061646472657373000000000000 PUSH1 0x44 DUP3 ADD MSTORE PUSH1 0x64 ADD PUSH2 0x4F9 JUMP JUMPDEST PUSH1 0x1 PUSH1 0x1 PUSH1 0xA0 SHL SUB DUP3 AND PUSH2 0x10BD JUMPI PUSH1 0x40 MLOAD PUSH3 0x461BCD PUSH1 0xE5 SHL DUP2 MSTORE PUSH1 0x4 ADD PUSH2 0x4F9 SWAP1 PUSH2 0x1880 JUMP JUMPDEST PUSH1 0x1 PUSH1 0x1 PUSH1 0xA0 SHL SUB DUP2 AND PUSH2 0x10E3 JUMPI PUSH1 0x40 MLOAD PUSH3 0x461BCD PUSH1 0xE5 SHL DUP2 MSTORE PUSH1 0x4 ADD PUSH2 0x4F9 SWAP1 PUSH2 0x18B1 JUMP JUMPDEST PUSH2 0x10ED DUP3 DUP3 PUSH2 0x1207 JUMP JUMPDEST PUSH1 0x1 PUSH1 0x1 PUSH1 0xA0 SHL SUB DUP1 DUP5 AND PUSH0 SWAP1 DUP2 MSTORE PUSH1 0xB PUSH1 0x20 SWAP1 DUP2 MSTORE PUSH1 0x40 DUP1 DUP4 KECCAK256 SWAP4 DUP7 AND DUP4 MSTORE SWAP3 SWAP1 MSTORE KECCAK256 SLOAD PUSH1 0xFF AND PUSH2 0xEDF JUMPI PUSH1 0x1 PUSH1 0x1 PUSH1 0xA0 SHL SUB DUP1 DUP5 AND PUSH0 DUP2 DUP2 MSTORE PUSH1 0xB PUSH1 0x20 SWAP1 DUP2 MSTORE PUSH1 0x40 DUP1 DUP4 KECCAK256 SWAP5 DUP8 AND DUP1 DUP5 MSTORE SWAP5 DUP3 MSTORE DUP1 DUP4 KECCAK256 DUP1 SLOAD PUSH1 0xFF NOT AND PUSH1 0x1 SWAP1 DUP2 OR SWAP1 SWAP2 SSTORE SWAP4 DUP4 MSTORE PUSH1 0xA DUP3 MSTORE DUP3 KECCAK256 DUP1 SLOAD SWAP4 DUP5 ADD DUP2 SSTORE DUP3 MSTORE SWAP1 KECCAK256 ADD DUP1 SLOAD PUSH1 0x1 PUSH1 0x1 PUSH1 0xA0 SHL SUB NOT AND SWAP1 SWAP2 OR SWAP1 SSTORE POP POP POP JUMP JUMPDEST PUSH0 SLOAD PUSH1 0x1 PUSH1 0x1 PUSH1 0xA0 SHL SUB AND CALLER EQ PUSH2 0x918 JUMPI CALLER PUSH1 0x40 MLOAD PUSH4 0x118CDAA7 PUSH1 0xE0 SHL DUP2 MSTORE PUSH1 0x4 ADD PUSH2 0x4F9 SWAP2 SWAP1 PUSH2 0x1527 JUMP JUMPDEST PUSH0 PUSH2 0x11B1 DUP4 DUP4 PUSH0 PUSH2 0x129B JUMP JUMPDEST SWAP4 SWAP3 POP POP POP JUMP JUMPDEST PUSH0 DUP1 SLOAD PUSH1 0x1 PUSH1 0x1 PUSH1 0xA0 SHL SUB DUP4 DUP2 AND PUSH1 0x1 PUSH1 0x1 PUSH1 0xA0 SHL SUB NOT DUP4 AND DUP2 OR DUP5 SSTORE PUSH1 0x40 MLOAD SWAP2 SWAP1 SWAP3 AND SWAP3 DUP4 SWAP2 PUSH32 0x8BE0079C531659141344CD1FD0A4F28419497F9722A3DAAFE3B4186F6B6457E0 SWAP2 SWAP1 LOG3 POP POP JUMP JUMPDEST PUSH0 PUSH2 0x1212 DUP3 DUP5 PUSH2 0xEF1 JUMP JUMPDEST SWAP1 POP DUP3 PUSH1 0x1 PUSH1 0x1 PUSH1 0xA0 SHL SUB AND DUP2 PUSH1 0x20 ADD MLOAD PUSH1 0x1 PUSH1 0x1 PUSH1 0xA0 SHL SUB AND EQ DUP1 ISZERO PUSH2 0x1241 JUMPI POP CALLER PUSH1 0x1 PUSH1 0x1 PUSH1 0xA0 SHL SUB DUP5 AND EQ JUMPDEST PUSH2 0xEDF JUMPI PUSH1 0x40 MLOAD PUSH3 0x461BCD PUSH1 0xE5 SHL DUP2 MSTORE PUSH1 0x20 PUSH1 0x4 DUP3 ADD MSTORE PUSH1 0x25 PUSH1 0x24 DUP3 ADD MSTORE PUSH32 0x63616C6C65722063616E206265207075626C697368657220636F6E7472616374 PUSH1 0x44 DUP3 ADD MSTORE PUSH5 0x206F6E6C79 PUSH1 0xD8 SHL PUSH1 0x64 DUP3 ADD MSTORE PUSH1 0x84 ADD PUSH2 0x4F9 JUMP JUMPDEST PUSH0 DUP2 SELFBALANCE LT ISZERO PUSH2 0x12C6 JUMPI PUSH1 0x40 MLOAD PUSH4 0xCF479181 PUSH1 0xE0 SHL DUP2 MSTORE SELFBALANCE PUSH1 0x4 DUP3 ADD MSTORE PUSH1 0x24 DUP2 ADD DUP4 SWAP1 MSTORE PUSH1 0x44 ADD PUSH2 0x4F9 JUMP JUMPDEST PUSH23 0x3D602D80600A3D3981F3363D3D373D3D3D363D73000000 DUP5 PUSH1 0x60 SHL PUSH1 0xE8 SHR OR PUSH0 MSTORE PUSH15 0x5AF43D82803E903D91602B57FD5BF3 DUP5 PUSH1 0x78 SHL OR PUSH1 0x20 MSTORE DUP3 PUSH1 0x37 PUSH1 0x9 DUP5 CREATE2 SWAP1 POP PUSH1 0x1 PUSH1 0x1 PUSH1 0xA0 SHL SUB DUP2 AND PUSH2 0x11B1 JUMPI PUSH1 0x40 MLOAD PUSH4 0xB06EBF3D PUSH1 0xE0 SHL DUP2 MSTORE PUSH1 0x4 ADD PUSH1 0x40 MLOAD DUP1 SWAP2 SUB SWAP1 REVERT JUMPDEST DUP1 CALLDATALOAD PUSH1 0x1 PUSH1 0x1 PUSH1 0xA0 SHL SUB DUP2 AND DUP2 EQ PUSH2 0x1346 JUMPI PUSH0 PUSH0 REVERT JUMPDEST SWAP2 SWAP1 POP JUMP JUMPDEST PUSH0 PUSH0 PUSH1 0x40 DUP4 DUP6 SUB SLT ISZERO PUSH2 0x135C JUMPI PUSH0 PUSH0 REVERT JUMPDEST PUSH2 0x1365 DUP4 PUSH2 0x1330 JUMP JUMPDEST SWAP2 POP PUSH2 0x1373 PUSH1 0x20 DUP5 ADD PUSH2 0x1330 JUMP JUMPDEST SWAP1 POP SWAP3 POP SWAP3 SWAP1 POP JUMP JUMPDEST PUSH0 PUSH0 PUSH1 0x40 DUP4 DUP6 SUB SLT ISZERO PUSH2 0x138D JUMPI PUSH0 PUSH0 REVERT JUMPDEST PUSH2 0x1396 DUP4 PUSH2 0x1330 JUMP JUMPDEST SWAP5 PUSH1 0x20 SWAP4 SWAP1 SWAP4 ADD CALLDATALOAD SWAP4 POP POP POP JUMP JUMPDEST PUSH0 DUP2 MLOAD DUP1 DUP5 MSTORE DUP1 PUSH1 0x20 DUP5 ADD PUSH1 0x20 DUP7 ADD MCOPY PUSH0 PUSH1 0x20 DUP3 DUP7 ADD ADD MSTORE PUSH1 0x20 PUSH1 0x1F NOT PUSH1 0x1F DUP4 ADD AND DUP6 ADD ADD SWAP2 POP POP SWAP3 SWAP2 POP POP JUMP JUMPDEST PUSH1 0x40 DUP2 MSTORE PUSH0 PUSH2 0x13E4 PUSH1 0x40 DUP4 ADD DUP6 PUSH2 0x13A4 JUMP JUMPDEST SWAP1 POP PUSH1 0x1 DUP1 PUSH1 0xA0 SHL SUB DUP4 AND PUSH1 0x20 DUP4 ADD MSTORE SWAP4 SWAP3 POP POP POP JUMP JUMPDEST PUSH0 PUSH1 0x20 DUP3 DUP5 SUB SLT ISZERO PUSH2 0x140B JUMPI PUSH0 PUSH0 REVERT JUMPDEST PUSH2 0x11B1 DUP3 PUSH2 0x1330 JUMP JUMPDEST PUSH4 0x4E487B71 PUSH1 0xE0 SHL PUSH0 MSTORE PUSH1 0x41 PUSH1 0x4 MSTORE PUSH1 0x24 PUSH0 REVERT JUMPDEST PUSH0 DUP3 PUSH1 0x1F DUP4 ADD SLT PUSH2 0x1437 JUMPI PUSH0 PUSH0 REVERT JUMPDEST DUP2 CALLDATALOAD PUSH8 0xFFFFFFFFFFFFFFFF DUP2 GT ISZERO PUSH2 0x1451 JUMPI PUSH2 0x1451 PUSH2 0x1414 JUMP JUMPDEST PUSH1 0x40 MLOAD PUSH1 0x1F DUP3 ADD PUSH1 0x1F NOT SWAP1 DUP2 AND PUSH1 0x3F ADD AND DUP2 ADD PUSH8 0xFFFFFFFFFFFFFFFF DUP2 GT DUP3 DUP3 LT OR ISZERO PUSH2 0x1480 JUMPI PUSH2 0x1480 PUSH2 0x1414 JUMP JUMPDEST PUSH1 0x40 MSTORE DUP2 DUP2 MSTORE DUP4 DUP3 ADD PUSH1 0x20 ADD DUP6 LT ISZERO PUSH2 0x1497 JUMPI PUSH0 PUSH0 REVERT JUMPDEST DUP2 PUSH1 0x20 DUP6 ADD PUSH1 0x20 DUP4 ADD CALLDATACOPY PUSH0 SWAP2 DUP2 ADD PUSH1 0x20 ADD SWAP2 SWAP1 SWAP2 MSTORE SWAP4 SWAP3 POP POP POP JUMP JUMPDEST PUSH0 PUSH0 PUSH0 PUSH1 0x60 DUP5 DUP7 SUB SLT ISZERO PUSH2 0x14C5 JUMPI PUSH0 PUSH0 REVERT JUMPDEST DUP4 CALLDATALOAD PUSH8 0xFFFFFFFFFFFFFFFF DUP2 GT ISZERO PUSH2 0x14DB JUMPI PUSH0 PUSH0 REVERT JUMPDEST PUSH2 0x14E7 DUP7 DUP3 DUP8 ADD PUSH2 0x1428 JUMP JUMPDEST SWAP4 POP POP PUSH1 0x20 DUP5 ADD CALLDATALOAD PUSH8 0xFFFFFFFFFFFFFFFF DUP2 GT ISZERO PUSH2 0x1503 JUMPI PUSH0 PUSH0 REVERT JUMPDEST PUSH2 0x150F DUP7 DUP3 DUP8 ADD PUSH2 0x1428 JUMP JUMPDEST SWAP3 POP POP PUSH2 0x151E PUSH1 0x40 DUP6 ADD PUSH2 0x1330 JUMP JUMPDEST SWAP1 POP SWAP3 POP SWAP3 POP SWAP3 JUMP JUMPDEST PUSH1 0x1 PUSH1 0x1 PUSH1 0xA0 SHL SUB SWAP2 SWAP1 SWAP2 AND DUP2 MSTORE PUSH1 0x20 ADD SWAP1 JUMP JUMPDEST PUSH0 DUP2 MLOAD PUSH1 0x40 DUP5 MSTORE PUSH2 0x154F PUSH1 0x40 DUP6 ADD DUP3 PUSH2 0x13A4 JUMP JUMPDEST PUSH1 0x20 SWAP4 DUP5 ADD MLOAD PUSH1 0x1 PUSH1 0x1 PUSH1 0xA0 SHL SUB AND SWAP5 SWAP1 SWAP4 ADD SWAP4 SWAP1 SWAP4 MSTORE POP SWAP2 SWAP1 POP JUMP JUMPDEST PUSH0 PUSH1 0x20 DUP3 ADD PUSH1 0x20 DUP4 MSTORE DUP1 DUP5 MLOAD DUP1 DUP4 MSTORE PUSH1 0x40 DUP6 ADD SWAP2 POP PUSH1 0x40 DUP2 PUSH1 0x5 SHL DUP7 ADD ADD SWAP3 POP PUSH1 0x20 DUP7 ADD PUSH0 JUMPDEST DUP3 DUP2 LT ISZERO PUSH2 0x15C3 JUMPI PUSH1 0x3F NOT DUP8 DUP7 SUB ADD DUP5 MSTORE PUSH2 0x15AE DUP6 DUP4 MLOAD PUSH2 0x153B JUMP JUMPDEST SWAP5 POP PUSH1 0x20 SWAP4 DUP5 ADD SWAP4 SWAP2 SWAP1 SWAP2 ADD SWAP1 PUSH1 0x1 ADD PUSH2 0x1592 JUMP JUMPDEST POP SWAP3 SWAP7 SWAP6 POP POP POP POP POP POP JUMP JUMPDEST PUSH1 0x20 DUP1 DUP3 MSTORE DUP3 MLOAD DUP3 DUP3 ADD DUP2 SWAP1 MSTORE PUSH0 SWAP2 DUP5 ADD SWAP1 PUSH1 0x40 DUP5 ADD SWAP1 DUP4 JUMPDEST DUP2 DUP2 LT ISZERO PUSH2 0x160F JUMPI DUP4 MLOAD PUSH1 0x1 PUSH1 0x1 PUSH1 0xA0 SHL SUB AND DUP4 MSTORE PUSH1 0x20 SWAP4 DUP5 ADD SWAP4 SWAP1 SWAP3 ADD SWAP2 PUSH1 0x1 ADD PUSH2 0x15E8 JUMP JUMPDEST POP SWAP1 SWAP6 SWAP5 POP POP POP POP POP JUMP JUMPDEST PUSH0 PUSH0 PUSH0 PUSH1 0x60 DUP5 DUP7 SUB SLT ISZERO PUSH2 0x162C JUMPI PUSH0 PUSH0 REVERT JUMPDEST PUSH2 0x1635 DUP5 PUSH2 0x1330 JUMP JUMPDEST SWAP3 POP PUSH2 0x1643 PUSH1 0x20 DUP6 ADD PUSH2 0x1330 JUMP JUMPDEST SWAP2 POP PUSH2 0x151E PUSH1 0x40 DUP6 ADD PUSH2 0x1330 JUMP JUMPDEST PUSH0 PUSH1 0x20 DUP3 DUP5 SUB SLT ISZERO PUSH2 0x1661 JUMPI PUSH0 PUSH0 REVERT JUMPDEST POP CALLDATALOAD SWAP2 SWAP1 POP JUMP JUMPDEST PUSH1 0x20 DUP2 MSTORE PUSH0 PUSH2 0x11B1 PUSH1 0x20 DUP4 ADD DUP5 PUSH2 0x153B JUMP JUMPDEST PUSH1 0x1 DUP2 DUP2 SHR SWAP1 DUP3 AND DUP1 PUSH2 0x168E JUMPI PUSH1 0x7F DUP3 AND SWAP2 POP JUMPDEST PUSH1 0x20 DUP3 LT DUP2 SUB PUSH2 0x16AC JUMPI PUSH4 0x4E487B71 PUSH1 0xE0 SHL PUSH0 MSTORE PUSH1 0x22 PUSH1 0x4 MSTORE PUSH1 0x24 PUSH0 REVERT JUMPDEST POP SWAP2 SWAP1 POP JUMP JUMPDEST PUSH0 DUP3 MLOAD DUP1 PUSH1 0x20 DUP6 ADD DUP5 MCOPY PUSH0 SWAP3 ADD SWAP2 DUP3 MSTORE POP SWAP2 SWAP1 POP JUMP JUMPDEST PUSH1 0xE0 DUP2 MSTORE PUSH0 PUSH2 0x16DA PUSH1 0xE0 DUP4 ADD DUP11 PUSH2 0x13A4 JUMP JUMPDEST DUP3 DUP2 SUB PUSH1 0x20 DUP5 ADD MSTORE PUSH2 0x16EC DUP2 DUP11 PUSH2 0x13A4 JUMP JUMPDEST PUSH1 0x1 PUSH1 0x1 PUSH1 0xA0 SHL SUB SWAP9 DUP10 AND PUSH1 0x40 DUP6 ADD MSTORE SWAP7 DUP9 AND PUSH1 0x60 DUP5 ADD MSTORE POP POP SWAP3 DUP6 AND PUSH1 0x80 DUP5 ADD MSTORE PUSH1 0xA0 DUP4 ADD SWAP2 SWAP1 SWAP2 MSTORE SWAP1 SWAP3 AND PUSH1 0xC0 SWAP1 SWAP3 ADD SWAP2 SWAP1 SWAP2 MSTORE SWAP3 SWAP2 POP POP JUMP JUMPDEST PUSH1 0x1F DUP3 GT ISZERO PUSH2 0xEDF JUMPI DUP1 PUSH0 MSTORE PUSH1 0x20 PUSH0 KECCAK256 PUSH1 0x1F DUP5 ADD PUSH1 0x5 SHR DUP2 ADD PUSH1 0x20 DUP6 LT ISZERO PUSH2 0x174D JUMPI POP DUP1 JUMPDEST PUSH1 0x1F DUP5 ADD PUSH1 0x5 SHR DUP3 ADD SWAP2 POP JUMPDEST DUP2 DUP2 LT ISZERO PUSH2 0x176C JUMPI PUSH0 DUP2 SSTORE PUSH1 0x1 ADD PUSH2 0x1759 JUMP JUMPDEST POP POP POP POP POP JUMP JUMPDEST DUP2 MLOAD PUSH8 0xFFFFFFFFFFFFFFFF DUP2 GT ISZERO PUSH2 0x178D JUMPI PUSH2 0x178D PUSH2 0x1414 JUMP JUMPDEST PUSH2 0x17A1 DUP2 PUSH2 0x179B DUP5 SLOAD PUSH2 0x167A JUMP JUMPDEST DUP5 PUSH2 0x1728 JUMP JUMPDEST PUSH1 0x20 PUSH1 0x1F DUP3 GT PUSH1 0x1 DUP2 EQ PUSH2 0x17D3 JUMPI PUSH0 DUP4 ISZERO PUSH2 0x17BC JUMPI POP DUP5 DUP3 ADD MLOAD JUMPDEST PUSH0 NOT PUSH1 0x3 DUP6 SWAP1 SHL SHR NOT AND PUSH1 0x1 DUP5 SWAP1 SHL OR DUP5 SSTORE PUSH2 0x176C JUMP JUMPDEST PUSH0 DUP5 DUP2 MSTORE PUSH1 0x20 DUP2 KECCAK256 PUSH1 0x1F NOT DUP6 AND SWAP2 JUMPDEST DUP3 DUP2 LT ISZERO PUSH2 0x1802 JUMPI DUP8 DUP6 ADD MLOAD DUP3 SSTORE PUSH1 0x20 SWAP5 DUP6 ADD SWAP5 PUSH1 0x1 SWAP1 SWAP3 ADD SWAP2 ADD PUSH2 0x17E2 JUMP JUMPDEST POP DUP5 DUP3 LT ISZERO PUSH2 0x181F JUMPI DUP7 DUP5 ADD MLOAD PUSH0 NOT PUSH1 0x3 DUP8 SWAP1 SHL PUSH1 0xF8 AND SHR NOT AND DUP2 SSTORE JUMPDEST POP POP POP POP PUSH1 0x1 SWAP1 DUP2 SHL ADD SWAP1 SSTORE POP JUMP JUMPDEST DUP2 DUP2 SUB DUP2 DUP2 GT ISZERO PUSH2 0xFFE JUMPI PUSH4 0x4E487B71 PUSH1 0xE0 SHL PUSH0 MSTORE PUSH1 0x11 PUSH1 0x4 MSTORE PUSH1 0x24 PUSH0 REVERT JUMPDEST PUSH1 0x20 DUP1 DUP3 MSTORE PUSH1 0x19 SWAP1 DUP3 ADD MSTORE PUSH25 0x696E76616C6964206D6F64657261746F722061646472657373 PUSH1 0x38 SHL PUSH1 0x40 DUP3 ADD MSTORE PUSH1 0x60 ADD SWAP1 JUMP JUMPDEST PUSH1 0x20 DUP1 DUP3 MSTORE PUSH1 0x17 SWAP1 DUP3 ADD MSTORE PUSH23 0x696E76616C696420636F6E747261637441646472657373 PUSH1 0x48 SHL PUSH1 0x40 DUP3 ADD MSTORE PUSH1 0x60 ADD SWAP1 JUMP JUMPDEST PUSH1 0x20 DUP1 DUP3 MSTORE PUSH1 0x19 SWAP1 DUP3 ADD MSTORE PUSH25 0x696E76616C6964207075626C69736865722061646472657373 PUSH1 0x38 SHL PUSH1 0x40 DUP3 ADD MSTORE PUSH1 0x60 ADD SWAP1 JUMP JUMPDEST PUSH4 0x4E487B71 PUSH1 0xE0 SHL PUSH0 MSTORE PUSH1 0x32 PUSH1 0x4 MSTORE PUSH1 0x24 PUSH0 REVERT JUMPDEST PUSH4 0x4E487B71 PUSH1 0xE0 SHL PUSH0 MSTORE PUSH1 0x31 PUSH1 0x4 MSTORE PUSH1 0x24 PUSH0 REVERT INVALID LOG2 PUSH5 0x6970667358 0x22 SLT KECCAK256 0xB6 0xD9 0xD8 0xE3 CREATE 0xC1 0xB5 SHL 0xDE 0x2F 0xC7 STATICCALL 0xBC 0xC3 0xDB 0xFC 0xDE 0xD2 PUSH4 0xFD3B13 ADD 0xB3 0xD4 CHAINID EXTCODESIZE 0x29 0xDC DUP1 BALANCE PUSH5 0x736F6C6343 STOP ADDMOD SHR STOP CALLER "
		},
		"gasEstimates": {
			"creation": {
				"codeDepositCost": "1293200",
				"executionCost": "infinite",
				"totalCost": "infinite"
			},
			"external": {
				"allPublisherClones(uint256)": "infinite",
				"assignContractToAdvertiser(address,address,address)": "infinite",
				"assignPubContractToModerator(address,address,address)": "infinite",
				"createPublisherClone(string,string,address)": "infinite",
				"getAllPubClonesByAddress(address)": "infinite",
				"getAllPublisherContracts()": "infinite",
				"getClone(address,address)": "infinite",
				"getCloneContractsOfAdvertiser(address)": "infinite",
				"getPubContractCount()": "2370",
				"getPubContractCountByAddress(address)": "2590",
				"getPubContractsOfModerator(address)": "infinite",
				"implementation()": "2383",
				"isAddedToAdvertiserContracts(address,address)": "infinite",
				"isAddedToModeratorContracts(address,address)": "infinite",
				"moderatorAccContractsPointer(address,address)": "infinite",
				"owner()": "2376",
				"platformFeeAddress()": "2470",
				"platformFeesPercentInBPS()": "2307",
				"publisherClones(address,uint256)": "infinite",
				"removePubContractOfModerator(address,address,address)": "infinite",
				"renounceOwnership()": "infinite",
				"setPlatforFeesPercentInBPS(uint256)": "24529",
				"setPlatformFeeAddress(address)": "26812",
				"transferOwnership(address)": "28461",
				"upgradeImplementationContract(address)": "26879"
			},
			"internal": {
				"_checkIfCallerIsClone(address,address)": "infinite"
			}
		},
		"methodIdentifiers": {
			"allPublisherClones(uint256)": "b2860298",
			"assignContractToAdvertiser(address,address,address)": "f336aa35",
			"assignPubContractToModerator(address,address,address)": "b552ebc8",
			"createPublisherClone(string,string,address)": "4f568db3",
			"getAllPubClonesByAddress(address)": "64eb68eb",
			"getAllPublisherContracts()": "9b1ec6a3",
			"getClone(address,address)": "d414a3f2",
			"getCloneContractsOfAdvertiser(address)": "841a0cbe",
			"getPubContractCount()": "23e49534",
			"getPubContractCountByAddress(address)": "9472a969",
			"getPubContractsOfModerator(address)": "9d209a30",
			"implementation()": "5c60da1b",
			"isAddedToAdvertiserContracts(address,address)": "77b43000",
			"isAddedToModeratorContracts(address,address)": "14f9ff21",
			"moderatorAccContractsPointer(address,address)": "df7ae382",
			"owner()": "8da5cb5b",
			"platformFeeAddress()": "ed14834f",
			"platformFeesPercentInBPS()": "07dc6749",
			"publisherClones(address,uint256)": "172c2664",
			"removePubContractOfModerator(address,address,address)": "8b0d4377",
			"renounceOwnership()": "715018a6",
			"setPlatforFeesPercentInBPS(uint256)": "c2b602f3",
			"setPlatformFeeAddress(address)": "9375da5a",
			"transferOwnership(address)": "f2fde38b",
			"upgradeImplementationContract(address)": "2e4e56cf"
		}
	},
	"abi": [
		{
			"inputs": [
				{
					"internalType": "address",
					"name": "_implementation",
					"type": "address"
				},
				{
					"internalType": "address",
					"name": "_platformFeeAddress",
					"type": "address"
				},
				{
					"internalType": "uint256",
					"name": "_platformFeesPercentInBPS",
					"type": "uint256"
				}
			],
			"stateMutability": "nonpayable",
			"type": "constructor"
		},
		{
			"inputs": [],
			"name": "FailedDeployment",
			"type": "error"
		},
		{
			"inputs": [
				{
					"internalType": "uint256",
					"name": "balance",
					"type": "uint256"
				},
				{
					"internalType": "uint256",
					"name": "needed",
					"type": "uint256"
				}
			],
			"name": "InsufficientBalance",
			"type": "error"
		},
		{
			"inputs": [
				{
					"internalType": "address",
					"name": "owner",
					"type": "address"
				}
			],
			"name": "OwnableInvalidOwner",
			"type": "error"
		},
		{
			"inputs": [
				{
					"internalType": "address",
					"name": "account",
					"type": "address"
				}
			],
			"name": "OwnableUnauthorizedAccount",
			"type": "error"
		},
		{
			"inputs": [
				{
					"internalType": "address",
					"name": "publisherAddress",
					"type": "address"
				},
				{
					"internalType": "address",
					"name": "cloneAddress",
					"type": "address"
				}
			],
			"name": "PubCloneContractExists",
			"type": "error"
		},
		{
			"anonymous": false,
			"inputs": [
				{
					"indexed": false,
					"internalType": "uint256",
					"name": "date",
					"type": "uint256"
				},
				{
					"indexed": false,
					"internalType": "string",
					"name": "message",
					"type": "string"
				},
				{
					"indexed": false,
					"internalType": "address",
					"name": "cloneAddress",
					"type": "address"
				}
			],
			"name": "CloneCreated",
			"type": "event"
		},
		{
			"anonymous": false,
			"inputs": [
				{
					"indexed": true,
					"internalType": "address",
					"name": "previousOwner",
					"type": "address"
				},
				{
					"indexed": true,
					"internalType": "address",
					"name": "newOwner",
					"type": "address"
				}
			],
			"name": "OwnershipTransferred",
			"type": "event"
		},
		{
			"inputs": [
				{
					"internalType": "uint256",
					"name": "",
					"type": "uint256"
				}
			],
			"name": "allPublisherClones",
			"outputs": [
				{
					"internalType": "string",
					"name": "siteURL",
					"type": "string"
				},
				{
					"internalType": "address",
					"name": "cloneAddress",
					"type": "address"
				}
			],
			"stateMutability": "view",
			"type": "function"
		},
		{
			"inputs": [
				{
					"internalType": "address",
					"name": "_advAddress",
					"type": "address"
				},
				{
					"internalType": "address",
					"name": "_contractAddress",
					"type": "address"
				},
				{
					"internalType": "address",
					"name": "_publisher",
					"type": "address"
				}
			],
			"name": "assignContractToAdvertiser",
			"outputs": [],
			"stateMutability": "nonpayable",
			"type": "function"
		},
		{
			"inputs": [
				{
					"internalType": "address",
					"name": "_modAddress",
					"type": "address"
				},
				{
					"internalType": "address",
					"name": "_contractAddress",
					"type": "address"
				},
				{
					"internalType": "address",
					"name": "_publisher",
					"type": "address"
				}
			],
			"name": "assignPubContractToModerator",
			"outputs": [],
			"stateMutability": "nonpayable",
			"type": "function"
		},
		{
			"inputs": [
				{
					"internalType": "string",
					"name": "_siteURL",
					"type": "string"
				},
				{
					"internalType": "string",
					"name": "_description",
					"type": "string"
				},
				{
					"internalType": "address",
					"name": "_erc20TokenAddress",
					"type": "address"
				}
			],
			"name": "createPublisherClone",
			"outputs": [],
			"stateMutability": "nonpayable",
			"type": "function"
		},
		{
			"inputs": [
				{
					"internalType": "address",
					"name": "_pubWalletAddress",
					"type": "address"
				}
			],
			"name": "getAllPubClonesByAddress",
			"outputs": [
				{
					"components": [
						{
							"internalType": "string",
							"name": "siteURL",
							"type": "string"
						},
						{
							"internalType": "address",
							"name": "cloneAddress",
							"type": "address"
						}
					],
					"internalType": "struct DecentradFactory.PublisherClone[]",
					"name": "",
					"type": "tuple[]"
				}
			],
			"stateMutability": "view",
			"type": "function"
		},
		{
			"inputs": [],
			"name": "getAllPublisherContracts",
			"outputs": [
				{
					"components": [
						{
							"internalType": "string",
							"name": "siteURL",
							"type": "string"
						},
						{
							"internalType": "address",
							"name": "cloneAddress",
							"type": "address"
						}
					],
					"internalType": "struct DecentradFactory.PublisherClone[]",
					"name": "",
					"type": "tuple[]"
				}
			],
			"stateMutability": "view",
			"type": "function"
		},
		{
			"inputs": [
				{
					"internalType": "address",
					"name": "_pubWalletAddress",
					"type": "address"
				},
				{
					"internalType": "address",
					"name": "_cloneAddress",
					"type": "address"
				}
			],
			"name": "getClone",
			"outputs": [
				{
					"components": [
						{
							"internalType": "string",
							"name": "siteURL",
							"type": "string"
						},
						{
							"internalType": "address",
							"name": "cloneAddress",
							"type": "address"
						}
					],
					"internalType": "struct DecentradFactory.PublisherClone",
					"name": "",
					"type": "tuple"
				}
			],
			"stateMutability": "view",
			"type": "function"
		},
		{
			"inputs": [
				{
					"internalType": "address",
					"name": "_advAddress",
					"type": "address"
				}
			],
			"name": "getCloneContractsOfAdvertiser",
			"outputs": [
				{
					"internalType": "address[]",
					"name": "",
					"type": "address[]"
				}
			],
			"stateMutability": "view",
			"type": "function"
		},
		{
			"inputs": [],
			"name": "getPubContractCount",
			"outputs": [
				{
					"internalType": "uint256",
					"name": "",
					"type": "uint256"
				}
			],
			"stateMutability": "view",
			"type": "function"
		},
		{
			"inputs": [
				{
					"internalType": "address",
					"name": "_pubWalletAddress",
					"type": "address"
				}
			],
			"name": "getPubContractCountByAddress",
			"outputs": [
				{
					"internalType": "uint256",
					"name": "",
					"type": "uint256"
				}
			],
			"stateMutability": "view",
			"type": "function"
		},
		{
			"inputs": [
				{
					"internalType": "address",
					"name": "_modAddress",
					"type": "address"
				}
			],
			"name": "getPubContractsOfModerator",
			"outputs": [
				{
					"internalType": "address[]",
					"name": "",
					"type": "address[]"
				}
			],
			"stateMutability": "view",
			"type": "function"
		},
		{
			"inputs": [],
			"name": "implementation",
			"outputs": [
				{
					"internalType": "address",
					"name": "",
					"type": "address"
				}
			],
			"stateMutability": "view",
			"type": "function"
		},
		{
			"inputs": [
				{
					"internalType": "address",
					"name": "",
					"type": "address"
				},
				{
					"internalType": "address",
					"name": "",
					"type": "address"
				}
			],
			"name": "isAddedToAdvertiserContracts",
			"outputs": [
				{
					"internalType": "bool",
					"name": "",
					"type": "bool"
				}
			],
			"stateMutability": "view",
			"type": "function"
		},
		{
			"inputs": [
				{
					"internalType": "address",
					"name": "",
					"type": "address"
				},
				{
					"internalType": "address",
					"name": "",
					"type": "address"
				}
			],
			"name": "isAddedToModeratorContracts",
			"outputs": [
				{
					"internalType": "bool",
					"name": "",
					"type": "bool"
				}
			],
			"stateMutability": "view",
			"type": "function"
		},
		{
			"inputs": [
				{
					"internalType": "address",
					"name": "",
					"type": "address"
				},
				{
					"internalType": "address",
					"name": "",
					"type": "address"
				}
			],
			"name": "moderatorAccContractsPointer",
			"outputs": [
				{
					"internalType": "uint256",
					"name": "",
					"type": "uint256"
				}
			],
			"stateMutability": "view",
			"type": "function"
		},
		{
			"inputs": [],
			"name": "owner",
			"outputs": [
				{
					"internalType": "address",
					"name": "",
					"type": "address"
				}
			],
			"stateMutability": "view",
			"type": "function"
		},
		{
			"inputs": [],
			"name": "platformFeeAddress",
			"outputs": [
				{
					"internalType": "address",
					"name": "",
					"type": "address"
				}
			],
			"stateMutability": "view",
			"type": "function"
		},
		{
			"inputs": [],
			"name": "platformFeesPercentInBPS",
			"outputs": [
				{
					"internalType": "uint256",
					"name": "",
					"type": "uint256"
				}
			],
			"stateMutability": "view",
			"type": "function"
		},
		{
			"inputs": [
				{
					"internalType": "address",
					"name": "",
					"type": "address"
				},
				{
					"internalType": "uint256",
					"name": "",
					"type": "uint256"
				}
			],
			"name": "publisherClones",
			"outputs": [
				{
					"internalType": "string",
					"name": "siteURL",
					"type": "string"
				},
				{
					"internalType": "address",
					"name": "cloneAddress",
					"type": "address"
				}
			],
			"stateMutability": "view",
			"type": "function"
		},
		{
			"inputs": [
				{
					"internalType": "address",
					"name": "_modAddress",
					"type": "address"
				},
				{
					"internalType": "address",
					"name": "_contractAddress",
					"type": "address"
				},
				{
					"internalType": "address",
					"name": "_publisher",
					"type": "address"
				}
			],
			"name": "removePubContractOfModerator",
			"outputs": [],
			"stateMutability": "nonpayable",
			"type": "function"
		},
		{
			"inputs": [],
			"name": "renounceOwnership",
			"outputs": [],
			"stateMutability": "nonpayable",
			"type": "function"
		},
		{
			"inputs": [
				{
					"internalType": "uint256",
					"name": "_percentInBPS",
					"type": "uint256"
				}
			],
			"name": "setPlatforFeesPercentInBPS",
			"outputs": [],
			"stateMutability": "nonpayable",
			"type": "function"
		},
		{
			"inputs": [
				{
					"internalType": "address",
					"name": "_feeAddress",
					"type": "address"
				}
			],
			"name": "setPlatformFeeAddress",
			"outputs": [],
			"stateMutability": "nonpayable",
			"type": "function"
		},
		{
			"inputs": [
				{
					"internalType": "address",
					"name": "newOwner",
					"type": "address"
				}
			],
			"name": "transferOwnership",
			"outputs": [],
			"stateMutability": "nonpayable",
			"type": "function"
		},
		{
			"inputs": [
				{
					"internalType": "address",
					"name": "_implementation",
					"type": "address"
				}
			],
			"name": "upgradeImplementationContract",
			"outputs": [],
			"stateMutability": "nonpayable",
			"type": "function"
		}
	]
}