{
	"DecentradFactory.sol": {
		"DecentradFactory": {
			"abi": [
				{
					"inputs": [
						{
							"internalType": "address",
							"name": "_implementation",
							"type": "address"
						},
						{
							"internalType": "address",
							"name": "_platformFeeAddress",
							"type": "address"
						},
						{
							"internalType": "uint256",
							"name": "_platformFeesPercentInBPS",
							"type": "uint256"
						}
					],
					"stateMutability": "nonpayable",
					"type": "constructor"
				},
				{
					"inputs": [],
					"name": "FailedDeployment",
					"type": "error"
				},
				{
					"inputs": [
						{
							"internalType": "uint256",
							"name": "balance",
							"type": "uint256"
						},
						{
							"internalType": "uint256",
							"name": "needed",
							"type": "uint256"
						}
					],
					"name": "InsufficientBalance",
					"type": "error"
				},
				{
					"inputs": [
						{
							"internalType": "address",
							"name": "owner",
							"type": "address"
						}
					],
					"name": "OwnableInvalidOwner",
					"type": "error"
				},
				{
					"inputs": [
						{
							"internalType": "address",
							"name": "account",
							"type": "address"
						}
					],
					"name": "OwnableUnauthorizedAccount",
					"type": "error"
				},
				{
					"inputs": [
						{
							"internalType": "address",
							"name": "publisherAddress",
							"type": "address"
						},
						{
							"internalType": "address",
							"name": "cloneAddress",
							"type": "address"
						}
					],
					"name": "PubCloneContractExists",
					"type": "error"
				},
				{
					"anonymous": false,
					"inputs": [
						{
							"indexed": true,
							"internalType": "address",
							"name": "previousOwner",
							"type": "address"
						},
						{
							"indexed": true,
							"internalType": "address",
							"name": "newOwner",
							"type": "address"
						}
					],
					"name": "OwnershipTransferred",
					"type": "event"
				},
				{
					"inputs": [
						{
							"internalType": "uint256",
							"name": "",
							"type": "uint256"
						}
					],
					"name": "allPublisherClones",
					"outputs": [
						{
							"internalType": "string",
							"name": "siteURL",
							"type": "string"
						},
						{
							"internalType": "address",
							"name": "cloneAddress",
							"type": "address"
						}
					],
					"stateMutability": "view",
					"type": "function"
				},
				{
					"inputs": [
						{
							"internalType": "address",
							"name": "_advAddress",
							"type": "address"
						},
						{
							"internalType": "address",
							"name": "_contractAddress",
							"type": "address"
						},
						{
							"internalType": "address",
							"name": "_publisher",
							"type": "address"
						}
					],
					"name": "assignContractToAdvertiser",
					"outputs": [],
					"stateMutability": "nonpayable",
					"type": "function"
				},
				{
					"inputs": [
						{
							"internalType": "address",
							"name": "_modAddress",
							"type": "address"
						},
						{
							"internalType": "address",
							"name": "_contractAddress",
							"type": "address"
						},
						{
							"internalType": "address",
							"name": "_publisher",
							"type": "address"
						}
					],
					"name": "assignPubContractToModerator",
					"outputs": [],
					"stateMutability": "nonpayable",
					"type": "function"
				},
				{
					"inputs": [
						{
							"internalType": "string",
							"name": "_siteURL",
							"type": "string"
						},
						{
							"internalType": "string",
							"name": "_description",
							"type": "string"
						},
						{
							"internalType": "address",
							"name": "_erc20TokenAddress",
							"type": "address"
						}
					],
					"name": "createPublisherClone",
					"outputs": [],
					"stateMutability": "nonpayable",
					"type": "function"
				},
				{
					"inputs": [
						{
							"internalType": "address",
							"name": "_pubWalletAddress",
							"type": "address"
						}
					],
					"name": "getAllPubClonesByAddress",
					"outputs": [
						{
							"components": [
								{
									"internalType": "string",
									"name": "siteURL",
									"type": "string"
								},
								{
									"internalType": "address",
									"name": "cloneAddress",
									"type": "address"
								}
							],
							"internalType": "struct DecentradFactory.PublisherClone[]",
							"name": "",
							"type": "tuple[]"
						}
					],
					"stateMutability": "view",
					"type": "function"
				},
				{
					"inputs": [],
					"name": "getAllPublisherContracts",
					"outputs": [
						{
							"components": [
								{
									"internalType": "string",
									"name": "siteURL",
									"type": "string"
								},
								{
									"internalType": "address",
									"name": "cloneAddress",
									"type": "address"
								}
							],
							"internalType": "struct DecentradFactory.PublisherClone[]",
							"name": "",
							"type": "tuple[]"
						}
					],
					"stateMutability": "view",
					"type": "function"
				},
				{
					"inputs": [
						{
							"internalType": "address",
							"name": "_pubWalletAddress",
							"type": "address"
						},
						{
							"internalType": "address",
							"name": "_cloneAddress",
							"type": "address"
						}
					],
					"name": "getClone",
					"outputs": [
						{
							"components": [
								{
									"internalType": "string",
									"name": "siteURL",
									"type": "string"
								},
								{
									"internalType": "address",
									"name": "cloneAddress",
									"type": "address"
								}
							],
							"internalType": "struct DecentradFactory.PublisherClone",
							"name": "",
							"type": "tuple"
						}
					],
					"stateMutability": "view",
					"type": "function"
				},
				{
					"inputs": [
						{
							"internalType": "address",
							"name": "_advAddress",
							"type": "address"
						}
					],
					"name": "getCloneContractsOfAdvertiser",
					"outputs": [
						{
							"internalType": "address[]",
							"name": "",
							"type": "address[]"
						}
					],
					"stateMutability": "view",
					"type": "function"
				},
				{
					"inputs": [],
					"name": "getPubContractCount",
					"outputs": [
						{
							"internalType": "uint256",
							"name": "",
							"type": "uint256"
						}
					],
					"stateMutability": "view",
					"type": "function"
				},
				{
					"inputs": [
						{
							"internalType": "address",
							"name": "_pubWalletAddress",
							"type": "address"
						}
					],
					"name": "getPubContractCountByAddress",
					"outputs": [
						{
							"internalType": "uint256",
							"name": "",
							"type": "uint256"
						}
					],
					"stateMutability": "view",
					"type": "function"
				},
				{
					"inputs": [
						{
							"internalType": "address",
							"name": "_modAddress",
							"type": "address"
						}
					],
					"name": "getPubContractsOfModerator",
					"outputs": [
						{
							"internalType": "address[]",
							"name": "",
							"type": "address[]"
						}
					],
					"stateMutability": "view",
					"type": "function"
				},
				{
					"inputs": [],
					"name": "implementation",
					"outputs": [
						{
							"internalType": "address",
							"name": "",
							"type": "address"
						}
					],
					"stateMutability": "view",
					"type": "function"
				},
				{
					"inputs": [
						{
							"internalType": "address",
							"name": "",
							"type": "address"
						},
						{
							"internalType": "address",
							"name": "",
							"type": "address"
						}
					],
					"name": "isAddedToAdvertiserContracts",
					"outputs": [
						{
							"internalType": "bool",
							"name": "",
							"type": "bool"
						}
					],
					"stateMutability": "view",
					"type": "function"
				},
				{
					"inputs": [
						{
							"internalType": "address",
							"name": "",
							"type": "address"
						},
						{
							"internalType": "address",
							"name": "",
							"type": "address"
						}
					],
					"name": "isAddedToModeratorContracts",
					"outputs": [
						{
							"internalType": "bool",
							"name": "",
							"type": "bool"
						}
					],
					"stateMutability": "view",
					"type": "function"
				},
				{
					"inputs": [
						{
							"internalType": "address",
							"name": "",
							"type": "address"
						},
						{
							"internalType": "address",
							"name": "",
							"type": "address"
						}
					],
					"name": "moderatorAccContractsPointer",
					"outputs": [
						{
							"internalType": "uint256",
							"name": "",
							"type": "uint256"
						}
					],
					"stateMutability": "view",
					"type": "function"
				},
				{
					"inputs": [],
					"name": "owner",
					"outputs": [
						{
							"internalType": "address",
							"name": "",
							"type": "address"
						}
					],
					"stateMutability": "view",
					"type": "function"
				},
				{
					"inputs": [],
					"name": "platformFeeAddress",
					"outputs": [
						{
							"internalType": "address",
							"name": "",
							"type": "address"
						}
					],
					"stateMutability": "view",
					"type": "function"
				},
				{
					"inputs": [],
					"name": "platformFeesPercentInBPS",
					"outputs": [
						{
							"internalType": "uint256",
							"name": "",
							"type": "uint256"
						}
					],
					"stateMutability": "view",
					"type": "function"
				},
				{
					"inputs": [
						{
							"internalType": "address",
							"name": "",
							"type": "address"
						},
						{
							"internalType": "uint256",
							"name": "",
							"type": "uint256"
						}
					],
					"name": "publisherClones",
					"outputs": [
						{
							"internalType": "string",
							"name": "siteURL",
							"type": "string"
						},
						{
							"internalType": "address",
							"name": "cloneAddress",
							"type": "address"
						}
					],
					"stateMutability": "view",
					"type": "function"
				},
				{
					"inputs": [
						{
							"internalType": "address",
							"name": "_modAddress",
							"type": "address"
						},
						{
							"internalType": "address",
							"name": "_contractAddress",
							"type": "address"
						},
						{
							"internalType": "address",
							"name": "_publisher",
							"type": "address"
						}
					],
					"name": "removePubContractOfModerator",
					"outputs": [],
					"stateMutability": "nonpayable",
					"type": "function"
				},
				{
					"inputs": [],
					"name": "renounceOwnership",
					"outputs": [],
					"stateMutability": "nonpayable",
					"type": "function"
				},
				{
					"inputs": [
						{
							"internalType": "uint256",
							"name": "_percentInBPS",
							"type": "uint256"
						}
					],
					"name": "setPlatforFeesPercentInBPS",
					"outputs": [],
					"stateMutability": "nonpayable",
					"type": "function"
				},
				{
					"inputs": [
						{
							"internalType": "address",
							"name": "_feeAddress",
							"type": "address"
						}
					],
					"name": "setPlatformFeeAddress",
					"outputs": [],
					"stateMutability": "nonpayable",
					"type": "function"
				},
				{
					"inputs": [
						{
							"internalType": "address",
							"name": "newOwner",
							"type": "address"
						}
					],
					"name": "transferOwnership",
					"outputs": [],
					"stateMutability": "nonpayable",
					"type": "function"
				},
				{
					"inputs": [
						{
							"internalType": "address",
							"name": "_implementation",
							"type": "address"
						}
					],
					"name": "upgradeImplementationContract",
					"outputs": [],
					"stateMutability": "nonpayable",
					"type": "function"
				}
			],
			"devdoc": {
				"errors": {
					"FailedDeployment()": [
						{
							"details": "The deployment failed."
						}
					],
					"InsufficientBalance(uint256,uint256)": [
						{
							"details": "The ETH balance of the account is not enough to perform the operation."
						}
					],
					"OwnableInvalidOwner(address)": [
						{
							"details": "The owner is not a valid owner account. (eg. `address(0)`)"
						}
					],
					"OwnableUnauthorizedAccount(address)": [
						{
							"details": "The caller account is not authorized to perform an operation."
						}
					],
					"PubCloneContractExists(address,address)": [
						{
							"params": {
								"cloneAddress": "already deployed publisher contract address.",
								"publisherAddress": "wallet address of publisher."
							}
						}
					]
				},
				"kind": "dev",
				"methods": {
					"assignContractToAdvertiser(address,address,address)": {
						"params": {
							"_advAddress": "The wallet address of advertiser.",
							"_contractAddress": "The address of clone.",
							"_publisher": "The wallet address of publihser. Requirements: - `_advAddress` cannot be the zero address. - `_contractAddress` cannot be the zero address. - `_publisher` cannot be the zero address."
						}
					},
					"assignPubContractToModerator(address,address,address)": {
						"params": {
							"_contractAddress": "The address of clone.",
							"_modAddress": "The wallet address of moderator.",
							"_publisher": "The wallet address of publihser. Requirements: - `_modAddress` cannot be the zero address. - `_contractAddress` cannot be the zero address. - `_publisher` cannot be the zero address."
						}
					},
					"constructor": {
						"details": "Throws if the _implementation is invalid address.",
						"params": {
							"_implementation": "contract address of the deployed publisher contract. Requirements: - `_implementation` cannot be the zero address. - `_platformFeeAddress` cannot be the zero address."
						}
					},
					"createPublisherClone(string,string,address)": {
						"details": "Throws if pageURL or ERC20 token address in invalid",
						"params": {
							"_description": "The description related to Publisher.",
							"_erc20TokenAddress": "The token address if ERC token that publisher wants to receive as fees. Requirements: - `_siteURL` cannot be empty. - `_erc20TokenAddress` cannot be the zero address.",
							"_siteURL": "The main website URL."
						}
					},
					"getAllPubClonesByAddress(address)": {
						"returns": {
							"_0": "The array of addresses of publisher's clone contracts."
						}
					},
					"getAllPublisherContracts()": {
						"returns": {
							"_0": "The array of addresses of publishers' clone contracts."
						}
					},
					"getClone(address,address)": {
						"params": {
							"_cloneAddress": "The address of clone.",
							"_pubWalletAddress": "The wallet address of publisher."
						},
						"returns": {
							"_0": "The struct of PublisherClone."
						}
					},
					"getCloneContractsOfAdvertiser(address)": {
						"returns": {
							"_0": "The array of contract addresses of a given advertiser."
						}
					},
					"getPubContractCount()": {
						"returns": {
							"_0": "The number of total publisher clone contracts."
						}
					},
					"getPubContractCountByAddress(address)": {
						"returns": {
							"_0": "The number of total clone contracts of a given publisher."
						}
					},
					"getPubContractsOfModerator(address)": {
						"returns": {
							"_0": "The array of contract addresses of a given moderator."
						}
					},
					"owner()": {
						"details": "Returns the address of the current owner."
					},
					"removePubContractOfModerator(address,address,address)": {
						"params": {
							"_contractAddress": "The address of clone.",
							"_modAddress": "The wallet address of moderator.",
							"_publisher": "The wallet address of publihser. Requirements: - `_modAddress` cannot be the zero address. - `_contractAddress` cannot be the zero address. - `_publisher` cannot be the zero address."
						}
					},
					"renounceOwnership()": {
						"details": "Leaves the contract without owner. It will not be possible to call `onlyOwner` functions. Can only be called by the current owner. NOTE: Renouncing ownership will leave the contract without an owner, thereby disabling any functionality that is only available to the owner."
					},
					"setPlatforFeesPercentInBPS(uint256)": {
						"params": {
							"_percentInBPS": "The percentage in BPS format, example: 3% -> 300"
						}
					},
					"setPlatformFeeAddress(address)": {
						"params": {
							"_feeAddress": "The address to receive deposit fess Requirements: - `_feeAddress` cannot be the zero address."
						}
					},
					"transferOwnership(address)": {
						"details": "Transfers ownership of the contract to a new account (`newOwner`). Can only be called by the current owner."
					},
					"upgradeImplementationContract(address)": {
						"params": {
							"_implementation": "new publisher implementation contract address Requirements: - `_implementation` cannot be the zero address."
						}
					}
				},
				"version": 1
			},
			"evm": {
				"assembly": "    /* \"DecentradFactory.sol\":195:13389  contract DecentradFactory is Ownable {... */\n  mstore(0x40, 0x80)\n    /* \"DecentradFactory.sol\":3217:3761  constructor(... */\n  callvalue\n  dup1\n  iszero\n  tag_1\n  jumpi\n  0x00\n  dup1\n  revert\ntag_1:\n  pop\n  mload(0x40)\n  sub(codesize, bytecodeSize)\n  dup1\n  bytecodeSize\n  dup4\n  codecopy\n  dup2\n  add\n  0x40\n  dup2\n  swap1\n  mstore\n  tag_2\n  swap2\n  tag_3\n  jump\t// in\ntag_2:\n    /* \"DecentradFactory.sol\":3356:3366  msg.sender */\n  caller\n  dup1\n    /* \"@openzeppelin/contracts/access/Ownable.sol\":1269:1364  if (initialOwner == address(0)) {... */\n  tag_7\n  jumpi\n    /* \"@openzeppelin/contracts/access/Ownable.sol\":1322:1353  OwnableInvalidOwner(address(0)) */\n  mload(0x40)\n  shl(0xe0, 0x1e4fbdf7)\n  dup2\n  mstore\n    /* \"@openzeppelin/contracts/access/Ownable.sol\":1350:1351  0 */\n  0x00\n    /* \"@openzeppelin/contracts/access/Ownable.sol\":1322:1353  OwnableInvalidOwner(address(0)) */\n  0x04\n  dup3\n  add\n    /* \"#utility.yul\":701:752   */\n  mstore\n    /* \"#utility.yul\":674:692   */\n  0x24\n  add\n    /* \"@openzeppelin/contracts/access/Ownable.sol\":1322:1353  OwnableInvalidOwner(address(0)) */\ntag_8:\n  mload(0x40)\n  dup1\n  swap2\n  sub\n  swap1\n  revert\n    /* \"@openzeppelin/contracts/access/Ownable.sol\":1269:1364  if (initialOwner == address(0)) {... */\ntag_7:\n    /* \"@openzeppelin/contracts/access/Ownable.sol\":1373:1405  _transferOwnership(initialOwner) */\n  tag_10\n    /* \"@openzeppelin/contracts/access/Ownable.sol\":1392:1404  initialOwner */\n  dup2\n    /* \"@openzeppelin/contracts/access/Ownable.sol\":1373:1391  _transferOwnership */\n  tag_11\n    /* \"@openzeppelin/contracts/access/Ownable.sol\":1373:1405  _transferOwnership(initialOwner) */\n  jump\t// in\ntag_10:\n  pop\n  sub(shl(0xa0, 0x01), 0x01)\n    /* \"DecentradFactory.sol\":3399:3428  _implementation != address(0) */\n  dup4\n  and\n    /* \"DecentradFactory.sol\":3378:3484  require(... */\n  tag_13\n  jumpi\n  mload(0x40)\n  shl(0xe5, 0x461bcd)\n  dup2\n  mstore\n    /* \"#utility.yul\":965:967   */\n  0x20\n    /* \"DecentradFactory.sol\":3378:3484  require(... */\n  0x04\n  dup3\n  add\n    /* \"#utility.yul\":947:968   */\n  mstore\n    /* \"#utility.yul\":1004:1006   */\n  0x1e\n    /* \"#utility.yul\":984:1002   */\n  0x24\n  dup3\n  add\n    /* \"#utility.yul\":977:1007   */\n  mstore\n    /* \"#utility.yul\":1043:1075   */\n  0x696e76616c696420696d706c656d656e746174696f6e20616464726573730000\n    /* \"#utility.yul\":1023:1041   */\n  0x44\n  dup3\n  add\n    /* \"#utility.yul\":1016:1076   */\n  mstore\n    /* \"#utility.yul\":1093:1111   */\n  0x64\n  add\n    /* \"DecentradFactory.sol\":3378:3484  require(... */\n  tag_8\n    /* \"#utility.yul\":763:1117   */\n  jump\n    /* \"DecentradFactory.sol\":3378:3484  require(... */\ntag_13:\n  sub(shl(0xa0, 0x01), 0x01)\n    /* \"DecentradFactory.sol\":3515:3548  _platformFeeAddress != address(0) */\n  dup3\n  and\n    /* \"DecentradFactory.sol\":3494:3600  require(... */\n  tag_16\n  jumpi\n  mload(0x40)\n  shl(0xe5, 0x461bcd)\n  dup2\n  mstore\n    /* \"#utility.yul\":1324:1326   */\n  0x20\n    /* \"DecentradFactory.sol\":3494:3600  require(... */\n  0x04\n  dup3\n  add\n    /* \"#utility.yul\":1306:1327   */\n  mstore\n    /* \"#utility.yul\":1363:1365   */\n  0x1a\n    /* \"#utility.yul\":1343:1361   */\n  0x24\n  dup3\n  add\n    /* \"#utility.yul\":1336:1366   */\n  mstore\n    /* \"#utility.yul\":1402:1430   */\n  0x696e76616c696420706c6174666f726d46656541646472657373000000000000\n    /* \"#utility.yul\":1382:1400   */\n  0x44\n  dup3\n  add\n    /* \"#utility.yul\":1375:1431   */\n  mstore\n    /* \"#utility.yul\":1448:1466   */\n  0x64\n  add\n    /* \"DecentradFactory.sol\":3494:3600  require(... */\n  tag_8\n    /* \"#utility.yul\":1122:1472   */\n  jump\n    /* \"DecentradFactory.sol\":3494:3600  require(... */\ntag_16:\n    /* \"DecentradFactory.sol\":3610:3624  implementation */\n  0x01\n    /* \"DecentradFactory.sol\":3610:3642  implementation = _implementation */\n  dup1\n  sload\n  sub(shl(0xa0, 0x01), 0x01)\n  swap5\n  dup6\n  and\n  not(sub(shl(0xa0, 0x01), 0x01))\n  swap2\n  dup3\n  and\n  or\n  swap1\n  swap2\n  sstore\n    /* \"DecentradFactory.sol\":3652:3670  platformFeeAddress */\n  0x03\n    /* \"DecentradFactory.sol\":3652:3692  platformFeeAddress = _platformFeeAddress */\n  dup1\n  sload\n  swap4\n  swap1\n  swap5\n  and\n  swap3\n  and\n  swap2\n  swap1\n  swap2\n  or\n  swap1\n  swap2\n  sstore\n    /* \"DecentradFactory.sol\":3702:3726  platformFeesPercentInBPS */\n  0x02\n    /* \"DecentradFactory.sol\":3702:3754  platformFeesPercentInBPS = _platformFeesPercentInBPS */\n  sstore\n    /* \"DecentradFactory.sol\":195:13389  contract DecentradFactory is Ownable {... */\n  jump(tag_22)\n    /* \"@openzeppelin/contracts/access/Ownable.sol\":2912:3099  function _transferOwnership(address newOwner) internal virtual {... */\ntag_11:\n    /* \"@openzeppelin/contracts/access/Ownable.sol\":2985:3001  address oldOwner */\n  0x00\n    /* \"@openzeppelin/contracts/access/Ownable.sol\":3004:3010  _owner */\n  dup1\n  sload\n  sub(shl(0xa0, 0x01), 0x01)\n    /* \"@openzeppelin/contracts/access/Ownable.sol\":3020:3037  _owner = newOwner */\n  dup4\n  dup2\n  and\n  not(sub(shl(0xa0, 0x01), 0x01))\n  dup4\n  and\n  dup2\n  or\n  dup5\n  sstore\n    /* \"@openzeppelin/contracts/access/Ownable.sol\":3052:3092  OwnershipTransferred(oldOwner, newOwner) */\n  mload(0x40)\n    /* \"@openzeppelin/contracts/access/Ownable.sol\":3004:3010  _owner */\n  swap2\n  swap1\n  swap3\n  and\n  swap3\n  dup4\n  swap2\n    /* \"@openzeppelin/contracts/access/Ownable.sol\":3052:3092  OwnershipTransferred(oldOwner, newOwner) */\n  0x8be0079c531659141344cd1fd0a4f28419497f9722a3daafe3b4186f6b6457e0\n  swap2\n    /* \"@openzeppelin/contracts/access/Ownable.sol\":2985:3001  address oldOwner */\n  swap1\n    /* \"@openzeppelin/contracts/access/Ownable.sol\":3052:3092  OwnershipTransferred(oldOwner, newOwner) */\n  log3\n    /* \"@openzeppelin/contracts/access/Ownable.sol\":2975:3099  {... */\n  pop\n    /* \"@openzeppelin/contracts/access/Ownable.sol\":2912:3099  function _transferOwnership(address newOwner) internal virtual {... */\n  pop\n  jump\t// out\n    /* \"#utility.yul\":14:191   */\ntag_21:\n    /* \"#utility.yul\":93:106   */\n  dup1\n  mload\n  sub(shl(0xa0, 0x01), 0x01)\n    /* \"#utility.yul\":135:166   */\n  dup2\n  and\n    /* \"#utility.yul\":125:167   */\n  dup2\n  eq\n    /* \"#utility.yul\":115:185   */\n  tag_24\n  jumpi\n    /* \"#utility.yul\":181:182   */\n  0x00\n    /* \"#utility.yul\":178:179   */\n  dup1\n    /* \"#utility.yul\":171:183   */\n  revert\n    /* \"#utility.yul\":115:185   */\ntag_24:\n    /* \"#utility.yul\":14:191   */\n  swap2\n  swap1\n  pop\n  jump\t// out\n    /* \"#utility.yul\":196:550   */\ntag_3:\n    /* \"#utility.yul\":284:290   */\n  0x00\n    /* \"#utility.yul\":292:298   */\n  dup1\n    /* \"#utility.yul\":300:306   */\n  0x00\n    /* \"#utility.yul\":353:355   */\n  0x60\n    /* \"#utility.yul\":341:350   */\n  dup5\n    /* \"#utility.yul\":332:339   */\n  dup7\n    /* \"#utility.yul\":328:351   */\n  sub\n    /* \"#utility.yul\":324:356   */\n  slt\n    /* \"#utility.yul\":321:373   */\n  iszero\n  tag_26\n  jumpi\n    /* \"#utility.yul\":369:370   */\n  0x00\n    /* \"#utility.yul\":366:367   */\n  dup1\n    /* \"#utility.yul\":359:371   */\n  revert\n    /* \"#utility.yul\":321:373   */\ntag_26:\n    /* \"#utility.yul\":392:432   */\n  tag_27\n    /* \"#utility.yul\":422:431   */\n  dup5\n    /* \"#utility.yul\":392:432   */\n  tag_21\n  jump\t// in\ntag_27:\n    /* \"#utility.yul\":382:432   */\n  swap3\n  pop\n    /* \"#utility.yul\":451:500   */\n  tag_28\n    /* \"#utility.yul\":496:498   */\n  0x20\n    /* \"#utility.yul\":485:494   */\n  dup6\n    /* \"#utility.yul\":481:499   */\n  add\n    /* \"#utility.yul\":451:500   */\n  tag_21\n  jump\t// in\ntag_28:\n    /* \"#utility.yul\":441:500   */\n  swap2\n  pop\n    /* \"#utility.yul\":540:542   */\n  0x40\n    /* \"#utility.yul\":529:538   */\n  dup5\n    /* \"#utility.yul\":525:543   */\n  add\n    /* \"#utility.yul\":519:544   */\n  mload\n    /* \"#utility.yul\":509:544   */\n  swap1\n  pop\n    /* \"#utility.yul\":196:550   */\n  swap3\n  pop\n  swap3\n  pop\n  swap3\n  jump\t// out\n    /* \"#utility.yul\":1122:1472   */\ntag_22:\n    /* \"DecentradFactory.sol\":195:13389  contract DecentradFactory is Ownable {... */\n  dataSize(sub_0)\n  dup1\n  dataOffset(sub_0)\n  0x00\n  codecopy\n  0x00\n  return\nstop\n\nsub_0: assembly {\n        /* \"DecentradFactory.sol\":195:13389  contract DecentradFactory is Ownable {... */\n      mstore(0x40, 0x80)\n      callvalue\n      dup1\n      iszero\n      tag_1\n      jumpi\n      0x00\n      dup1\n      revert\n    tag_1:\n      pop\n      jumpi(tag_2, lt(calldatasize, 0x04))\n      shr(0xe0, calldataload(0x00))\n      dup1\n      0x8da5cb5b\n      gt\n      tag_28\n      jumpi\n      dup1\n      0xb552ebc8\n      gt\n      tag_29\n      jumpi\n      dup1\n      0xdf7ae382\n      gt\n      tag_30\n      jumpi\n      dup1\n      0xdf7ae382\n      eq\n      tag_24\n      jumpi\n      dup1\n      0xed14834f\n      eq\n      tag_25\n      jumpi\n      dup1\n      0xf2fde38b\n      eq\n      tag_26\n      jumpi\n      dup1\n      0xf336aa35\n      eq\n      tag_27\n      jumpi\n      0x00\n      dup1\n      revert\n    tag_30:\n      dup1\n      0xb552ebc8\n      eq\n      tag_21\n      jumpi\n      dup1\n      0xc2b602f3\n      eq\n      tag_22\n      jumpi\n      dup1\n      0xd414a3f2\n      eq\n      tag_23\n      jumpi\n      0x00\n      dup1\n      revert\n    tag_29:\n      dup1\n      0x8da5cb5b\n      eq\n      tag_15\n      jumpi\n      dup1\n      0x9375da5a\n      eq\n      tag_16\n      jumpi\n      dup1\n      0x9472a969\n      eq\n      tag_17\n      jumpi\n      dup1\n      0x9b1ec6a3\n      eq\n      tag_18\n      jumpi\n      dup1\n      0x9d209a30\n      eq\n      tag_19\n      jumpi\n      dup1\n      0xb2860298\n      eq\n      tag_20\n      jumpi\n      0x00\n      dup1\n      revert\n    tag_28:\n      dup1\n      0x5c60da1b\n      gt\n      tag_31\n      jumpi\n      dup1\n      0x5c60da1b\n      eq\n      tag_9\n      jumpi\n      dup1\n      0x64eb68eb\n      eq\n      tag_10\n      jumpi\n      dup1\n      0x715018a6\n      eq\n      tag_11\n      jumpi\n      dup1\n      0x77b43000\n      eq\n      tag_12\n      jumpi\n      dup1\n      0x841a0cbe\n      eq\n      tag_13\n      jumpi\n      dup1\n      0x8b0d4377\n      eq\n      tag_14\n      jumpi\n      0x00\n      dup1\n      revert\n    tag_31:\n      dup1\n      0x07dc6749\n      eq\n      tag_3\n      jumpi\n      dup1\n      0x14f9ff21\n      eq\n      tag_4\n      jumpi\n      dup1\n      0x172c2664\n      eq\n      tag_5\n      jumpi\n      dup1\n      0x23e49534\n      eq\n      tag_6\n      jumpi\n      dup1\n      0x2e4e56cf\n      eq\n      tag_7\n      jumpi\n      dup1\n      0x4f568db3\n      eq\n      tag_8\n      jumpi\n    tag_2:\n      0x00\n      dup1\n      revert\n        /* \"DecentradFactory.sol\":363:402  uint256 public platformFeesPercentInBPS */\n    tag_3:\n      tag_32\n      sload(0x02)\n      dup2\n      jump\n    tag_32:\n      mload(0x40)\n        /* \"#utility.yul\":160:185   */\n      swap1\n      dup2\n      mstore\n        /* \"#utility.yul\":148:150   */\n      0x20\n        /* \"#utility.yul\":133:151   */\n      add\n        /* \"DecentradFactory.sol\":363:402  uint256 public platformFeesPercentInBPS */\n    tag_34:\n      mload(0x40)\n      dup1\n      swap2\n      sub\n      swap1\n      return\n        /* \"DecentradFactory.sol\":1984:2063  mapping(address => mapping(address => bool)) public isAddedToModeratorContracts */\n    tag_4:\n      tag_36\n      tag_37\n      calldatasize\n      0x04\n      tag_38\n      jump\t// in\n    tag_37:\n      0x09\n      0x20\n      swap1\n      dup2\n      mstore\n      0x00\n      swap3\n      dup4\n      mstore\n      0x40\n      dup1\n      dup5\n      keccak256\n      swap1\n      swap2\n      mstore\n      swap1\n      dup3\n      mstore\n      swap1\n      keccak256\n      sload\n      0xff\n      and\n      dup2\n      jump\n    tag_36:\n      mload(0x40)\n        /* \"#utility.yul\":804:818   */\n      swap1\n      iszero\n        /* \"#utility.yul\":797:819   */\n      iszero\n        /* \"#utility.yul\":779:820   */\n      dup2\n      mstore\n        /* \"#utility.yul\":767:769   */\n      0x20\n        /* \"#utility.yul\":752:770   */\n      add\n        /* \"DecentradFactory.sol\":1984:2063  mapping(address => mapping(address => bool)) public isAddedToModeratorContracts */\n      tag_34\n        /* \"#utility.yul\":639:826   */\n      jump\n        /* \"DecentradFactory.sol\":1122:1181  mapping(address => PublisherClone[]) public publisherClones */\n    tag_5:\n      tag_42\n      tag_43\n      calldatasize\n      0x04\n      tag_44\n      jump\t// in\n    tag_43:\n      tag_45\n      jump\t// in\n    tag_42:\n      mload(0x40)\n      tag_34\n      swap3\n      swap2\n      swap1\n      tag_47\n      jump\t// in\n        /* \"DecentradFactory.sol\":7838:7948  function getPubContractCount() public view returns (uint256) {... */\n    tag_6:\n        /* \"DecentradFactory.sol\":7916:7934  allPublisherClones */\n      0x04\n        /* \"DecentradFactory.sol\":7916:7941  allPublisherClones.length */\n      sload\n        /* \"DecentradFactory.sol\":7838:7948  function getPubContractCount() public view returns (uint256) {... */\n      jump(tag_32)\n        /* \"DecentradFactory.sol\":3996:4264  function upgradeImplementationContract(address _implementation)... */\n    tag_7:\n      tag_51\n      tag_52\n      calldatasize\n      0x04\n      tag_53\n      jump\t// in\n    tag_52:\n      tag_54\n      jump\t// in\n    tag_51:\n      stop\n        /* \"DecentradFactory.sol\":4745:5784  function createPublisherClone(... */\n    tag_8:\n      tag_51\n      tag_56\n      calldatasize\n      0x04\n      tag_57\n      jump\t// in\n    tag_56:\n      tag_58\n      jump\t// in\n        /* \"DecentradFactory.sol\":328:357  address public implementation */\n    tag_9:\n      sload(0x01)\n      tag_59\n      swap1\n      sub(shl(0xa0, 0x01), 0x01)\n      and\n      dup2\n      jump\n    tag_59:\n      mload(0x40)\n      sub(shl(0xa0, 0x01), 0x01)\n        /* \"#utility.yul\":3587:3619   */\n      swap1\n      swap2\n      and\n        /* \"#utility.yul\":3569:3620   */\n      dup2\n      mstore\n        /* \"#utility.yul\":3557:3559   */\n      0x20\n        /* \"#utility.yul\":3542:3560   */\n      add\n        /* \"DecentradFactory.sol\":328:357  address public implementation */\n      tag_34\n        /* \"#utility.yul\":3423:3626   */\n      jump\n        /* \"DecentradFactory.sol\":7482:7675  function getAllPubClonesByAddress(address _pubWalletAddress)... */\n    tag_10:\n      tag_63\n      tag_64\n      calldatasize\n      0x04\n      tag_53\n      jump\t// in\n    tag_64:\n      tag_65\n      jump\t// in\n    tag_63:\n      mload(0x40)\n      tag_34\n      swap2\n      swap1\n      tag_67\n      jump\t// in\n        /* \"@openzeppelin/contracts/access/Ownable.sol\":2293:2394  function renounceOwnership() public virtual onlyOwner {... */\n    tag_11:\n      tag_51\n      tag_69\n      jump\t// in\n        /* \"DecentradFactory.sol\":2505:2585  mapping(address => mapping(address => bool)) public isAddedToAdvertiserContracts */\n    tag_12:\n      tag_36\n      tag_71\n      calldatasize\n      0x04\n      tag_38\n      jump\t// in\n    tag_71:\n      0x0b\n      0x20\n      swap1\n      dup2\n      mstore\n      0x00\n      swap3\n      dup4\n      mstore\n      0x40\n      dup1\n      dup5\n      keccak256\n      swap1\n      swap2\n      mstore\n      swap1\n      dup3\n      mstore\n      swap1\n      keccak256\n      sload\n      0xff\n      and\n      dup2\n      jump\n        /* \"DecentradFactory.sol\":12636:12822  function getCloneContractsOfAdvertiser(address _advAddress)... */\n    tag_13:\n      tag_74\n      tag_75\n      calldatasize\n      0x04\n      tag_53\n      jump\t// in\n    tag_75:\n      tag_76\n      jump\t// in\n    tag_74:\n      mload(0x40)\n      tag_34\n      swap2\n      swap1\n      tag_78\n      jump\t// in\n        /* \"DecentradFactory.sol\":11126:12134  function removePubContractOfModerator(... */\n    tag_14:\n      tag_51\n      tag_80\n      calldatasize\n      0x04\n      tag_81\n      jump\t// in\n    tag_80:\n      tag_82\n      jump\t// in\n        /* \"@openzeppelin/contracts/access/Ownable.sol\":1638:1723  function owner() public view virtual returns (address) {... */\n    tag_15:\n        /* \"@openzeppelin/contracts/access/Ownable.sol\":1684:1691  address */\n      0x00\n        /* \"@openzeppelin/contracts/access/Ownable.sol\":1710:1716  _owner */\n      sload\n      sub(shl(0xa0, 0x01), 0x01)\n      and\n        /* \"@openzeppelin/contracts/access/Ownable.sol\":1638:1723  function owner() public view virtual returns (address) {... */\n      jump(tag_59)\n        /* \"DecentradFactory.sol\":6317:6503  function setPlatformFeeAddress(address _feeAddress) external onlyOwner {... */\n    tag_16:\n      tag_51\n      tag_87\n      calldatasize\n      0x04\n      tag_53\n      jump\t// in\n    tag_87:\n      tag_88\n      jump\t// in\n        /* \"DecentradFactory.sol\":8101:8289  function getPubContractCountByAddress(address _pubWalletAddress)... */\n    tag_17:\n      tag_32\n      tag_90\n      calldatasize\n      0x04\n      tag_53\n      jump\t// in\n    tag_90:\n      sub(shl(0xa0, 0x01), 0x01)\n        /* \"DecentradFactory.sol\":8241:8275  publisherClones[_pubWalletAddress] */\n      and\n        /* \"DecentradFactory.sol\":8211:8218  uint256 */\n      0x00\n        /* \"DecentradFactory.sol\":8241:8275  publisherClones[_pubWalletAddress] */\n      swap1\n      dup2\n      mstore\n        /* \"DecentradFactory.sol\":8241:8256  publisherClones */\n      0x06\n        /* \"DecentradFactory.sol\":8241:8275  publisherClones[_pubWalletAddress] */\n      0x20\n      mstore\n      0x40\n      swap1\n      keccak256\n        /* \"DecentradFactory.sol\":8241:8282  publisherClones[_pubWalletAddress].length */\n      sload\n      swap1\n        /* \"DecentradFactory.sol\":8101:8289  function getPubContractCountByAddress(address _pubWalletAddress)... */\n      jump\n        /* \"DecentradFactory.sol\":7158:7310  function getAllPublisherContracts()... */\n    tag_18:\n      tag_63\n      tag_94\n      jump\t// in\n        /* \"DecentradFactory.sol\":12293:12475  function getPubContractsOfModerator(address _modAddress)... */\n    tag_19:\n      tag_74\n      tag_97\n      calldatasize\n      0x04\n      tag_53\n      jump\t// in\n    tag_97:\n      tag_98\n      jump\t// in\n        /* \"DecentradFactory.sol\":682:724  PublisherClone[] public allPublisherClones */\n    tag_20:\n      tag_42\n      tag_101\n      calldatasize\n      0x04\n      tag_102\n      jump\t// in\n    tag_101:\n      tag_103\n      jump\t// in\n        /* \"DecentradFactory.sol\":9860:10670  function assignPubContractToModerator(... */\n    tag_21:\n      tag_51\n      tag_106\n      calldatasize\n      0x04\n      tag_81\n      jump\t// in\n    tag_106:\n      tag_107\n      jump\t// in\n        /* \"DecentradFactory.sol\":5940:6095  function setPlatforFeesPercentInBPS(uint256 _percentInBPS)... */\n    tag_22:\n      tag_51\n      tag_109\n      calldatasize\n      0x04\n      tag_102\n      jump\t// in\n    tag_109:\n      tag_110\n      jump\t// in\n        /* \"DecentradFactory.sol\":6735:6992  function getClone(address _pubWalletAddress, address _cloneAddress)... */\n    tag_23:\n      tag_111\n      tag_112\n      calldatasize\n      0x04\n      tag_38\n      jump\t// in\n    tag_112:\n      tag_113\n      jump\t// in\n    tag_111:\n      mload(0x40)\n      tag_34\n      swap2\n      swap1\n      tag_115\n      jump\t// in\n        /* \"DecentradFactory.sol\":1689:1773  mapping(address => mapping( address => uint256)) public moderatorAccContractsPointer */\n    tag_24:\n      tag_32\n      tag_117\n      calldatasize\n      0x04\n      tag_38\n      jump\t// in\n    tag_117:\n      0x08\n      0x20\n      swap1\n      dup2\n      mstore\n      0x00\n      swap3\n      dup4\n      mstore\n      0x40\n      dup1\n      dup5\n      keccak256\n      swap1\n      swap2\n      mstore\n      swap1\n      dup3\n      mstore\n      swap1\n      keccak256\n      sload\n      dup2\n      jump\n        /* \"DecentradFactory.sol\":408:441  address public platformFeeAddress */\n    tag_25:\n      sload(0x03)\n      tag_59\n      swap1\n      sub(shl(0xa0, 0x01), 0x01)\n      and\n      dup2\n      jump\n        /* \"@openzeppelin/contracts/access/Ownable.sol\":2543:2758  function transferOwnership(address newOwner) public virtual onlyOwner {... */\n    tag_26:\n      tag_51\n      tag_124\n      calldatasize\n      0x04\n      tag_53\n      jump\t// in\n    tag_124:\n      tag_125\n      jump\t// in\n        /* \"DecentradFactory.sol\":8741:9409  function assignContractToAdvertiser(... */\n    tag_27:\n      tag_51\n      tag_127\n      calldatasize\n      0x04\n      tag_81\n      jump\t// in\n    tag_127:\n      tag_128\n      jump\t// in\n        /* \"DecentradFactory.sol\":1122:1181  mapping(address => PublisherClone[]) public publisherClones */\n    tag_45:\n      mstore(0x20, 0x06)\n      dup2\n      0x00\n      mstore\n      keccak256(0x00, 0x40)\n      dup2\n      dup2\n      sload\n      dup2\n      lt\n      tag_129\n      jumpi\n      0x00\n      dup1\n      revert\n    tag_129:\n      swap1\n      0x00\n      mstore\n      keccak256(0x00, 0x20)\n      swap1\n      0x02\n      mul\n      add\n      0x00\n      swap2\n      pop\n      swap2\n      pop\n      pop\n      dup1\n      0x00\n      add\n      dup1\n      sload\n      tag_131\n      swap1\n      tag_132\n      jump\t// in\n    tag_131:\n      dup1\n      0x1f\n      add\n      0x20\n      dup1\n      swap2\n      div\n      mul\n      0x20\n      add\n      mload(0x40)\n      swap1\n      dup2\n      add\n      0x40\n      mstore\n      dup1\n      swap3\n      swap2\n      swap1\n      dup2\n      dup2\n      mstore\n      0x20\n      add\n      dup3\n      dup1\n      sload\n      tag_133\n      swap1\n      tag_132\n      jump\t// in\n    tag_133:\n      dup1\n      iszero\n      tag_134\n      jumpi\n      dup1\n      0x1f\n      lt\n      tag_135\n      jumpi\n      0x0100\n      dup1\n      dup4\n      sload\n      div\n      mul\n      dup4\n      mstore\n      swap2\n      0x20\n      add\n      swap2\n      jump(tag_134)\n    tag_135:\n      dup3\n      add\n      swap2\n      swap1\n      0x00\n      mstore\n      keccak256(0x00, 0x20)\n      swap1\n    tag_136:\n      dup2\n      sload\n      dup2\n      mstore\n      swap1\n      0x01\n      add\n      swap1\n      0x20\n      add\n      dup1\n      dup4\n      gt\n      tag_136\n      jumpi\n      dup3\n      swap1\n      sub\n      0x1f\n      and\n      dup3\n      add\n      swap2\n    tag_134:\n      pop\n      pop\n      pop\n      0x01\n      swap1\n      swap4\n      add\n      sload\n      swap2\n      swap3\n      pop\n      pop\n      sub(shl(0xa0, 0x01), 0x01)\n      and\n      dup3\n      jump\t// out\n        /* \"DecentradFactory.sol\":3996:4264  function upgradeImplementationContract(address _implementation)... */\n    tag_54:\n        /* \"@openzeppelin/contracts/access/Ownable.sol\":1531:1544  _checkOwner() */\n      tag_139\n        /* \"@openzeppelin/contracts/access/Ownable.sol\":1531:1542  _checkOwner */\n      tag_140\n        /* \"@openzeppelin/contracts/access/Ownable.sol\":1531:1544  _checkOwner() */\n      jump\t// in\n    tag_139:\n      sub(shl(0xa0, 0x01), 0x01)\n        /* \"DecentradFactory.sol\":4130:4159  _implementation != address(0) */\n      dup2\n      and\n        /* \"DecentradFactory.sol\":4109:4215  require(... */\n      tag_142\n      jumpi\n      mload(0x40)\n      shl(0xe5, 0x461bcd)\n      dup2\n      mstore\n        /* \"#utility.yul\":6870:6872   */\n      0x20\n        /* \"DecentradFactory.sol\":4109:4215  require(... */\n      0x04\n      dup3\n      add\n        /* \"#utility.yul\":6852:6873   */\n      mstore\n        /* \"#utility.yul\":6909:6911   */\n      0x1e\n        /* \"#utility.yul\":6889:6907   */\n      0x24\n      dup3\n      add\n        /* \"#utility.yul\":6882:6912   */\n      mstore\n        /* \"#utility.yul\":6948:6980   */\n      0x696e76616c696420696d706c656d656e746174696f6e20616464726573730000\n        /* \"#utility.yul\":6928:6946   */\n      0x44\n      dup3\n      add\n        /* \"#utility.yul\":6921:6981   */\n      mstore\n        /* \"#utility.yul\":6998:7016   */\n      0x64\n      add\n        /* \"DecentradFactory.sol\":4109:4215  require(... */\n    tag_143:\n      mload(0x40)\n      dup1\n      swap2\n      sub\n      swap1\n      revert\n    tag_142:\n        /* \"DecentradFactory.sol\":4225:4239  implementation */\n      0x01\n        /* \"DecentradFactory.sol\":4225:4257  implementation = _implementation */\n      dup1\n      sload\n      not(sub(shl(0xa0, 0x01), 0x01))\n      and\n      sub(shl(0xa0, 0x01), 0x01)\n      swap3\n      swap1\n      swap3\n      and\n      swap2\n      swap1\n      swap2\n      or\n      swap1\n      sstore\n        /* \"DecentradFactory.sol\":3996:4264  function upgradeImplementationContract(address _implementation)... */\n      jump\t// out\n        /* \"DecentradFactory.sol\":4745:5784  function createPublisherClone(... */\n    tag_58:\n        /* \"DecentradFactory.sol\":4937:4938  0 */\n      0x00\n        /* \"DecentradFactory.sol\":4918:4926  _siteURL */\n      dup4\n        /* \"DecentradFactory.sol\":4912:4934  bytes(_siteURL).length */\n      mload\n        /* \"DecentradFactory.sol\":4912:4938  bytes(_siteURL).length > 0 */\n      gt\n        /* \"DecentradFactory.sol\":4904:4958  require(bytes(_siteURL).length > 0, \"invalid siteURL\") */\n      tag_146\n      jumpi\n      mload(0x40)\n      shl(0xe5, 0x461bcd)\n      dup2\n      mstore\n        /* \"#utility.yul\":7229:7231   */\n      0x20\n        /* \"DecentradFactory.sol\":4904:4958  require(bytes(_siteURL).length > 0, \"invalid siteURL\") */\n      0x04\n      dup3\n      add\n        /* \"#utility.yul\":7211:7232   */\n      mstore\n        /* \"#utility.yul\":7268:7270   */\n      0x0f\n        /* \"#utility.yul\":7248:7266   */\n      0x24\n      dup3\n      add\n        /* \"#utility.yul\":7241:7271   */\n      mstore\n      shl(0x8a, 0x1a5b9d985b1a59081cda5d19555493)\n        /* \"#utility.yul\":7287:7305   */\n      0x44\n      dup3\n      add\n        /* \"#utility.yul\":7280:7325   */\n      mstore\n        /* \"#utility.yul\":7342:7360   */\n      0x64\n      add\n        /* \"DecentradFactory.sol\":4904:4958  require(bytes(_siteURL).length > 0, \"invalid siteURL\") */\n      tag_143\n        /* \"#utility.yul\":7027:7366   */\n      jump\n        /* \"DecentradFactory.sol\":4904:4958  require(bytes(_siteURL).length > 0, \"invalid siteURL\") */\n    tag_146:\n      sub(shl(0xa0, 0x01), 0x01)\n        /* \"DecentradFactory.sol\":4976:5008  _erc20TokenAddress != address(0) */\n      dup2\n      and\n        /* \"DecentradFactory.sol\":4968:5039  require(_erc20TokenAddress != address(0), \"invalid erc20 tokenAddress\") */\n      tag_149\n      jumpi\n      mload(0x40)\n      shl(0xe5, 0x461bcd)\n      dup2\n      mstore\n        /* \"#utility.yul\":7573:7575   */\n      0x20\n        /* \"DecentradFactory.sol\":4968:5039  require(_erc20TokenAddress != address(0), \"invalid erc20 tokenAddress\") */\n      0x04\n      dup3\n      add\n        /* \"#utility.yul\":7555:7576   */\n      mstore\n        /* \"#utility.yul\":7612:7614   */\n      0x1a\n        /* \"#utility.yul\":7592:7610   */\n      0x24\n      dup3\n      add\n        /* \"#utility.yul\":7585:7615   */\n      mstore\n        /* \"#utility.yul\":7651:7679   */\n      0x696e76616c696420657263323020746f6b656e41646472657373000000000000\n        /* \"#utility.yul\":7631:7649   */\n      0x44\n      dup3\n      add\n        /* \"#utility.yul\":7624:7680   */\n      mstore\n        /* \"#utility.yul\":7697:7715   */\n      0x64\n      add\n        /* \"DecentradFactory.sol\":4968:5039  require(_erc20TokenAddress != address(0), \"invalid erc20 tokenAddress\") */\n      tag_143\n        /* \"#utility.yul\":7371:7721   */\n      jump\n        /* \"DecentradFactory.sol\":4968:5039  require(_erc20TokenAddress != address(0), \"invalid erc20 tokenAddress\") */\n    tag_149:\n        /* \"DecentradFactory.sol\":5050:5062  bytes32 salt */\n      0x00\n        /* \"DecentradFactory.sol\":5092:5100  _siteURL */\n      dup4\n        /* \"DecentradFactory.sol\":5075:5101  abi.encodePacked(_siteURL) */\n      add(0x20, mload(0x40))\n      tag_152\n      swap2\n      swap1\n      tag_153\n      jump\t// in\n    tag_152:\n      0x40\n      dup1\n      mload\n      not(0x1f)\n      dup2\n      dup5\n      sub\n      add\n      dup2\n      mstore\n      swap2\n      swap1\n      mstore\n        /* \"DecentradFactory.sol\":5065:5102  keccak256(abi.encodePacked(_siteURL)) */\n      dup1\n      mload\n        /* \"DecentradFactory.sol\":5075:5101  abi.encodePacked(_siteURL) */\n      0x20\n        /* \"DecentradFactory.sol\":5065:5102  keccak256(abi.encodePacked(_siteURL)) */\n      swap1\n      swap2\n      add\n      keccak256\n        /* \"DecentradFactory.sol\":5178:5192  implementation */\n      sload(0x01)\n        /* \"DecentradFactory.sol\":5065:5102  keccak256(abi.encodePacked(_siteURL)) */\n      swap1\n      swap2\n      pop\n        /* \"DecentradFactory.sol\":5112:5136  address pubCloneContract */\n      0x00\n      swap1\n        /* \"DecentradFactory.sol\":5139:5220  Clones.cloneDeterministic(... */\n      tag_154\n      swap1\n      sub(shl(0xa0, 0x01), 0x01)\n        /* \"DecentradFactory.sol\":5178:5192  implementation */\n      and\n        /* \"DecentradFactory.sol\":5065:5102  keccak256(abi.encodePacked(_siteURL)) */\n      dup4\n        /* \"DecentradFactory.sol\":5139:5164  Clones.cloneDeterministic */\n      tag_155\n        /* \"DecentradFactory.sol\":5139:5220  Clones.cloneDeterministic(... */\n      jump\t// in\n    tag_154:\n        /* \"DecentradFactory.sol\":5387:5405  platformFeeAddress */\n      sload(0x03)\n        /* \"DecentradFactory.sol\":5419:5443  platformFeesPercentInBPS */\n      sload(0x02)\n        /* \"DecentradFactory.sol\":5230:5480  IDecentrad(pubCloneContract).initialize(... */\n      mload(0x40)\n      shl(0xe0, 0xb9fbaaf9)\n      dup2\n      mstore\n        /* \"DecentradFactory.sol\":5112:5220  address pubCloneContract = Clones.cloneDeterministic(... */\n      swap3\n      swap4\n      pop\n      sub(shl(0xa0, 0x01), 0x01)\n        /* \"DecentradFactory.sol\":5230:5269  IDecentrad(pubCloneContract).initialize */\n      dup1\n      dup6\n      and\n      swap4\n      0xb9fbaaf9\n      swap4\n        /* \"DecentradFactory.sol\":5230:5480  IDecentrad(pubCloneContract).initialize(... */\n      tag_156\n      swap4\n        /* \"DecentradFactory.sol\":5283:5291  _siteURL */\n      dup12\n      swap4\n        /* \"DecentradFactory.sol\":5305:5317  _description */\n      dup12\n      swap4\n        /* \"DecentradFactory.sol\":5331:5349  _erc20TokenAddress */\n      dup12\n      swap4\n        /* \"DecentradFactory.sol\":5363:5373  msg.sender */\n      caller\n      swap4\n        /* \"DecentradFactory.sol\":5387:5405  platformFeeAddress */\n      swap3\n      and\n      swap2\n        /* \"DecentradFactory.sol\":5419:5443  platformFeesPercentInBPS */\n      swap1\n        /* \"DecentradFactory.sol\":5465:5469  this */\n      address\n      swap1\n        /* \"DecentradFactory.sol\":5230:5480  IDecentrad(pubCloneContract).initialize(... */\n      0x04\n      add\n      tag_157\n      jump\t// in\n    tag_156:\n      0x00\n      mload(0x40)\n      dup1\n      dup4\n      sub\n      dup2\n      0x00\n      dup8\n      dup1\n      extcodesize\n      iszero\n      dup1\n      iszero\n      tag_158\n      jumpi\n      0x00\n      dup1\n      revert\n    tag_158:\n      pop\n      gas\n      call\n      iszero\n      dup1\n      iszero\n      tag_160\n      jumpi\n      returndatasize\n      0x00\n      dup1\n      returndatacopy\n      revert(0x00, returndatasize)\n    tag_160:\n      pop\n      pop\n        /* \"DecentradFactory.sol\":5524:5600  PublisherClone(... */\n      0x40\n      dup1\n      mload\n      dup1\n      dup3\n      add\n      dup3\n      mstore\n      dup9\n      dup2\n      mstore\n      sub(shl(0xa0, 0x01), 0x01)\n      dup6\n      and\n      0x20\n      dup1\n      dup4\n      add\n      swap2\n      swap1\n      swap2\n      mstore\n        /* \"DecentradFactory.sol\":5626:5636  msg.sender */\n      caller\n        /* \"DecentradFactory.sol\":5490:5521  PublisherClone memory _pubClone */\n      0x00\n        /* \"DecentradFactory.sol\":5610:5637  publisherClones[msg.sender] */\n      swap1\n      dup2\n      mstore\n        /* \"DecentradFactory.sol\":5610:5625  publisherClones */\n      0x06\n        /* \"DecentradFactory.sol\":5610:5637  publisherClones[msg.sender] */\n      dup3\n      mstore\n      swap3\n      dup4\n      keccak256\n        /* \"DecentradFactory.sol\":5610:5653  publisherClones[msg.sender].push(_pubClone) */\n      dup1\n      sload\n      0x01\n      dup2\n      add\n      dup3\n      sstore\n      swap1\n      dup5\n      mstore\n      swap3\n      keccak256\n      dup2\n      mload\n        /* \"DecentradFactory.sol\":5524:5600  PublisherClone(... */\n      swap2\n      swap5\n      pop\n      dup5\n      swap4\n      pop\n        /* \"DecentradFactory.sol\":5610:5653  publisherClones[msg.sender].push(_pubClone) */\n      0x02\n      swap1\n      swap3\n      mul\n      swap1\n      swap2\n      add\n      swap1\n      dup2\n      swap1\n      tag_162\n      swap1\n      dup3\n      tag_163\n      jump\t// in\n    tag_162:\n      pop\n      0x20\n      swap2\n      dup3\n      add\n      mload\n      0x01\n      swap2\n      dup3\n      add\n      dup1\n      sload\n      not(sub(shl(0xa0, 0x01), 0x01))\n      and\n      sub(shl(0xa0, 0x01), 0x01)\n      swap1\n      swap3\n      and\n      swap2\n      swap1\n      swap2\n      or\n      swap1\n      sstore\n        /* \"DecentradFactory.sol\":5711:5721  msg.sender */\n      caller\n      0x00\n        /* \"DecentradFactory.sol\":5695:5722  publisherClones[msg.sender] */\n      swap1\n      dup2\n      mstore\n        /* \"DecentradFactory.sol\":5695:5710  publisherClones */\n      0x06\n        /* \"DecentradFactory.sol\":5695:5722  publisherClones[msg.sender] */\n      swap1\n      swap3\n      mstore\n      0x40\n      swap1\n      swap2\n      keccak256\n        /* \"DecentradFactory.sol\":5695:5729  publisherClones[msg.sender].length */\n      sload\n        /* \"DecentradFactory.sol\":5695:5733  publisherClones[msg.sender].length - 1 */\n      tag_164\n      swap2\n        /* \"DecentradFactory.sol\":5610:5653  publisherClones[msg.sender].push(_pubClone) */\n      swap1\n        /* \"DecentradFactory.sol\":5695:5733  publisherClones[msg.sender].length - 1 */\n      tag_165\n      jump\t// in\n    tag_164:\n      sub(shl(0xa0, 0x01), 0x01)\n        /* \"DecentradFactory.sol\":5663:5692  _cloneIndex[pubCloneContract] */\n      dup4\n      and\n      0x00\n      swap1\n      dup2\n      mstore\n        /* \"DecentradFactory.sol\":5663:5674  _cloneIndex */\n      0x05\n        /* \"DecentradFactory.sol\":5663:5692  _cloneIndex[pubCloneContract] */\n      0x20\n      mstore\n      0x40\n      dup2\n      keccak256\n        /* \"DecentradFactory.sol\":5663:5733  _cloneIndex[pubCloneContract] = publisherClones[msg.sender].length - 1 */\n      swap2\n      swap1\n      swap2\n      sstore\n        /* \"DecentradFactory.sol\":5743:5761  allPublisherClones */\n      0x04\n        /* \"DecentradFactory.sol\":5743:5777  allPublisherClones.push(_pubClone) */\n      dup1\n      sload\n      0x01\n      dup2\n      add\n      dup3\n      sstore\n      swap2\n      mstore\n      dup2\n      mload\n        /* \"DecentradFactory.sol\":5767:5776  _pubClone */\n      dup3\n      swap2\n        /* \"DecentradFactory.sol\":5743:5777  allPublisherClones.push(_pubClone) */\n      0x02\n      mul\n      0x8a35acfbc15ff81a39ae7d344fd709f28e8600b4aa8c65c6b64bfe7fe36bd19b\n      add\n      swap1\n      dup2\n      swap1\n      tag_167\n      swap1\n      dup3\n      tag_163\n      jump\t// in\n    tag_167:\n      pop\n      0x20\n      swap2\n      swap1\n      swap2\n      add\n      mload\n      0x01\n      swap1\n      swap2\n      add\n      dup1\n      sload\n      not(sub(shl(0xa0, 0x01), 0x01))\n      and\n      sub(shl(0xa0, 0x01), 0x01)\n      swap1\n      swap3\n      and\n      swap2\n      swap1\n      swap2\n      or\n      swap1\n      sstore\n      pop\n      pop\n      pop\n      pop\n      pop\n      pop\n        /* \"DecentradFactory.sol\":4745:5784  function createPublisherClone(... */\n      jump\t// out\n        /* \"DecentradFactory.sol\":7482:7675  function getAllPubClonesByAddress(address _pubWalletAddress)... */\n    tag_65:\n      sub(shl(0xa0, 0x01), 0x01)\n        /* \"DecentradFactory.sol\":7634:7668  publisherClones[_pubWalletAddress] */\n      dup2\n      and\n      0x00\n      swap1\n      dup2\n      mstore\n        /* \"DecentradFactory.sol\":7634:7649  publisherClones */\n      0x06\n        /* \"DecentradFactory.sol\":7634:7668  publisherClones[_pubWalletAddress] */\n      0x20\n      swap1\n      dup2\n      mstore\n      0x40\n      dup1\n      dup4\n      keccak256\n        /* \"DecentradFactory.sol\":7627:7668  return publisherClones[_pubWalletAddress] */\n      dup1\n      sload\n      dup3\n      mload\n      dup2\n      dup6\n      mul\n      dup2\n      add\n      dup6\n      add\n      swap1\n      swap4\n      mstore\n      dup1\n      dup4\n      mstore\n        /* \"DecentradFactory.sol\":7588:7611  PublisherClone[] memory */\n      0x60\n      swap5\n        /* \"DecentradFactory.sol\":7627:7668  return publisherClones[_pubWalletAddress] */\n      swap3\n      swap4\n        /* \"DecentradFactory.sol\":7634:7668  publisherClones[_pubWalletAddress] */\n      swap2\n      swap3\n        /* \"DecentradFactory.sol\":7627:7668  return publisherClones[_pubWalletAddress] */\n      swap1\n      swap2\n      dup5\n      add\n    tag_169:\n      dup3\n      dup3\n      lt\n      iszero\n      tag_170\n      jumpi\n      dup4\n      dup3\n      swap1\n      0x00\n      mstore\n      keccak256(0x00, 0x20)\n      swap1\n      0x02\n      mul\n      add\n      mload(0x40)\n      dup1\n      0x40\n      add\n      0x40\n      mstore\n      swap1\n      dup2\n      0x00\n      dup3\n      add\n      dup1\n      sload\n      tag_172\n      swap1\n      tag_132\n      jump\t// in\n    tag_172:\n      dup1\n      0x1f\n      add\n      0x20\n      dup1\n      swap2\n      div\n      mul\n      0x20\n      add\n      mload(0x40)\n      swap1\n      dup2\n      add\n      0x40\n      mstore\n      dup1\n      swap3\n      swap2\n      swap1\n      dup2\n      dup2\n      mstore\n      0x20\n      add\n      dup3\n      dup1\n      sload\n      tag_173\n      swap1\n      tag_132\n      jump\t// in\n    tag_173:\n      dup1\n      iszero\n      tag_174\n      jumpi\n      dup1\n      0x1f\n      lt\n      tag_175\n      jumpi\n      0x0100\n      dup1\n      dup4\n      sload\n      div\n      mul\n      dup4\n      mstore\n      swap2\n      0x20\n      add\n      swap2\n      jump(tag_174)\n    tag_175:\n      dup3\n      add\n      swap2\n      swap1\n      0x00\n      mstore\n      keccak256(0x00, 0x20)\n      swap1\n    tag_176:\n      dup2\n      sload\n      dup2\n      mstore\n      swap1\n      0x01\n      add\n      swap1\n      0x20\n      add\n      dup1\n      dup4\n      gt\n      tag_176\n      jumpi\n      dup3\n      swap1\n      sub\n      0x1f\n      and\n      dup3\n      add\n      swap2\n    tag_174:\n      pop\n      pop\n      pop\n      swap2\n      dup4\n      mstore\n      pop\n      pop\n      0x01\n      swap2\n      dup3\n      add\n      sload\n      sub(shl(0xa0, 0x01), 0x01)\n      and\n      0x20\n      swap2\n      dup3\n      add\n      mstore\n      swap2\n      dup4\n      mstore\n      swap3\n      swap1\n      swap3\n      add\n      swap2\n      add\n      jump(tag_169)\n    tag_170:\n      pop\n      pop\n      pop\n      pop\n      swap1\n      pop\n        /* \"DecentradFactory.sol\":7482:7675  function getAllPubClonesByAddress(address _pubWalletAddress)... */\n      swap2\n      swap1\n      pop\n      jump\t// out\n        /* \"@openzeppelin/contracts/access/Ownable.sol\":2293:2394  function renounceOwnership() public virtual onlyOwner {... */\n    tag_69:\n        /* \"@openzeppelin/contracts/access/Ownable.sol\":1531:1544  _checkOwner() */\n      tag_178\n        /* \"@openzeppelin/contracts/access/Ownable.sol\":1531:1542  _checkOwner */\n      tag_140\n        /* \"@openzeppelin/contracts/access/Ownable.sol\":1531:1544  _checkOwner() */\n      jump\t// in\n    tag_178:\n        /* \"@openzeppelin/contracts/access/Ownable.sol\":2357:2387  _transferOwnership(address(0)) */\n      tag_180\n        /* \"@openzeppelin/contracts/access/Ownable.sol\":2384:2385  0 */\n      0x00\n        /* \"@openzeppelin/contracts/access/Ownable.sol\":2357:2375  _transferOwnership */\n      tag_181\n        /* \"@openzeppelin/contracts/access/Ownable.sol\":2357:2387  _transferOwnership(address(0)) */\n      jump\t// in\n    tag_180:\n        /* \"@openzeppelin/contracts/access/Ownable.sol\":2293:2394  function renounceOwnership() public virtual onlyOwner {... */\n      jump\t// out\n        /* \"DecentradFactory.sol\":12636:12822  function getCloneContractsOfAdvertiser(address _advAddress)... */\n    tag_76:\n      sub(shl(0xa0, 0x01), 0x01)\n        /* \"DecentradFactory.sol\":12782:12815  _advertiserContracts[_advAddress] */\n      dup2\n      and\n      0x00\n      swap1\n      dup2\n      mstore\n        /* \"DecentradFactory.sol\":12782:12802  _advertiserContracts */\n      0x0a\n        /* \"DecentradFactory.sol\":12782:12815  _advertiserContracts[_advAddress] */\n      0x20\n      swap1\n      dup2\n      mstore\n      0x40\n      swap2\n      dup3\n      swap1\n      keccak256\n        /* \"DecentradFactory.sol\":12775:12815  return _advertiserContracts[_advAddress] */\n      dup1\n      sload\n      dup4\n      mload\n      dup2\n      dup5\n      mul\n      dup2\n      add\n      dup5\n      add\n      swap1\n      swap5\n      mstore\n      dup1\n      dup5\n      mstore\n        /* \"DecentradFactory.sol\":12743:12759  address[] memory */\n      0x60\n      swap4\n        /* \"DecentradFactory.sol\":12775:12815  return _advertiserContracts[_advAddress] */\n      swap3\n      dup4\n      add\n        /* \"DecentradFactory.sol\":12782:12815  _advertiserContracts[_advAddress] */\n      dup3\n        /* \"DecentradFactory.sol\":12775:12815  return _advertiserContracts[_advAddress] */\n      dup3\n      dup1\n      iszero\n      tag_183\n      jumpi\n      0x20\n      mul\n      dup3\n      add\n      swap2\n      swap1\n      0x00\n      mstore\n      keccak256(0x00, 0x20)\n      swap1\n    tag_184:\n      dup2\n      sload\n      sub(shl(0xa0, 0x01), 0x01)\n      and\n      dup2\n      mstore\n      0x01\n      swap1\n      swap2\n      add\n      swap1\n      0x20\n      add\n      dup1\n      dup4\n      gt\n      tag_184\n      jumpi\n    tag_183:\n      pop\n      pop\n      pop\n      pop\n      pop\n      swap1\n      pop\n        /* \"DecentradFactory.sol\":12636:12822  function getCloneContractsOfAdvertiser(address _advAddress)... */\n      swap2\n      swap1\n      pop\n      jump\t// out\n        /* \"DecentradFactory.sol\":11126:12134  function removePubContractOfModerator(... */\n    tag_82:\n      sub(shl(0xa0, 0x01), 0x01)\n        /* \"DecentradFactory.sol\":11288:11313  _modAddress != address(0) */\n      dup4\n      and\n        /* \"DecentradFactory.sol\":11280:11343  require(_modAddress != address(0), \"invalid moderator address\") */\n      tag_186\n      jumpi\n      mload(0x40)\n      shl(0xe5, 0x461bcd)\n      dup2\n      mstore\n        /* \"#utility.yul\":11442:11444   */\n      0x20\n        /* \"DecentradFactory.sol\":11280:11343  require(_modAddress != address(0), \"invalid moderator address\") */\n      0x04\n      dup3\n      add\n        /* \"#utility.yul\":11424:11445   */\n      mstore\n        /* \"#utility.yul\":11481:11483   */\n      0x19\n        /* \"#utility.yul\":11461:11479   */\n      0x24\n      dup3\n      add\n        /* \"#utility.yul\":11454:11484   */\n      mstore\n      shl(0x38, 0x696e76616c6964206d6f64657261746f722061646472657373)\n        /* \"#utility.yul\":11500:11518   */\n      0x44\n      dup3\n      add\n        /* \"#utility.yul\":11493:11548   */\n      mstore\n        /* \"#utility.yul\":11565:11583   */\n      0x64\n      add\n        /* \"DecentradFactory.sol\":11280:11343  require(_modAddress != address(0), \"invalid moderator address\") */\n      tag_143\n        /* \"#utility.yul\":11240:11589   */\n      jump\n        /* \"DecentradFactory.sol\":11280:11343  require(_modAddress != address(0), \"invalid moderator address\") */\n    tag_186:\n      sub(shl(0xa0, 0x01), 0x01)\n        /* \"DecentradFactory.sol\":11361:11391  _contractAddress != address(0) */\n      dup3\n      and\n        /* \"DecentradFactory.sol\":11353:11419  require(_contractAddress != address(0), \"invalid contractAddress\") */\n      tag_189\n      jumpi\n      mload(0x40)\n      shl(0xe5, 0x461bcd)\n      dup2\n      mstore\n      0x04\n      add\n      tag_143\n      swap1\n      tag_191\n      jump\t// in\n    tag_189:\n      sub(shl(0xa0, 0x01), 0x01)\n        /* \"DecentradFactory.sol\":11437:11461  _publisher != address(0) */\n      dup2\n      and\n        /* \"DecentradFactory.sol\":11429:11491  require(_publisher != address(0), \"invalid publisher address\") */\n      tag_192\n      jumpi\n      mload(0x40)\n      shl(0xe5, 0x461bcd)\n      dup2\n      mstore\n      0x04\n      add\n      tag_143\n      swap1\n      tag_194\n      jump\t// in\n    tag_192:\n        /* \"DecentradFactory.sol\":11501:11552  _checkIfCallerIsClone(_contractAddress, _publisher) */\n      tag_195\n        /* \"DecentradFactory.sol\":11523:11539  _contractAddress */\n      dup3\n        /* \"DecentradFactory.sol\":11541:11551  _publisher */\n      dup3\n        /* \"DecentradFactory.sol\":11501:11522  _checkIfCallerIsClone */\n      tag_196\n        /* \"DecentradFactory.sol\":11501:11552  _checkIfCallerIsClone(_contractAddress, _publisher) */\n      jump\t// in\n    tag_195:\n      sub(shl(0xa0, 0x01), 0x01)\n        /* \"DecentradFactory.sol\":11680:11712  _moderatorContracts[_modAddress] */\n      dup4\n      and\n      0x00\n      swap1\n      dup2\n      mstore\n        /* \"DecentradFactory.sol\":11680:11699  _moderatorContracts */\n      0x07\n        /* \"DecentradFactory.sol\":11680:11712  _moderatorContracts[_modAddress] */\n      0x20\n      mstore\n      0x40\n      swap1\n      keccak256\n        /* \"DecentradFactory.sol\":11726:11765  _moderatorContracts[_modAddress].length */\n      dup1\n      sload\n        /* \"DecentradFactory.sol\":11726:11769  _moderatorContracts[_modAddress].length - 1 */\n      tag_197\n      swap1\n        /* \"DecentradFactory.sol\":11768:11769  1 */\n      0x01\n      swap1\n        /* \"DecentradFactory.sol\":11726:11769  _moderatorContracts[_modAddress].length - 1 */\n      tag_165\n      jump\t// in\n    tag_197:\n        /* \"DecentradFactory.sol\":11680:11779  _moderatorContracts[_modAddress][... */\n      dup2\n      sload\n      dup2\n      lt\n      tag_199\n      jumpi\n      tag_199\n      tag_200\n      jump\t// in\n    tag_199:\n      0x00\n      swap2\n      dup3\n      mstore\n      0x20\n      dup1\n      dup4\n      keccak256\n      swap1\n      swap2\n      add\n      sload\n      sub(shl(0xa0, 0x01), 0x01)\n        /* \"DecentradFactory.sol\":11562:11594  _moderatorContracts[_modAddress] */\n      dup7\n      dup2\n      and\n      dup5\n      mstore\n        /* \"DecentradFactory.sol\":11562:11581  _moderatorContracts */\n      0x07\n        /* \"DecentradFactory.sol\":11562:11594  _moderatorContracts[_modAddress] */\n      dup4\n      mstore\n      0x40\n      dup1\n      dup6\n      keccak256\n        /* \"DecentradFactory.sol\":11608:11636  moderatorAccContractsPointer */\n      0x08\n        /* \"DecentradFactory.sol\":11608:11649  moderatorAccContractsPointer[_modAddress] */\n      dup6\n      mstore\n      dup2\n      dup7\n      keccak256\n        /* \"DecentradFactory.sol\":11608:11667  moderatorAccContractsPointer[_modAddress][_contractAddress] */\n      dup9\n      dup5\n      and\n      dup8\n      mstore\n      swap1\n      swap5\n      mstore\n      swap1\n      swap4\n      keccak256\n      sload\n        /* \"DecentradFactory.sol\":11562:11677  _moderatorContracts[_modAddress][... */\n      dup3\n      sload\n        /* \"DecentradFactory.sol\":11680:11779  _moderatorContracts[_modAddress][... */\n      swap4\n      swap1\n      swap2\n      and\n      swap3\n        /* \"DecentradFactory.sol\":11562:11677  _moderatorContracts[_modAddress][... */\n      dup2\n      lt\n      tag_203\n      jumpi\n      tag_203\n      tag_200\n      jump\t// in\n    tag_203:\n      0x00\n      swap2\n      dup3\n      mstore\n      0x20\n      dup1\n      dup4\n      keccak256\n      swap2\n      swap1\n      swap2\n      add\n        /* \"DecentradFactory.sol\":11562:11779  _moderatorContracts[_modAddress][... */\n      dup1\n      sload\n      not(sub(shl(0xa0, 0x01), 0x01))\n      and\n      sub(shl(0xa0, 0x01), 0x01)\n      swap5\n      dup6\n      and\n      or\n      swap1\n      sstore\n        /* \"DecentradFactory.sol\":11935:11976  moderatorAccContractsPointer[_modAddress] */\n      dup6\n      dup4\n      and\n      dup1\n      dup4\n      mstore\n        /* \"DecentradFactory.sol\":11935:11963  moderatorAccContractsPointer */\n      0x08\n        /* \"DecentradFactory.sol\":11935:11976  moderatorAccContractsPointer[_modAddress] */\n      dup3\n      mstore\n      0x40\n      dup1\n      dup5\n      keccak256\n        /* \"DecentradFactory.sol\":11935:11994  moderatorAccContractsPointer[_modAddress][_contractAddress] */\n      swap5\n      dup8\n      and\n      dup5\n      mstore\n      dup5\n      dup4\n      mstore\n      dup1\n      dup5\n      keccak256\n      sload\n        /* \"DecentradFactory.sol\":11790:11831  moderatorAccContractsPointer[_modAddress] */\n      swap2\n      dup5\n      mstore\n        /* \"DecentradFactory.sol\":11832:11851  _moderatorContracts */\n      0x07\n        /* \"DecentradFactory.sol\":11832:11864  _moderatorContracts[_modAddress] */\n      swap1\n      swap3\n      mstore\n      swap1\n      dup3\n      keccak256\n        /* \"DecentradFactory.sol\":11878:11917  _moderatorContracts[_modAddress].length */\n      dup1\n      sload\n        /* \"DecentradFactory.sol\":11935:11994  moderatorAccContractsPointer[_modAddress][_contractAddress] */\n      swap2\n      swap4\n        /* \"DecentradFactory.sol\":11935:11976  moderatorAccContractsPointer[_modAddress] */\n      swap3\n        /* \"DecentradFactory.sol\":11562:11677  _moderatorContracts[_modAddress][... */\n      swap2\n        /* \"DecentradFactory.sol\":11878:11921  _moderatorContracts[_modAddress].length - 1 */\n      tag_205\n      swap1\n      0x01\n      swap1\n      tag_165\n      jump\t// in\n    tag_205:\n        /* \"DecentradFactory.sol\":11832:11931  _moderatorContracts[_modAddress][... */\n      dup2\n      sload\n      dup2\n      lt\n      tag_207\n      jumpi\n      tag_207\n      tag_200\n      jump\t// in\n    tag_207:\n      0x00\n      swap2\n      dup3\n      mstore\n      0x20\n      dup1\n      dup4\n      keccak256\n      swap1\n      swap2\n      add\n      sload\n      sub(shl(0xa0, 0x01), 0x01)\n      swap1\n      dup2\n      and\n        /* \"DecentradFactory.sol\":11790:11932  moderatorAccContractsPointer[_modAddress][_moderatorContracts[_modAddress][... */\n      dup5\n      mstore\n      dup4\n      dup3\n      add\n      swap5\n      swap1\n      swap5\n      mstore\n      0x40\n      swap3\n      dup4\n      add\n      dup3\n      keccak256\n        /* \"DecentradFactory.sol\":11790:11994  moderatorAccContractsPointer[_modAddress][_moderatorContracts[_modAddress][... */\n      swap5\n      swap1\n      swap5\n      sstore\n        /* \"DecentradFactory.sol\":12013:12045  _moderatorContracts[_modAddress] */\n      swap2\n      dup7\n      and\n      dup3\n      mstore\n        /* \"DecentradFactory.sol\":12013:12032  _moderatorContracts */\n      0x07\n        /* \"DecentradFactory.sol\":12013:12045  _moderatorContracts[_modAddress] */\n      swap1\n      swap3\n      mstore\n      keccak256\n        /* \"DecentradFactory.sol\":12013:12051  _moderatorContracts[_modAddress].pop() */\n      dup1\n      sload\n      dup1\n      tag_210\n      jumpi\n      tag_210\n      tag_211\n      jump\t// in\n    tag_210:\n      0x00\n      dup3\n      dup2\n      mstore\n      0x20\n      dup1\n      dup3\n      keccak256\n      dup4\n      add\n      not(0x00)\n      swap1\n      dup2\n      add\n      dup1\n      sload\n      not(sub(shl(0xa0, 0x01), 0x01))\n      and\n      swap1\n      sstore\n      swap1\n      swap3\n      add\n      swap1\n      swap3\n      sstore\n      sub(shl(0xa0, 0x01), 0x01)\n        /* \"DecentradFactory.sol\":12061:12101  isAddedToModeratorContracts[_modAddress] */\n      swap5\n      dup6\n      and\n      dup3\n      mstore\n        /* \"DecentradFactory.sol\":12061:12088  isAddedToModeratorContracts */\n      0x09\n        /* \"DecentradFactory.sol\":12061:12101  isAddedToModeratorContracts[_modAddress] */\n      dup2\n      mstore\n      0x40\n      dup1\n      dup4\n      keccak256\n        /* \"DecentradFactory.sol\":12061:12119  isAddedToModeratorContracts[_modAddress][_contractAddress] */\n      swap5\n      swap1\n      swap6\n      and\n      dup3\n      mstore\n      swap3\n      swap1\n      swap3\n      mstore\n      pop\n      keccak256\n        /* \"DecentradFactory.sol\":12061:12127  isAddedToModeratorContracts[_modAddress][_contractAddress] = false */\n      dup1\n      sload\n      not(0xff)\n      and\n      swap1\n      sstore\n        /* \"DecentradFactory.sol\":11126:12134  function removePubContractOfModerator(... */\n      jump\t// out\n        /* \"DecentradFactory.sol\":6317:6503  function setPlatformFeeAddress(address _feeAddress) external onlyOwner {... */\n    tag_88:\n        /* \"@openzeppelin/contracts/access/Ownable.sol\":1531:1544  _checkOwner() */\n      tag_215\n        /* \"@openzeppelin/contracts/access/Ownable.sol\":1531:1542  _checkOwner */\n      tag_140\n        /* \"@openzeppelin/contracts/access/Ownable.sol\":1531:1544  _checkOwner() */\n      jump\t// in\n    tag_215:\n      sub(shl(0xa0, 0x01), 0x01)\n        /* \"DecentradFactory.sol\":6406:6431  _feeAddress != address(0) */\n      dup2\n      and\n        /* \"DecentradFactory.sol\":6398:6454  require(_feeAddress != address(0), \"invalid feeAddress\") */\n      tag_217\n      jumpi\n      mload(0x40)\n      shl(0xe5, 0x461bcd)\n      dup2\n      mstore\n        /* \"#utility.yul\":12766:12768   */\n      0x20\n        /* \"DecentradFactory.sol\":6398:6454  require(_feeAddress != address(0), \"invalid feeAddress\") */\n      0x04\n      dup3\n      add\n        /* \"#utility.yul\":12748:12769   */\n      mstore\n        /* \"#utility.yul\":12805:12807   */\n      0x12\n        /* \"#utility.yul\":12785:12803   */\n      0x24\n      dup3\n      add\n        /* \"#utility.yul\":12778:12808   */\n      mstore\n      shl(0x70, 0x696e76616c69642066656541646472657373)\n        /* \"#utility.yul\":12824:12842   */\n      0x44\n      dup3\n      add\n        /* \"#utility.yul\":12817:12865   */\n      mstore\n        /* \"#utility.yul\":12882:12900   */\n      0x64\n      add\n        /* \"DecentradFactory.sol\":6398:6454  require(_feeAddress != address(0), \"invalid feeAddress\") */\n      tag_143\n        /* \"#utility.yul\":12564:12906   */\n      jump\n        /* \"DecentradFactory.sol\":6398:6454  require(_feeAddress != address(0), \"invalid feeAddress\") */\n    tag_217:\n        /* \"DecentradFactory.sol\":6464:6482  platformFeeAddress */\n      0x03\n        /* \"DecentradFactory.sol\":6464:6496  platformFeeAddress = _feeAddress */\n      dup1\n      sload\n      not(sub(shl(0xa0, 0x01), 0x01))\n      and\n      sub(shl(0xa0, 0x01), 0x01)\n      swap3\n      swap1\n      swap3\n      and\n      swap2\n      swap1\n      swap2\n      or\n      swap1\n      sstore\n        /* \"DecentradFactory.sol\":6317:6503  function setPlatformFeeAddress(address _feeAddress) external onlyOwner {... */\n      jump\t// out\n        /* \"DecentradFactory.sol\":7158:7310  function getAllPublisherContracts()... */\n    tag_94:\n        /* \"DecentradFactory.sol\":7239:7262  PublisherClone[] memory */\n      0x60\n        /* \"DecentradFactory.sol\":7285:7303  allPublisherClones */\n      0x04\n        /* \"DecentradFactory.sol\":7278:7303  return allPublisherClones */\n      dup1\n      sload\n      dup1\n      0x20\n      mul\n      0x20\n      add\n      mload(0x40)\n      swap1\n      dup2\n      add\n      0x40\n      mstore\n      dup1\n      swap3\n      swap2\n      swap1\n      dup2\n      dup2\n      mstore\n      0x20\n      add\n      0x00\n      swap1\n    tag_222:\n      dup3\n      dup3\n      lt\n      iszero\n      tag_223\n      jumpi\n      dup4\n      dup3\n      swap1\n      0x00\n      mstore\n      keccak256(0x00, 0x20)\n      swap1\n      0x02\n      mul\n      add\n      mload(0x40)\n      dup1\n      0x40\n      add\n      0x40\n      mstore\n      swap1\n      dup2\n      0x00\n      dup3\n      add\n      dup1\n      sload\n      tag_225\n      swap1\n      tag_132\n      jump\t// in\n    tag_225:\n      dup1\n      0x1f\n      add\n      0x20\n      dup1\n      swap2\n      div\n      mul\n      0x20\n      add\n      mload(0x40)\n      swap1\n      dup2\n      add\n      0x40\n      mstore\n      dup1\n      swap3\n      swap2\n      swap1\n      dup2\n      dup2\n      mstore\n      0x20\n      add\n      dup3\n      dup1\n      sload\n      tag_226\n      swap1\n      tag_132\n      jump\t// in\n    tag_226:\n      dup1\n      iszero\n      tag_227\n      jumpi\n      dup1\n      0x1f\n      lt\n      tag_228\n      jumpi\n      0x0100\n      dup1\n      dup4\n      sload\n      div\n      mul\n      dup4\n      mstore\n      swap2\n      0x20\n      add\n      swap2\n      jump(tag_227)\n    tag_228:\n      dup3\n      add\n      swap2\n      swap1\n      0x00\n      mstore\n      keccak256(0x00, 0x20)\n      swap1\n    tag_229:\n      dup2\n      sload\n      dup2\n      mstore\n      swap1\n      0x01\n      add\n      swap1\n      0x20\n      add\n      dup1\n      dup4\n      gt\n      tag_229\n      jumpi\n      dup3\n      swap1\n      sub\n      0x1f\n      and\n      dup3\n      add\n      swap2\n    tag_227:\n      pop\n      pop\n      pop\n      swap2\n      dup4\n      mstore\n      pop\n      pop\n      0x01\n      swap2\n      dup3\n      add\n      sload\n      sub(shl(0xa0, 0x01), 0x01)\n      and\n      0x20\n      swap2\n      dup3\n      add\n      mstore\n      swap2\n      dup4\n      mstore\n      swap3\n      swap1\n      swap3\n      add\n      swap2\n      add\n      jump(tag_222)\n    tag_223:\n      pop\n      pop\n      pop\n      pop\n      swap1\n      pop\n        /* \"DecentradFactory.sol\":7158:7310  function getAllPublisherContracts()... */\n      swap1\n      jump\t// out\n        /* \"DecentradFactory.sol\":12293:12475  function getPubContractsOfModerator(address _modAddress)... */\n    tag_98:\n      sub(shl(0xa0, 0x01), 0x01)\n        /* \"DecentradFactory.sol\":12436:12468  _moderatorContracts[_modAddress] */\n      dup2\n      and\n      0x00\n      swap1\n      dup2\n      mstore\n        /* \"DecentradFactory.sol\":12436:12455  _moderatorContracts */\n      0x07\n        /* \"DecentradFactory.sol\":12436:12468  _moderatorContracts[_modAddress] */\n      0x20\n      swap1\n      dup2\n      mstore\n      0x40\n      swap2\n      dup3\n      swap1\n      keccak256\n        /* \"DecentradFactory.sol\":12429:12468  return _moderatorContracts[_modAddress] */\n      dup1\n      sload\n      dup4\n      mload\n      dup2\n      dup5\n      mul\n      dup2\n      add\n      dup5\n      add\n      swap1\n      swap5\n      mstore\n      dup1\n      dup5\n      mstore\n        /* \"DecentradFactory.sol\":12397:12413  address[] memory */\n      0x60\n      swap4\n        /* \"DecentradFactory.sol\":12429:12468  return _moderatorContracts[_modAddress] */\n      swap3\n      dup4\n      add\n        /* \"DecentradFactory.sol\":12436:12468  _moderatorContracts[_modAddress] */\n      dup3\n        /* \"DecentradFactory.sol\":12429:12468  return _moderatorContracts[_modAddress] */\n      dup3\n      dup1\n      iszero\n      tag_183\n      jumpi\n      0x20\n      mul\n      dup3\n      add\n      swap2\n      swap1\n      0x00\n      mstore\n      keccak256(0x00, 0x20)\n      swap1\n      dup2\n      sload\n      sub(shl(0xa0, 0x01), 0x01)\n      and\n      dup2\n      mstore\n      0x01\n      swap1\n      swap2\n      add\n      swap1\n      0x20\n      add\n      dup1\n      dup4\n      gt\n      tag_184\n      jumpi\n      pop\n      pop\n      pop\n      pop\n      pop\n      swap1\n      pop\n        /* \"DecentradFactory.sol\":12293:12475  function getPubContractsOfModerator(address _modAddress)... */\n      swap2\n      swap1\n      pop\n      jump\t// out\n        /* \"DecentradFactory.sol\":682:724  PublisherClone[] public allPublisherClones */\n    tag_103:\n      0x04\n      dup2\n      dup2\n      sload\n      dup2\n      lt\n      tag_233\n      jumpi\n      0x00\n      dup1\n      revert\n    tag_233:\n      swap1\n      0x00\n      mstore\n      keccak256(0x00, 0x20)\n      swap1\n      0x02\n      mul\n      add\n      0x00\n      swap2\n      pop\n      swap1\n      pop\n      dup1\n      0x00\n      add\n      dup1\n      sload\n      tag_131\n      swap1\n      tag_132\n      jump\t// in\n        /* \"DecentradFactory.sol\":9860:10670  function assignPubContractToModerator(... */\n    tag_107:\n      sub(shl(0xa0, 0x01), 0x01)\n        /* \"DecentradFactory.sol\":10022:10047  _modAddress != address(0) */\n      dup4\n      and\n        /* \"DecentradFactory.sol\":10014:10077  require(_modAddress != address(0), \"invalid moderator address\") */\n      tag_241\n      jumpi\n      mload(0x40)\n      shl(0xe5, 0x461bcd)\n      dup2\n      mstore\n        /* \"#utility.yul\":11442:11444   */\n      0x20\n        /* \"DecentradFactory.sol\":10014:10077  require(_modAddress != address(0), \"invalid moderator address\") */\n      0x04\n      dup3\n      add\n        /* \"#utility.yul\":11424:11445   */\n      mstore\n        /* \"#utility.yul\":11481:11483   */\n      0x19\n        /* \"#utility.yul\":11461:11479   */\n      0x24\n      dup3\n      add\n        /* \"#utility.yul\":11454:11484   */\n      mstore\n      shl(0x38, 0x696e76616c6964206d6f64657261746f722061646472657373)\n        /* \"#utility.yul\":11500:11518   */\n      0x44\n      dup3\n      add\n        /* \"#utility.yul\":11493:11548   */\n      mstore\n        /* \"#utility.yul\":11565:11583   */\n      0x64\n      add\n        /* \"DecentradFactory.sol\":10014:10077  require(_modAddress != address(0), \"invalid moderator address\") */\n      tag_143\n        /* \"#utility.yul\":11240:11589   */\n      jump\n        /* \"DecentradFactory.sol\":10014:10077  require(_modAddress != address(0), \"invalid moderator address\") */\n    tag_241:\n      sub(shl(0xa0, 0x01), 0x01)\n        /* \"DecentradFactory.sol\":10095:10125  _contractAddress != address(0) */\n      dup3\n      and\n        /* \"DecentradFactory.sol\":10087:10153  require(_contractAddress != address(0), \"invalid contractAddress\") */\n      tag_243\n      jumpi\n      mload(0x40)\n      shl(0xe5, 0x461bcd)\n      dup2\n      mstore\n      0x04\n      add\n      tag_143\n      swap1\n      tag_191\n      jump\t// in\n    tag_243:\n      sub(shl(0xa0, 0x01), 0x01)\n        /* \"DecentradFactory.sol\":10171:10195  _publisher != address(0) */\n      dup2\n      and\n        /* \"DecentradFactory.sol\":10163:10225  require(_publisher != address(0), \"invalid publisher address\") */\n      tag_245\n      jumpi\n      mload(0x40)\n      shl(0xe5, 0x461bcd)\n      dup2\n      mstore\n      0x04\n      add\n      tag_143\n      swap1\n      tag_194\n      jump\t// in\n    tag_245:\n        /* \"DecentradFactory.sol\":10244:10295  _checkIfCallerIsClone(_contractAddress, _publisher) */\n      tag_247\n        /* \"DecentradFactory.sol\":10266:10282  _contractAddress */\n      dup3\n        /* \"DecentradFactory.sol\":10284:10294  _publisher */\n      dup3\n        /* \"DecentradFactory.sol\":10244:10265  _checkIfCallerIsClone */\n      tag_196\n        /* \"DecentradFactory.sol\":10244:10295  _checkIfCallerIsClone(_contractAddress, _publisher) */\n      jump\t// in\n    tag_247:\n      sub(shl(0xa0, 0x01), 0x01)\n        /* \"DecentradFactory.sol\":10310:10350  isAddedToModeratorContracts[_modAddress] */\n      dup1\n      dup5\n      and\n      0x00\n      swap1\n      dup2\n      mstore\n        /* \"DecentradFactory.sol\":10310:10337  isAddedToModeratorContracts */\n      0x09\n        /* \"DecentradFactory.sol\":10310:10350  isAddedToModeratorContracts[_modAddress] */\n      0x20\n      swap1\n      dup2\n      mstore\n      0x40\n      dup1\n      dup4\n      keccak256\n        /* \"DecentradFactory.sol\":10310:10368  isAddedToModeratorContracts[_modAddress][_contractAddress] */\n      swap4\n      dup7\n      and\n      dup4\n      mstore\n      swap3\n      swap1\n      mstore\n      keccak256\n      sload\n      0xff\n      and\n        /* \"DecentradFactory.sol\":10305:10664  if (!isAddedToModeratorContracts[_modAddress][_contractAddress]) {... */\n      tag_248\n      jumpi\n      sub(shl(0xa0, 0x01), 0x01)\n        /* \"DecentradFactory.sol\":10384:10416  _moderatorContracts[_modAddress] */\n      dup4\n      dup2\n      and\n      0x00\n      dup2\n      dup2\n      mstore\n        /* \"DecentradFactory.sol\":10384:10403  _moderatorContracts */\n      0x07\n        /* \"DecentradFactory.sol\":10384:10416  _moderatorContracts[_modAddress] */\n      0x20\n      swap1\n      dup2\n      mstore\n      0x40\n      dup3\n      keccak256\n        /* \"DecentradFactory.sol\":10384:10439  _moderatorContracts[_modAddress].push(_contractAddress) */\n      dup1\n      sload\n      0x01\n      dup1\n      dup3\n      add\n      dup4\n      sstore\n      dup3\n      dup6\n      mstore\n      swap3\n      dup5\n      keccak256\n      add\n      dup1\n      sload\n      not(sub(shl(0xa0, 0x01), 0x01))\n      and\n      swap6\n      dup9\n      and\n      swap6\n      swap1\n      swap6\n      or\n      swap1\n      swap5\n      sstore\n        /* \"DecentradFactory.sol\":10531:10563  _moderatorContracts[_modAddress] */\n      swap2\n      swap1\n      mstore\n        /* \"DecentradFactory.sol\":10531:10570  _moderatorContracts[_modAddress].length */\n      swap1\n      sload\n        /* \"DecentradFactory.sol\":10531:10574  _moderatorContracts[_modAddress].length - 1 */\n      tag_250\n      swap2\n        /* \"DecentradFactory.sol\":10384:10439  _moderatorContracts[_modAddress].push(_contractAddress) */\n      swap1\n        /* \"DecentradFactory.sol\":10531:10574  _moderatorContracts[_modAddress].length - 1 */\n      tag_165\n      jump\t// in\n    tag_250:\n      sub(shl(0xa0, 0x01), 0x01)\n        /* \"DecentradFactory.sol\":10453:10494  moderatorAccContractsPointer[_modAddress] */\n      dup1\n      dup6\n      and\n      0x00\n      dup2\n      dup2\n      mstore\n        /* \"DecentradFactory.sol\":10453:10481  moderatorAccContractsPointer */\n      0x08\n        /* \"DecentradFactory.sol\":10453:10494  moderatorAccContractsPointer[_modAddress] */\n      0x20\n      swap1\n      dup2\n      mstore\n      0x40\n      dup1\n      dup4\n      keccak256\n        /* \"DecentradFactory.sol\":10453:10512  moderatorAccContractsPointer[_modAddress][_contractAddress] */\n      swap5\n      dup9\n      and\n      dup1\n      dup5\n      mstore\n      swap5\n      dup3\n      mstore\n      dup1\n      dup4\n      keccak256\n        /* \"DecentradFactory.sol\":10453:10574  moderatorAccContractsPointer[_modAddress][_contractAddress] =... */\n      swap6\n      swap1\n      swap6\n      sstore\n        /* \"DecentradFactory.sol\":10588:10628  isAddedToModeratorContracts[_modAddress] */\n      swap2\n      dup2\n      mstore\n        /* \"DecentradFactory.sol\":10588:10615  isAddedToModeratorContracts */\n      0x09\n        /* \"DecentradFactory.sol\":10588:10628  isAddedToModeratorContracts[_modAddress] */\n      dup3\n      mstore\n      dup4\n      dup2\n      keccak256\n        /* \"DecentradFactory.sol\":10588:10646  isAddedToModeratorContracts[_modAddress][_contractAddress] */\n      swap3\n      dup2\n      mstore\n      swap2\n      swap1\n      mstore\n      keccak256\n        /* \"DecentradFactory.sol\":10588:10653  isAddedToModeratorContracts[_modAddress][_contractAddress] = true */\n      dup1\n      sload\n      not(0xff)\n      and\n        /* \"DecentradFactory.sol\":10649:10653  true */\n      0x01\n        /* \"DecentradFactory.sol\":10588:10653  isAddedToModeratorContracts[_modAddress][_contractAddress] = true */\n      or\n      swap1\n      sstore\n        /* \"DecentradFactory.sol\":10305:10664  if (!isAddedToModeratorContracts[_modAddress][_contractAddress]) {... */\n    tag_248:\n        /* \"DecentradFactory.sol\":9860:10670  function assignPubContractToModerator(... */\n      pop\n      pop\n      pop\n      jump\t// out\n        /* \"DecentradFactory.sol\":5940:6095  function setPlatforFeesPercentInBPS(uint256 _percentInBPS)... */\n    tag_110:\n        /* \"@openzeppelin/contracts/access/Ownable.sol\":1531:1544  _checkOwner() */\n      tag_252\n        /* \"@openzeppelin/contracts/access/Ownable.sol\":1531:1542  _checkOwner */\n      tag_140\n        /* \"@openzeppelin/contracts/access/Ownable.sol\":1531:1544  _checkOwner() */\n      jump\t// in\n    tag_252:\n        /* \"DecentradFactory.sol\":6048:6072  platformFeesPercentInBPS */\n      0x02\n        /* \"DecentradFactory.sol\":6048:6088  platformFeesPercentInBPS = _percentInBPS */\n      sstore\n        /* \"DecentradFactory.sol\":5940:6095  function setPlatforFeesPercentInBPS(uint256 _percentInBPS)... */\n      jump\t// out\n        /* \"DecentradFactory.sol\":6735:6992  function getClone(address _pubWalletAddress, address _cloneAddress)... */\n    tag_113:\n      0x40\n      dup1\n      mload\n      dup1\n      dup3\n      add\n      swap1\n      swap2\n      mstore\n      0x60\n      dup2\n      mstore\n      0x00\n      0x20\n      dup3\n      add\n      mstore\n      sub(shl(0xa0, 0x01), 0x01)\n        /* \"DecentradFactory.sol\":6901:6927  _cloneIndex[_cloneAddress] */\n      dup1\n      dup4\n      and\n        /* \"DecentradFactory.sol\":6885:6898  uint256 index */\n      0x00\n        /* \"DecentradFactory.sol\":6901:6927  _cloneIndex[_cloneAddress] */\n      swap1\n      dup2\n      mstore\n        /* \"DecentradFactory.sol\":6901:6912  _cloneIndex */\n      0x05\n        /* \"DecentradFactory.sol\":6901:6927  _cloneIndex[_cloneAddress] */\n      0x20\n      swap1\n      dup2\n      mstore\n      0x40\n      dup1\n      dup4\n      keccak256\n      sload\n        /* \"DecentradFactory.sol\":6944:6978  publisherClones[_pubWalletAddress] */\n      swap4\n      dup8\n      and\n      dup4\n      mstore\n        /* \"DecentradFactory.sol\":6944:6959  publisherClones */\n      0x06\n        /* \"DecentradFactory.sol\":6944:6978  publisherClones[_pubWalletAddress] */\n      swap1\n      swap2\n      mstore\n      swap1\n      keccak256\n        /* \"DecentradFactory.sol\":6944:6985  publisherClones[_pubWalletAddress][index] */\n      dup1\n      sload\n        /* \"DecentradFactory.sol\":6901:6927  _cloneIndex[_cloneAddress] */\n      dup3\n      swap1\n        /* \"DecentradFactory.sol\":6944:6985  publisherClones[_pubWalletAddress][index] */\n      dup2\n      lt\n      tag_258\n      jumpi\n      tag_258\n      tag_200\n      jump\t// in\n    tag_258:\n      swap1\n      0x00\n      mstore\n      keccak256(0x00, 0x20)\n      swap1\n      0x02\n      mul\n      add\n        /* \"DecentradFactory.sol\":6937:6985  return publisherClones[_pubWalletAddress][index] */\n      mload(0x40)\n      dup1\n      0x40\n      add\n      0x40\n      mstore\n      swap1\n      dup2\n      0x00\n      dup3\n      add\n      dup1\n      sload\n      tag_260\n      swap1\n      tag_132\n      jump\t// in\n    tag_260:\n      dup1\n      0x1f\n      add\n      0x20\n      dup1\n      swap2\n      div\n      mul\n      0x20\n      add\n      mload(0x40)\n      swap1\n      dup2\n      add\n      0x40\n      mstore\n      dup1\n      swap3\n      swap2\n      swap1\n      dup2\n      dup2\n      mstore\n      0x20\n      add\n      dup3\n      dup1\n      sload\n      tag_261\n      swap1\n      tag_132\n      jump\t// in\n    tag_261:\n      dup1\n      iszero\n      tag_262\n      jumpi\n      dup1\n      0x1f\n      lt\n      tag_263\n      jumpi\n      0x0100\n      dup1\n      dup4\n      sload\n      div\n      mul\n      dup4\n      mstore\n      swap2\n      0x20\n      add\n      swap2\n      jump(tag_262)\n    tag_263:\n      dup3\n      add\n      swap2\n      swap1\n      0x00\n      mstore\n      keccak256(0x00, 0x20)\n      swap1\n    tag_264:\n      dup2\n      sload\n      dup2\n      mstore\n      swap1\n      0x01\n      add\n      swap1\n      0x20\n      add\n      dup1\n      dup4\n      gt\n      tag_264\n      jumpi\n      dup3\n      swap1\n      sub\n      0x1f\n      and\n      dup3\n      add\n      swap2\n    tag_262:\n      pop\n      pop\n      pop\n      swap2\n      dup4\n      mstore\n      pop\n      pop\n      0x01\n      swap2\n      swap1\n      swap2\n      add\n      sload\n      sub(shl(0xa0, 0x01), 0x01)\n      and\n      0x20\n      swap1\n      swap2\n      add\n      mstore\n      swap2\n      pop\n      pop\n        /* \"DecentradFactory.sol\":6735:6992  function getClone(address _pubWalletAddress, address _cloneAddress)... */\n    tag_256:\n      swap3\n      swap2\n      pop\n      pop\n      jump\t// out\n        /* \"@openzeppelin/contracts/access/Ownable.sol\":2543:2758  function transferOwnership(address newOwner) public virtual onlyOwner {... */\n    tag_125:\n        /* \"@openzeppelin/contracts/access/Ownable.sol\":1531:1544  _checkOwner() */\n      tag_266\n        /* \"@openzeppelin/contracts/access/Ownable.sol\":1531:1542  _checkOwner */\n      tag_140\n        /* \"@openzeppelin/contracts/access/Ownable.sol\":1531:1544  _checkOwner() */\n      jump\t// in\n    tag_266:\n      sub(shl(0xa0, 0x01), 0x01)\n        /* \"@openzeppelin/contracts/access/Ownable.sol\":2627:2649  newOwner == address(0) */\n      dup2\n      and\n        /* \"@openzeppelin/contracts/access/Ownable.sol\":2623:2714  if (newOwner == address(0)) {... */\n      tag_268\n      jumpi\n        /* \"@openzeppelin/contracts/access/Ownable.sol\":2672:2703  OwnableInvalidOwner(address(0)) */\n      mload(0x40)\n      shl(0xe0, 0x1e4fbdf7)\n      dup2\n      mstore\n        /* \"@openzeppelin/contracts/access/Ownable.sol\":2700:2701  0 */\n      0x00\n        /* \"@openzeppelin/contracts/access/Ownable.sol\":2672:2703  OwnableInvalidOwner(address(0)) */\n      0x04\n      dup3\n      add\n        /* \"#utility.yul\":3569:3620   */\n      mstore\n        /* \"#utility.yul\":3542:3560   */\n      0x24\n      add\n        /* \"@openzeppelin/contracts/access/Ownable.sol\":2672:2703  OwnableInvalidOwner(address(0)) */\n      tag_143\n        /* \"#utility.yul\":3423:3626   */\n      jump\n        /* \"@openzeppelin/contracts/access/Ownable.sol\":2623:2714  if (newOwner == address(0)) {... */\n    tag_268:\n        /* \"@openzeppelin/contracts/access/Ownable.sol\":2723:2751  _transferOwnership(newOwner) */\n      tag_270\n        /* \"@openzeppelin/contracts/access/Ownable.sol\":2742:2750  newOwner */\n      dup2\n        /* \"@openzeppelin/contracts/access/Ownable.sol\":2723:2741  _transferOwnership */\n      tag_181\n        /* \"@openzeppelin/contracts/access/Ownable.sol\":2723:2751  _transferOwnership(newOwner) */\n      jump\t// in\n    tag_270:\n        /* \"@openzeppelin/contracts/access/Ownable.sol\":2543:2758  function transferOwnership(address newOwner) public virtual onlyOwner {... */\n      pop\n      jump\t// out\n        /* \"DecentradFactory.sol\":8741:9409  function assignContractToAdvertiser(... */\n    tag_128:\n      sub(shl(0xa0, 0x01), 0x01)\n        /* \"DecentradFactory.sol\":8901:8926  _advAddress != address(0) */\n      dup4\n      and\n        /* \"DecentradFactory.sol\":8893:8957  require(_advAddress != address(0), \"invalid advertiser address\") */\n      tag_272\n      jumpi\n      mload(0x40)\n      shl(0xe5, 0x461bcd)\n      dup2\n      mstore\n        /* \"#utility.yul\":13113:13115   */\n      0x20\n        /* \"DecentradFactory.sol\":8893:8957  require(_advAddress != address(0), \"invalid advertiser address\") */\n      0x04\n      dup3\n      add\n        /* \"#utility.yul\":13095:13116   */\n      mstore\n        /* \"#utility.yul\":13152:13154   */\n      0x1a\n        /* \"#utility.yul\":13132:13150   */\n      0x24\n      dup3\n      add\n        /* \"#utility.yul\":13125:13155   */\n      mstore\n        /* \"#utility.yul\":13191:13219   */\n      0x696e76616c696420616476657274697365722061646472657373000000000000\n        /* \"#utility.yul\":13171:13189   */\n      0x44\n      dup3\n      add\n        /* \"#utility.yul\":13164:13220   */\n      mstore\n        /* \"#utility.yul\":13237:13255   */\n      0x64\n      add\n        /* \"DecentradFactory.sol\":8893:8957  require(_advAddress != address(0), \"invalid advertiser address\") */\n      tag_143\n        /* \"#utility.yul\":12911:13261   */\n      jump\n        /* \"DecentradFactory.sol\":8893:8957  require(_advAddress != address(0), \"invalid advertiser address\") */\n    tag_272:\n      sub(shl(0xa0, 0x01), 0x01)\n        /* \"DecentradFactory.sol\":8975:9005  _contractAddress != address(0) */\n      dup3\n      and\n        /* \"DecentradFactory.sol\":8967:9033  require(_contractAddress != address(0), \"invalid contractAddress\") */\n      tag_275\n      jumpi\n      mload(0x40)\n      shl(0xe5, 0x461bcd)\n      dup2\n      mstore\n      0x04\n      add\n      tag_143\n      swap1\n      tag_191\n      jump\t// in\n    tag_275:\n      sub(shl(0xa0, 0x01), 0x01)\n        /* \"DecentradFactory.sol\":9051:9075  _publisher != address(0) */\n      dup2\n      and\n        /* \"DecentradFactory.sol\":9043:9105  require(_publisher != address(0), \"invalid publisher address\") */\n      tag_277\n      jumpi\n      mload(0x40)\n      shl(0xe5, 0x461bcd)\n      dup2\n      mstore\n      0x04\n      add\n      tag_143\n      swap1\n      tag_194\n      jump\t// in\n    tag_277:\n        /* \"DecentradFactory.sol\":9115:9166  _checkIfCallerIsClone(_contractAddress, _publisher) */\n      tag_279\n        /* \"DecentradFactory.sol\":9137:9153  _contractAddress */\n      dup3\n        /* \"DecentradFactory.sol\":9155:9165  _publisher */\n      dup3\n        /* \"DecentradFactory.sol\":9115:9136  _checkIfCallerIsClone */\n      tag_196\n        /* \"DecentradFactory.sol\":9115:9166  _checkIfCallerIsClone(_contractAddress, _publisher) */\n      jump\t// in\n    tag_279:\n      sub(shl(0xa0, 0x01), 0x01)\n        /* \"DecentradFactory.sol\":9181:9222  isAddedToAdvertiserContracts[_advAddress] */\n      dup1\n      dup5\n      and\n      0x00\n      swap1\n      dup2\n      mstore\n        /* \"DecentradFactory.sol\":9181:9209  isAddedToAdvertiserContracts */\n      0x0b\n        /* \"DecentradFactory.sol\":9181:9222  isAddedToAdvertiserContracts[_advAddress] */\n      0x20\n      swap1\n      dup2\n      mstore\n      0x40\n      dup1\n      dup4\n      keccak256\n        /* \"DecentradFactory.sol\":9181:9240  isAddedToAdvertiserContracts[_advAddress][_contractAddress] */\n      swap4\n      dup7\n      and\n      dup4\n      mstore\n      swap3\n      swap1\n      mstore\n      keccak256\n      sload\n      0xff\n      and\n        /* \"DecentradFactory.sol\":9176:9403  if (!isAddedToAdvertiserContracts[_advAddress][_contractAddress]) {... */\n      tag_248\n      jumpi\n      sub(shl(0xa0, 0x01), 0x01)\n        /* \"DecentradFactory.sol\":9256:9297  isAddedToAdvertiserContracts[_advAddress] */\n      dup1\n      dup5\n      and\n      0x00\n      dup2\n      dup2\n      mstore\n        /* \"DecentradFactory.sol\":9256:9284  isAddedToAdvertiserContracts */\n      0x0b\n        /* \"DecentradFactory.sol\":9256:9297  isAddedToAdvertiserContracts[_advAddress] */\n      0x20\n      swap1\n      dup2\n      mstore\n      0x40\n      dup1\n      dup4\n      keccak256\n        /* \"DecentradFactory.sol\":9256:9315  isAddedToAdvertiserContracts[_advAddress][_contractAddress] */\n      swap5\n      dup8\n      and\n      dup1\n      dup5\n      mstore\n      swap5\n      dup3\n      mstore\n      dup1\n      dup4\n      keccak256\n        /* \"DecentradFactory.sol\":9256:9322  isAddedToAdvertiserContracts[_advAddress][_contractAddress] = true */\n      dup1\n      sload\n      not(0xff)\n      and\n        /* \"DecentradFactory.sol\":9318:9322  true */\n      0x01\n        /* \"DecentradFactory.sol\":9256:9322  isAddedToAdvertiserContracts[_advAddress][_contractAddress] = true */\n      swap1\n      dup2\n      or\n      swap1\n      swap2\n      sstore\n        /* \"DecentradFactory.sol\":9336:9369  _advertiserContracts[_advAddress] */\n      swap4\n      dup4\n      mstore\n        /* \"DecentradFactory.sol\":9336:9356  _advertiserContracts */\n      0x0a\n        /* \"DecentradFactory.sol\":9336:9369  _advertiserContracts[_advAddress] */\n      dup3\n      mstore\n      dup3\n      keccak256\n        /* \"DecentradFactory.sol\":9336:9392  _advertiserContracts[_advAddress].push(_contractAddress) */\n      dup1\n      sload\n      swap4\n      dup5\n      add\n      dup2\n      sstore\n      dup3\n      mstore\n      swap1\n      keccak256\n      add\n      dup1\n      sload\n      not(sub(shl(0xa0, 0x01), 0x01))\n      and\n      swap1\n      swap2\n      or\n      swap1\n      sstore\n        /* \"DecentradFactory.sol\":8741:9409  function assignContractToAdvertiser(... */\n      pop\n      pop\n      pop\n      jump\t// out\n        /* \"@openzeppelin/contracts/access/Ownable.sol\":1796:1958  function _checkOwner() internal view virtual {... */\n    tag_140:\n        /* \"@openzeppelin/contracts/access/Ownable.sol\":1684:1691  address */\n      0x00\n        /* \"@openzeppelin/contracts/access/Ownable.sol\":1710:1716  _owner */\n      sload\n      sub(shl(0xa0, 0x01), 0x01)\n      and\n        /* \"@openzeppelin/contracts/utils/Context.sol\":735:745  msg.sender */\n      caller\n        /* \"@openzeppelin/contracts/access/Ownable.sol\":1855:1878  owner() != _msgSender() */\n      eq\n        /* \"@openzeppelin/contracts/access/Ownable.sol\":1851:1952  if (owner() != _msgSender()) {... */\n      tag_180\n      jumpi\n        /* \"@openzeppelin/contracts/access/Ownable.sol\":1901:1941  OwnableUnauthorizedAccount(_msgSender()) */\n      mload(0x40)\n      shl(0xe0, 0x118cdaa7)\n      dup2\n      mstore\n        /* \"@openzeppelin/contracts/utils/Context.sol\":735:745  msg.sender */\n      caller\n        /* \"@openzeppelin/contracts/access/Ownable.sol\":1901:1941  OwnableUnauthorizedAccount(_msgSender()) */\n      0x04\n      dup3\n      add\n        /* \"#utility.yul\":3569:3620   */\n      mstore\n        /* \"#utility.yul\":3542:3560   */\n      0x24\n      add\n        /* \"@openzeppelin/contracts/access/Ownable.sol\":1901:1941  OwnableUnauthorizedAccount(_msgSender()) */\n      tag_143\n        /* \"#utility.yul\":3423:3626   */\n      jump\n        /* \"@openzeppelin/contracts/proxy/Clones.sol\":2789:2958  function cloneDeterministic(address implementation, bytes32 salt) internal returns (address instance) {... */\n    tag_155:\n        /* \"@openzeppelin/contracts/proxy/Clones.sol\":2873:2889  address instance */\n      0x00\n        /* \"@openzeppelin/contracts/proxy/Clones.sol\":2908:2951  cloneDeterministic(implementation, salt, 0) */\n      tag_290\n        /* \"@openzeppelin/contracts/proxy/Clones.sol\":2927:2941  implementation */\n      dup4\n        /* \"@openzeppelin/contracts/proxy/Clones.sol\":2943:2947  salt */\n      dup4\n        /* \"@openzeppelin/contracts/proxy/Clones.sol\":2949:2950  0 */\n      0x00\n        /* \"@openzeppelin/contracts/proxy/Clones.sol\":2908:2926  cloneDeterministic */\n      tag_291\n        /* \"@openzeppelin/contracts/proxy/Clones.sol\":2908:2951  cloneDeterministic(implementation, salt, 0) */\n      jump\t// in\n    tag_290:\n        /* \"@openzeppelin/contracts/proxy/Clones.sol\":2901:2951  return cloneDeterministic(implementation, salt, 0) */\n      swap4\n        /* \"@openzeppelin/contracts/proxy/Clones.sol\":2789:2958  function cloneDeterministic(address implementation, bytes32 salt) internal returns (address instance) {... */\n      swap3\n      pop\n      pop\n      pop\n      jump\t// out\n        /* \"@openzeppelin/contracts/access/Ownable.sol\":2912:3099  function _transferOwnership(address newOwner) internal virtual {... */\n    tag_181:\n        /* \"@openzeppelin/contracts/access/Ownable.sol\":2985:3001  address oldOwner */\n      0x00\n        /* \"@openzeppelin/contracts/access/Ownable.sol\":3004:3010  _owner */\n      dup1\n      sload\n      sub(shl(0xa0, 0x01), 0x01)\n        /* \"@openzeppelin/contracts/access/Ownable.sol\":3020:3037  _owner = newOwner */\n      dup4\n      dup2\n      and\n      not(sub(shl(0xa0, 0x01), 0x01))\n      dup4\n      and\n      dup2\n      or\n      dup5\n      sstore\n        /* \"@openzeppelin/contracts/access/Ownable.sol\":3052:3092  OwnershipTransferred(oldOwner, newOwner) */\n      mload(0x40)\n        /* \"@openzeppelin/contracts/access/Ownable.sol\":3004:3010  _owner */\n      swap2\n      swap1\n      swap3\n      and\n      swap3\n      dup4\n      swap2\n        /* \"@openzeppelin/contracts/access/Ownable.sol\":3052:3092  OwnershipTransferred(oldOwner, newOwner) */\n      0x8be0079c531659141344cd1fd0a4f28419497f9722a3daafe3b4186f6b6457e0\n      swap2\n        /* \"@openzeppelin/contracts/access/Ownable.sol\":2985:3001  address oldOwner */\n      swap1\n        /* \"@openzeppelin/contracts/access/Ownable.sol\":3052:3092  OwnershipTransferred(oldOwner, newOwner) */\n      log3\n        /* \"@openzeppelin/contracts/access/Ownable.sol\":2975:3099  {... */\n      pop\n        /* \"@openzeppelin/contracts/access/Ownable.sol\":2912:3099  function _transferOwnership(address newOwner) internal virtual {... */\n      pop\n      jump\t// out\n        /* \"DecentradFactory.sol\":13007:13387  function _checkIfCallerIsClone(address _contractAddress, address _publisher)... */\n    tag_196:\n        /* \"DecentradFactory.sol\":13128:13156  PublisherClone memory _clone */\n      0x00\n        /* \"DecentradFactory.sol\":13159:13197  getClone(_publisher, _contractAddress) */\n      tag_294\n        /* \"DecentradFactory.sol\":13168:13178  _publisher */\n      dup3\n        /* \"DecentradFactory.sol\":13180:13196  _contractAddress */\n      dup5\n        /* \"DecentradFactory.sol\":13159:13167  getClone */\n      tag_113\n        /* \"DecentradFactory.sol\":13159:13197  getClone(_publisher, _contractAddress) */\n      jump\t// in\n    tag_294:\n        /* \"DecentradFactory.sol\":13128:13197  PublisherClone memory _clone = getClone(_publisher, _contractAddress) */\n      swap1\n      pop\n        /* \"DecentradFactory.sol\":13251:13267  _contractAddress */\n      dup3\n      sub(shl(0xa0, 0x01), 0x01)\n        /* \"DecentradFactory.sol\":13228:13267  _clone.cloneAddress == _contractAddress */\n      and\n        /* \"DecentradFactory.sol\":13228:13234  _clone */\n      dup2\n        /* \"DecentradFactory.sol\":13228:13247  _clone.cloneAddress */\n      0x20\n      add\n      mload\n      sub(shl(0xa0, 0x01), 0x01)\n        /* \"DecentradFactory.sol\":13228:13267  _clone.cloneAddress == _contractAddress */\n      and\n      eq\n        /* \"DecentradFactory.sol\":13228:13317  _clone.cloneAddress == _contractAddress &&... */\n      dup1\n      iszero\n      tag_295\n      jumpi\n      pop\n        /* \"DecentradFactory.sol\":13287:13297  msg.sender */\n      caller\n      sub(shl(0xa0, 0x01), 0x01)\n        /* \"DecentradFactory.sol\":13287:13317  msg.sender == _contractAddress */\n      dup5\n      and\n      eq\n        /* \"DecentradFactory.sol\":13228:13317  _clone.cloneAddress == _contractAddress &&... */\n    tag_295:\n        /* \"DecentradFactory.sol\":13207:13380  require(... */\n      tag_248\n      jumpi\n      mload(0x40)\n      shl(0xe5, 0x461bcd)\n      dup2\n      mstore\n        /* \"#utility.yul\":13468:13470   */\n      0x20\n        /* \"DecentradFactory.sol\":13207:13380  require(... */\n      0x04\n      dup3\n      add\n        /* \"#utility.yul\":13450:13471   */\n      mstore\n        /* \"#utility.yul\":13507:13509   */\n      0x25\n        /* \"#utility.yul\":13487:13505   */\n      0x24\n      dup3\n      add\n        /* \"#utility.yul\":13480:13510   */\n      mstore\n        /* \"#utility.yul\":13546:13580   */\n      0x63616c6c65722063616e206265207075626c697368657220636f6e7472616374\n        /* \"#utility.yul\":13526:13544   */\n      0x44\n      dup3\n      add\n        /* \"#utility.yul\":13519:13581   */\n      mstore\n      shl(0xd8, 0x206f6e6c79)\n        /* \"#utility.yul\":13597:13615   */\n      0x64\n      dup3\n      add\n        /* \"#utility.yul\":13590:13625   */\n      mstore\n        /* \"#utility.yul\":13642:13661   */\n      0x84\n      add\n        /* \"DecentradFactory.sol\":13207:13380  require(... */\n      tag_143\n        /* \"#utility.yul\":13266:13667   */\n      jump\n        /* \"@openzeppelin/contracts/proxy/Clones.sol\":3384:4358  function cloneDeterministic(... */\n    tag_291:\n        /* \"@openzeppelin/contracts/proxy/Clones.sol\":3513:3529  address instance */\n      0x00\n        /* \"@openzeppelin/contracts/proxy/Clones.sol\":3569:3574  value */\n      dup2\n        /* \"@openzeppelin/contracts/proxy/Clones.sol\":3545:3566  address(this).balance */\n      selfbalance\n        /* \"@openzeppelin/contracts/proxy/Clones.sol\":3545:3574  address(this).balance < value */\n      lt\n        /* \"@openzeppelin/contracts/proxy/Clones.sol\":3541:3664  if (address(this).balance < value) {... */\n      iszero\n      tag_301\n      jumpi\n        /* \"@openzeppelin/contracts/proxy/Clones.sol\":3597:3653  Errors.InsufficientBalance(address(this).balance, value) */\n      mload(0x40)\n      shl(0xe0, 0xcf479181)\n      dup2\n      mstore\n        /* \"@openzeppelin/contracts/proxy/Clones.sol\":3624:3645  address(this).balance */\n      selfbalance\n        /* \"@openzeppelin/contracts/proxy/Clones.sol\":3597:3653  Errors.InsufficientBalance(address(this).balance, value) */\n      0x04\n      dup3\n      add\n        /* \"#utility.yul\":13846:13871   */\n      mstore\n        /* \"#utility.yul\":13887:13905   */\n      0x24\n      dup2\n      add\n        /* \"#utility.yul\":13880:13914   */\n      dup4\n      swap1\n      mstore\n        /* \"#utility.yul\":13819:13837   */\n      0x44\n      add\n        /* \"@openzeppelin/contracts/proxy/Clones.sol\":3597:3653  Errors.InsufficientBalance(address(this).balance, value) */\n      tag_143\n        /* \"#utility.yul\":13672:13920   */\n      jump\n        /* \"@openzeppelin/contracts/proxy/Clones.sol\":3541:3664  if (address(this).balance < value) {... */\n    tag_301:\n        /* \"@openzeppelin/contracts/proxy/Clones.sol\":3950:3998  0x3d602d80600a3d3981f3363d3d373d3d3d363d73000000 */\n      0x3d602d80600a3d3981f3363d3d373d3d3d363d73000000\n        /* \"@openzeppelin/contracts/proxy/Clones.sol\":3932:3946  implementation */\n      dup5\n        /* \"@openzeppelin/contracts/proxy/Clones.sol\":3926:3930  0x60 */\n      0x60\n        /* \"@openzeppelin/contracts/proxy/Clones.sol\":3922:3947  shl(0x60, implementation) */\n      shl\n        /* \"@openzeppelin/contracts/proxy/Clones.sol\":3916:3920  0xe8 */\n      0xe8\n        /* \"@openzeppelin/contracts/proxy/Clones.sol\":3912:3948  shr(0xe8, shl(0x60, implementation)) */\n      shr\n        /* \"@openzeppelin/contracts/proxy/Clones.sol\":3909:3999  or(shr(0xe8, shl(0x60, implementation)), 0x3d602d80600a3d3981f3363d3d373d3d3d363d73000000) */\n      or\n        /* \"@openzeppelin/contracts/proxy/Clones.sol\":3903:3907  0x00 */\n      0x00\n        /* \"@openzeppelin/contracts/proxy/Clones.sol\":3896:4000  mstore(0x00, or(shr(0xe8, shl(0x60, implementation)), 0x3d602d80600a3d3981f3363d3d373d3d3d363d73000000)) */\n      mstore\n        /* \"@openzeppelin/contracts/proxy/Clones.sol\":4157:4189  0x5af43d82803e903d91602b57fd5bf3 */\n      0x5af43d82803e903d91602b57fd5bf3\n        /* \"@openzeppelin/contracts/proxy/Clones.sol\":4140:4154  implementation */\n      dup5\n        /* \"@openzeppelin/contracts/proxy/Clones.sol\":4134:4138  0x78 */\n      0x78\n        /* \"@openzeppelin/contracts/proxy/Clones.sol\":4130:4155  shl(0x78, implementation) */\n      shl\n        /* \"@openzeppelin/contracts/proxy/Clones.sol\":4127:4190  or(shl(0x78, implementation), 0x5af43d82803e903d91602b57fd5bf3) */\n      or\n        /* \"@openzeppelin/contracts/proxy/Clones.sol\":4121:4125  0x20 */\n      0x20\n        /* \"@openzeppelin/contracts/proxy/Clones.sol\":4114:4191  mstore(0x20, or(shl(0x78, implementation), 0x5af43d82803e903d91602b57fd5bf3)) */\n      mstore\n        /* \"@openzeppelin/contracts/proxy/Clones.sol\":4243:4247  salt */\n      dup3\n        /* \"@openzeppelin/contracts/proxy/Clones.sol\":4237:4241  0x37 */\n      0x37\n        /* \"@openzeppelin/contracts/proxy/Clones.sol\":4231:4235  0x09 */\n      0x09\n        /* \"@openzeppelin/contracts/proxy/Clones.sol\":4224:4229  value */\n      dup5\n        /* \"@openzeppelin/contracts/proxy/Clones.sol\":4216:4248  create2(value, 0x09, 0x37, salt) */\n      create2\n        /* \"@openzeppelin/contracts/proxy/Clones.sol\":4204:4248  instance := create2(value, 0x09, 0x37, salt) */\n      swap1\n      pop\n      sub(shl(0xa0, 0x01), 0x01)\n        /* \"@openzeppelin/contracts/proxy/Clones.sol\":4271:4293  instance == address(0) */\n      dup2\n      and\n        /* \"@openzeppelin/contracts/proxy/Clones.sol\":4267:4352  if (instance == address(0)) {... */\n      tag_290\n      jumpi\n        /* \"@openzeppelin/contracts/proxy/Clones.sol\":4316:4341  Errors.FailedDeployment() */\n      mload(0x40)\n      shl(0xe0, 0xb06ebf3d)\n      dup2\n      mstore\n      0x04\n      add\n      mload(0x40)\n      dup1\n      swap2\n      sub\n      swap1\n      revert\n        /* \"#utility.yul\":196:369   */\n    tag_305:\n        /* \"#utility.yul\":264:284   */\n      dup1\n      calldataload\n      sub(shl(0xa0, 0x01), 0x01)\n        /* \"#utility.yul\":313:344   */\n      dup2\n      and\n        /* \"#utility.yul\":303:345   */\n      dup2\n      eq\n        /* \"#utility.yul\":293:363   */\n      tag_316\n      jumpi\n        /* \"#utility.yul\":359:360   */\n      0x00\n        /* \"#utility.yul\":356:357   */\n      dup1\n        /* \"#utility.yul\":349:361   */\n      revert\n        /* \"#utility.yul\":293:363   */\n    tag_316:\n        /* \"#utility.yul\":196:369   */\n      swap2\n      swap1\n      pop\n      jump\t// out\n        /* \"#utility.yul\":374:634   */\n    tag_38:\n        /* \"#utility.yul\":442:448   */\n      0x00\n        /* \"#utility.yul\":450:456   */\n      dup1\n        /* \"#utility.yul\":503:505   */\n      0x40\n        /* \"#utility.yul\":491:500   */\n      dup4\n        /* \"#utility.yul\":482:489   */\n      dup6\n        /* \"#utility.yul\":478:501   */\n      sub\n        /* \"#utility.yul\":474:506   */\n      slt\n        /* \"#utility.yul\":471:523   */\n      iszero\n      tag_318\n      jumpi\n        /* \"#utility.yul\":519:520   */\n      0x00\n        /* \"#utility.yul\":516:517   */\n      dup1\n        /* \"#utility.yul\":509:521   */\n      revert\n        /* \"#utility.yul\":471:523   */\n    tag_318:\n        /* \"#utility.yul\":542:571   */\n      tag_319\n        /* \"#utility.yul\":561:570   */\n      dup4\n        /* \"#utility.yul\":542:571   */\n      tag_305\n      jump\t// in\n    tag_319:\n        /* \"#utility.yul\":532:571   */\n      swap2\n      pop\n        /* \"#utility.yul\":590:628   */\n      tag_320\n        /* \"#utility.yul\":624:626   */\n      0x20\n        /* \"#utility.yul\":613:622   */\n      dup5\n        /* \"#utility.yul\":609:627   */\n      add\n        /* \"#utility.yul\":590:628   */\n      tag_305\n      jump\t// in\n    tag_320:\n        /* \"#utility.yul\":580:628   */\n      swap1\n      pop\n        /* \"#utility.yul\":374:634   */\n      swap3\n      pop\n      swap3\n      swap1\n      pop\n      jump\t// out\n        /* \"#utility.yul\":831:1131   */\n    tag_44:\n        /* \"#utility.yul\":899:905   */\n      0x00\n        /* \"#utility.yul\":907:913   */\n      dup1\n        /* \"#utility.yul\":960:962   */\n      0x40\n        /* \"#utility.yul\":948:957   */\n      dup4\n        /* \"#utility.yul\":939:946   */\n      dup6\n        /* \"#utility.yul\":935:958   */\n      sub\n        /* \"#utility.yul\":931:963   */\n      slt\n        /* \"#utility.yul\":928:980   */\n      iszero\n      tag_323\n      jumpi\n        /* \"#utility.yul\":976:977   */\n      0x00\n        /* \"#utility.yul\":973:974   */\n      dup1\n        /* \"#utility.yul\":966:978   */\n      revert\n        /* \"#utility.yul\":928:980   */\n    tag_323:\n        /* \"#utility.yul\":999:1028   */\n      tag_324\n        /* \"#utility.yul\":1018:1027   */\n      dup4\n        /* \"#utility.yul\":999:1028   */\n      tag_305\n      jump\t// in\n    tag_324:\n        /* \"#utility.yul\":989:1028   */\n      swap5\n        /* \"#utility.yul\":1097:1099   */\n      0x20\n        /* \"#utility.yul\":1082:1100   */\n      swap4\n      swap1\n      swap4\n      add\n        /* \"#utility.yul\":1069:1101   */\n      calldataload\n      swap4\n      pop\n      pop\n      pop\n        /* \"#utility.yul\":831:1131   */\n      jump\t// out\n        /* \"#utility.yul\":1136:1425   */\n    tag_306:\n        /* \"#utility.yul\":1178:1181   */\n      0x00\n        /* \"#utility.yul\":1216:1221   */\n      dup2\n        /* \"#utility.yul\":1210:1222   */\n      mload\n        /* \"#utility.yul\":1243:1249   */\n      dup1\n        /* \"#utility.yul\":1238:1241   */\n      dup5\n        /* \"#utility.yul\":1231:1250   */\n      mstore\n        /* \"#utility.yul\":1299:1305   */\n      dup1\n        /* \"#utility.yul\":1292:1296   */\n      0x20\n        /* \"#utility.yul\":1285:1290   */\n      dup5\n        /* \"#utility.yul\":1281:1297   */\n      add\n        /* \"#utility.yul\":1274:1278   */\n      0x20\n        /* \"#utility.yul\":1269:1272   */\n      dup7\n        /* \"#utility.yul\":1265:1279   */\n      add\n        /* \"#utility.yul\":1259:1306   */\n      mcopy\n        /* \"#utility.yul\":1351:1352   */\n      0x00\n        /* \"#utility.yul\":1344:1348   */\n      0x20\n        /* \"#utility.yul\":1335:1341   */\n      dup3\n        /* \"#utility.yul\":1330:1333   */\n      dup7\n        /* \"#utility.yul\":1326:1342   */\n      add\n        /* \"#utility.yul\":1322:1349   */\n      add\n        /* \"#utility.yul\":1315:1353   */\n      mstore\n        /* \"#utility.yul\":1414:1418   */\n      0x20\n        /* \"#utility.yul\":1407:1409   */\n      0x1f\n        /* \"#utility.yul\":1403:1410   */\n      not\n        /* \"#utility.yul\":1398:1400   */\n      0x1f\n        /* \"#utility.yul\":1390:1396   */\n      dup4\n        /* \"#utility.yul\":1386:1401   */\n      add\n        /* \"#utility.yul\":1382:1411   */\n      and\n        /* \"#utility.yul\":1377:1380   */\n      dup6\n        /* \"#utility.yul\":1373:1412   */\n      add\n        /* \"#utility.yul\":1369:1419   */\n      add\n        /* \"#utility.yul\":1362:1419   */\n      swap2\n      pop\n      pop\n        /* \"#utility.yul\":1136:1425   */\n      swap3\n      swap2\n      pop\n      pop\n      jump\t// out\n        /* \"#utility.yul\":1430:1747   */\n    tag_47:\n        /* \"#utility.yul\":1607:1609   */\n      0x40\n        /* \"#utility.yul\":1596:1605   */\n      dup2\n        /* \"#utility.yul\":1589:1610   */\n      mstore\n        /* \"#utility.yul\":1570:1574   */\n      0x00\n        /* \"#utility.yul\":1627:1672   */\n      tag_327\n        /* \"#utility.yul\":1668:1670   */\n      0x40\n        /* \"#utility.yul\":1657:1666   */\n      dup4\n        /* \"#utility.yul\":1653:1671   */\n      add\n        /* \"#utility.yul\":1645:1651   */\n      dup6\n        /* \"#utility.yul\":1627:1672   */\n      tag_306\n      jump\t// in\n    tag_327:\n        /* \"#utility.yul\":1619:1672   */\n      swap1\n      pop\n        /* \"#utility.yul\":1737:1738   */\n      0x01\n        /* \"#utility.yul\":1733:1734   */\n      dup1\n        /* \"#utility.yul\":1728:1731   */\n      0xa0\n        /* \"#utility.yul\":1724:1735   */\n      shl\n        /* \"#utility.yul\":1720:1739   */\n      sub\n        /* \"#utility.yul\":1712:1718   */\n      dup4\n        /* \"#utility.yul\":1708:1740   */\n      and\n        /* \"#utility.yul\":1703:1705   */\n      0x20\n        /* \"#utility.yul\":1692:1701   */\n      dup4\n        /* \"#utility.yul\":1688:1706   */\n      add\n        /* \"#utility.yul\":1681:1741   */\n      mstore\n        /* \"#utility.yul\":1430:1747   */\n      swap4\n      swap3\n      pop\n      pop\n      pop\n      jump\t// out\n        /* \"#utility.yul\":1752:1938   */\n    tag_53:\n        /* \"#utility.yul\":1811:1817   */\n      0x00\n        /* \"#utility.yul\":1864:1866   */\n      0x20\n        /* \"#utility.yul\":1852:1861   */\n      dup3\n        /* \"#utility.yul\":1843:1850   */\n      dup5\n        /* \"#utility.yul\":1839:1862   */\n      sub\n        /* \"#utility.yul\":1835:1867   */\n      slt\n        /* \"#utility.yul\":1832:1884   */\n      iszero\n      tag_329\n      jumpi\n        /* \"#utility.yul\":1880:1881   */\n      0x00\n        /* \"#utility.yul\":1877:1878   */\n      dup1\n        /* \"#utility.yul\":1870:1882   */\n      revert\n        /* \"#utility.yul\":1832:1884   */\n    tag_329:\n        /* \"#utility.yul\":1903:1932   */\n      tag_290\n        /* \"#utility.yul\":1922:1931   */\n      dup3\n        /* \"#utility.yul\":1903:1932   */\n      tag_305\n      jump\t// in\n        /* \"#utility.yul\":1943:2070   */\n    tag_307:\n        /* \"#utility.yul\":2004:2014   */\n      0x4e487b71\n        /* \"#utility.yul\":1999:2002   */\n      0xe0\n        /* \"#utility.yul\":1995:2015   */\n      shl\n        /* \"#utility.yul\":1992:1993   */\n      0x00\n        /* \"#utility.yul\":1985:2016   */\n      mstore\n        /* \"#utility.yul\":2035:2039   */\n      0x41\n        /* \"#utility.yul\":2032:2033   */\n      0x04\n        /* \"#utility.yul\":2025:2040   */\n      mstore\n        /* \"#utility.yul\":2059:2063   */\n      0x24\n        /* \"#utility.yul\":2056:2057   */\n      0x00\n        /* \"#utility.yul\":2049:2064   */\n      revert\n        /* \"#utility.yul\":2075:2801   */\n    tag_308:\n        /* \"#utility.yul\":2118:2123   */\n      0x00\n        /* \"#utility.yul\":2171:2174   */\n      dup3\n        /* \"#utility.yul\":2164:2168   */\n      0x1f\n        /* \"#utility.yul\":2156:2162   */\n      dup4\n        /* \"#utility.yul\":2152:2169   */\n      add\n        /* \"#utility.yul\":2148:2175   */\n      slt\n        /* \"#utility.yul\":2138:2193   */\n      tag_333\n      jumpi\n        /* \"#utility.yul\":2189:2190   */\n      0x00\n        /* \"#utility.yul\":2186:2187   */\n      dup1\n        /* \"#utility.yul\":2179:2191   */\n      revert\n        /* \"#utility.yul\":2138:2193   */\n    tag_333:\n        /* \"#utility.yul\":2229:2235   */\n      dup2\n        /* \"#utility.yul\":2216:2236   */\n      calldataload\n        /* \"#utility.yul\":2259:2277   */\n      0xffffffffffffffff\n        /* \"#utility.yul\":2251:2257   */\n      dup2\n        /* \"#utility.yul\":2248:2278   */\n      gt\n        /* \"#utility.yul\":2245:2301   */\n      iszero\n      tag_335\n      jumpi\n        /* \"#utility.yul\":2281:2299   */\n      tag_335\n      tag_307\n      jump\t// in\n    tag_335:\n        /* \"#utility.yul\":2330:2332   */\n      0x40\n        /* \"#utility.yul\":2324:2333   */\n      mload\n        /* \"#utility.yul\":2422:2424   */\n      0x1f\n        /* \"#utility.yul\":2384:2401   */\n      dup3\n      add\n      not(0x1f)\n        /* \"#utility.yul\":2380:2411   */\n      swap1\n      dup2\n      and\n        /* \"#utility.yul\":2413:2415   */\n      0x3f\n        /* \"#utility.yul\":2376:2416   */\n      add\n        /* \"#utility.yul\":2372:2426   */\n      and\n        /* \"#utility.yul\":2360:2427   */\n      dup2\n      add\n        /* \"#utility.yul\":2457:2475   */\n      0xffffffffffffffff\n        /* \"#utility.yul\":2442:2476   */\n      dup2\n      gt\n        /* \"#utility.yul\":2478:2500   */\n      dup3\n      dup3\n      lt\n        /* \"#utility.yul\":2439:2501   */\n      or\n        /* \"#utility.yul\":2436:2524   */\n      iszero\n      tag_337\n      jumpi\n        /* \"#utility.yul\":2504:2522   */\n      tag_337\n      tag_307\n      jump\t// in\n    tag_337:\n        /* \"#utility.yul\":2540:2542   */\n      0x40\n        /* \"#utility.yul\":2533:2555   */\n      mstore\n        /* \"#utility.yul\":2564:2586   */\n      dup2\n      dup2\n      mstore\n        /* \"#utility.yul\":2605:2624   */\n      dup4\n      dup3\n      add\n        /* \"#utility.yul\":2626:2630   */\n      0x20\n        /* \"#utility.yul\":2601:2631   */\n      add\n        /* \"#utility.yul\":2598:2637   */\n      dup6\n      lt\n        /* \"#utility.yul\":2595:2654   */\n      iszero\n      tag_338\n      jumpi\n        /* \"#utility.yul\":2650:2651   */\n      0x00\n        /* \"#utility.yul\":2647:2648   */\n      dup1\n        /* \"#utility.yul\":2640:2652   */\n      revert\n        /* \"#utility.yul\":2595:2654   */\n    tag_338:\n        /* \"#utility.yul\":2714:2720   */\n      dup2\n        /* \"#utility.yul\":2707:2711   */\n      0x20\n        /* \"#utility.yul\":2699:2705   */\n      dup6\n        /* \"#utility.yul\":2695:2712   */\n      add\n        /* \"#utility.yul\":2688:2692   */\n      0x20\n        /* \"#utility.yul\":2680:2686   */\n      dup4\n        /* \"#utility.yul\":2676:2693   */\n      add\n        /* \"#utility.yul\":2663:2721   */\n      calldatacopy\n        /* \"#utility.yul\":2769:2770   */\n      0x00\n        /* \"#utility.yul\":2741:2760   */\n      swap2\n      dup2\n      add\n        /* \"#utility.yul\":2762:2766   */\n      0x20\n        /* \"#utility.yul\":2737:2767   */\n      add\n        /* \"#utility.yul\":2730:2771   */\n      swap2\n      swap1\n      swap2\n      mstore\n        /* \"#utility.yul\":2745:2751   */\n      swap4\n        /* \"#utility.yul\":2075:2801   */\n      swap3\n      pop\n      pop\n      pop\n      jump\t// out\n        /* \"#utility.yul\":2806:3418   */\n    tag_57:\n        /* \"#utility.yul\":2903:2909   */\n      0x00\n        /* \"#utility.yul\":2911:2917   */\n      dup1\n        /* \"#utility.yul\":2919:2925   */\n      0x00\n        /* \"#utility.yul\":2972:2974   */\n      0x60\n        /* \"#utility.yul\":2960:2969   */\n      dup5\n        /* \"#utility.yul\":2951:2958   */\n      dup7\n        /* \"#utility.yul\":2947:2970   */\n      sub\n        /* \"#utility.yul\":2943:2975   */\n      slt\n        /* \"#utility.yul\":2940:2992   */\n      iszero\n      tag_340\n      jumpi\n        /* \"#utility.yul\":2988:2989   */\n      0x00\n        /* \"#utility.yul\":2985:2986   */\n      dup1\n        /* \"#utility.yul\":2978:2990   */\n      revert\n        /* \"#utility.yul\":2940:2992   */\n    tag_340:\n        /* \"#utility.yul\":3028:3037   */\n      dup4\n        /* \"#utility.yul\":3015:3038   */\n      calldataload\n        /* \"#utility.yul\":3061:3079   */\n      0xffffffffffffffff\n        /* \"#utility.yul\":3053:3059   */\n      dup2\n        /* \"#utility.yul\":3050:3080   */\n      gt\n        /* \"#utility.yul\":3047:3097   */\n      iszero\n      tag_341\n      jumpi\n        /* \"#utility.yul\":3093:3094   */\n      0x00\n        /* \"#utility.yul\":3090:3091   */\n      dup1\n        /* \"#utility.yul\":3083:3095   */\n      revert\n        /* \"#utility.yul\":3047:3097   */\n    tag_341:\n        /* \"#utility.yul\":3116:3166   */\n      tag_342\n        /* \"#utility.yul\":3158:3165   */\n      dup7\n        /* \"#utility.yul\":3149:3155   */\n      dup3\n        /* \"#utility.yul\":3138:3147   */\n      dup8\n        /* \"#utility.yul\":3134:3156   */\n      add\n        /* \"#utility.yul\":3116:3166   */\n      tag_308\n      jump\t// in\n    tag_342:\n        /* \"#utility.yul\":3106:3166   */\n      swap4\n      pop\n      pop\n        /* \"#utility.yul\":3219:3221   */\n      0x20\n        /* \"#utility.yul\":3208:3217   */\n      dup5\n        /* \"#utility.yul\":3204:3222   */\n      add\n        /* \"#utility.yul\":3191:3223   */\n      calldataload\n        /* \"#utility.yul\":3248:3266   */\n      0xffffffffffffffff\n        /* \"#utility.yul\":3238:3246   */\n      dup2\n        /* \"#utility.yul\":3235:3267   */\n      gt\n        /* \"#utility.yul\":3232:3284   */\n      iszero\n      tag_343\n      jumpi\n        /* \"#utility.yul\":3280:3281   */\n      0x00\n        /* \"#utility.yul\":3277:3278   */\n      dup1\n        /* \"#utility.yul\":3270:3282   */\n      revert\n        /* \"#utility.yul\":3232:3284   */\n    tag_343:\n        /* \"#utility.yul\":3303:3355   */\n      tag_344\n        /* \"#utility.yul\":3347:3354   */\n      dup7\n        /* \"#utility.yul\":3336:3344   */\n      dup3\n        /* \"#utility.yul\":3325:3334   */\n      dup8\n        /* \"#utility.yul\":3321:3345   */\n      add\n        /* \"#utility.yul\":3303:3355   */\n      tag_308\n      jump\t// in\n    tag_344:\n        /* \"#utility.yul\":3293:3355   */\n      swap3\n      pop\n      pop\n        /* \"#utility.yul\":3374:3412   */\n      tag_345\n        /* \"#utility.yul\":3408:3410   */\n      0x40\n        /* \"#utility.yul\":3397:3406   */\n      dup6\n        /* \"#utility.yul\":3393:3411   */\n      add\n        /* \"#utility.yul\":3374:3412   */\n      tag_305\n      jump\t// in\n    tag_345:\n        /* \"#utility.yul\":3364:3412   */\n      swap1\n      pop\n        /* \"#utility.yul\":2806:3418   */\n      swap3\n      pop\n      swap3\n      pop\n      swap3\n      jump\t// out\n        /* \"#utility.yul\":3631:3940   */\n    tag_309:\n        /* \"#utility.yul\":3688:3691   */\n      0x00\n        /* \"#utility.yul\":3732:3737   */\n      dup2\n        /* \"#utility.yul\":3726:3738   */\n      mload\n        /* \"#utility.yul\":3759:3763   */\n      0x40\n        /* \"#utility.yul\":3754:3757   */\n      dup5\n        /* \"#utility.yul\":3747:3764   */\n      mstore\n        /* \"#utility.yul\":3785:3832   */\n      tag_348\n        /* \"#utility.yul\":3826:3830   */\n      0x40\n        /* \"#utility.yul\":3821:3824   */\n      dup6\n        /* \"#utility.yul\":3817:3831   */\n      add\n        /* \"#utility.yul\":3803:3815   */\n      dup3\n        /* \"#utility.yul\":3785:3832   */\n      tag_306\n      jump\t// in\n    tag_348:\n        /* \"#utility.yul\":3885:3889   */\n      0x20\n        /* \"#utility.yul\":3874:3890   */\n      swap4\n      dup5\n      add\n        /* \"#utility.yul\":3868:3891   */\n      mload\n      sub(shl(0xa0, 0x01), 0x01)\n        /* \"#utility.yul\":3864:3913   */\n      and\n        /* \"#utility.yul\":3848:3862   */\n      swap5\n      swap1\n      swap4\n      add\n        /* \"#utility.yul\":3841:3914   */\n      swap4\n      swap1\n      swap4\n      mstore\n      pop\n        /* \"#utility.yul\":3773:3832   */\n      swap2\n        /* \"#utility.yul\":3631:3940   */\n      swap1\n      pop\n      jump\t// out\n        /* \"#utility.yul\":3945:4784   */\n    tag_67:\n        /* \"#utility.yul\":4149:4153   */\n      0x00\n        /* \"#utility.yul\":4197:4199   */\n      0x20\n        /* \"#utility.yul\":4186:4195   */\n      dup3\n        /* \"#utility.yul\":4182:4200   */\n      add\n        /* \"#utility.yul\":4227:4229   */\n      0x20\n        /* \"#utility.yul\":4216:4225   */\n      dup4\n        /* \"#utility.yul\":4209:4230   */\n      mstore\n        /* \"#utility.yul\":4250:4256   */\n      dup1\n        /* \"#utility.yul\":4285:4291   */\n      dup5\n        /* \"#utility.yul\":4279:4292   */\n      mload\n        /* \"#utility.yul\":4316:4322   */\n      dup1\n        /* \"#utility.yul\":4308:4314   */\n      dup4\n        /* \"#utility.yul\":4301:4323   */\n      mstore\n        /* \"#utility.yul\":4354:4356   */\n      0x40\n        /* \"#utility.yul\":4343:4352   */\n      dup6\n        /* \"#utility.yul\":4339:4357   */\n      add\n        /* \"#utility.yul\":4332:4357   */\n      swap2\n      pop\n        /* \"#utility.yul\":4416:4418   */\n      0x40\n        /* \"#utility.yul\":4406:4412   */\n      dup2\n        /* \"#utility.yul\":4403:4404   */\n      0x05\n        /* \"#utility.yul\":4399:4413   */\n      shl\n        /* \"#utility.yul\":4388:4397   */\n      dup7\n        /* \"#utility.yul\":4384:4414   */\n      add\n        /* \"#utility.yul\":4380:4419   */\n      add\n        /* \"#utility.yul\":4366:4419   */\n      swap3\n      pop\n        /* \"#utility.yul\":4454:4456   */\n      0x20\n        /* \"#utility.yul\":4446:4452   */\n      dup7\n        /* \"#utility.yul\":4442:4457   */\n      add\n        /* \"#utility.yul\":4475:4476   */\n      0x00\n        /* \"#utility.yul\":4485:4755   */\n    tag_350:\n        /* \"#utility.yul\":4499:4505   */\n      dup3\n        /* \"#utility.yul\":4496:4497   */\n      dup2\n        /* \"#utility.yul\":4493:4506   */\n      lt\n        /* \"#utility.yul\":4485:4755   */\n      iszero\n      tag_352\n      jumpi\n        /* \"#utility.yul\":4592:4594   */\n      0x3f\n        /* \"#utility.yul\":4588:4595   */\n      not\n        /* \"#utility.yul\":4576:4585   */\n      dup8\n        /* \"#utility.yul\":4568:4574   */\n      dup7\n        /* \"#utility.yul\":4564:4586   */\n      sub\n        /* \"#utility.yul\":4560:4596   */\n      add\n        /* \"#utility.yul\":4555:4558   */\n      dup5\n        /* \"#utility.yul\":4548:4597   */\n      mstore\n        /* \"#utility.yul\":4620:4675   */\n      tag_353\n        /* \"#utility.yul\":4668:4674   */\n      dup6\n        /* \"#utility.yul\":4659:4665   */\n      dup4\n        /* \"#utility.yul\":4653:4666   */\n      mload\n        /* \"#utility.yul\":4620:4675   */\n      tag_309\n      jump\t// in\n    tag_353:\n        /* \"#utility.yul\":4610:4675   */\n      swap5\n      pop\n        /* \"#utility.yul\":4710:4712   */\n      0x20\n        /* \"#utility.yul\":4733:4745   */\n      swap4\n      dup5\n      add\n      swap4\n        /* \"#utility.yul\":4698:4713   */\n      swap2\n      swap1\n      swap2\n      add\n      swap1\n        /* \"#utility.yul\":4521:4522   */\n      0x01\n        /* \"#utility.yul\":4514:4523   */\n      add\n        /* \"#utility.yul\":4485:4755   */\n      jump(tag_350)\n    tag_352:\n      pop\n        /* \"#utility.yul\":4772:4778   */\n      swap3\n      swap7\n        /* \"#utility.yul\":3945:4784   */\n      swap6\n      pop\n      pop\n      pop\n      pop\n      pop\n      pop\n      jump\t// out\n        /* \"#utility.yul\":4789:5426   */\n    tag_78:\n        /* \"#utility.yul\":4979:4981   */\n      0x20\n        /* \"#utility.yul\":4991:5012   */\n      dup1\n      dup3\n      mstore\n        /* \"#utility.yul\":5061:5074   */\n      dup3\n      mload\n        /* \"#utility.yul\":4964:4982   */\n      dup3\n      dup3\n      add\n        /* \"#utility.yul\":5083:5105   */\n      dup2\n      swap1\n      mstore\n        /* \"#utility.yul\":4931:4935   */\n      0x00\n      swap2\n        /* \"#utility.yul\":5162:5177   */\n      dup5\n      add\n      swap1\n        /* \"#utility.yul\":5136:5138   */\n      0x40\n        /* \"#utility.yul\":5121:5139   */\n      dup5\n      add\n      swap1\n        /* \"#utility.yul\":4931:4935   */\n      dup4\n        /* \"#utility.yul\":5205:5400   */\n    tag_355:\n        /* \"#utility.yul\":5219:5225   */\n      dup2\n        /* \"#utility.yul\":5216:5217   */\n      dup2\n        /* \"#utility.yul\":5213:5226   */\n      lt\n        /* \"#utility.yul\":5205:5400   */\n      iszero\n      tag_357\n      jumpi\n        /* \"#utility.yul\":5284:5297   */\n      dup4\n      mload\n      sub(shl(0xa0, 0x01), 0x01)\n        /* \"#utility.yul\":5280:5319   */\n      and\n        /* \"#utility.yul\":5268:5320   */\n      dup4\n      mstore\n        /* \"#utility.yul\":5349:5351   */\n      0x20\n        /* \"#utility.yul\":5375:5390   */\n      swap4\n      dup5\n      add\n      swap4\n        /* \"#utility.yul\":5340:5352   */\n      swap1\n      swap3\n      add\n      swap2\n        /* \"#utility.yul\":5316:5317   */\n      0x01\n        /* \"#utility.yul\":5234:5243   */\n      add\n        /* \"#utility.yul\":5205:5400   */\n      jump(tag_355)\n    tag_357:\n      pop\n        /* \"#utility.yul\":5417:5420   */\n      swap1\n      swap6\n        /* \"#utility.yul\":4789:5426   */\n      swap5\n      pop\n      pop\n      pop\n      pop\n      pop\n      jump\t// out\n        /* \"#utility.yul\":5431:5765   */\n    tag_81:\n        /* \"#utility.yul\":5508:5514   */\n      0x00\n        /* \"#utility.yul\":5516:5522   */\n      dup1\n        /* \"#utility.yul\":5524:5530   */\n      0x00\n        /* \"#utility.yul\":5577:5579   */\n      0x60\n        /* \"#utility.yul\":5565:5574   */\n      dup5\n        /* \"#utility.yul\":5556:5563   */\n      dup7\n        /* \"#utility.yul\":5552:5575   */\n      sub\n        /* \"#utility.yul\":5548:5580   */\n      slt\n        /* \"#utility.yul\":5545:5597   */\n      iszero\n      tag_359\n      jumpi\n        /* \"#utility.yul\":5593:5594   */\n      0x00\n        /* \"#utility.yul\":5590:5591   */\n      dup1\n        /* \"#utility.yul\":5583:5595   */\n      revert\n        /* \"#utility.yul\":5545:5597   */\n    tag_359:\n        /* \"#utility.yul\":5616:5645   */\n      tag_360\n        /* \"#utility.yul\":5635:5644   */\n      dup5\n        /* \"#utility.yul\":5616:5645   */\n      tag_305\n      jump\t// in\n    tag_360:\n        /* \"#utility.yul\":5606:5645   */\n      swap3\n      pop\n        /* \"#utility.yul\":5664:5702   */\n      tag_361\n        /* \"#utility.yul\":5698:5700   */\n      0x20\n        /* \"#utility.yul\":5687:5696   */\n      dup6\n        /* \"#utility.yul\":5683:5701   */\n      add\n        /* \"#utility.yul\":5664:5702   */\n      tag_305\n      jump\t// in\n    tag_361:\n        /* \"#utility.yul\":5654:5702   */\n      swap2\n      pop\n        /* \"#utility.yul\":5721:5759   */\n      tag_345\n        /* \"#utility.yul\":5755:5757   */\n      0x40\n        /* \"#utility.yul\":5744:5753   */\n      dup6\n        /* \"#utility.yul\":5740:5758   */\n      add\n        /* \"#utility.yul\":5721:5759   */\n      tag_305\n      jump\t// in\n        /* \"#utility.yul\":5770:5996   */\n    tag_102:\n        /* \"#utility.yul\":5829:5835   */\n      0x00\n        /* \"#utility.yul\":5882:5884   */\n      0x20\n        /* \"#utility.yul\":5870:5879   */\n      dup3\n        /* \"#utility.yul\":5861:5868   */\n      dup5\n        /* \"#utility.yul\":5857:5880   */\n      sub\n        /* \"#utility.yul\":5853:5885   */\n      slt\n        /* \"#utility.yul\":5850:5902   */\n      iszero\n      tag_364\n      jumpi\n        /* \"#utility.yul\":5898:5899   */\n      0x00\n        /* \"#utility.yul\":5895:5896   */\n      dup1\n        /* \"#utility.yul\":5888:5900   */\n      revert\n        /* \"#utility.yul\":5850:5902   */\n    tag_364:\n      pop\n        /* \"#utility.yul\":5943:5966   */\n      calldataload\n      swap2\n        /* \"#utility.yul\":5770:5996   */\n      swap1\n      pop\n      jump\t// out\n        /* \"#utility.yul\":6001:6278   */\n    tag_115:\n        /* \"#utility.yul\":6192:6194   */\n      0x20\n        /* \"#utility.yul\":6181:6190   */\n      dup2\n        /* \"#utility.yul\":6174:6195   */\n      mstore\n        /* \"#utility.yul\":6155:6159   */\n      0x00\n        /* \"#utility.yul\":6212:6272   */\n      tag_290\n        /* \"#utility.yul\":6268:6270   */\n      0x20\n        /* \"#utility.yul\":6257:6266   */\n      dup4\n        /* \"#utility.yul\":6253:6271   */\n      add\n        /* \"#utility.yul\":6245:6251   */\n      dup5\n        /* \"#utility.yul\":6212:6272   */\n      tag_309\n      jump\t// in\n        /* \"#utility.yul\":6283:6663   */\n    tag_132:\n        /* \"#utility.yul\":6362:6363   */\n      0x01\n        /* \"#utility.yul\":6358:6370   */\n      dup2\n      dup2\n      shr\n      swap1\n        /* \"#utility.yul\":6405:6417   */\n      dup3\n      and\n      dup1\n        /* \"#utility.yul\":6426:6487   */\n      tag_368\n      jumpi\n        /* \"#utility.yul\":6480:6484   */\n      0x7f\n        /* \"#utility.yul\":6472:6478   */\n      dup3\n        /* \"#utility.yul\":6468:6485   */\n      and\n        /* \"#utility.yul\":6458:6485   */\n      swap2\n      pop\n        /* \"#utility.yul\":6426:6487   */\n    tag_368:\n        /* \"#utility.yul\":6533:6535   */\n      0x20\n        /* \"#utility.yul\":6525:6531   */\n      dup3\n        /* \"#utility.yul\":6522:6536   */\n      lt\n        /* \"#utility.yul\":6502:6520   */\n      dup2\n        /* \"#utility.yul\":6499:6537   */\n      sub\n        /* \"#utility.yul\":6496:6657   */\n      tag_369\n      jumpi\n        /* \"#utility.yul\":6579:6589   */\n      0x4e487b71\n        /* \"#utility.yul\":6574:6577   */\n      0xe0\n        /* \"#utility.yul\":6570:6590   */\n      shl\n        /* \"#utility.yul\":6567:6568   */\n      0x00\n        /* \"#utility.yul\":6560:6591   */\n      mstore\n        /* \"#utility.yul\":6614:6618   */\n      0x22\n        /* \"#utility.yul\":6611:6612   */\n      0x04\n        /* \"#utility.yul\":6604:6619   */\n      mstore\n        /* \"#utility.yul\":6642:6646   */\n      0x24\n        /* \"#utility.yul\":6639:6640   */\n      0x00\n        /* \"#utility.yul\":6632:6647   */\n      revert\n        /* \"#utility.yul\":6496:6657   */\n    tag_369:\n      pop\n        /* \"#utility.yul\":6283:6663   */\n      swap2\n      swap1\n      pop\n      jump\t// out\n        /* \"#utility.yul\":7726:8029   */\n    tag_153:\n        /* \"#utility.yul\":7857:7860   */\n      0x00\n        /* \"#utility.yul\":7895:7901   */\n      dup3\n        /* \"#utility.yul\":7889:7902   */\n      mload\n        /* \"#utility.yul\":7941:7947   */\n      dup1\n        /* \"#utility.yul\":7934:7938   */\n      0x20\n        /* \"#utility.yul\":7926:7932   */\n      dup6\n        /* \"#utility.yul\":7922:7939   */\n      add\n        /* \"#utility.yul\":7917:7920   */\n      dup5\n        /* \"#utility.yul\":7911:7948   */\n      mcopy\n        /* \"#utility.yul\":8003:8004   */\n      0x00\n        /* \"#utility.yul\":7967:7983   */\n      swap3\n      add\n        /* \"#utility.yul\":7992:8005   */\n      swap2\n      dup3\n      mstore\n      pop\n        /* \"#utility.yul\":7967:7983   */\n      swap2\n        /* \"#utility.yul\":7726:8029   */\n      swap1\n      pop\n      jump\t// out\n        /* \"#utility.yul\":8034:8881   */\n    tag_157:\n        /* \"#utility.yul\":8371:8374   */\n      0xe0\n        /* \"#utility.yul\":8360:8369   */\n      dup2\n        /* \"#utility.yul\":8353:8375   */\n      mstore\n        /* \"#utility.yul\":8334:8338   */\n      0x00\n        /* \"#utility.yul\":8398:8444   */\n      tag_375\n        /* \"#utility.yul\":8439:8442   */\n      0xe0\n        /* \"#utility.yul\":8428:8437   */\n      dup4\n        /* \"#utility.yul\":8424:8443   */\n      add\n        /* \"#utility.yul\":8416:8422   */\n      dup11\n        /* \"#utility.yul\":8398:8444   */\n      tag_306\n      jump\t// in\n    tag_375:\n        /* \"#utility.yul\":8492:8501   */\n      dup3\n        /* \"#utility.yul\":8484:8490   */\n      dup2\n        /* \"#utility.yul\":8480:8502   */\n      sub\n        /* \"#utility.yul\":8475:8477   */\n      0x20\n        /* \"#utility.yul\":8464:8473   */\n      dup5\n        /* \"#utility.yul\":8460:8478   */\n      add\n        /* \"#utility.yul\":8453:8503   */\n      mstore\n        /* \"#utility.yul\":8520:8553   */\n      tag_376\n        /* \"#utility.yul\":8546:8552   */\n      dup2\n        /* \"#utility.yul\":8538:8544   */\n      dup11\n        /* \"#utility.yul\":8520:8553   */\n      tag_306\n      jump\t// in\n    tag_376:\n      sub(shl(0xa0, 0x01), 0x01)\n        /* \"#utility.yul\":8589:8621   */\n      swap9\n      dup10\n      and\n        /* \"#utility.yul\":8584:8586   */\n      0x40\n        /* \"#utility.yul\":8569:8587   */\n      dup6\n      add\n        /* \"#utility.yul\":8562:8622   */\n      mstore\n        /* \"#utility.yul\":8658:8690   */\n      swap7\n      dup9\n      and\n        /* \"#utility.yul\":8653:8655   */\n      0x60\n        /* \"#utility.yul\":8638:8656   */\n      dup5\n      add\n        /* \"#utility.yul\":8631:8691   */\n      mstore\n      pop\n      pop\n        /* \"#utility.yul\":8728:8760   */\n      swap3\n      dup6\n      and\n        /* \"#utility.yul\":8722:8725   */\n      0x80\n        /* \"#utility.yul\":8707:8726   */\n      dup5\n      add\n        /* \"#utility.yul\":8700:8761   */\n      mstore\n        /* \"#utility.yul\":8609:8612   */\n      0xa0\n        /* \"#utility.yul\":8777:8796   */\n      dup4\n      add\n        /* \"#utility.yul\":8770:8805   */\n      swap2\n      swap1\n      swap2\n      mstore\n        /* \"#utility.yul\":8842:8874   */\n      swap1\n      swap3\n      and\n        /* \"#utility.yul\":8836:8839   */\n      0xc0\n        /* \"#utility.yul\":8821:8840   */\n      swap1\n      swap3\n      add\n        /* \"#utility.yul\":8814:8875   */\n      swap2\n      swap1\n      swap2\n      mstore\n        /* \"#utility.yul\":8512:8553   */\n      swap3\n        /* \"#utility.yul\":8034:8881   */\n      swap2\n      pop\n      pop\n      jump\t// out\n        /* \"#utility.yul\":9012:9530   */\n    tag_311:\n        /* \"#utility.yul\":9114:9116   */\n      0x1f\n        /* \"#utility.yul\":9109:9112   */\n      dup3\n        /* \"#utility.yul\":9106:9117   */\n      gt\n        /* \"#utility.yul\":9103:9524   */\n      iszero\n      tag_248\n      jumpi\n        /* \"#utility.yul\":9150:9155   */\n      dup1\n        /* \"#utility.yul\":9147:9148   */\n      0x00\n        /* \"#utility.yul\":9140:9156   */\n      mstore\n        /* \"#utility.yul\":9194:9198   */\n      0x20\n        /* \"#utility.yul\":9191:9192   */\n      0x00\n        /* \"#utility.yul\":9181:9199   */\n      keccak256\n        /* \"#utility.yul\":9264:9266   */\n      0x1f\n        /* \"#utility.yul\":9252:9262   */\n      dup5\n        /* \"#utility.yul\":9248:9267   */\n      add\n        /* \"#utility.yul\":9245:9246   */\n      0x05\n        /* \"#utility.yul\":9241:9268   */\n      shr\n        /* \"#utility.yul\":9235:9239   */\n      dup2\n        /* \"#utility.yul\":9231:9269   */\n      add\n        /* \"#utility.yul\":9300:9304   */\n      0x20\n        /* \"#utility.yul\":9288:9298   */\n      dup6\n        /* \"#utility.yul\":9285:9305   */\n      lt\n        /* \"#utility.yul\":9282:9329   */\n      iszero\n      tag_380\n      jumpi\n      pop\n        /* \"#utility.yul\":9323:9327   */\n      dup1\n        /* \"#utility.yul\":9282:9329   */\n    tag_380:\n        /* \"#utility.yul\":9378:9380   */\n      0x1f\n        /* \"#utility.yul\":9373:9376   */\n      dup5\n        /* \"#utility.yul\":9369:9381   */\n      add\n        /* \"#utility.yul\":9366:9367   */\n      0x05\n        /* \"#utility.yul\":9362:9382   */\n      shr\n        /* \"#utility.yul\":9356:9360   */\n      dup3\n        /* \"#utility.yul\":9352:9383   */\n      add\n        /* \"#utility.yul\":9342:9383   */\n      swap2\n      pop\n        /* \"#utility.yul\":9433:9514   */\n    tag_381:\n        /* \"#utility.yul\":9451:9453   */\n      dup2\n        /* \"#utility.yul\":9444:9449   */\n      dup2\n        /* \"#utility.yul\":9441:9454   */\n      lt\n        /* \"#utility.yul\":9433:9514   */\n      iszero\n      tag_383\n      jumpi\n        /* \"#utility.yul\":9510:9511   */\n      0x00\n        /* \"#utility.yul\":9496:9512   */\n      dup2\n      sstore\n        /* \"#utility.yul\":9477:9478   */\n      0x01\n        /* \"#utility.yul\":9466:9479   */\n      add\n        /* \"#utility.yul\":9433:9514   */\n      jump(tag_381)\n    tag_383:\n        /* \"#utility.yul\":9437:9440   */\n      pop\n      pop\n        /* \"#utility.yul\":9012:9530   */\n      pop\n      pop\n      pop\n      jump\t// out\n        /* \"#utility.yul\":9706:11005   */\n    tag_163:\n        /* \"#utility.yul\":9832:9835   */\n      dup2\n        /* \"#utility.yul\":9826:9836   */\n      mload\n        /* \"#utility.yul\":9859:9877   */\n      0xffffffffffffffff\n        /* \"#utility.yul\":9851:9857   */\n      dup2\n        /* \"#utility.yul\":9848:9878   */\n      gt\n        /* \"#utility.yul\":9845:9901   */\n      iszero\n      tag_387\n      jumpi\n        /* \"#utility.yul\":9881:9899   */\n      tag_387\n      tag_307\n      jump\t// in\n    tag_387:\n        /* \"#utility.yul\":9910:10007   */\n      tag_388\n        /* \"#utility.yul\":10000:10006   */\n      dup2\n        /* \"#utility.yul\":9960:9998   */\n      tag_389\n        /* \"#utility.yul\":9992:9996   */\n      dup5\n        /* \"#utility.yul\":9986:9997   */\n      sload\n        /* \"#utility.yul\":9960:9998   */\n      tag_132\n      jump\t// in\n    tag_389:\n        /* \"#utility.yul\":9954:9958   */\n      dup5\n        /* \"#utility.yul\":9910:10007   */\n      tag_311\n      jump\t// in\n    tag_388:\n        /* \"#utility.yul\":10056:10060   */\n      0x20\n        /* \"#utility.yul\":10087:10089   */\n      0x1f\n        /* \"#utility.yul\":10076:10090   */\n      dup3\n      gt\n        /* \"#utility.yul\":10104:10105   */\n      0x01\n        /* \"#utility.yul\":10099:10748   */\n      dup2\n      eq\n      tag_391\n      jumpi\n        /* \"#utility.yul\":10792:10793   */\n      0x00\n        /* \"#utility.yul\":10809:10815   */\n      dup4\n        /* \"#utility.yul\":10806:10895   */\n      iszero\n      tag_392\n      jumpi\n      pop\n        /* \"#utility.yul\":10861:10880   */\n      dup5\n      dup3\n      add\n        /* \"#utility.yul\":10855:10881   */\n      mload\n        /* \"#utility.yul\":10806:10895   */\n    tag_392:\n      not(0x00)\n        /* \"#utility.yul\":9663:9664   */\n      0x03\n        /* \"#utility.yul\":9659:9670   */\n      dup6\n      swap1\n      shl\n        /* \"#utility.yul\":9655:9679   */\n      shr\n        /* \"#utility.yul\":9651:9680   */\n      not\n        /* \"#utility.yul\":9641:9681   */\n      and\n        /* \"#utility.yul\":9687:9688   */\n      0x01\n        /* \"#utility.yul\":9683:9694   */\n      dup5\n      swap1\n      shl\n        /* \"#utility.yul\":9638:9695   */\n      or\n        /* \"#utility.yul\":10908:10989   */\n      dup5\n      sstore\n        /* \"#utility.yul\":10069:10999   */\n      jump(tag_383)\n        /* \"#utility.yul\":10099:10748   */\n    tag_391:\n        /* \"#utility.yul\":8959:8960   */\n      0x00\n        /* \"#utility.yul\":8952:8966   */\n      dup5\n      dup2\n      mstore\n        /* \"#utility.yul\":8996:9000   */\n      0x20\n        /* \"#utility.yul\":8983:9001   */\n      dup2\n      keccak256\n      not(0x1f)\n        /* \"#utility.yul\":10135:10155   */\n      dup6\n      and\n      swap2\n        /* \"#utility.yul\":10253:10475   */\n    tag_395:\n        /* \"#utility.yul\":10267:10274   */\n      dup3\n        /* \"#utility.yul\":10264:10265   */\n      dup2\n        /* \"#utility.yul\":10261:10275   */\n      lt\n        /* \"#utility.yul\":10253:10475   */\n      iszero\n      tag_397\n      jumpi\n        /* \"#utility.yul\":10349:10368   */\n      dup8\n      dup6\n      add\n        /* \"#utility.yul\":10343:10369   */\n      mload\n        /* \"#utility.yul\":10328:10370   */\n      dup3\n      sstore\n        /* \"#utility.yul\":10456:10460   */\n      0x20\n        /* \"#utility.yul\":10441:10461   */\n      swap5\n      dup6\n      add\n      swap5\n        /* \"#utility.yul\":10409:10410   */\n      0x01\n        /* \"#utility.yul\":10397:10411   */\n      swap1\n      swap3\n      add\n      swap2\n        /* \"#utility.yul\":10283:10295   */\n      add\n        /* \"#utility.yul\":10253:10475   */\n      jump(tag_395)\n    tag_397:\n        /* \"#utility.yul\":10257:10260   */\n      pop\n        /* \"#utility.yul\":10503:10509   */\n      dup5\n        /* \"#utility.yul\":10494:10501   */\n      dup3\n        /* \"#utility.yul\":10491:10510   */\n      lt\n        /* \"#utility.yul\":10488:10689   */\n      iszero\n      tag_398\n      jumpi\n        /* \"#utility.yul\":10564:10583   */\n      dup7\n      dup5\n      add\n        /* \"#utility.yul\":10558:10584   */\n      mload\n      not(0x00)\n        /* \"#utility.yul\":10647:10648   */\n      0x03\n        /* \"#utility.yul\":10643:10657   */\n      dup8\n      swap1\n      shl\n        /* \"#utility.yul\":10659:10662   */\n      0xf8\n        /* \"#utility.yul\":10639:10663   */\n      and\n        /* \"#utility.yul\":10635:10672   */\n      shr\n        /* \"#utility.yul\":10631:10673   */\n      not\n        /* \"#utility.yul\":10616:10674   */\n      and\n        /* \"#utility.yul\":10601:10675   */\n      dup2\n      sstore\n        /* \"#utility.yul\":10488:10689   */\n    tag_398:\n      pop\n      pop\n      pop\n      pop\n        /* \"#utility.yul\":10735:10736   */\n      0x01\n        /* \"#utility.yul\":10719:10733   */\n      swap1\n      dup2\n      shl\n        /* \"#utility.yul\":10715:10737   */\n      add\n        /* \"#utility.yul\":10702:10738   */\n      swap1\n      sstore\n      pop\n        /* \"#utility.yul\":9706:11005   */\n      jump\t// out\n        /* \"#utility.yul\":11010:11235   */\n    tag_165:\n        /* \"#utility.yul\":11077:11086   */\n      dup2\n      dup2\n      sub\n        /* \"#utility.yul\":11098:11109   */\n      dup2\n      dup2\n      gt\n        /* \"#utility.yul\":11095:11229   */\n      iszero\n      tag_256\n      jumpi\n        /* \"#utility.yul\":11151:11161   */\n      0x4e487b71\n        /* \"#utility.yul\":11146:11149   */\n      0xe0\n        /* \"#utility.yul\":11142:11162   */\n      shl\n        /* \"#utility.yul\":11139:11140   */\n      0x00\n        /* \"#utility.yul\":11132:11163   */\n      mstore\n        /* \"#utility.yul\":11186:11190   */\n      0x11\n        /* \"#utility.yul\":11183:11184   */\n      0x04\n        /* \"#utility.yul\":11176:11191   */\n      mstore\n        /* \"#utility.yul\":11214:11218   */\n      0x24\n        /* \"#utility.yul\":11211:11212   */\n      0x00\n        /* \"#utility.yul\":11204:11219   */\n      revert\n        /* \"#utility.yul\":11594:11941   */\n    tag_191:\n        /* \"#utility.yul\":11796:11798   */\n      0x20\n        /* \"#utility.yul\":11778:11799   */\n      dup1\n      dup3\n      mstore\n        /* \"#utility.yul\":11835:11837   */\n      0x17\n        /* \"#utility.yul\":11815:11833   */\n      swap1\n      dup3\n      add\n        /* \"#utility.yul\":11808:11838   */\n      mstore\n        /* \"#utility.yul\":11874:11899   */\n      0x696e76616c696420636f6e747261637441646472657373000000000000000000\n        /* \"#utility.yul\":11869:11871   */\n      0x40\n        /* \"#utility.yul\":11854:11872   */\n      dup3\n      add\n        /* \"#utility.yul\":11847:11900   */\n      mstore\n        /* \"#utility.yul\":11932:11934   */\n      0x60\n        /* \"#utility.yul\":11917:11935   */\n      add\n      swap1\n        /* \"#utility.yul\":11594:11941   */\n      jump\t// out\n        /* \"#utility.yul\":11946:12295   */\n    tag_194:\n        /* \"#utility.yul\":12148:12150   */\n      0x20\n        /* \"#utility.yul\":12130:12151   */\n      dup1\n      dup3\n      mstore\n        /* \"#utility.yul\":12187:12189   */\n      0x19\n        /* \"#utility.yul\":12167:12185   */\n      swap1\n      dup3\n      add\n        /* \"#utility.yul\":12160:12190   */\n      mstore\n        /* \"#utility.yul\":12226:12253   */\n      0x696e76616c6964207075626c6973686572206164647265737300000000000000\n        /* \"#utility.yul\":12221:12223   */\n      0x40\n        /* \"#utility.yul\":12206:12224   */\n      dup3\n      add\n        /* \"#utility.yul\":12199:12254   */\n      mstore\n        /* \"#utility.yul\":12286:12288   */\n      0x60\n        /* \"#utility.yul\":12271:12289   */\n      add\n      swap1\n        /* \"#utility.yul\":11946:12295   */\n      jump\t// out\n        /* \"#utility.yul\":12300:12427   */\n    tag_200:\n        /* \"#utility.yul\":12361:12371   */\n      0x4e487b71\n        /* \"#utility.yul\":12356:12359   */\n      0xe0\n        /* \"#utility.yul\":12352:12372   */\n      shl\n        /* \"#utility.yul\":12349:12350   */\n      0x00\n        /* \"#utility.yul\":12342:12373   */\n      mstore\n        /* \"#utility.yul\":12392:12396   */\n      0x32\n        /* \"#utility.yul\":12389:12390   */\n      0x04\n        /* \"#utility.yul\":12382:12397   */\n      mstore\n        /* \"#utility.yul\":12416:12420   */\n      0x24\n        /* \"#utility.yul\":12413:12414   */\n      0x00\n        /* \"#utility.yul\":12406:12421   */\n      revert\n        /* \"#utility.yul\":12432:12559   */\n    tag_211:\n        /* \"#utility.yul\":12493:12503   */\n      0x4e487b71\n        /* \"#utility.yul\":12488:12491   */\n      0xe0\n        /* \"#utility.yul\":12484:12504   */\n      shl\n        /* \"#utility.yul\":12481:12482   */\n      0x00\n        /* \"#utility.yul\":12474:12505   */\n      mstore\n        /* \"#utility.yul\":12524:12528   */\n      0x31\n        /* \"#utility.yul\":12521:12522   */\n      0x04\n        /* \"#utility.yul\":12514:12529   */\n      mstore\n        /* \"#utility.yul\":12548:12552   */\n      0x24\n        /* \"#utility.yul\":12545:12546   */\n      0x00\n        /* \"#utility.yul\":12538:12553   */\n      revert\n\n    auxdata: 0xa2646970667358221220d893ffaf338ae0b1aa5cf4cd7608736bd5ef6e51a96dca8e6b84d4fb2dea2cab64736f6c634300081a0033\n}\n",
				"bytecode": {
					"linkReferences": {},
					"object": "608060405234801561000f575f80fd5b50604051611b0b380380611b0b83398101604081905261002e916101ac565b338061005457604051631e4fbdf760e01b81525f60048201526024015b60405180910390fd5b61005d81610142565b506001600160a01b0383166100b45760405162461bcd60e51b815260206004820152601e60248201527f696e76616c696420696d706c656d656e746174696f6e20616464726573730000604482015260640161004b565b6001600160a01b03821661010a5760405162461bcd60e51b815260206004820152601a60248201527f696e76616c696420706c6174666f726d46656541646472657373000000000000604482015260640161004b565b600180546001600160a01b039485166001600160a01b03199182161790915560038054939094169216919091179091556002556101e5565b5f80546001600160a01b038381166001600160a01b0319831681178455604051919092169283917f8be0079c531659141344cd1fd0a4f28419497f9722a3daafe3b4186f6b6457e09190a35050565b80516001600160a01b03811681146101a7575f80fd5b919050565b5f805f606084860312156101be575f80fd5b6101c784610191565b92506101d560208501610191565b9150604084015190509250925092565b611919806101f25f395ff3fe608060405234801561000f575f80fd5b506004361061016d575f3560e01c80638da5cb5b116100d9578063b552ebc811610093578063df7ae3821161006e578063df7ae3821461038d578063ed14834f146103b7578063f2fde38b146103ca578063f336aa35146103dd575f80fd5b8063b552ebc814610347578063c2b602f31461035a578063d414a3f21461036d575f80fd5b80638da5cb5b146102ce5780639375da5a146102de5780639472a969146102f15780639b1ec6a3146103195780639d209a3014610321578063b286029814610334575f80fd5b80635c60da1b1161012a5780635c60da1b1461021b57806364eb68eb14610246578063715018a61461026657806377b430001461026e578063841a0cbe1461029b5780638b0d4377146102bb575f80fd5b806307dc67491461017157806314f9ff211461018d578063172c2664146101ca57806323e49534146101eb5780632e4e56cf146101f35780634f568db314610208575b5f80fd5b61017a60025481565b6040519081526020015b60405180910390f35b6101ba61019b36600461135f565b600960209081525f928352604080842090915290825290205460ff1681565b6040519015158152602001610184565b6101dd6101d8366004611390565b6103f0565b6040516101849291906113e6565b60045461017a565b61020661020136600461140f565b6104b9565b005b6102066102163660046114c7565b61053e565b60015461022e906001600160a01b031681565b6040516001600160a01b039091168152602001610184565b61025961025436600461140f565b6107af565b604051610184919061156c565b6102066108c3565b6101ba61027c36600461135f565b600b60209081525f928352604080842090915290825290205460ff1681565b6102ae6102a936600461140f565b6108d6565b60405161018491906115cf565b6102066102c936600461161a565b610949565b5f546001600160a01b031661022e565b6102066102ec36600461140f565b610b76565b61017a6102ff36600461140f565b6001600160a01b03165f9081526006602052604090205490565b610259610beb565b6102ae61032f36600461140f565b610ce9565b6101dd610342366004611651565b610d5a565b61020661035536600461161a565b610d88565b610206610368366004611651565b610ef8565b61038061037b36600461135f565b610f05565b6040516101849190611668565b61017a61039b36600461135f565b600860209081525f928352604080842090915290825290205481565b60035461022e906001600160a01b031681565b6102066103d836600461140f565b611018565b6102066103eb36600461161a565b611055565b6006602052815f5260405f208181548110610409575f80fd5b905f5260205f2090600202015f9150915050805f0180546104299061167a565b80601f01602080910402602001604051908101604052809291908181526020018280546104559061167a565b80156104a05780601f10610477576101008083540402835291602001916104a0565b820191905f5260205f20905b81548152906001019060200180831161048357829003601f168201915b505050600190930154919250506001600160a01b031682565b6104c161118d565b6001600160a01b03811661051c5760405162461bcd60e51b815260206004820152601e60248201527f696e76616c696420696d706c656d656e746174696f6e2061646472657373000060448201526064015b60405180910390fd5b600180546001600160a01b0319166001600160a01b0392909216919091179055565b5f8351116105805760405162461bcd60e51b815260206004820152600f60248201526e1a5b9d985b1a59081cda5d19555493608a1b6044820152606401610513565b6001600160a01b0381166105d65760405162461bcd60e51b815260206004820152601a60248201527f696e76616c696420657263323020746f6b656e416464726573730000000000006044820152606401610513565b5f836040516020016105e891906116b2565b60408051601f1981840301815291905280516020909101206001549091505f9061061b906001600160a01b0316836111b9565b60035460025460405163b9fbaaf960e01b81529293506001600160a01b038085169363b9fbaaf99361065d938b938b938b9333939216919030906004016116c8565b5f604051808303815f87803b158015610674575f80fd5b505af1158015610686573d5f803e3d5ffd5b50506040805180820182528881526001600160a01b038516602080830191909152335f9081526006825292832080546001810182559084529220815191945084935060029092029091019081906106dd9082611773565b50602091820151600191820180546001600160a01b0319166001600160a01b03909216919091179055335f9081526006909252604090912054610720919061182e565b6001600160a01b0383165f90815260056020526040812091909155600480546001810182559152815182916002027f8a35acfbc15ff81a39ae7d344fd709f28e8600b4aa8c65c6b64bfe7fe36bd19b0190819061077d9082611773565b5060209190910151600190910180546001600160a01b0319166001600160a01b03909216919091179055505050505050565b6001600160a01b0381165f908152600660209081526040808320805482518185028101850190935280835260609492939192909184015b828210156108b8578382905f5260205f2090600202016040518060400160405290815f820180546108169061167a565b80601f01602080910402602001604051908101604052809291908181526020018280546108429061167a565b801561088d5780601f106108645761010080835404028352916020019161088d565b820191905f5260205f20905b81548152906001019060200180831161087057829003601f168201915b50505091835250506001918201546001600160a01b03166020918201529183529290920191016107e6565b505050509050919050565b6108cb61118d565b6108d45f6111cc565b565b6001600160a01b0381165f908152600a602090815260409182902080548351818402810184019094528084526060939283018282801561093d57602002820191905f5260205f20905b81546001600160a01b0316815260019091019060200180831161091f575b50505050509050919050565b6001600160a01b03831661099b5760405162461bcd60e51b8152602060048201526019602482015278696e76616c6964206d6f64657261746f72206164647265737360381b6044820152606401610513565b6001600160a01b0382166109c15760405162461bcd60e51b81526004016105139061184d565b6001600160a01b0381166109e75760405162461bcd60e51b815260040161051390611884565b6109f1828261121b565b6001600160a01b0383165f9081526007602052604090208054610a169060019061182e565b81548110610a2657610a266118bb565b5f9182526020808320909101546001600160a01b03868116845260078352604080852060088552818620888416875290945290932054825493909116928110610a7157610a716118bb565b5f91825260208083209190910180546001600160a01b0319166001600160a01b039485161790558583168083526008825260408084209487168452848352808420549184526007909252908220805491939291610ad09060019061182e565b81548110610ae057610ae06118bb565b5f9182526020808320909101546001600160a01b0390811684528382019490945260409283018220949094559186168252600790925220805480610b2657610b266118cf565b5f828152602080822083015f1990810180546001600160a01b03191690559092019092556001600160a01b039485168252600981526040808320949095168252929092525020805460ff19169055565b610b7e61118d565b6001600160a01b038116610bc95760405162461bcd60e51b8152602060048201526012602482015271696e76616c6964206665654164647265737360701b6044820152606401610513565b600380546001600160a01b0319166001600160a01b0392909216919091179055565b60606004805480602002602001604051908101604052809291908181526020015f905b82821015610ce0578382905f5260205f2090600202016040518060400160405290815f82018054610c3e9061167a565b80601f0160208091040260200160405190810160405280929190818152602001828054610c6a9061167a565b8015610cb55780601f10610c8c57610100808354040283529160200191610cb5565b820191905f5260205f20905b815481529060010190602001808311610c9857829003601f168201915b50505091835250506001918201546001600160a01b0316602091820152918352929092019101610c0e565b50505050905090565b6001600160a01b0381165f9081526007602090815260409182902080548351818402810184019094528084526060939283018282801561093d57602002820191905f5260205f209081546001600160a01b0316815260019091019060200180831161091f5750505050509050919050565b60048181548110610d69575f80fd5b905f5260205f2090600202015f91509050805f0180546104299061167a565b6001600160a01b038316610dda5760405162461bcd60e51b8152602060048201526019602482015278696e76616c6964206d6f64657261746f72206164647265737360381b6044820152606401610513565b6001600160a01b038216610e005760405162461bcd60e51b81526004016105139061184d565b6001600160a01b038116610e265760405162461bcd60e51b815260040161051390611884565b610e30828261121b565b6001600160a01b038084165f9081526009602090815260408083209386168352929052205460ff16610ef3576001600160a01b038381165f81815260076020908152604082208054600180820183558285529284200180546001600160a01b031916958816959095179094559190529054610eab919061182e565b6001600160a01b038085165f818152600860209081526040808320948816808452948252808320959095559181526009825283812092815291905220805460ff191660011790555b505050565b610f0061118d565b600255565b60408051808201909152606081525f60208201526001600160a01b038083165f90815260056020908152604080832054938716835260069091529020805482908110610f5357610f536118bb565b905f5260205f2090600202016040518060400160405290815f82018054610f799061167a565b80601f0160208091040260200160405190810160405280929190818152602001828054610fa59061167a565b8015610ff05780601f10610fc757610100808354040283529160200191610ff0565b820191905f5260205f20905b815481529060010190602001808311610fd357829003601f168201915b5050509183525050600191909101546001600160a01b03166020909101529150505b92915050565b61102061118d565b6001600160a01b03811661104957604051631e4fbdf760e01b81525f6004820152602401610513565b611052816111cc565b50565b6001600160a01b0383166110ab5760405162461bcd60e51b815260206004820152601a60248201527f696e76616c6964206164766572746973657220616464726573730000000000006044820152606401610513565b6001600160a01b0382166110d15760405162461bcd60e51b81526004016105139061184d565b6001600160a01b0381166110f75760405162461bcd60e51b815260040161051390611884565b611101828261121b565b6001600160a01b038084165f908152600b602090815260408083209386168352929052205460ff16610ef3576001600160a01b038084165f818152600b60209081526040808320948716808452948252808320805460ff19166001908117909155938352600a8252822080549384018155825290200180546001600160a01b0319169091179055505050565b5f546001600160a01b031633146108d45760405163118cdaa760e01b8152336004820152602401610513565b5f6111c583835f6112af565b9392505050565b5f80546001600160a01b038381166001600160a01b0319831681178455604051919092169283917f8be0079c531659141344cd1fd0a4f28419497f9722a3daafe3b4186f6b6457e09190a35050565b5f6112268284610f05565b9050826001600160a01b031681602001516001600160a01b03161480156112555750336001600160a01b038416145b610ef35760405162461bcd60e51b815260206004820152602560248201527f63616c6c65722063616e206265207075626c697368657220636f6e7472616374604482015264206f6e6c7960d81b6064820152608401610513565b5f814710156112da5760405163cf47918160e01b815247600482015260248101839052604401610513565b763d602d80600a3d3981f3363d3d373d3d3d363d730000008460601b60e81c175f526e5af43d82803e903d91602b57fd5bf38460781b17602052826037600984f590506001600160a01b0381166111c55760405163b06ebf3d60e01b815260040160405180910390fd5b80356001600160a01b038116811461135a575f80fd5b919050565b5f8060408385031215611370575f80fd5b61137983611344565b915061138760208401611344565b90509250929050565b5f80604083850312156113a1575f80fd5b6113aa83611344565b946020939093013593505050565b5f81518084528060208401602086015e5f602082860101526020601f19601f83011685010191505092915050565b604081525f6113f860408301856113b8565b905060018060a01b03831660208301529392505050565b5f6020828403121561141f575f80fd5b6111c582611344565b634e487b7160e01b5f52604160045260245ffd5b5f82601f83011261144b575f80fd5b813567ffffffffffffffff81111561146557611465611428565b604051601f8201601f19908116603f0116810167ffffffffffffffff8111828210171561149457611494611428565b6040528181528382016020018510156114ab575f80fd5b816020850160208301375f918101602001919091529392505050565b5f805f606084860312156114d9575f80fd5b833567ffffffffffffffff8111156114ef575f80fd5b6114fb8682870161143c565b935050602084013567ffffffffffffffff811115611517575f80fd5b6115238682870161143c565b92505061153260408501611344565b90509250925092565b5f81516040845261154f60408501826113b8565b6020938401516001600160a01b0316949093019390935250919050565b5f602082016020835280845180835260408501915060408160051b8601019250602086015f5b828110156115c357603f198786030184526115ae85835161153b565b94506020938401939190910190600101611592565b50929695505050505050565b602080825282518282018190525f918401906040840190835b8181101561160f5783516001600160a01b03168352602093840193909201916001016115e8565b509095945050505050565b5f805f6060848603121561162c575f80fd5b61163584611344565b925061164360208501611344565b915061153260408501611344565b5f60208284031215611661575f80fd5b5035919050565b602081525f6111c5602083018461153b565b600181811c9082168061168e57607f821691505b6020821081036116ac57634e487b7160e01b5f52602260045260245ffd5b50919050565b5f82518060208501845e5f920191825250919050565b60e081525f6116da60e083018a6113b8565b82810360208401526116ec818a6113b8565b6001600160a01b03988916604085015296881660608401525050928516608084015260a083019190915290921660c09092019190915292915050565b601f821115610ef357805f5260205f20601f840160051c8101602085101561174d5750805b601f840160051c820191505b8181101561176c575f8155600101611759565b5050505050565b815167ffffffffffffffff81111561178d5761178d611428565b6117a18161179b845461167a565b84611728565b6020601f8211600181146117d3575f83156117bc5750848201515b5f19600385901b1c1916600184901b17845561176c565b5f84815260208120601f198516915b8281101561180257878501518255602094850194600190920191016117e2565b508482101561181f57868401515f19600387901b60f8161c191681555b50505050600190811b01905550565b8181038181111561101257634e487b7160e01b5f52601160045260245ffd5b60208082526017908201527f696e76616c696420636f6e747261637441646472657373000000000000000000604082015260600190565b60208082526019908201527f696e76616c6964207075626c6973686572206164647265737300000000000000604082015260600190565b634e487b7160e01b5f52603260045260245ffd5b634e487b7160e01b5f52603160045260245ffdfea2646970667358221220d893ffaf338ae0b1aa5cf4cd7608736bd5ef6e51a96dca8e6b84d4fb2dea2cab64736f6c634300081a0033",
					"opcodes": "PUSH1 0x80 PUSH1 0x40 MSTORE CALLVALUE DUP1 ISZERO PUSH2 0xF JUMPI PUSH0 DUP1 REVERT JUMPDEST POP PUSH1 0x40 MLOAD PUSH2 0x1B0B CODESIZE SUB DUP1 PUSH2 0x1B0B DUP4 CODECOPY DUP2 ADD PUSH1 0x40 DUP2 SWAP1 MSTORE PUSH2 0x2E SWAP2 PUSH2 0x1AC JUMP JUMPDEST CALLER DUP1 PUSH2 0x54 JUMPI PUSH1 0x40 MLOAD PUSH4 0x1E4FBDF7 PUSH1 0xE0 SHL DUP2 MSTORE PUSH0 PUSH1 0x4 DUP3 ADD MSTORE PUSH1 0x24 ADD JUMPDEST PUSH1 0x40 MLOAD DUP1 SWAP2 SUB SWAP1 REVERT JUMPDEST PUSH2 0x5D DUP2 PUSH2 0x142 JUMP JUMPDEST POP PUSH1 0x1 PUSH1 0x1 PUSH1 0xA0 SHL SUB DUP4 AND PUSH2 0xB4 JUMPI PUSH1 0x40 MLOAD PUSH3 0x461BCD PUSH1 0xE5 SHL DUP2 MSTORE PUSH1 0x20 PUSH1 0x4 DUP3 ADD MSTORE PUSH1 0x1E PUSH1 0x24 DUP3 ADD MSTORE PUSH32 0x696E76616C696420696D706C656D656E746174696F6E20616464726573730000 PUSH1 0x44 DUP3 ADD MSTORE PUSH1 0x64 ADD PUSH2 0x4B JUMP JUMPDEST PUSH1 0x1 PUSH1 0x1 PUSH1 0xA0 SHL SUB DUP3 AND PUSH2 0x10A JUMPI PUSH1 0x40 MLOAD PUSH3 0x461BCD PUSH1 0xE5 SHL DUP2 MSTORE PUSH1 0x20 PUSH1 0x4 DUP3 ADD MSTORE PUSH1 0x1A PUSH1 0x24 DUP3 ADD MSTORE PUSH32 0x696E76616C696420706C6174666F726D46656541646472657373000000000000 PUSH1 0x44 DUP3 ADD MSTORE PUSH1 0x64 ADD PUSH2 0x4B JUMP JUMPDEST PUSH1 0x1 DUP1 SLOAD PUSH1 0x1 PUSH1 0x1 PUSH1 0xA0 SHL SUB SWAP5 DUP6 AND PUSH1 0x1 PUSH1 0x1 PUSH1 0xA0 SHL SUB NOT SWAP2 DUP3 AND OR SWAP1 SWAP2 SSTORE PUSH1 0x3 DUP1 SLOAD SWAP4 SWAP1 SWAP5 AND SWAP3 AND SWAP2 SWAP1 SWAP2 OR SWAP1 SWAP2 SSTORE PUSH1 0x2 SSTORE PUSH2 0x1E5 JUMP JUMPDEST PUSH0 DUP1 SLOAD PUSH1 0x1 PUSH1 0x1 PUSH1 0xA0 SHL SUB DUP4 DUP2 AND PUSH1 0x1 PUSH1 0x1 PUSH1 0xA0 SHL SUB NOT DUP4 AND DUP2 OR DUP5 SSTORE PUSH1 0x40 MLOAD SWAP2 SWAP1 SWAP3 AND SWAP3 DUP4 SWAP2 PUSH32 0x8BE0079C531659141344CD1FD0A4F28419497F9722A3DAAFE3B4186F6B6457E0 SWAP2 SWAP1 LOG3 POP POP JUMP JUMPDEST DUP1 MLOAD PUSH1 0x1 PUSH1 0x1 PUSH1 0xA0 SHL SUB DUP2 AND DUP2 EQ PUSH2 0x1A7 JUMPI PUSH0 DUP1 REVERT JUMPDEST SWAP2 SWAP1 POP JUMP JUMPDEST PUSH0 DUP1 PUSH0 PUSH1 0x60 DUP5 DUP7 SUB SLT ISZERO PUSH2 0x1BE JUMPI PUSH0 DUP1 REVERT JUMPDEST PUSH2 0x1C7 DUP5 PUSH2 0x191 JUMP JUMPDEST SWAP3 POP PUSH2 0x1D5 PUSH1 0x20 DUP6 ADD PUSH2 0x191 JUMP JUMPDEST SWAP2 POP PUSH1 0x40 DUP5 ADD MLOAD SWAP1 POP SWAP3 POP SWAP3 POP SWAP3 JUMP JUMPDEST PUSH2 0x1919 DUP1 PUSH2 0x1F2 PUSH0 CODECOPY PUSH0 RETURN INVALID PUSH1 0x80 PUSH1 0x40 MSTORE CALLVALUE DUP1 ISZERO PUSH2 0xF JUMPI PUSH0 DUP1 REVERT JUMPDEST POP PUSH1 0x4 CALLDATASIZE LT PUSH2 0x16D JUMPI PUSH0 CALLDATALOAD PUSH1 0xE0 SHR DUP1 PUSH4 0x8DA5CB5B GT PUSH2 0xD9 JUMPI DUP1 PUSH4 0xB552EBC8 GT PUSH2 0x93 JUMPI DUP1 PUSH4 0xDF7AE382 GT PUSH2 0x6E JUMPI DUP1 PUSH4 0xDF7AE382 EQ PUSH2 0x38D JUMPI DUP1 PUSH4 0xED14834F EQ PUSH2 0x3B7 JUMPI DUP1 PUSH4 0xF2FDE38B EQ PUSH2 0x3CA JUMPI DUP1 PUSH4 0xF336AA35 EQ PUSH2 0x3DD JUMPI PUSH0 DUP1 REVERT JUMPDEST DUP1 PUSH4 0xB552EBC8 EQ PUSH2 0x347 JUMPI DUP1 PUSH4 0xC2B602F3 EQ PUSH2 0x35A JUMPI DUP1 PUSH4 0xD414A3F2 EQ PUSH2 0x36D JUMPI PUSH0 DUP1 REVERT JUMPDEST DUP1 PUSH4 0x8DA5CB5B EQ PUSH2 0x2CE JUMPI DUP1 PUSH4 0x9375DA5A EQ PUSH2 0x2DE JUMPI DUP1 PUSH4 0x9472A969 EQ PUSH2 0x2F1 JUMPI DUP1 PUSH4 0x9B1EC6A3 EQ PUSH2 0x319 JUMPI DUP1 PUSH4 0x9D209A30 EQ PUSH2 0x321 JUMPI DUP1 PUSH4 0xB2860298 EQ PUSH2 0x334 JUMPI PUSH0 DUP1 REVERT JUMPDEST DUP1 PUSH4 0x5C60DA1B GT PUSH2 0x12A JUMPI DUP1 PUSH4 0x5C60DA1B EQ PUSH2 0x21B JUMPI DUP1 PUSH4 0x64EB68EB EQ PUSH2 0x246 JUMPI DUP1 PUSH4 0x715018A6 EQ PUSH2 0x266 JUMPI DUP1 PUSH4 0x77B43000 EQ PUSH2 0x26E JUMPI DUP1 PUSH4 0x841A0CBE EQ PUSH2 0x29B JUMPI DUP1 PUSH4 0x8B0D4377 EQ PUSH2 0x2BB JUMPI PUSH0 DUP1 REVERT JUMPDEST DUP1 PUSH4 0x7DC6749 EQ PUSH2 0x171 JUMPI DUP1 PUSH4 0x14F9FF21 EQ PUSH2 0x18D JUMPI DUP1 PUSH4 0x172C2664 EQ PUSH2 0x1CA JUMPI DUP1 PUSH4 0x23E49534 EQ PUSH2 0x1EB JUMPI DUP1 PUSH4 0x2E4E56CF EQ PUSH2 0x1F3 JUMPI DUP1 PUSH4 0x4F568DB3 EQ PUSH2 0x208 JUMPI JUMPDEST PUSH0 DUP1 REVERT JUMPDEST PUSH2 0x17A PUSH1 0x2 SLOAD DUP2 JUMP JUMPDEST PUSH1 0x40 MLOAD SWAP1 DUP2 MSTORE PUSH1 0x20 ADD JUMPDEST PUSH1 0x40 MLOAD DUP1 SWAP2 SUB SWAP1 RETURN JUMPDEST PUSH2 0x1BA PUSH2 0x19B CALLDATASIZE PUSH1 0x4 PUSH2 0x135F JUMP JUMPDEST PUSH1 0x9 PUSH1 0x20 SWAP1 DUP2 MSTORE PUSH0 SWAP3 DUP4 MSTORE PUSH1 0x40 DUP1 DUP5 KECCAK256 SWAP1 SWAP2 MSTORE SWAP1 DUP3 MSTORE SWAP1 KECCAK256 SLOAD PUSH1 0xFF AND DUP2 JUMP JUMPDEST PUSH1 0x40 MLOAD SWAP1 ISZERO ISZERO DUP2 MSTORE PUSH1 0x20 ADD PUSH2 0x184 JUMP JUMPDEST PUSH2 0x1DD PUSH2 0x1D8 CALLDATASIZE PUSH1 0x4 PUSH2 0x1390 JUMP JUMPDEST PUSH2 0x3F0 JUMP JUMPDEST PUSH1 0x40 MLOAD PUSH2 0x184 SWAP3 SWAP2 SWAP1 PUSH2 0x13E6 JUMP JUMPDEST PUSH1 0x4 SLOAD PUSH2 0x17A JUMP JUMPDEST PUSH2 0x206 PUSH2 0x201 CALLDATASIZE PUSH1 0x4 PUSH2 0x140F JUMP JUMPDEST PUSH2 0x4B9 JUMP JUMPDEST STOP JUMPDEST PUSH2 0x206 PUSH2 0x216 CALLDATASIZE PUSH1 0x4 PUSH2 0x14C7 JUMP JUMPDEST PUSH2 0x53E JUMP JUMPDEST PUSH1 0x1 SLOAD PUSH2 0x22E SWAP1 PUSH1 0x1 PUSH1 0x1 PUSH1 0xA0 SHL SUB AND DUP2 JUMP JUMPDEST PUSH1 0x40 MLOAD PUSH1 0x1 PUSH1 0x1 PUSH1 0xA0 SHL SUB SWAP1 SWAP2 AND DUP2 MSTORE PUSH1 0x20 ADD PUSH2 0x184 JUMP JUMPDEST PUSH2 0x259 PUSH2 0x254 CALLDATASIZE PUSH1 0x4 PUSH2 0x140F JUMP JUMPDEST PUSH2 0x7AF JUMP JUMPDEST PUSH1 0x40 MLOAD PUSH2 0x184 SWAP2 SWAP1 PUSH2 0x156C JUMP JUMPDEST PUSH2 0x206 PUSH2 0x8C3 JUMP JUMPDEST PUSH2 0x1BA PUSH2 0x27C CALLDATASIZE PUSH1 0x4 PUSH2 0x135F JUMP JUMPDEST PUSH1 0xB PUSH1 0x20 SWAP1 DUP2 MSTORE PUSH0 SWAP3 DUP4 MSTORE PUSH1 0x40 DUP1 DUP5 KECCAK256 SWAP1 SWAP2 MSTORE SWAP1 DUP3 MSTORE SWAP1 KECCAK256 SLOAD PUSH1 0xFF AND DUP2 JUMP JUMPDEST PUSH2 0x2AE PUSH2 0x2A9 CALLDATASIZE PUSH1 0x4 PUSH2 0x140F JUMP JUMPDEST PUSH2 0x8D6 JUMP JUMPDEST PUSH1 0x40 MLOAD PUSH2 0x184 SWAP2 SWAP1 PUSH2 0x15CF JUMP JUMPDEST PUSH2 0x206 PUSH2 0x2C9 CALLDATASIZE PUSH1 0x4 PUSH2 0x161A JUMP JUMPDEST PUSH2 0x949 JUMP JUMPDEST PUSH0 SLOAD PUSH1 0x1 PUSH1 0x1 PUSH1 0xA0 SHL SUB AND PUSH2 0x22E JUMP JUMPDEST PUSH2 0x206 PUSH2 0x2EC CALLDATASIZE PUSH1 0x4 PUSH2 0x140F JUMP JUMPDEST PUSH2 0xB76 JUMP JUMPDEST PUSH2 0x17A PUSH2 0x2FF CALLDATASIZE PUSH1 0x4 PUSH2 0x140F JUMP JUMPDEST PUSH1 0x1 PUSH1 0x1 PUSH1 0xA0 SHL SUB AND PUSH0 SWAP1 DUP2 MSTORE PUSH1 0x6 PUSH1 0x20 MSTORE PUSH1 0x40 SWAP1 KECCAK256 SLOAD SWAP1 JUMP JUMPDEST PUSH2 0x259 PUSH2 0xBEB JUMP JUMPDEST PUSH2 0x2AE PUSH2 0x32F CALLDATASIZE PUSH1 0x4 PUSH2 0x140F JUMP JUMPDEST PUSH2 0xCE9 JUMP JUMPDEST PUSH2 0x1DD PUSH2 0x342 CALLDATASIZE PUSH1 0x4 PUSH2 0x1651 JUMP JUMPDEST PUSH2 0xD5A JUMP JUMPDEST PUSH2 0x206 PUSH2 0x355 CALLDATASIZE PUSH1 0x4 PUSH2 0x161A JUMP JUMPDEST PUSH2 0xD88 JUMP JUMPDEST PUSH2 0x206 PUSH2 0x368 CALLDATASIZE PUSH1 0x4 PUSH2 0x1651 JUMP JUMPDEST PUSH2 0xEF8 JUMP JUMPDEST PUSH2 0x380 PUSH2 0x37B CALLDATASIZE PUSH1 0x4 PUSH2 0x135F JUMP JUMPDEST PUSH2 0xF05 JUMP JUMPDEST PUSH1 0x40 MLOAD PUSH2 0x184 SWAP2 SWAP1 PUSH2 0x1668 JUMP JUMPDEST PUSH2 0x17A PUSH2 0x39B CALLDATASIZE PUSH1 0x4 PUSH2 0x135F JUMP JUMPDEST PUSH1 0x8 PUSH1 0x20 SWAP1 DUP2 MSTORE PUSH0 SWAP3 DUP4 MSTORE PUSH1 0x40 DUP1 DUP5 KECCAK256 SWAP1 SWAP2 MSTORE SWAP1 DUP3 MSTORE SWAP1 KECCAK256 SLOAD DUP2 JUMP JUMPDEST PUSH1 0x3 SLOAD PUSH2 0x22E SWAP1 PUSH1 0x1 PUSH1 0x1 PUSH1 0xA0 SHL SUB AND DUP2 JUMP JUMPDEST PUSH2 0x206 PUSH2 0x3D8 CALLDATASIZE PUSH1 0x4 PUSH2 0x140F JUMP JUMPDEST PUSH2 0x1018 JUMP JUMPDEST PUSH2 0x206 PUSH2 0x3EB CALLDATASIZE PUSH1 0x4 PUSH2 0x161A JUMP JUMPDEST PUSH2 0x1055 JUMP JUMPDEST PUSH1 0x6 PUSH1 0x20 MSTORE DUP2 PUSH0 MSTORE PUSH1 0x40 PUSH0 KECCAK256 DUP2 DUP2 SLOAD DUP2 LT PUSH2 0x409 JUMPI PUSH0 DUP1 REVERT JUMPDEST SWAP1 PUSH0 MSTORE PUSH1 0x20 PUSH0 KECCAK256 SWAP1 PUSH1 0x2 MUL ADD PUSH0 SWAP2 POP SWAP2 POP POP DUP1 PUSH0 ADD DUP1 SLOAD PUSH2 0x429 SWAP1 PUSH2 0x167A JUMP JUMPDEST DUP1 PUSH1 0x1F ADD PUSH1 0x20 DUP1 SWAP2 DIV MUL PUSH1 0x20 ADD PUSH1 0x40 MLOAD SWAP1 DUP2 ADD PUSH1 0x40 MSTORE DUP1 SWAP3 SWAP2 SWAP1 DUP2 DUP2 MSTORE PUSH1 0x20 ADD DUP3 DUP1 SLOAD PUSH2 0x455 SWAP1 PUSH2 0x167A JUMP JUMPDEST DUP1 ISZERO PUSH2 0x4A0 JUMPI DUP1 PUSH1 0x1F LT PUSH2 0x477 JUMPI PUSH2 0x100 DUP1 DUP4 SLOAD DIV MUL DUP4 MSTORE SWAP2 PUSH1 0x20 ADD SWAP2 PUSH2 0x4A0 JUMP JUMPDEST DUP3 ADD SWAP2 SWAP1 PUSH0 MSTORE PUSH1 0x20 PUSH0 KECCAK256 SWAP1 JUMPDEST DUP2 SLOAD DUP2 MSTORE SWAP1 PUSH1 0x1 ADD SWAP1 PUSH1 0x20 ADD DUP1 DUP4 GT PUSH2 0x483 JUMPI DUP3 SWAP1 SUB PUSH1 0x1F AND DUP3 ADD SWAP2 JUMPDEST POP POP POP PUSH1 0x1 SWAP1 SWAP4 ADD SLOAD SWAP2 SWAP3 POP POP PUSH1 0x1 PUSH1 0x1 PUSH1 0xA0 SHL SUB AND DUP3 JUMP JUMPDEST PUSH2 0x4C1 PUSH2 0x118D JUMP JUMPDEST PUSH1 0x1 PUSH1 0x1 PUSH1 0xA0 SHL SUB DUP2 AND PUSH2 0x51C JUMPI PUSH1 0x40 MLOAD PUSH3 0x461BCD PUSH1 0xE5 SHL DUP2 MSTORE PUSH1 0x20 PUSH1 0x4 DUP3 ADD MSTORE PUSH1 0x1E PUSH1 0x24 DUP3 ADD MSTORE PUSH32 0x696E76616C696420696D706C656D656E746174696F6E20616464726573730000 PUSH1 0x44 DUP3 ADD MSTORE PUSH1 0x64 ADD JUMPDEST PUSH1 0x40 MLOAD DUP1 SWAP2 SUB SWAP1 REVERT JUMPDEST PUSH1 0x1 DUP1 SLOAD PUSH1 0x1 PUSH1 0x1 PUSH1 0xA0 SHL SUB NOT AND PUSH1 0x1 PUSH1 0x1 PUSH1 0xA0 SHL SUB SWAP3 SWAP1 SWAP3 AND SWAP2 SWAP1 SWAP2 OR SWAP1 SSTORE JUMP JUMPDEST PUSH0 DUP4 MLOAD GT PUSH2 0x580 JUMPI PUSH1 0x40 MLOAD PUSH3 0x461BCD PUSH1 0xE5 SHL DUP2 MSTORE PUSH1 0x20 PUSH1 0x4 DUP3 ADD MSTORE PUSH1 0xF PUSH1 0x24 DUP3 ADD MSTORE PUSH15 0x1A5B9D985B1A59081CDA5D19555493 PUSH1 0x8A SHL PUSH1 0x44 DUP3 ADD MSTORE PUSH1 0x64 ADD PUSH2 0x513 JUMP JUMPDEST PUSH1 0x1 PUSH1 0x1 PUSH1 0xA0 SHL SUB DUP2 AND PUSH2 0x5D6 JUMPI PUSH1 0x40 MLOAD PUSH3 0x461BCD PUSH1 0xE5 SHL DUP2 MSTORE PUSH1 0x20 PUSH1 0x4 DUP3 ADD MSTORE PUSH1 0x1A PUSH1 0x24 DUP3 ADD MSTORE PUSH32 0x696E76616C696420657263323020746F6B656E41646472657373000000000000 PUSH1 0x44 DUP3 ADD MSTORE PUSH1 0x64 ADD PUSH2 0x513 JUMP JUMPDEST PUSH0 DUP4 PUSH1 0x40 MLOAD PUSH1 0x20 ADD PUSH2 0x5E8 SWAP2 SWAP1 PUSH2 0x16B2 JUMP JUMPDEST PUSH1 0x40 DUP1 MLOAD PUSH1 0x1F NOT DUP2 DUP5 SUB ADD DUP2 MSTORE SWAP2 SWAP1 MSTORE DUP1 MLOAD PUSH1 0x20 SWAP1 SWAP2 ADD KECCAK256 PUSH1 0x1 SLOAD SWAP1 SWAP2 POP PUSH0 SWAP1 PUSH2 0x61B SWAP1 PUSH1 0x1 PUSH1 0x1 PUSH1 0xA0 SHL SUB AND DUP4 PUSH2 0x11B9 JUMP JUMPDEST PUSH1 0x3 SLOAD PUSH1 0x2 SLOAD PUSH1 0x40 MLOAD PUSH4 0xB9FBAAF9 PUSH1 0xE0 SHL DUP2 MSTORE SWAP3 SWAP4 POP PUSH1 0x1 PUSH1 0x1 PUSH1 0xA0 SHL SUB DUP1 DUP6 AND SWAP4 PUSH4 0xB9FBAAF9 SWAP4 PUSH2 0x65D SWAP4 DUP12 SWAP4 DUP12 SWAP4 DUP12 SWAP4 CALLER SWAP4 SWAP3 AND SWAP2 SWAP1 ADDRESS SWAP1 PUSH1 0x4 ADD PUSH2 0x16C8 JUMP JUMPDEST PUSH0 PUSH1 0x40 MLOAD DUP1 DUP4 SUB DUP2 PUSH0 DUP8 DUP1 EXTCODESIZE ISZERO DUP1 ISZERO PUSH2 0x674 JUMPI PUSH0 DUP1 REVERT JUMPDEST POP GAS CALL ISZERO DUP1 ISZERO PUSH2 0x686 JUMPI RETURNDATASIZE PUSH0 DUP1 RETURNDATACOPY RETURNDATASIZE PUSH0 REVERT JUMPDEST POP POP PUSH1 0x40 DUP1 MLOAD DUP1 DUP3 ADD DUP3 MSTORE DUP9 DUP2 MSTORE PUSH1 0x1 PUSH1 0x1 PUSH1 0xA0 SHL SUB DUP6 AND PUSH1 0x20 DUP1 DUP4 ADD SWAP2 SWAP1 SWAP2 MSTORE CALLER PUSH0 SWAP1 DUP2 MSTORE PUSH1 0x6 DUP3 MSTORE SWAP3 DUP4 KECCAK256 DUP1 SLOAD PUSH1 0x1 DUP2 ADD DUP3 SSTORE SWAP1 DUP5 MSTORE SWAP3 KECCAK256 DUP2 MLOAD SWAP2 SWAP5 POP DUP5 SWAP4 POP PUSH1 0x2 SWAP1 SWAP3 MUL SWAP1 SWAP2 ADD SWAP1 DUP2 SWAP1 PUSH2 0x6DD SWAP1 DUP3 PUSH2 0x1773 JUMP JUMPDEST POP PUSH1 0x20 SWAP2 DUP3 ADD MLOAD PUSH1 0x1 SWAP2 DUP3 ADD DUP1 SLOAD PUSH1 0x1 PUSH1 0x1 PUSH1 0xA0 SHL SUB NOT AND PUSH1 0x1 PUSH1 0x1 PUSH1 0xA0 SHL SUB SWAP1 SWAP3 AND SWAP2 SWAP1 SWAP2 OR SWAP1 SSTORE CALLER PUSH0 SWAP1 DUP2 MSTORE PUSH1 0x6 SWAP1 SWAP3 MSTORE PUSH1 0x40 SWAP1 SWAP2 KECCAK256 SLOAD PUSH2 0x720 SWAP2 SWAP1 PUSH2 0x182E JUMP JUMPDEST PUSH1 0x1 PUSH1 0x1 PUSH1 0xA0 SHL SUB DUP4 AND PUSH0 SWAP1 DUP2 MSTORE PUSH1 0x5 PUSH1 0x20 MSTORE PUSH1 0x40 DUP2 KECCAK256 SWAP2 SWAP1 SWAP2 SSTORE PUSH1 0x4 DUP1 SLOAD PUSH1 0x1 DUP2 ADD DUP3 SSTORE SWAP2 MSTORE DUP2 MLOAD DUP3 SWAP2 PUSH1 0x2 MUL PUSH32 0x8A35ACFBC15FF81A39AE7D344FD709F28E8600B4AA8C65C6B64BFE7FE36BD19B ADD SWAP1 DUP2 SWAP1 PUSH2 0x77D SWAP1 DUP3 PUSH2 0x1773 JUMP JUMPDEST POP PUSH1 0x20 SWAP2 SWAP1 SWAP2 ADD MLOAD PUSH1 0x1 SWAP1 SWAP2 ADD DUP1 SLOAD PUSH1 0x1 PUSH1 0x1 PUSH1 0xA0 SHL SUB NOT AND PUSH1 0x1 PUSH1 0x1 PUSH1 0xA0 SHL SUB SWAP1 SWAP3 AND SWAP2 SWAP1 SWAP2 OR SWAP1 SSTORE POP POP POP POP POP POP JUMP JUMPDEST PUSH1 0x1 PUSH1 0x1 PUSH1 0xA0 SHL SUB DUP2 AND PUSH0 SWAP1 DUP2 MSTORE PUSH1 0x6 PUSH1 0x20 SWAP1 DUP2 MSTORE PUSH1 0x40 DUP1 DUP4 KECCAK256 DUP1 SLOAD DUP3 MLOAD DUP2 DUP6 MUL DUP2 ADD DUP6 ADD SWAP1 SWAP4 MSTORE DUP1 DUP4 MSTORE PUSH1 0x60 SWAP5 SWAP3 SWAP4 SWAP2 SWAP3 SWAP1 SWAP2 DUP5 ADD JUMPDEST DUP3 DUP3 LT ISZERO PUSH2 0x8B8 JUMPI DUP4 DUP3 SWAP1 PUSH0 MSTORE PUSH1 0x20 PUSH0 KECCAK256 SWAP1 PUSH1 0x2 MUL ADD PUSH1 0x40 MLOAD DUP1 PUSH1 0x40 ADD PUSH1 0x40 MSTORE SWAP1 DUP2 PUSH0 DUP3 ADD DUP1 SLOAD PUSH2 0x816 SWAP1 PUSH2 0x167A JUMP JUMPDEST DUP1 PUSH1 0x1F ADD PUSH1 0x20 DUP1 SWAP2 DIV MUL PUSH1 0x20 ADD PUSH1 0x40 MLOAD SWAP1 DUP2 ADD PUSH1 0x40 MSTORE DUP1 SWAP3 SWAP2 SWAP1 DUP2 DUP2 MSTORE PUSH1 0x20 ADD DUP3 DUP1 SLOAD PUSH2 0x842 SWAP1 PUSH2 0x167A JUMP JUMPDEST DUP1 ISZERO PUSH2 0x88D JUMPI DUP1 PUSH1 0x1F LT PUSH2 0x864 JUMPI PUSH2 0x100 DUP1 DUP4 SLOAD DIV MUL DUP4 MSTORE SWAP2 PUSH1 0x20 ADD SWAP2 PUSH2 0x88D JUMP JUMPDEST DUP3 ADD SWAP2 SWAP1 PUSH0 MSTORE PUSH1 0x20 PUSH0 KECCAK256 SWAP1 JUMPDEST DUP2 SLOAD DUP2 MSTORE SWAP1 PUSH1 0x1 ADD SWAP1 PUSH1 0x20 ADD DUP1 DUP4 GT PUSH2 0x870 JUMPI DUP3 SWAP1 SUB PUSH1 0x1F AND DUP3 ADD SWAP2 JUMPDEST POP POP POP SWAP2 DUP4 MSTORE POP POP PUSH1 0x1 SWAP2 DUP3 ADD SLOAD PUSH1 0x1 PUSH1 0x1 PUSH1 0xA0 SHL SUB AND PUSH1 0x20 SWAP2 DUP3 ADD MSTORE SWAP2 DUP4 MSTORE SWAP3 SWAP1 SWAP3 ADD SWAP2 ADD PUSH2 0x7E6 JUMP JUMPDEST POP POP POP POP SWAP1 POP SWAP2 SWAP1 POP JUMP JUMPDEST PUSH2 0x8CB PUSH2 0x118D JUMP JUMPDEST PUSH2 0x8D4 PUSH0 PUSH2 0x11CC JUMP JUMPDEST JUMP JUMPDEST PUSH1 0x1 PUSH1 0x1 PUSH1 0xA0 SHL SUB DUP2 AND PUSH0 SWAP1 DUP2 MSTORE PUSH1 0xA PUSH1 0x20 SWAP1 DUP2 MSTORE PUSH1 0x40 SWAP2 DUP3 SWAP1 KECCAK256 DUP1 SLOAD DUP4 MLOAD DUP2 DUP5 MUL DUP2 ADD DUP5 ADD SWAP1 SWAP5 MSTORE DUP1 DUP5 MSTORE PUSH1 0x60 SWAP4 SWAP3 DUP4 ADD DUP3 DUP3 DUP1 ISZERO PUSH2 0x93D JUMPI PUSH1 0x20 MUL DUP3 ADD SWAP2 SWAP1 PUSH0 MSTORE PUSH1 0x20 PUSH0 KECCAK256 SWAP1 JUMPDEST DUP2 SLOAD PUSH1 0x1 PUSH1 0x1 PUSH1 0xA0 SHL SUB AND DUP2 MSTORE PUSH1 0x1 SWAP1 SWAP2 ADD SWAP1 PUSH1 0x20 ADD DUP1 DUP4 GT PUSH2 0x91F JUMPI JUMPDEST POP POP POP POP POP SWAP1 POP SWAP2 SWAP1 POP JUMP JUMPDEST PUSH1 0x1 PUSH1 0x1 PUSH1 0xA0 SHL SUB DUP4 AND PUSH2 0x99B JUMPI PUSH1 0x40 MLOAD PUSH3 0x461BCD PUSH1 0xE5 SHL DUP2 MSTORE PUSH1 0x20 PUSH1 0x4 DUP3 ADD MSTORE PUSH1 0x19 PUSH1 0x24 DUP3 ADD MSTORE PUSH25 0x696E76616C6964206D6F64657261746F722061646472657373 PUSH1 0x38 SHL PUSH1 0x44 DUP3 ADD MSTORE PUSH1 0x64 ADD PUSH2 0x513 JUMP JUMPDEST PUSH1 0x1 PUSH1 0x1 PUSH1 0xA0 SHL SUB DUP3 AND PUSH2 0x9C1 JUMPI PUSH1 0x40 MLOAD PUSH3 0x461BCD PUSH1 0xE5 SHL DUP2 MSTORE PUSH1 0x4 ADD PUSH2 0x513 SWAP1 PUSH2 0x184D JUMP JUMPDEST PUSH1 0x1 PUSH1 0x1 PUSH1 0xA0 SHL SUB DUP2 AND PUSH2 0x9E7 JUMPI PUSH1 0x40 MLOAD PUSH3 0x461BCD PUSH1 0xE5 SHL DUP2 MSTORE PUSH1 0x4 ADD PUSH2 0x513 SWAP1 PUSH2 0x1884 JUMP JUMPDEST PUSH2 0x9F1 DUP3 DUP3 PUSH2 0x121B JUMP JUMPDEST PUSH1 0x1 PUSH1 0x1 PUSH1 0xA0 SHL SUB DUP4 AND PUSH0 SWAP1 DUP2 MSTORE PUSH1 0x7 PUSH1 0x20 MSTORE PUSH1 0x40 SWAP1 KECCAK256 DUP1 SLOAD PUSH2 0xA16 SWAP1 PUSH1 0x1 SWAP1 PUSH2 0x182E JUMP JUMPDEST DUP2 SLOAD DUP2 LT PUSH2 0xA26 JUMPI PUSH2 0xA26 PUSH2 0x18BB JUMP JUMPDEST PUSH0 SWAP2 DUP3 MSTORE PUSH1 0x20 DUP1 DUP4 KECCAK256 SWAP1 SWAP2 ADD SLOAD PUSH1 0x1 PUSH1 0x1 PUSH1 0xA0 SHL SUB DUP7 DUP2 AND DUP5 MSTORE PUSH1 0x7 DUP4 MSTORE PUSH1 0x40 DUP1 DUP6 KECCAK256 PUSH1 0x8 DUP6 MSTORE DUP2 DUP7 KECCAK256 DUP9 DUP5 AND DUP8 MSTORE SWAP1 SWAP5 MSTORE SWAP1 SWAP4 KECCAK256 SLOAD DUP3 SLOAD SWAP4 SWAP1 SWAP2 AND SWAP3 DUP2 LT PUSH2 0xA71 JUMPI PUSH2 0xA71 PUSH2 0x18BB JUMP JUMPDEST PUSH0 SWAP2 DUP3 MSTORE PUSH1 0x20 DUP1 DUP4 KECCAK256 SWAP2 SWAP1 SWAP2 ADD DUP1 SLOAD PUSH1 0x1 PUSH1 0x1 PUSH1 0xA0 SHL SUB NOT AND PUSH1 0x1 PUSH1 0x1 PUSH1 0xA0 SHL SUB SWAP5 DUP6 AND OR SWAP1 SSTORE DUP6 DUP4 AND DUP1 DUP4 MSTORE PUSH1 0x8 DUP3 MSTORE PUSH1 0x40 DUP1 DUP5 KECCAK256 SWAP5 DUP8 AND DUP5 MSTORE DUP5 DUP4 MSTORE DUP1 DUP5 KECCAK256 SLOAD SWAP2 DUP5 MSTORE PUSH1 0x7 SWAP1 SWAP3 MSTORE SWAP1 DUP3 KECCAK256 DUP1 SLOAD SWAP2 SWAP4 SWAP3 SWAP2 PUSH2 0xAD0 SWAP1 PUSH1 0x1 SWAP1 PUSH2 0x182E JUMP JUMPDEST DUP2 SLOAD DUP2 LT PUSH2 0xAE0 JUMPI PUSH2 0xAE0 PUSH2 0x18BB JUMP JUMPDEST PUSH0 SWAP2 DUP3 MSTORE PUSH1 0x20 DUP1 DUP4 KECCAK256 SWAP1 SWAP2 ADD SLOAD PUSH1 0x1 PUSH1 0x1 PUSH1 0xA0 SHL SUB SWAP1 DUP2 AND DUP5 MSTORE DUP4 DUP3 ADD SWAP5 SWAP1 SWAP5 MSTORE PUSH1 0x40 SWAP3 DUP4 ADD DUP3 KECCAK256 SWAP5 SWAP1 SWAP5 SSTORE SWAP2 DUP7 AND DUP3 MSTORE PUSH1 0x7 SWAP1 SWAP3 MSTORE KECCAK256 DUP1 SLOAD DUP1 PUSH2 0xB26 JUMPI PUSH2 0xB26 PUSH2 0x18CF JUMP JUMPDEST PUSH0 DUP3 DUP2 MSTORE PUSH1 0x20 DUP1 DUP3 KECCAK256 DUP4 ADD PUSH0 NOT SWAP1 DUP2 ADD DUP1 SLOAD PUSH1 0x1 PUSH1 0x1 PUSH1 0xA0 SHL SUB NOT AND SWAP1 SSTORE SWAP1 SWAP3 ADD SWAP1 SWAP3 SSTORE PUSH1 0x1 PUSH1 0x1 PUSH1 0xA0 SHL SUB SWAP5 DUP6 AND DUP3 MSTORE PUSH1 0x9 DUP2 MSTORE PUSH1 0x40 DUP1 DUP4 KECCAK256 SWAP5 SWAP1 SWAP6 AND DUP3 MSTORE SWAP3 SWAP1 SWAP3 MSTORE POP KECCAK256 DUP1 SLOAD PUSH1 0xFF NOT AND SWAP1 SSTORE JUMP JUMPDEST PUSH2 0xB7E PUSH2 0x118D JUMP JUMPDEST PUSH1 0x1 PUSH1 0x1 PUSH1 0xA0 SHL SUB DUP2 AND PUSH2 0xBC9 JUMPI PUSH1 0x40 MLOAD PUSH3 0x461BCD PUSH1 0xE5 SHL DUP2 MSTORE PUSH1 0x20 PUSH1 0x4 DUP3 ADD MSTORE PUSH1 0x12 PUSH1 0x24 DUP3 ADD MSTORE PUSH18 0x696E76616C69642066656541646472657373 PUSH1 0x70 SHL PUSH1 0x44 DUP3 ADD MSTORE PUSH1 0x64 ADD PUSH2 0x513 JUMP JUMPDEST PUSH1 0x3 DUP1 SLOAD PUSH1 0x1 PUSH1 0x1 PUSH1 0xA0 SHL SUB NOT AND PUSH1 0x1 PUSH1 0x1 PUSH1 0xA0 SHL SUB SWAP3 SWAP1 SWAP3 AND SWAP2 SWAP1 SWAP2 OR SWAP1 SSTORE JUMP JUMPDEST PUSH1 0x60 PUSH1 0x4 DUP1 SLOAD DUP1 PUSH1 0x20 MUL PUSH1 0x20 ADD PUSH1 0x40 MLOAD SWAP1 DUP2 ADD PUSH1 0x40 MSTORE DUP1 SWAP3 SWAP2 SWAP1 DUP2 DUP2 MSTORE PUSH1 0x20 ADD PUSH0 SWAP1 JUMPDEST DUP3 DUP3 LT ISZERO PUSH2 0xCE0 JUMPI DUP4 DUP3 SWAP1 PUSH0 MSTORE PUSH1 0x20 PUSH0 KECCAK256 SWAP1 PUSH1 0x2 MUL ADD PUSH1 0x40 MLOAD DUP1 PUSH1 0x40 ADD PUSH1 0x40 MSTORE SWAP1 DUP2 PUSH0 DUP3 ADD DUP1 SLOAD PUSH2 0xC3E SWAP1 PUSH2 0x167A JUMP JUMPDEST DUP1 PUSH1 0x1F ADD PUSH1 0x20 DUP1 SWAP2 DIV MUL PUSH1 0x20 ADD PUSH1 0x40 MLOAD SWAP1 DUP2 ADD PUSH1 0x40 MSTORE DUP1 SWAP3 SWAP2 SWAP1 DUP2 DUP2 MSTORE PUSH1 0x20 ADD DUP3 DUP1 SLOAD PUSH2 0xC6A SWAP1 PUSH2 0x167A JUMP JUMPDEST DUP1 ISZERO PUSH2 0xCB5 JUMPI DUP1 PUSH1 0x1F LT PUSH2 0xC8C JUMPI PUSH2 0x100 DUP1 DUP4 SLOAD DIV MUL DUP4 MSTORE SWAP2 PUSH1 0x20 ADD SWAP2 PUSH2 0xCB5 JUMP JUMPDEST DUP3 ADD SWAP2 SWAP1 PUSH0 MSTORE PUSH1 0x20 PUSH0 KECCAK256 SWAP1 JUMPDEST DUP2 SLOAD DUP2 MSTORE SWAP1 PUSH1 0x1 ADD SWAP1 PUSH1 0x20 ADD DUP1 DUP4 GT PUSH2 0xC98 JUMPI DUP3 SWAP1 SUB PUSH1 0x1F AND DUP3 ADD SWAP2 JUMPDEST POP POP POP SWAP2 DUP4 MSTORE POP POP PUSH1 0x1 SWAP2 DUP3 ADD SLOAD PUSH1 0x1 PUSH1 0x1 PUSH1 0xA0 SHL SUB AND PUSH1 0x20 SWAP2 DUP3 ADD MSTORE SWAP2 DUP4 MSTORE SWAP3 SWAP1 SWAP3 ADD SWAP2 ADD PUSH2 0xC0E JUMP JUMPDEST POP POP POP POP SWAP1 POP SWAP1 JUMP JUMPDEST PUSH1 0x1 PUSH1 0x1 PUSH1 0xA0 SHL SUB DUP2 AND PUSH0 SWAP1 DUP2 MSTORE PUSH1 0x7 PUSH1 0x20 SWAP1 DUP2 MSTORE PUSH1 0x40 SWAP2 DUP3 SWAP1 KECCAK256 DUP1 SLOAD DUP4 MLOAD DUP2 DUP5 MUL DUP2 ADD DUP5 ADD SWAP1 SWAP5 MSTORE DUP1 DUP5 MSTORE PUSH1 0x60 SWAP4 SWAP3 DUP4 ADD DUP3 DUP3 DUP1 ISZERO PUSH2 0x93D JUMPI PUSH1 0x20 MUL DUP3 ADD SWAP2 SWAP1 PUSH0 MSTORE PUSH1 0x20 PUSH0 KECCAK256 SWAP1 DUP2 SLOAD PUSH1 0x1 PUSH1 0x1 PUSH1 0xA0 SHL SUB AND DUP2 MSTORE PUSH1 0x1 SWAP1 SWAP2 ADD SWAP1 PUSH1 0x20 ADD DUP1 DUP4 GT PUSH2 0x91F JUMPI POP POP POP POP POP SWAP1 POP SWAP2 SWAP1 POP JUMP JUMPDEST PUSH1 0x4 DUP2 DUP2 SLOAD DUP2 LT PUSH2 0xD69 JUMPI PUSH0 DUP1 REVERT JUMPDEST SWAP1 PUSH0 MSTORE PUSH1 0x20 PUSH0 KECCAK256 SWAP1 PUSH1 0x2 MUL ADD PUSH0 SWAP2 POP SWAP1 POP DUP1 PUSH0 ADD DUP1 SLOAD PUSH2 0x429 SWAP1 PUSH2 0x167A JUMP JUMPDEST PUSH1 0x1 PUSH1 0x1 PUSH1 0xA0 SHL SUB DUP4 AND PUSH2 0xDDA JUMPI PUSH1 0x40 MLOAD PUSH3 0x461BCD PUSH1 0xE5 SHL DUP2 MSTORE PUSH1 0x20 PUSH1 0x4 DUP3 ADD MSTORE PUSH1 0x19 PUSH1 0x24 DUP3 ADD MSTORE PUSH25 0x696E76616C6964206D6F64657261746F722061646472657373 PUSH1 0x38 SHL PUSH1 0x44 DUP3 ADD MSTORE PUSH1 0x64 ADD PUSH2 0x513 JUMP JUMPDEST PUSH1 0x1 PUSH1 0x1 PUSH1 0xA0 SHL SUB DUP3 AND PUSH2 0xE00 JUMPI PUSH1 0x40 MLOAD PUSH3 0x461BCD PUSH1 0xE5 SHL DUP2 MSTORE PUSH1 0x4 ADD PUSH2 0x513 SWAP1 PUSH2 0x184D JUMP JUMPDEST PUSH1 0x1 PUSH1 0x1 PUSH1 0xA0 SHL SUB DUP2 AND PUSH2 0xE26 JUMPI PUSH1 0x40 MLOAD PUSH3 0x461BCD PUSH1 0xE5 SHL DUP2 MSTORE PUSH1 0x4 ADD PUSH2 0x513 SWAP1 PUSH2 0x1884 JUMP JUMPDEST PUSH2 0xE30 DUP3 DUP3 PUSH2 0x121B JUMP JUMPDEST PUSH1 0x1 PUSH1 0x1 PUSH1 0xA0 SHL SUB DUP1 DUP5 AND PUSH0 SWAP1 DUP2 MSTORE PUSH1 0x9 PUSH1 0x20 SWAP1 DUP2 MSTORE PUSH1 0x40 DUP1 DUP4 KECCAK256 SWAP4 DUP7 AND DUP4 MSTORE SWAP3 SWAP1 MSTORE KECCAK256 SLOAD PUSH1 0xFF AND PUSH2 0xEF3 JUMPI PUSH1 0x1 PUSH1 0x1 PUSH1 0xA0 SHL SUB DUP4 DUP2 AND PUSH0 DUP2 DUP2 MSTORE PUSH1 0x7 PUSH1 0x20 SWAP1 DUP2 MSTORE PUSH1 0x40 DUP3 KECCAK256 DUP1 SLOAD PUSH1 0x1 DUP1 DUP3 ADD DUP4 SSTORE DUP3 DUP6 MSTORE SWAP3 DUP5 KECCAK256 ADD DUP1 SLOAD PUSH1 0x1 PUSH1 0x1 PUSH1 0xA0 SHL SUB NOT AND SWAP6 DUP9 AND SWAP6 SWAP1 SWAP6 OR SWAP1 SWAP5 SSTORE SWAP2 SWAP1 MSTORE SWAP1 SLOAD PUSH2 0xEAB SWAP2 SWAP1 PUSH2 0x182E JUMP JUMPDEST PUSH1 0x1 PUSH1 0x1 PUSH1 0xA0 SHL SUB DUP1 DUP6 AND PUSH0 DUP2 DUP2 MSTORE PUSH1 0x8 PUSH1 0x20 SWAP1 DUP2 MSTORE PUSH1 0x40 DUP1 DUP4 KECCAK256 SWAP5 DUP9 AND DUP1 DUP5 MSTORE SWAP5 DUP3 MSTORE DUP1 DUP4 KECCAK256 SWAP6 SWAP1 SWAP6 SSTORE SWAP2 DUP2 MSTORE PUSH1 0x9 DUP3 MSTORE DUP4 DUP2 KECCAK256 SWAP3 DUP2 MSTORE SWAP2 SWAP1 MSTORE KECCAK256 DUP1 SLOAD PUSH1 0xFF NOT AND PUSH1 0x1 OR SWAP1 SSTORE JUMPDEST POP POP POP JUMP JUMPDEST PUSH2 0xF00 PUSH2 0x118D JUMP JUMPDEST PUSH1 0x2 SSTORE JUMP JUMPDEST PUSH1 0x40 DUP1 MLOAD DUP1 DUP3 ADD SWAP1 SWAP2 MSTORE PUSH1 0x60 DUP2 MSTORE PUSH0 PUSH1 0x20 DUP3 ADD MSTORE PUSH1 0x1 PUSH1 0x1 PUSH1 0xA0 SHL SUB DUP1 DUP4 AND PUSH0 SWAP1 DUP2 MSTORE PUSH1 0x5 PUSH1 0x20 SWAP1 DUP2 MSTORE PUSH1 0x40 DUP1 DUP4 KECCAK256 SLOAD SWAP4 DUP8 AND DUP4 MSTORE PUSH1 0x6 SWAP1 SWAP2 MSTORE SWAP1 KECCAK256 DUP1 SLOAD DUP3 SWAP1 DUP2 LT PUSH2 0xF53 JUMPI PUSH2 0xF53 PUSH2 0x18BB JUMP JUMPDEST SWAP1 PUSH0 MSTORE PUSH1 0x20 PUSH0 KECCAK256 SWAP1 PUSH1 0x2 MUL ADD PUSH1 0x40 MLOAD DUP1 PUSH1 0x40 ADD PUSH1 0x40 MSTORE SWAP1 DUP2 PUSH0 DUP3 ADD DUP1 SLOAD PUSH2 0xF79 SWAP1 PUSH2 0x167A JUMP JUMPDEST DUP1 PUSH1 0x1F ADD PUSH1 0x20 DUP1 SWAP2 DIV MUL PUSH1 0x20 ADD PUSH1 0x40 MLOAD SWAP1 DUP2 ADD PUSH1 0x40 MSTORE DUP1 SWAP3 SWAP2 SWAP1 DUP2 DUP2 MSTORE PUSH1 0x20 ADD DUP3 DUP1 SLOAD PUSH2 0xFA5 SWAP1 PUSH2 0x167A JUMP JUMPDEST DUP1 ISZERO PUSH2 0xFF0 JUMPI DUP1 PUSH1 0x1F LT PUSH2 0xFC7 JUMPI PUSH2 0x100 DUP1 DUP4 SLOAD DIV MUL DUP4 MSTORE SWAP2 PUSH1 0x20 ADD SWAP2 PUSH2 0xFF0 JUMP JUMPDEST DUP3 ADD SWAP2 SWAP1 PUSH0 MSTORE PUSH1 0x20 PUSH0 KECCAK256 SWAP1 JUMPDEST DUP2 SLOAD DUP2 MSTORE SWAP1 PUSH1 0x1 ADD SWAP1 PUSH1 0x20 ADD DUP1 DUP4 GT PUSH2 0xFD3 JUMPI DUP3 SWAP1 SUB PUSH1 0x1F AND DUP3 ADD SWAP2 JUMPDEST POP POP POP SWAP2 DUP4 MSTORE POP POP PUSH1 0x1 SWAP2 SWAP1 SWAP2 ADD SLOAD PUSH1 0x1 PUSH1 0x1 PUSH1 0xA0 SHL SUB AND PUSH1 0x20 SWAP1 SWAP2 ADD MSTORE SWAP2 POP POP JUMPDEST SWAP3 SWAP2 POP POP JUMP JUMPDEST PUSH2 0x1020 PUSH2 0x118D JUMP JUMPDEST PUSH1 0x1 PUSH1 0x1 PUSH1 0xA0 SHL SUB DUP2 AND PUSH2 0x1049 JUMPI PUSH1 0x40 MLOAD PUSH4 0x1E4FBDF7 PUSH1 0xE0 SHL DUP2 MSTORE PUSH0 PUSH1 0x4 DUP3 ADD MSTORE PUSH1 0x24 ADD PUSH2 0x513 JUMP JUMPDEST PUSH2 0x1052 DUP2 PUSH2 0x11CC JUMP JUMPDEST POP JUMP JUMPDEST PUSH1 0x1 PUSH1 0x1 PUSH1 0xA0 SHL SUB DUP4 AND PUSH2 0x10AB JUMPI PUSH1 0x40 MLOAD PUSH3 0x461BCD PUSH1 0xE5 SHL DUP2 MSTORE PUSH1 0x20 PUSH1 0x4 DUP3 ADD MSTORE PUSH1 0x1A PUSH1 0x24 DUP3 ADD MSTORE PUSH32 0x696E76616C696420616476657274697365722061646472657373000000000000 PUSH1 0x44 DUP3 ADD MSTORE PUSH1 0x64 ADD PUSH2 0x513 JUMP JUMPDEST PUSH1 0x1 PUSH1 0x1 PUSH1 0xA0 SHL SUB DUP3 AND PUSH2 0x10D1 JUMPI PUSH1 0x40 MLOAD PUSH3 0x461BCD PUSH1 0xE5 SHL DUP2 MSTORE PUSH1 0x4 ADD PUSH2 0x513 SWAP1 PUSH2 0x184D JUMP JUMPDEST PUSH1 0x1 PUSH1 0x1 PUSH1 0xA0 SHL SUB DUP2 AND PUSH2 0x10F7 JUMPI PUSH1 0x40 MLOAD PUSH3 0x461BCD PUSH1 0xE5 SHL DUP2 MSTORE PUSH1 0x4 ADD PUSH2 0x513 SWAP1 PUSH2 0x1884 JUMP JUMPDEST PUSH2 0x1101 DUP3 DUP3 PUSH2 0x121B JUMP JUMPDEST PUSH1 0x1 PUSH1 0x1 PUSH1 0xA0 SHL SUB DUP1 DUP5 AND PUSH0 SWAP1 DUP2 MSTORE PUSH1 0xB PUSH1 0x20 SWAP1 DUP2 MSTORE PUSH1 0x40 DUP1 DUP4 KECCAK256 SWAP4 DUP7 AND DUP4 MSTORE SWAP3 SWAP1 MSTORE KECCAK256 SLOAD PUSH1 0xFF AND PUSH2 0xEF3 JUMPI PUSH1 0x1 PUSH1 0x1 PUSH1 0xA0 SHL SUB DUP1 DUP5 AND PUSH0 DUP2 DUP2 MSTORE PUSH1 0xB PUSH1 0x20 SWAP1 DUP2 MSTORE PUSH1 0x40 DUP1 DUP4 KECCAK256 SWAP5 DUP8 AND DUP1 DUP5 MSTORE SWAP5 DUP3 MSTORE DUP1 DUP4 KECCAK256 DUP1 SLOAD PUSH1 0xFF NOT AND PUSH1 0x1 SWAP1 DUP2 OR SWAP1 SWAP2 SSTORE SWAP4 DUP4 MSTORE PUSH1 0xA DUP3 MSTORE DUP3 KECCAK256 DUP1 SLOAD SWAP4 DUP5 ADD DUP2 SSTORE DUP3 MSTORE SWAP1 KECCAK256 ADD DUP1 SLOAD PUSH1 0x1 PUSH1 0x1 PUSH1 0xA0 SHL SUB NOT AND SWAP1 SWAP2 OR SWAP1 SSTORE POP POP POP JUMP JUMPDEST PUSH0 SLOAD PUSH1 0x1 PUSH1 0x1 PUSH1 0xA0 SHL SUB AND CALLER EQ PUSH2 0x8D4 JUMPI PUSH1 0x40 MLOAD PUSH4 0x118CDAA7 PUSH1 0xE0 SHL DUP2 MSTORE CALLER PUSH1 0x4 DUP3 ADD MSTORE PUSH1 0x24 ADD PUSH2 0x513 JUMP JUMPDEST PUSH0 PUSH2 0x11C5 DUP4 DUP4 PUSH0 PUSH2 0x12AF JUMP JUMPDEST SWAP4 SWAP3 POP POP POP JUMP JUMPDEST PUSH0 DUP1 SLOAD PUSH1 0x1 PUSH1 0x1 PUSH1 0xA0 SHL SUB DUP4 DUP2 AND PUSH1 0x1 PUSH1 0x1 PUSH1 0xA0 SHL SUB NOT DUP4 AND DUP2 OR DUP5 SSTORE PUSH1 0x40 MLOAD SWAP2 SWAP1 SWAP3 AND SWAP3 DUP4 SWAP2 PUSH32 0x8BE0079C531659141344CD1FD0A4F28419497F9722A3DAAFE3B4186F6B6457E0 SWAP2 SWAP1 LOG3 POP POP JUMP JUMPDEST PUSH0 PUSH2 0x1226 DUP3 DUP5 PUSH2 0xF05 JUMP JUMPDEST SWAP1 POP DUP3 PUSH1 0x1 PUSH1 0x1 PUSH1 0xA0 SHL SUB AND DUP2 PUSH1 0x20 ADD MLOAD PUSH1 0x1 PUSH1 0x1 PUSH1 0xA0 SHL SUB AND EQ DUP1 ISZERO PUSH2 0x1255 JUMPI POP CALLER PUSH1 0x1 PUSH1 0x1 PUSH1 0xA0 SHL SUB DUP5 AND EQ JUMPDEST PUSH2 0xEF3 JUMPI PUSH1 0x40 MLOAD PUSH3 0x461BCD PUSH1 0xE5 SHL DUP2 MSTORE PUSH1 0x20 PUSH1 0x4 DUP3 ADD MSTORE PUSH1 0x25 PUSH1 0x24 DUP3 ADD MSTORE PUSH32 0x63616C6C65722063616E206265207075626C697368657220636F6E7472616374 PUSH1 0x44 DUP3 ADD MSTORE PUSH5 0x206F6E6C79 PUSH1 0xD8 SHL PUSH1 0x64 DUP3 ADD MSTORE PUSH1 0x84 ADD PUSH2 0x513 JUMP JUMPDEST PUSH0 DUP2 SELFBALANCE LT ISZERO PUSH2 0x12DA JUMPI PUSH1 0x40 MLOAD PUSH4 0xCF479181 PUSH1 0xE0 SHL DUP2 MSTORE SELFBALANCE PUSH1 0x4 DUP3 ADD MSTORE PUSH1 0x24 DUP2 ADD DUP4 SWAP1 MSTORE PUSH1 0x44 ADD PUSH2 0x513 JUMP JUMPDEST PUSH23 0x3D602D80600A3D3981F3363D3D373D3D3D363D73000000 DUP5 PUSH1 0x60 SHL PUSH1 0xE8 SHR OR PUSH0 MSTORE PUSH15 0x5AF43D82803E903D91602B57FD5BF3 DUP5 PUSH1 0x78 SHL OR PUSH1 0x20 MSTORE DUP3 PUSH1 0x37 PUSH1 0x9 DUP5 CREATE2 SWAP1 POP PUSH1 0x1 PUSH1 0x1 PUSH1 0xA0 SHL SUB DUP2 AND PUSH2 0x11C5 JUMPI PUSH1 0x40 MLOAD PUSH4 0xB06EBF3D PUSH1 0xE0 SHL DUP2 MSTORE PUSH1 0x4 ADD PUSH1 0x40 MLOAD DUP1 SWAP2 SUB SWAP1 REVERT JUMPDEST DUP1 CALLDATALOAD PUSH1 0x1 PUSH1 0x1 PUSH1 0xA0 SHL SUB DUP2 AND DUP2 EQ PUSH2 0x135A JUMPI PUSH0 DUP1 REVERT JUMPDEST SWAP2 SWAP1 POP JUMP JUMPDEST PUSH0 DUP1 PUSH1 0x40 DUP4 DUP6 SUB SLT ISZERO PUSH2 0x1370 JUMPI PUSH0 DUP1 REVERT JUMPDEST PUSH2 0x1379 DUP4 PUSH2 0x1344 JUMP JUMPDEST SWAP2 POP PUSH2 0x1387 PUSH1 0x20 DUP5 ADD PUSH2 0x1344 JUMP JUMPDEST SWAP1 POP SWAP3 POP SWAP3 SWAP1 POP JUMP JUMPDEST PUSH0 DUP1 PUSH1 0x40 DUP4 DUP6 SUB SLT ISZERO PUSH2 0x13A1 JUMPI PUSH0 DUP1 REVERT JUMPDEST PUSH2 0x13AA DUP4 PUSH2 0x1344 JUMP JUMPDEST SWAP5 PUSH1 0x20 SWAP4 SWAP1 SWAP4 ADD CALLDATALOAD SWAP4 POP POP POP JUMP JUMPDEST PUSH0 DUP2 MLOAD DUP1 DUP5 MSTORE DUP1 PUSH1 0x20 DUP5 ADD PUSH1 0x20 DUP7 ADD MCOPY PUSH0 PUSH1 0x20 DUP3 DUP7 ADD ADD MSTORE PUSH1 0x20 PUSH1 0x1F NOT PUSH1 0x1F DUP4 ADD AND DUP6 ADD ADD SWAP2 POP POP SWAP3 SWAP2 POP POP JUMP JUMPDEST PUSH1 0x40 DUP2 MSTORE PUSH0 PUSH2 0x13F8 PUSH1 0x40 DUP4 ADD DUP6 PUSH2 0x13B8 JUMP JUMPDEST SWAP1 POP PUSH1 0x1 DUP1 PUSH1 0xA0 SHL SUB DUP4 AND PUSH1 0x20 DUP4 ADD MSTORE SWAP4 SWAP3 POP POP POP JUMP JUMPDEST PUSH0 PUSH1 0x20 DUP3 DUP5 SUB SLT ISZERO PUSH2 0x141F JUMPI PUSH0 DUP1 REVERT JUMPDEST PUSH2 0x11C5 DUP3 PUSH2 0x1344 JUMP JUMPDEST PUSH4 0x4E487B71 PUSH1 0xE0 SHL PUSH0 MSTORE PUSH1 0x41 PUSH1 0x4 MSTORE PUSH1 0x24 PUSH0 REVERT JUMPDEST PUSH0 DUP3 PUSH1 0x1F DUP4 ADD SLT PUSH2 0x144B JUMPI PUSH0 DUP1 REVERT JUMPDEST DUP2 CALLDATALOAD PUSH8 0xFFFFFFFFFFFFFFFF DUP2 GT ISZERO PUSH2 0x1465 JUMPI PUSH2 0x1465 PUSH2 0x1428 JUMP JUMPDEST PUSH1 0x40 MLOAD PUSH1 0x1F DUP3 ADD PUSH1 0x1F NOT SWAP1 DUP2 AND PUSH1 0x3F ADD AND DUP2 ADD PUSH8 0xFFFFFFFFFFFFFFFF DUP2 GT DUP3 DUP3 LT OR ISZERO PUSH2 0x1494 JUMPI PUSH2 0x1494 PUSH2 0x1428 JUMP JUMPDEST PUSH1 0x40 MSTORE DUP2 DUP2 MSTORE DUP4 DUP3 ADD PUSH1 0x20 ADD DUP6 LT ISZERO PUSH2 0x14AB JUMPI PUSH0 DUP1 REVERT JUMPDEST DUP2 PUSH1 0x20 DUP6 ADD PUSH1 0x20 DUP4 ADD CALLDATACOPY PUSH0 SWAP2 DUP2 ADD PUSH1 0x20 ADD SWAP2 SWAP1 SWAP2 MSTORE SWAP4 SWAP3 POP POP POP JUMP JUMPDEST PUSH0 DUP1 PUSH0 PUSH1 0x60 DUP5 DUP7 SUB SLT ISZERO PUSH2 0x14D9 JUMPI PUSH0 DUP1 REVERT JUMPDEST DUP4 CALLDATALOAD PUSH8 0xFFFFFFFFFFFFFFFF DUP2 GT ISZERO PUSH2 0x14EF JUMPI PUSH0 DUP1 REVERT JUMPDEST PUSH2 0x14FB DUP7 DUP3 DUP8 ADD PUSH2 0x143C JUMP JUMPDEST SWAP4 POP POP PUSH1 0x20 DUP5 ADD CALLDATALOAD PUSH8 0xFFFFFFFFFFFFFFFF DUP2 GT ISZERO PUSH2 0x1517 JUMPI PUSH0 DUP1 REVERT JUMPDEST PUSH2 0x1523 DUP7 DUP3 DUP8 ADD PUSH2 0x143C JUMP JUMPDEST SWAP3 POP POP PUSH2 0x1532 PUSH1 0x40 DUP6 ADD PUSH2 0x1344 JUMP JUMPDEST SWAP1 POP SWAP3 POP SWAP3 POP SWAP3 JUMP JUMPDEST PUSH0 DUP2 MLOAD PUSH1 0x40 DUP5 MSTORE PUSH2 0x154F PUSH1 0x40 DUP6 ADD DUP3 PUSH2 0x13B8 JUMP JUMPDEST PUSH1 0x20 SWAP4 DUP5 ADD MLOAD PUSH1 0x1 PUSH1 0x1 PUSH1 0xA0 SHL SUB AND SWAP5 SWAP1 SWAP4 ADD SWAP4 SWAP1 SWAP4 MSTORE POP SWAP2 SWAP1 POP JUMP JUMPDEST PUSH0 PUSH1 0x20 DUP3 ADD PUSH1 0x20 DUP4 MSTORE DUP1 DUP5 MLOAD DUP1 DUP4 MSTORE PUSH1 0x40 DUP6 ADD SWAP2 POP PUSH1 0x40 DUP2 PUSH1 0x5 SHL DUP7 ADD ADD SWAP3 POP PUSH1 0x20 DUP7 ADD PUSH0 JUMPDEST DUP3 DUP2 LT ISZERO PUSH2 0x15C3 JUMPI PUSH1 0x3F NOT DUP8 DUP7 SUB ADD DUP5 MSTORE PUSH2 0x15AE DUP6 DUP4 MLOAD PUSH2 0x153B JUMP JUMPDEST SWAP5 POP PUSH1 0x20 SWAP4 DUP5 ADD SWAP4 SWAP2 SWAP1 SWAP2 ADD SWAP1 PUSH1 0x1 ADD PUSH2 0x1592 JUMP JUMPDEST POP SWAP3 SWAP7 SWAP6 POP POP POP POP POP POP JUMP JUMPDEST PUSH1 0x20 DUP1 DUP3 MSTORE DUP3 MLOAD DUP3 DUP3 ADD DUP2 SWAP1 MSTORE PUSH0 SWAP2 DUP5 ADD SWAP1 PUSH1 0x40 DUP5 ADD SWAP1 DUP4 JUMPDEST DUP2 DUP2 LT ISZERO PUSH2 0x160F JUMPI DUP4 MLOAD PUSH1 0x1 PUSH1 0x1 PUSH1 0xA0 SHL SUB AND DUP4 MSTORE PUSH1 0x20 SWAP4 DUP5 ADD SWAP4 SWAP1 SWAP3 ADD SWAP2 PUSH1 0x1 ADD PUSH2 0x15E8 JUMP JUMPDEST POP SWAP1 SWAP6 SWAP5 POP POP POP POP POP JUMP JUMPDEST PUSH0 DUP1 PUSH0 PUSH1 0x60 DUP5 DUP7 SUB SLT ISZERO PUSH2 0x162C JUMPI PUSH0 DUP1 REVERT JUMPDEST PUSH2 0x1635 DUP5 PUSH2 0x1344 JUMP JUMPDEST SWAP3 POP PUSH2 0x1643 PUSH1 0x20 DUP6 ADD PUSH2 0x1344 JUMP JUMPDEST SWAP2 POP PUSH2 0x1532 PUSH1 0x40 DUP6 ADD PUSH2 0x1344 JUMP JUMPDEST PUSH0 PUSH1 0x20 DUP3 DUP5 SUB SLT ISZERO PUSH2 0x1661 JUMPI PUSH0 DUP1 REVERT JUMPDEST POP CALLDATALOAD SWAP2 SWAP1 POP JUMP JUMPDEST PUSH1 0x20 DUP2 MSTORE PUSH0 PUSH2 0x11C5 PUSH1 0x20 DUP4 ADD DUP5 PUSH2 0x153B JUMP JUMPDEST PUSH1 0x1 DUP2 DUP2 SHR SWAP1 DUP3 AND DUP1 PUSH2 0x168E JUMPI PUSH1 0x7F DUP3 AND SWAP2 POP JUMPDEST PUSH1 0x20 DUP3 LT DUP2 SUB PUSH2 0x16AC JUMPI PUSH4 0x4E487B71 PUSH1 0xE0 SHL PUSH0 MSTORE PUSH1 0x22 PUSH1 0x4 MSTORE PUSH1 0x24 PUSH0 REVERT JUMPDEST POP SWAP2 SWAP1 POP JUMP JUMPDEST PUSH0 DUP3 MLOAD DUP1 PUSH1 0x20 DUP6 ADD DUP5 MCOPY PUSH0 SWAP3 ADD SWAP2 DUP3 MSTORE POP SWAP2 SWAP1 POP JUMP JUMPDEST PUSH1 0xE0 DUP2 MSTORE PUSH0 PUSH2 0x16DA PUSH1 0xE0 DUP4 ADD DUP11 PUSH2 0x13B8 JUMP JUMPDEST DUP3 DUP2 SUB PUSH1 0x20 DUP5 ADD MSTORE PUSH2 0x16EC DUP2 DUP11 PUSH2 0x13B8 JUMP JUMPDEST PUSH1 0x1 PUSH1 0x1 PUSH1 0xA0 SHL SUB SWAP9 DUP10 AND PUSH1 0x40 DUP6 ADD MSTORE SWAP7 DUP9 AND PUSH1 0x60 DUP5 ADD MSTORE POP POP SWAP3 DUP6 AND PUSH1 0x80 DUP5 ADD MSTORE PUSH1 0xA0 DUP4 ADD SWAP2 SWAP1 SWAP2 MSTORE SWAP1 SWAP3 AND PUSH1 0xC0 SWAP1 SWAP3 ADD SWAP2 SWAP1 SWAP2 MSTORE SWAP3 SWAP2 POP POP JUMP JUMPDEST PUSH1 0x1F DUP3 GT ISZERO PUSH2 0xEF3 JUMPI DUP1 PUSH0 MSTORE PUSH1 0x20 PUSH0 KECCAK256 PUSH1 0x1F DUP5 ADD PUSH1 0x5 SHR DUP2 ADD PUSH1 0x20 DUP6 LT ISZERO PUSH2 0x174D JUMPI POP DUP1 JUMPDEST PUSH1 0x1F DUP5 ADD PUSH1 0x5 SHR DUP3 ADD SWAP2 POP JUMPDEST DUP2 DUP2 LT ISZERO PUSH2 0x176C JUMPI PUSH0 DUP2 SSTORE PUSH1 0x1 ADD PUSH2 0x1759 JUMP JUMPDEST POP POP POP POP POP JUMP JUMPDEST DUP2 MLOAD PUSH8 0xFFFFFFFFFFFFFFFF DUP2 GT ISZERO PUSH2 0x178D JUMPI PUSH2 0x178D PUSH2 0x1428 JUMP JUMPDEST PUSH2 0x17A1 DUP2 PUSH2 0x179B DUP5 SLOAD PUSH2 0x167A JUMP JUMPDEST DUP5 PUSH2 0x1728 JUMP JUMPDEST PUSH1 0x20 PUSH1 0x1F DUP3 GT PUSH1 0x1 DUP2 EQ PUSH2 0x17D3 JUMPI PUSH0 DUP4 ISZERO PUSH2 0x17BC JUMPI POP DUP5 DUP3 ADD MLOAD JUMPDEST PUSH0 NOT PUSH1 0x3 DUP6 SWAP1 SHL SHR NOT AND PUSH1 0x1 DUP5 SWAP1 SHL OR DUP5 SSTORE PUSH2 0x176C JUMP JUMPDEST PUSH0 DUP5 DUP2 MSTORE PUSH1 0x20 DUP2 KECCAK256 PUSH1 0x1F NOT DUP6 AND SWAP2 JUMPDEST DUP3 DUP2 LT ISZERO PUSH2 0x1802 JUMPI DUP8 DUP6 ADD MLOAD DUP3 SSTORE PUSH1 0x20 SWAP5 DUP6 ADD SWAP5 PUSH1 0x1 SWAP1 SWAP3 ADD SWAP2 ADD PUSH2 0x17E2 JUMP JUMPDEST POP DUP5 DUP3 LT ISZERO PUSH2 0x181F JUMPI DUP7 DUP5 ADD MLOAD PUSH0 NOT PUSH1 0x3 DUP8 SWAP1 SHL PUSH1 0xF8 AND SHR NOT AND DUP2 SSTORE JUMPDEST POP POP POP POP PUSH1 0x1 SWAP1 DUP2 SHL ADD SWAP1 SSTORE POP JUMP JUMPDEST DUP2 DUP2 SUB DUP2 DUP2 GT ISZERO PUSH2 0x1012 JUMPI PUSH4 0x4E487B71 PUSH1 0xE0 SHL PUSH0 MSTORE PUSH1 0x11 PUSH1 0x4 MSTORE PUSH1 0x24 PUSH0 REVERT JUMPDEST PUSH1 0x20 DUP1 DUP3 MSTORE PUSH1 0x17 SWAP1 DUP3 ADD MSTORE PUSH32 0x696E76616C696420636F6E747261637441646472657373000000000000000000 PUSH1 0x40 DUP3 ADD MSTORE PUSH1 0x60 ADD SWAP1 JUMP JUMPDEST PUSH1 0x20 DUP1 DUP3 MSTORE PUSH1 0x19 SWAP1 DUP3 ADD MSTORE PUSH32 0x696E76616C6964207075626C6973686572206164647265737300000000000000 PUSH1 0x40 DUP3 ADD MSTORE PUSH1 0x60 ADD SWAP1 JUMP JUMPDEST PUSH4 0x4E487B71 PUSH1 0xE0 SHL PUSH0 MSTORE PUSH1 0x32 PUSH1 0x4 MSTORE PUSH1 0x24 PUSH0 REVERT JUMPDEST PUSH4 0x4E487B71 PUSH1 0xE0 SHL PUSH0 MSTORE PUSH1 0x31 PUSH1 0x4 MSTORE PUSH1 0x24 PUSH0 REVERT INVALID LOG2 PUSH5 0x6970667358 0x22 SLT KECCAK256 0xD8 SWAP4 SELFDESTRUCT 0xAF CALLER DUP11 0xE0 0xB1 0xAA TLOAD DELEGATECALL 0xCD PUSH23 0x8736BD5EF6E51A96DCA8E6B84D4FB2DEA2CAB64736F6C PUSH4 0x4300081A STOP CALLER "
				},
				"gasEstimates": {
					"creation": {
						"codeDepositCost": "1285000",
						"executionCost": "infinite",
						"totalCost": "infinite"
					},
					"external": {
						"allPublisherClones(uint256)": "infinite",
						"assignContractToAdvertiser(address,address,address)": "infinite",
						"assignPubContractToModerator(address,address,address)": "infinite",
						"createPublisherClone(string,string,address)": "infinite",
						"getAllPubClonesByAddress(address)": "infinite",
						"getAllPublisherContracts()": "infinite",
						"getClone(address,address)": "infinite",
						"getCloneContractsOfAdvertiser(address)": "infinite",
						"getPubContractCount()": "2370",
						"getPubContractCountByAddress(address)": "2590",
						"getPubContractsOfModerator(address)": "infinite",
						"implementation()": "2359",
						"isAddedToAdvertiserContracts(address,address)": "infinite",
						"isAddedToModeratorContracts(address,address)": "infinite",
						"moderatorAccContractsPointer(address,address)": "infinite",
						"owner()": "2352",
						"platformFeeAddress()": "2402",
						"platformFeesPercentInBPS()": "2307",
						"publisherClones(address,uint256)": "infinite",
						"removePubContractOfModerator(address,address,address)": "infinite",
						"renounceOwnership()": "infinite",
						"setPlatforFeesPercentInBPS(uint256)": "24552",
						"setPlatformFeeAddress(address)": "26812",
						"transferOwnership(address)": "28417",
						"upgradeImplementationContract(address)": "26879"
					},
					"internal": {
						"_checkIfCallerIsClone(address,address)": "infinite"
					}
				},
				"methodIdentifiers": {
					"allPublisherClones(uint256)": "b2860298",
					"assignContractToAdvertiser(address,address,address)": "f336aa35",
					"assignPubContractToModerator(address,address,address)": "b552ebc8",
					"createPublisherClone(string,string,address)": "4f568db3",
					"getAllPubClonesByAddress(address)": "64eb68eb",
					"getAllPublisherContracts()": "9b1ec6a3",
					"getClone(address,address)": "d414a3f2",
					"getCloneContractsOfAdvertiser(address)": "841a0cbe",
					"getPubContractCount()": "23e49534",
					"getPubContractCountByAddress(address)": "9472a969",
					"getPubContractsOfModerator(address)": "9d209a30",
					"implementation()": "5c60da1b",
					"isAddedToAdvertiserContracts(address,address)": "77b43000",
					"isAddedToModeratorContracts(address,address)": "14f9ff21",
					"moderatorAccContractsPointer(address,address)": "df7ae382",
					"owner()": "8da5cb5b",
					"platformFeeAddress()": "ed14834f",
					"platformFeesPercentInBPS()": "07dc6749",
					"publisherClones(address,uint256)": "172c2664",
					"removePubContractOfModerator(address,address,address)": "8b0d4377",
					"renounceOwnership()": "715018a6",
					"setPlatforFeesPercentInBPS(uint256)": "c2b602f3",
					"setPlatformFeeAddress(address)": "9375da5a",
					"transferOwnership(address)": "f2fde38b",
					"upgradeImplementationContract(address)": "2e4e56cf"
				}
			},
			"storageLayout": {
				"storage": [
					{
						"astId": 8,
						"contract": "DecentradFactory.sol:DecentradFactory",
						"label": "_owner",
						"offset": 0,
						"slot": "0",
						"type": "t_address"
					},
					{
						"astId": 372,
						"contract": "DecentradFactory.sol:DecentradFactory",
						"label": "implementation",
						"offset": 0,
						"slot": "1",
						"type": "t_address"
					},
					{
						"astId": 374,
						"contract": "DecentradFactory.sol:DecentradFactory",
						"label": "platformFeesPercentInBPS",
						"offset": 0,
						"slot": "2",
						"type": "t_uint256"
					},
					{
						"astId": 376,
						"contract": "DecentradFactory.sol:DecentradFactory",
						"label": "platformFeeAddress",
						"offset": 0,
						"slot": "3",
						"type": "t_address"
					},
					{
						"astId": 387,
						"contract": "DecentradFactory.sol:DecentradFactory",
						"label": "allPublisherClones",
						"offset": 0,
						"slot": "4",
						"type": "t_array(t_struct(PublisherClone)382_storage)dyn_storage"
					},
					{
						"astId": 392,
						"contract": "DecentradFactory.sol:DecentradFactory",
						"label": "_cloneIndex",
						"offset": 0,
						"slot": "5",
						"type": "t_mapping(t_address,t_uint256)"
					},
					{
						"astId": 399,
						"contract": "DecentradFactory.sol:DecentradFactory",
						"label": "publisherClones",
						"offset": 0,
						"slot": "6",
						"type": "t_mapping(t_address,t_array(t_struct(PublisherClone)382_storage)dyn_storage)"
					},
					{
						"astId": 405,
						"contract": "DecentradFactory.sol:DecentradFactory",
						"label": "_moderatorContracts",
						"offset": 0,
						"slot": "7",
						"type": "t_mapping(t_address,t_array(t_address)dyn_storage)"
					},
					{
						"astId": 412,
						"contract": "DecentradFactory.sol:DecentradFactory",
						"label": "moderatorAccContractsPointer",
						"offset": 0,
						"slot": "8",
						"type": "t_mapping(t_address,t_mapping(t_address,t_uint256))"
					},
					{
						"astId": 419,
						"contract": "DecentradFactory.sol:DecentradFactory",
						"label": "isAddedToModeratorContracts",
						"offset": 0,
						"slot": "9",
						"type": "t_mapping(t_address,t_mapping(t_address,t_bool))"
					},
					{
						"astId": 425,
						"contract": "DecentradFactory.sol:DecentradFactory",
						"label": "_advertiserContracts",
						"offset": 0,
						"slot": "10",
						"type": "t_mapping(t_address,t_array(t_address)dyn_storage)"
					},
					{
						"astId": 432,
						"contract": "DecentradFactory.sol:DecentradFactory",
						"label": "isAddedToAdvertiserContracts",
						"offset": 0,
						"slot": "11",
						"type": "t_mapping(t_address,t_mapping(t_address,t_bool))"
					}
				],
				"types": {
					"t_address": {
						"encoding": "inplace",
						"label": "address",
						"numberOfBytes": "20"
					},
					"t_array(t_address)dyn_storage": {
						"base": "t_address",
						"encoding": "dynamic_array",
						"label": "address[]",
						"numberOfBytes": "32"
					},
					"t_array(t_struct(PublisherClone)382_storage)dyn_storage": {
						"base": "t_struct(PublisherClone)382_storage",
						"encoding": "dynamic_array",
						"label": "struct DecentradFactory.PublisherClone[]",
						"numberOfBytes": "32"
					},
					"t_bool": {
						"encoding": "inplace",
						"label": "bool",
						"numberOfBytes": "1"
					},
					"t_mapping(t_address,t_array(t_address)dyn_storage)": {
						"encoding": "mapping",
						"key": "t_address",
						"label": "mapping(address => address[])",
						"numberOfBytes": "32",
						"value": "t_array(t_address)dyn_storage"
					},
					"t_mapping(t_address,t_array(t_struct(PublisherClone)382_storage)dyn_storage)": {
						"encoding": "mapping",
						"key": "t_address",
						"label": "mapping(address => struct DecentradFactory.PublisherClone[])",
						"numberOfBytes": "32",
						"value": "t_array(t_struct(PublisherClone)382_storage)dyn_storage"
					},
					"t_mapping(t_address,t_bool)": {
						"encoding": "mapping",
						"key": "t_address",
						"label": "mapping(address => bool)",
						"numberOfBytes": "32",
						"value": "t_bool"
					},
					"t_mapping(t_address,t_mapping(t_address,t_bool))": {
						"encoding": "mapping",
						"key": "t_address",
						"label": "mapping(address => mapping(address => bool))",
						"numberOfBytes": "32",
						"value": "t_mapping(t_address,t_bool)"
					},
					"t_mapping(t_address,t_mapping(t_address,t_uint256))": {
						"encoding": "mapping",
						"key": "t_address",
						"label": "mapping(address => mapping(address => uint256))",
						"numberOfBytes": "32",
						"value": "t_mapping(t_address,t_uint256)"
					},
					"t_mapping(t_address,t_uint256)": {
						"encoding": "mapping",
						"key": "t_address",
						"label": "mapping(address => uint256)",
						"numberOfBytes": "32",
						"value": "t_uint256"
					},
					"t_string_storage": {
						"encoding": "bytes",
						"label": "string",
						"numberOfBytes": "32"
					},
					"t_struct(PublisherClone)382_storage": {
						"encoding": "inplace",
						"label": "struct DecentradFactory.PublisherClone",
						"members": [
							{
								"astId": 379,
								"contract": "DecentradFactory.sol:DecentradFactory",
								"label": "siteURL",
								"offset": 0,
								"slot": "0",
								"type": "t_string_storage"
							},
							{
								"astId": 381,
								"contract": "DecentradFactory.sol:DecentradFactory",
								"label": "cloneAddress",
								"offset": 0,
								"slot": "1",
								"type": "t_address"
							}
						],
						"numberOfBytes": "64"
					},
					"t_uint256": {
						"encoding": "inplace",
						"label": "uint256",
						"numberOfBytes": "32"
					}
				}
			},
			"userdoc": {
				"errors": {
					"PubCloneContractExists(address,address)": [
						{
							"notice": "If Publisher has already created clone contract with sending wallet address"
						}
					]
				},
				"kind": "user",
				"methods": {
					"allPublisherClones(uint256)": {
						"notice": "Array of the all publisher contract addresses."
					},
					"assignContractToAdvertiser(address,address,address)": {
						"notice": "adds publiser contract address to advertiseContracts array"
					},
					"assignPubContractToModerator(address,address,address)": {
						"notice": "adds publiser contract address to moderatorContracts array"
					},
					"createPublisherClone(string,string,address)": {
						"notice": "Creates the clone of publisher contract."
					},
					"getAllPubClonesByAddress(address)": {
						"notice": "Returns all the clone contracts of a publihser's wallet address."
					},
					"getAllPublisherContracts()": {
						"notice": "Returns all the clone contract address created by factory."
					},
					"getClone(address,address)": {
						"notice": "Returns details of clone contract."
					},
					"getCloneContractsOfAdvertiser(address)": {
						"notice": "Returns publisher's contract addresses of advertiser."
					},
					"getPubContractCount()": {
						"notice": "Returns total count of all publisher clones created by factory."
					},
					"getPubContractCountByAddress(address)": {
						"notice": "Returns total count of publisher's clones."
					},
					"getPubContractsOfModerator(address)": {
						"notice": "Returns publisher's contract addresses of moderator."
					},
					"implementation()": {
						"notice": "The deployed contract address of publisher implementation."
					},
					"isAddedToAdvertiserContracts(address,address)": {
						"notice": "Mapping of the advertiser to clone contract address to if it is added to _advertiserContracts. mapping advertiser walletAddress => clone contract => true/false"
					},
					"isAddedToModeratorContracts(address,address)": {
						"notice": "Mapping of the moderator to if clone contract address is added to _moderatorContracts. mapping moderator's walletAddress => clone contract address => true/false "
					},
					"moderatorAccContractsPointer(address,address)": {
						"notice": "Mapping of the moderator address to publisher clone contract address to index of _moderatorContracts. mapping moderator's walletAddress => clone contract address => index in _moderatorContracts"
					},
					"publisherClones(address,uint256)": {
						"notice": "Mapping of the publiusher's wallet address to publisher clone . mapping publisher's walletAddress => array of publisher clones"
					},
					"removePubContractOfModerator(address,address,address)": {
						"notice": "removes publiser contract address from moderatorContracts array"
					},
					"setPlatforFeesPercentInBPS(uint256)": {
						"notice": "to reset the platform fees percent amount"
					},
					"setPlatformFeeAddress(address)": {
						"notice": "to reset the platform fees receiver address"
					},
					"upgradeImplementationContract(address)": {
						"notice": "to upgrade the implementation contract"
					}
				},
				"version": 1
			}
		}
	}
}