{
  "_format": "hh-sol-artifact-1",
  "contractName": "Decentrad",
  "sourceName": "contracts/Decentrad.sol",
  "abi": [
    {
      "inputs": [],
      "stateMutability": "nonpayable",
      "type": "constructor"
    },
    {
      "inputs": [],
      "name": "AccessControlBadConfirmation",
      "type": "error"
    },
    {
      "inputs": [
        {
          "internalType": "address",
          "name": "account",
          "type": "address"
        },
        {
          "internalType": "bytes32",
          "name": "neededRole",
          "type": "bytes32"
        }
      ],
      "name": "AccessControlUnauthorizedAccount",
      "type": "error"
    },
    {
      "inputs": [],
      "name": "InvalidInitialization",
      "type": "error"
    },
    {
      "inputs": [],
      "name": "NotInitializing",
      "type": "error"
    },
    {
      "inputs": [],
      "name": "ReentrancyGuardReentrantCall",
      "type": "error"
    },
    {
      "inputs": [
        {
          "internalType": "address",
          "name": "token",
          "type": "address"
        }
      ],
      "name": "SafeERC20FailedOperation",
      "type": "error"
    },
    {
      "inputs": [
        {
          "internalType": "bytes32",
          "name": "advId",
          "type": "bytes32"
        }
      ],
      "name": "advIdAlreadyExist",
      "type": "error"
    },
    {
      "inputs": [
        {
          "internalType": "bytes32",
          "name": "advSpaceId",
          "type": "bytes32"
        }
      ],
      "name": "advSpaceDoesntExist",
      "type": "error"
    },
    {
      "inputs": [
        {
          "internalType": "bytes32",
          "name": "advId",
          "type": "bytes32"
        }
      ],
      "name": "advertiseDoesntExist",
      "type": "error"
    },
    {
      "inputs": [
        {
          "internalType": "bytes32[]",
          "name": "advIds",
          "type": "bytes32[]"
        },
        {
          "internalType": "address",
          "name": "walletAddr",
          "type": "address"
        }
      ],
      "name": "zeroBalanceForAdv",
      "type": "error"
    },
    {
      "anonymous": false,
      "inputs": [
        {
          "indexed": true,
          "internalType": "bytes32",
          "name": "_advSpaceId",
          "type": "bytes32"
        },
        {
          "indexed": true,
          "internalType": "bytes32",
          "name": "_advId",
          "type": "bytes32"
        },
        {
          "indexed": true,
          "internalType": "address",
          "name": "_advertiser",
          "type": "address"
        }
      ],
      "name": "AdvAddedToAdvSpace",
      "type": "event"
    },
    {
      "anonymous": false,
      "inputs": [
        {
          "indexed": true,
          "internalType": "bytes32",
          "name": "_advId",
          "type": "bytes32"
        },
        {
          "indexed": true,
          "internalType": "address",
          "name": "_approvedBy",
          "type": "address"
        }
      ],
      "name": "AdvApproved",
      "type": "event"
    },
    {
      "anonymous": false,
      "inputs": [
        {
          "indexed": true,
          "internalType": "bytes32",
          "name": "_advId",
          "type": "bytes32"
        }
      ],
      "name": "AdvContentUpdated",
      "type": "event"
    },
    {
      "anonymous": false,
      "inputs": [
        {
          "indexed": true,
          "internalType": "bytes32",
          "name": "_advId",
          "type": "bytes32"
        },
        {
          "indexed": true,
          "internalType": "uint256",
          "name": "_prevPayRate",
          "type": "uint256"
        },
        {
          "indexed": true,
          "internalType": "uint256",
          "name": "_newPayRate",
          "type": "uint256"
        }
      ],
      "name": "AdvPaymentUpdated",
      "type": "event"
    },
    {
      "anonymous": false,
      "inputs": [
        {
          "indexed": true,
          "internalType": "bytes32",
          "name": "_advId",
          "type": "bytes32"
        },
        {
          "indexed": true,
          "internalType": "address",
          "name": "_rejectedBy",
          "type": "address"
        }
      ],
      "name": "AdvRejected",
      "type": "event"
    },
    {
      "anonymous": false,
      "inputs": [
        {
          "indexed": true,
          "internalType": "bytes32",
          "name": "_advId",
          "type": "bytes32"
        },
        {
          "indexed": true,
          "internalType": "address",
          "name": "_restartedBy",
          "type": "address"
        }
      ],
      "name": "AdvRestarted",
      "type": "event"
    },
    {
      "anonymous": false,
      "inputs": [
        {
          "indexed": true,
          "internalType": "bytes32",
          "name": "_advSpaceId",
          "type": "bytes32"
        },
        {
          "indexed": true,
          "internalType": "bytes32",
          "name": "_size",
          "type": "bytes32"
        },
        {
          "indexed": true,
          "internalType": "string",
          "name": "_pageURL",
          "type": "string"
        }
      ],
      "name": "AdvSpaceCreated",
      "type": "event"
    },
    {
      "anonymous": false,
      "inputs": [
        {
          "indexed": true,
          "internalType": "bytes32",
          "name": "_advSpaceId",
          "type": "bytes32"
        },
        {
          "indexed": true,
          "internalType": "bool",
          "name": "_isEnabled",
          "type": "bool"
        }
      ],
      "name": "AdvSpaceStatusChanged",
      "type": "event"
    },
    {
      "anonymous": false,
      "inputs": [
        {
          "indexed": true,
          "internalType": "bytes32",
          "name": "_advSpaceId",
          "type": "bytes32"
        }
      ],
      "name": "AdvSpaceUpdated",
      "type": "event"
    },
    {
      "anonymous": false,
      "inputs": [
        {
          "indexed": true,
          "internalType": "bytes32",
          "name": "_advId",
          "type": "bytes32"
        },
        {
          "indexed": true,
          "internalType": "address",
          "name": "_stoppedBy",
          "type": "address"
        }
      ],
      "name": "AdvStopped",
      "type": "event"
    },
    {
      "anonymous": false,
      "inputs": [
        {
          "indexed": true,
          "internalType": "bytes32",
          "name": "_advId",
          "type": "bytes32"
        },
        {
          "indexed": true,
          "internalType": "uint256",
          "name": "_amount",
          "type": "uint256"
        }
      ],
      "name": "AdvertiserWithdraw",
      "type": "event"
    },
    {
      "anonymous": false,
      "inputs": [
        {
          "indexed": false,
          "internalType": "uint64",
          "name": "version",
          "type": "uint64"
        }
      ],
      "name": "Initialized",
      "type": "event"
    },
    {
      "anonymous": false,
      "inputs": [
        {
          "indexed": true,
          "internalType": "address[]",
          "name": "_modAddress",
          "type": "address[]"
        }
      ],
      "name": "ModeratorAdded",
      "type": "event"
    },
    {
      "anonymous": false,
      "inputs": [
        {
          "indexed": true,
          "internalType": "address[]",
          "name": "_modAddress",
          "type": "address[]"
        }
      ],
      "name": "ModeratorRemoved",
      "type": "event"
    },
    {
      "anonymous": false,
      "inputs": [
        {
          "indexed": true,
          "internalType": "bytes32[]",
          "name": "_advIds",
          "type": "bytes32[]"
        },
        {
          "indexed": true,
          "internalType": "uint256",
          "name": "_amount",
          "type": "uint256"
        }
      ],
      "name": "PublisherWithdraw",
      "type": "event"
    },
    {
      "anonymous": false,
      "inputs": [
        {
          "indexed": true,
          "internalType": "bytes32",
          "name": "role",
          "type": "bytes32"
        },
        {
          "indexed": true,
          "internalType": "bytes32",
          "name": "previousAdminRole",
          "type": "bytes32"
        },
        {
          "indexed": true,
          "internalType": "bytes32",
          "name": "newAdminRole",
          "type": "bytes32"
        }
      ],
      "name": "RoleAdminChanged",
      "type": "event"
    },
    {
      "anonymous": false,
      "inputs": [
        {
          "indexed": true,
          "internalType": "bytes32",
          "name": "role",
          "type": "bytes32"
        },
        {
          "indexed": true,
          "internalType": "address",
          "name": "account",
          "type": "address"
        },
        {
          "indexed": true,
          "internalType": "address",
          "name": "sender",
          "type": "address"
        }
      ],
      "name": "RoleGranted",
      "type": "event"
    },
    {
      "anonymous": false,
      "inputs": [
        {
          "indexed": true,
          "internalType": "bytes32",
          "name": "role",
          "type": "bytes32"
        },
        {
          "indexed": true,
          "internalType": "address",
          "name": "account",
          "type": "address"
        },
        {
          "indexed": true,
          "internalType": "address",
          "name": "sender",
          "type": "address"
        }
      ],
      "name": "RoleRevoked",
      "type": "event"
    },
    {
      "anonymous": false,
      "inputs": [
        {
          "indexed": true,
          "internalType": "bytes32",
          "name": "_advId",
          "type": "bytes32"
        },
        {
          "indexed": true,
          "internalType": "uint256",
          "name": "_amount",
          "type": "uint256"
        }
      ],
      "name": "TokensDeposited",
      "type": "event"
    },
    {
      "inputs": [],
      "name": "DEFAULT_ADMIN_ROLE",
      "outputs": [
        {
          "internalType": "bytes32",
          "name": "",
          "type": "bytes32"
        }
      ],
      "stateMutability": "view",
      "type": "function"
    },
    {
      "inputs": [],
      "name": "MODERATOR",
      "outputs": [
        {
          "internalType": "bytes32",
          "name": "",
          "type": "bytes32"
        }
      ],
      "stateMutability": "view",
      "type": "function"
    },
    {
      "inputs": [
        {
          "internalType": "address[]",
          "name": "_modAddresses",
          "type": "address[]"
        }
      ],
      "name": "addModerators",
      "outputs": [],
      "stateMutability": "nonpayable",
      "type": "function"
    },
    {
      "inputs": [
        {
          "internalType": "bytes32",
          "name": "",
          "type": "bytes32"
        }
      ],
      "name": "advAdvertiserWithdrawnAmt",
      "outputs": [
        {
          "internalType": "uint256",
          "name": "",
          "type": "uint256"
        }
      ],
      "stateMutability": "view",
      "type": "function"
    },
    {
      "inputs": [
        {
          "internalType": "bytes32",
          "name": "_advId",
          "type": "bytes32"
        }
      ],
      "name": "advDepositAmount",
      "outputs": [
        {
          "internalType": "uint256",
          "name": "balance",
          "type": "uint256"
        }
      ],
      "stateMutability": "view",
      "type": "function"
    },
    {
      "inputs": [
        {
          "internalType": "bytes32",
          "name": "",
          "type": "bytes32"
        }
      ],
      "name": "advIdToModeratorPaid",
      "outputs": [
        {
          "internalType": "address",
          "name": "",
          "type": "address"
        }
      ],
      "stateMutability": "view",
      "type": "function"
    },
    {
      "inputs": [
        {
          "internalType": "bytes32",
          "name": "",
          "type": "bytes32"
        }
      ],
      "name": "advPubWithdrawnAmt",
      "outputs": [
        {
          "internalType": "uint256",
          "name": "",
          "type": "uint256"
        }
      ],
      "stateMutability": "view",
      "type": "function"
    },
    {
      "inputs": [],
      "name": "advSpaceCount",
      "outputs": [
        {
          "internalType": "uint256",
          "name": "",
          "type": "uint256"
        }
      ],
      "stateMutability": "view",
      "type": "function"
    },
    {
      "inputs": [
        {
          "internalType": "bytes32",
          "name": "_advId",
          "type": "bytes32"
        }
      ],
      "name": "approveAdv",
      "outputs": [],
      "stateMutability": "nonpayable",
      "type": "function"
    },
    {
      "inputs": [
        {
          "internalType": "bytes32",
          "name": "_advId",
          "type": "bytes32"
        }
      ],
      "name": "balOfAdvertiserByAdvId",
      "outputs": [
        {
          "internalType": "uint256",
          "name": "balance",
          "type": "uint256"
        }
      ],
      "stateMutability": "view",
      "type": "function"
    },
    {
      "inputs": [
        {
          "internalType": "bytes32",
          "name": "_advId",
          "type": "bytes32"
        }
      ],
      "name": "balOfPubByAdvId",
      "outputs": [
        {
          "internalType": "uint256",
          "name": "balance",
          "type": "uint256"
        }
      ],
      "stateMutability": "view",
      "type": "function"
    },
    {
      "inputs": [
        {
          "internalType": "bytes32",
          "name": "_advSpaceId",
          "type": "bytes32"
        },
        {
          "internalType": "string",
          "name": "_advTitle",
          "type": "string"
        },
        {
          "internalType": "string",
          "name": "_advText",
          "type": "string"
        },
        {
          "internalType": "string[]",
          "name": "_ipfsHashes",
          "type": "string[]"
        },
        {
          "internalType": "uint256",
          "name": "_paymentRatePerSec",
          "type": "uint256"
        },
        {
          "internalType": "uint256",
          "name": "_depositAmount",
          "type": "uint256"
        },
        {
          "internalType": "string",
          "name": "_advLink",
          "type": "string"
        }
      ],
      "name": "createAdvAndAddToAdvSpace",
      "outputs": [],
      "stateMutability": "payable",
      "type": "function"
    },
    {
      "inputs": [
        {
          "internalType": "bytes32",
          "name": "_size",
          "type": "bytes32"
        },
        {
          "internalType": "string",
          "name": "_pageURL",
          "type": "string"
        },
        {
          "internalType": "uint256",
          "name": "_moderationFees",
          "type": "uint256"
        },
        {
          "internalType": "string",
          "name": "_description",
          "type": "string"
        }
      ],
      "name": "createAdvSpace",
      "outputs": [],
      "stateMutability": "nonpayable",
      "type": "function"
    },
    {
      "inputs": [
        {
          "internalType": "bytes32",
          "name": "_advId",
          "type": "bytes32"
        },
        {
          "internalType": "uint256",
          "name": "_amount",
          "type": "uint256"
        }
      ],
      "name": "depositForAdv",
      "outputs": [],
      "stateMutability": "nonpayable",
      "type": "function"
    },
    {
      "inputs": [],
      "name": "description",
      "outputs": [
        {
          "internalType": "string",
          "name": "",
          "type": "string"
        }
      ],
      "stateMutability": "view",
      "type": "function"
    },
    {
      "inputs": [],
      "name": "erc20TokenAddress",
      "outputs": [
        {
          "internalType": "contract IERC20",
          "name": "",
          "type": "address"
        }
      ],
      "stateMutability": "view",
      "type": "function"
    },
    {
      "inputs": [
        {
          "internalType": "bytes32[]",
          "name": "_advIds",
          "type": "bytes32[]"
        }
      ],
      "name": "getAdsByIds",
      "outputs": [
        {
          "components": [
            {
              "internalType": "bytes32",
              "name": "advSpaceId",
              "type": "bytes32"
            },
            {
              "internalType": "address",
              "name": "advertiser",
              "type": "address"
            },
            {
              "internalType": "string",
              "name": "advTitle",
              "type": "string"
            },
            {
              "internalType": "string",
              "name": "advText",
              "type": "string"
            },
            {
              "internalType": "enum IDecentrad.AdvStatus",
              "name": "advStatus",
              "type": "uint8"
            },
            {
              "internalType": "string[]",
              "name": "ipfsHashes",
              "type": "string[]"
            },
            {
              "internalType": "uint256",
              "name": "paymentRatePerSec",
              "type": "uint256"
            },
            {
              "internalType": "string",
              "name": "advLink",
              "type": "string"
            }
          ],
          "internalType": "struct Decentrad.Advertise[]",
          "name": "",
          "type": "tuple[]"
        },
        {
          "internalType": "bool[]",
          "name": "",
          "type": "bool[]"
        }
      ],
      "stateMutability": "view",
      "type": "function"
    },
    {
      "inputs": [
        {
          "internalType": "bytes32",
          "name": "_advId",
          "type": "bytes32"
        }
      ],
      "name": "getAdvDurationCycles",
      "outputs": [
        {
          "components": [
            {
              "internalType": "uint256",
              "name": "startTime",
              "type": "uint256"
            },
            {
              "internalType": "uint256",
              "name": "stopTime",
              "type": "uint256"
            },
            {
              "internalType": "uint256",
              "name": "payRatePerSecond",
              "type": "uint256"
            }
          ],
          "internalType": "struct Decentrad.ActiveDuration[]",
          "name": "",
          "type": "tuple[]"
        }
      ],
      "stateMutability": "view",
      "type": "function"
    },
    {
      "inputs": [
        {
          "internalType": "address",
          "name": "_advAddress",
          "type": "address"
        },
        {
          "internalType": "string",
          "name": "_advTitle",
          "type": "string"
        },
        {
          "internalType": "bytes32",
          "name": "_advSpaceId",
          "type": "bytes32"
        }
      ],
      "name": "getAdvId",
      "outputs": [
        {
          "internalType": "bytes32",
          "name": "",
          "type": "bytes32"
        }
      ],
      "stateMutability": "pure",
      "type": "function"
    },
    {
      "inputs": [
        {
          "internalType": "bytes32",
          "name": "_advSpaceId",
          "type": "bytes32"
        }
      ],
      "name": "getAdvIdsOfAdvSpace",
      "outputs": [
        {
          "internalType": "bytes32[]",
          "name": "",
          "type": "bytes32[]"
        }
      ],
      "stateMutability": "view",
      "type": "function"
    },
    {
      "inputs": [
        {
          "internalType": "address",
          "name": "_advertiserAddr",
          "type": "address"
        }
      ],
      "name": "getAdvIdsOfAdvertiser",
      "outputs": [
        {
          "internalType": "bytes32[]",
          "name": "",
          "type": "bytes32[]"
        }
      ],
      "stateMutability": "view",
      "type": "function"
    },
    {
      "inputs": [
        {
          "internalType": "address",
          "name": "_pubAddress",
          "type": "address"
        },
        {
          "internalType": "uint256",
          "name": "_count",
          "type": "uint256"
        }
      ],
      "name": "getAdvSpaceId",
      "outputs": [
        {
          "internalType": "bytes32",
          "name": "",
          "type": "bytes32"
        }
      ],
      "stateMutability": "pure",
      "type": "function"
    },
    {
      "inputs": [
        {
          "internalType": "bytes32[]",
          "name": "_advSpaceIds",
          "type": "bytes32[]"
        }
      ],
      "name": "getAdvSpacesByIds",
      "outputs": [
        {
          "components": [
            {
              "internalType": "bytes32",
              "name": "size",
              "type": "bytes32"
            },
            {
              "internalType": "string",
              "name": "pageURL",
              "type": "string"
            },
            {
              "internalType": "uint256",
              "name": "moderationFees",
              "type": "uint256"
            },
            {
              "internalType": "string",
              "name": "description",
              "type": "string"
            },
            {
              "internalType": "bool",
              "name": "isEnabled",
              "type": "bool"
            }
          ],
          "internalType": "struct Decentrad.AdvSpace[]",
          "name": "",
          "type": "tuple[]"
        }
      ],
      "stateMutability": "view",
      "type": "function"
    },
    {
      "inputs": [],
      "name": "getAllAdvSpaceIds",
      "outputs": [
        {
          "internalType": "bytes32[]",
          "name": "",
          "type": "bytes32[]"
        }
      ],
      "stateMutability": "view",
      "type": "function"
    },
    {
      "inputs": [
        {
          "internalType": "bytes32",
          "name": "_advId",
          "type": "bytes32"
        }
      ],
      "name": "getIfAdvIsActive",
      "outputs": [
        {
          "internalType": "bool",
          "name": "",
          "type": "bool"
        }
      ],
      "stateMutability": "view",
      "type": "function"
    },
    {
      "inputs": [],
      "name": "getModerators",
      "outputs": [
        {
          "internalType": "address[]",
          "name": "",
          "type": "address[]"
        }
      ],
      "stateMutability": "view",
      "type": "function"
    },
    {
      "inputs": [
        {
          "internalType": "bytes32",
          "name": "role",
          "type": "bytes32"
        }
      ],
      "name": "getRoleAdmin",
      "outputs": [
        {
          "internalType": "bytes32",
          "name": "",
          "type": "bytes32"
        }
      ],
      "stateMutability": "view",
      "type": "function"
    },
    {
      "inputs": [
        {
          "internalType": "bytes32",
          "name": "role",
          "type": "bytes32"
        },
        {
          "internalType": "address",
          "name": "account",
          "type": "address"
        }
      ],
      "name": "grantRole",
      "outputs": [],
      "stateMutability": "nonpayable",
      "type": "function"
    },
    {
      "inputs": [
        {
          "internalType": "bytes32",
          "name": "role",
          "type": "bytes32"
        },
        {
          "internalType": "address",
          "name": "account",
          "type": "address"
        }
      ],
      "name": "hasRole",
      "outputs": [
        {
          "internalType": "bool",
          "name": "",
          "type": "bool"
        }
      ],
      "stateMutability": "view",
      "type": "function"
    },
    {
      "inputs": [
        {
          "internalType": "string",
          "name": "_siteURL",
          "type": "string"
        },
        {
          "internalType": "string",
          "name": "_description",
          "type": "string"
        },
        {
          "internalType": "address",
          "name": "_erc20TokenAddress",
          "type": "address"
        },
        {
          "internalType": "address",
          "name": "_publisher",
          "type": "address"
        },
        {
          "internalType": "address",
          "name": "_platformFeeAddress",
          "type": "address"
        },
        {
          "internalType": "uint256",
          "name": "_platformFeesPercentInBPS",
          "type": "uint256"
        },
        {
          "internalType": "address",
          "name": "_pubFactoryAddr",
          "type": "address"
        }
      ],
      "name": "initialize",
      "outputs": [],
      "stateMutability": "nonpayable",
      "type": "function"
    },
    {
      "inputs": [
        {
          "internalType": "address",
          "name": "",
          "type": "address"
        }
      ],
      "name": "moderatorRecvdFees",
      "outputs": [
        {
          "internalType": "uint256",
          "name": "",
          "type": "uint256"
        }
      ],
      "stateMutability": "view",
      "type": "function"
    },
    {
      "inputs": [
        {
          "internalType": "uint256",
          "name": "",
          "type": "uint256"
        }
      ],
      "name": "moderators",
      "outputs": [
        {
          "internalType": "address",
          "name": "",
          "type": "address"
        }
      ],
      "stateMutability": "view",
      "type": "function"
    },
    {
      "inputs": [],
      "name": "platformFeeAddress",
      "outputs": [
        {
          "internalType": "address",
          "name": "",
          "type": "address"
        }
      ],
      "stateMutability": "view",
      "type": "function"
    },
    {
      "inputs": [],
      "name": "platformFeesPercentInBPS",
      "outputs": [
        {
          "internalType": "uint256",
          "name": "",
          "type": "uint256"
        }
      ],
      "stateMutability": "view",
      "type": "function"
    },
    {
      "inputs": [],
      "name": "publisher",
      "outputs": [
        {
          "internalType": "address",
          "name": "",
          "type": "address"
        }
      ],
      "stateMutability": "view",
      "type": "function"
    },
    {
      "inputs": [
        {
          "internalType": "bytes32",
          "name": "_advId",
          "type": "bytes32"
        }
      ],
      "name": "rejectAdv",
      "outputs": [],
      "stateMutability": "nonpayable",
      "type": "function"
    },
    {
      "inputs": [
        {
          "internalType": "address[]",
          "name": "_modAddresses",
          "type": "address[]"
        }
      ],
      "name": "removeModerators",
      "outputs": [],
      "stateMutability": "nonpayable",
      "type": "function"
    },
    {
      "inputs": [
        {
          "internalType": "bytes32",
          "name": "role",
          "type": "bytes32"
        },
        {
          "internalType": "address",
          "name": "callerConfirmation",
          "type": "address"
        }
      ],
      "name": "renounceRole",
      "outputs": [],
      "stateMutability": "nonpayable",
      "type": "function"
    },
    {
      "inputs": [
        {
          "internalType": "bytes32",
          "name": "_advId",
          "type": "bytes32"
        }
      ],
      "name": "restartAdv",
      "outputs": [],
      "stateMutability": "nonpayable",
      "type": "function"
    },
    {
      "inputs": [
        {
          "internalType": "bytes32",
          "name": "role",
          "type": "bytes32"
        },
        {
          "internalType": "address",
          "name": "account",
          "type": "address"
        }
      ],
      "name": "revokeRole",
      "outputs": [],
      "stateMutability": "nonpayable",
      "type": "function"
    },
    {
      "inputs": [
        {
          "internalType": "bytes32",
          "name": "_advSpaceId",
          "type": "bytes32"
        },
        {
          "internalType": "bool",
          "name": "_isEnabled",
          "type": "bool"
        }
      ],
      "name": "setAdvSpaceStatus",
      "outputs": [],
      "stateMutability": "nonpayable",
      "type": "function"
    },
    {
      "inputs": [],
      "name": "siteURL",
      "outputs": [
        {
          "internalType": "string",
          "name": "",
          "type": "string"
        }
      ],
      "stateMutability": "view",
      "type": "function"
    },
    {
      "inputs": [
        {
          "internalType": "bytes32",
          "name": "_advId",
          "type": "bytes32"
        }
      ],
      "name": "stopAdv",
      "outputs": [],
      "stateMutability": "nonpayable",
      "type": "function"
    },
    {
      "inputs": [
        {
          "internalType": "bytes4",
          "name": "interfaceId",
          "type": "bytes4"
        }
      ],
      "name": "supportsInterface",
      "outputs": [
        {
          "internalType": "bool",
          "name": "",
          "type": "bool"
        }
      ],
      "stateMutability": "view",
      "type": "function"
    },
    {
      "inputs": [],
      "name": "totalAdvCount",
      "outputs": [
        {
          "internalType": "uint256",
          "name": "",
          "type": "uint256"
        }
      ],
      "stateMutability": "view",
      "type": "function"
    },
    {
      "inputs": [
        {
          "internalType": "bytes32",
          "name": "_advId",
          "type": "bytes32"
        },
        {
          "internalType": "string",
          "name": "_advText",
          "type": "string"
        },
        {
          "internalType": "string",
          "name": "_advTitle",
          "type": "string"
        },
        {
          "internalType": "string[]",
          "name": "_ipfsHashes",
          "type": "string[]"
        },
        {
          "internalType": "string",
          "name": "_advLink",
          "type": "string"
        }
      ],
      "name": "updateAdvContent",
      "outputs": [],
      "stateMutability": "nonpayable",
      "type": "function"
    },
    {
      "inputs": [
        {
          "internalType": "bytes32",
          "name": "_advId",
          "type": "bytes32"
        },
        {
          "internalType": "uint256",
          "name": "_paymentRatePerSec",
          "type": "uint256"
        }
      ],
      "name": "updateAdvPayment",
      "outputs": [],
      "stateMutability": "nonpayable",
      "type": "function"
    },
    {
      "inputs": [
        {
          "internalType": "bytes32",
          "name": "_advSpaceId",
          "type": "bytes32"
        },
        {
          "internalType": "bytes32",
          "name": "_size",
          "type": "bytes32"
        },
        {
          "internalType": "string",
          "name": "_pageURL",
          "type": "string"
        },
        {
          "internalType": "uint256",
          "name": "_moderationFees",
          "type": "uint256"
        },
        {
          "internalType": "string",
          "name": "_description",
          "type": "string"
        }
      ],
      "name": "updateAdvSpace",
      "outputs": [],
      "stateMutability": "nonpayable",
      "type": "function"
    },
    {
      "inputs": [
        {
          "internalType": "string",
          "name": "_newDescription",
          "type": "string"
        }
      ],
      "name": "updateDescription",
      "outputs": [],
      "stateMutability": "nonpayable",
      "type": "function"
    },
    {
      "inputs": [
        {
          "internalType": "string",
          "name": "_newSiteURL",
          "type": "string"
        }
      ],
      "name": "updateSiteURL",
      "outputs": [],
      "stateMutability": "nonpayable",
      "type": "function"
    },
    {
      "inputs": [
        {
          "internalType": "bytes32",
          "name": "_advId",
          "type": "bytes32"
        },
        {
          "internalType": "uint256",
          "name": "_amount",
          "type": "uint256"
        }
      ],
      "name": "withdrawAdvertiser",
      "outputs": [],
      "stateMutability": "nonpayable",
      "type": "function"
    },
    {
      "inputs": [
        {
          "internalType": "bytes32[]",
          "name": "_advIds",
          "type": "bytes32[]"
        }
      ],
      "name": "withdrawPublisher",
      "outputs": [],
      "stateMutability": "nonpayable",
      "type": "function"
    }
  ],
  "bytecode": "0x6080604052348015600f57600080fd5b506001600055601b601f565b60cf565b7ff0c57e16840df040f15088dc2f81fe391c3923bec73e23a9662efc9c229c6a00805468010000000000000000900460ff1615606e5760405163f92ee8a960e01b815260040160405180910390fd5b80546001600160401b039081161460cc5780546001600160401b0319166001600160401b0390811782556040519081527fc7f505b2f371ae2175ee4913f4499e1f2633a7b5936321eed1cdaeb6115181d29060200160405180910390a15b50565b61581c806100de6000396000f3fe6080604052600436106102ff5760003560e01c8063858e2fe811610190578063b9fbaaf9116100dc578063e735b48a11610095578063f342428d1161006f578063f342428d14610988578063f835cd3c1461099e578063fd923fd4146109be578063fe0497d9146109de57600080fd5b8063e735b48a14610928578063ed14834f14610948578063f01bbf571461096857600080fd5b8063b9fbaaf91461085b578063bd842a111461087b578063c6271e801461089b578063d547741f146108c8578063d5fa6855146108e8578063e611a0151461090857600080fd5b80639257ca1c11610149578063a0678c5711610123578063a0678c57146107e4578063a217fddf14610811578063a42d18de14610826578063a780b94e1461084657600080fd5b80639257ca1c1461077457806396a404831461078a57806397c504c0146107b757600080fd5b8063858e2fe8146106b457806387ef1d2a146106d45780638c72c54e146106e75780638cb0274c146107075780638dec83ff1461072757806391d148541461075457600080fd5b80632fc3f1941161024f578063575723bb116102085780637284e416116101e25780637284e41614610632578063770a687c146106545780637a2f5aef146106745780637cfb10481461069457600080fd5b8063575723bb146105d25780635a8f9718146105f257806363f8860e1461061257600080fd5b80632fc3f194146104eb57806334b4e6251461050d57806336568abe1461052f578063372f3c4a1461054f578063419f57eb1461056f57806348b284a41461058457600080fd5b806309a2ef36116102bc578063221413f911610296578063221413f91461045a578063248a9ca31461047a5780632ea20214146104ab5780632f2ff15d146104cb57600080fd5b806309a2ef36146103ec57806314b5e5a31461041a5780631c990ecf1461043a57600080fd5b806301103ee01461030457806301ffc9a714610337578063035193ee146103675780630751c9681461039457806307dc6749146103b657806307f3759d146103cc575b600080fd5b34801561031057600080fd5b5061032461031f3660046148a7565b6109fe565b6040519081526020015b60405180910390f35b34801561034357600080fd5b506103576103523660046148c0565b610ac2565b604051901515815260200161032e565b34801561037357600080fd5b506103876103823660046148a7565b610af9565b60405161032e919061492d565b3480156103a057600080fd5b506103b46103af366004614940565b610b5b565b005b3480156103c257600080fd5b5061032460065481565b3480156103d857600080fd5b506103b46103e7366004614970565b6110e0565b3480156103f857600080fd5b5061040c610407366004614a09565b611159565b60405161032e929190614bbb565b34801561042657600080fd5b506103b4610435366004614dc4565b6116d9565b34801561044657600080fd5b506103b4610455366004614ea6565b611b6d565b34801561046657600080fd5b506103b46104753660046148a7565b611dfb565b34801561048657600080fd5b506103246104953660046148a7565b6000908152600160208190526040909120015490565b3480156104b757600080fd5b506103b46104c6366004614f38565b611fe1565b3480156104d757600080fd5b506103b46104e6366004614f6c565b6120b4565b3480156104f757600080fd5b506105006120e0565b60405161032e9190614f98565b34801561051957600080fd5b506103246000805160206157c783398151915281565b34801561053b57600080fd5b506103b461054a366004614f6c565b612142565b34801561055b57600080fd5b5061032461056a366004614fe4565b61217a565b34801561057b57600080fd5b506103876121c1565b34801561059057600080fd5b506105ba61059f3660046148a7565b6015602052600090815260409020546001600160a01b031681565b6040516001600160a01b03909116815260200161032e565b3480156105de57600080fd5b506103246105ed36600461500e565b612218565b3480156105fe57600080fd5b506103b461060d3660046148a7565b61224e565b34801561061e57600080fd5b506103b461062d366004614940565b6123e9565b34801561063e57600080fd5b5061064761258f565b60405161032e9190615065565b34801561066057600080fd5b506103b461066f366004615078565b61261d565b34801561068057600080fd5b5061038761068f3660046150e3565b612893565b3480156106a057600080fd5b506103576106af3660046148a7565b6128fd565b3480156106c057600080fd5b506103b46106cf366004614ea6565b612981565b6103b46106e23660046150fe565b6129c6565b3480156106f357600080fd5b506009546105ba906001600160a01b031681565b34801561071357600080fd5b506103b46107223660046151d7565b612ddb565b34801561073357600080fd5b50610747610742366004614a09565b612f88565b60405161032e9190615251565b34801561076057600080fd5b5061035761076f366004614f6c565b6131e7565b34801561078057600080fd5b5061032460055481565b34801561079657600080fd5b506103246107a53660046148a7565b60136020526000908152604090205481565b3480156107c357600080fd5b506103246107d23660046150e3565b60166020526000908152604090205481565b3480156107f057600080fd5b506103246107ff3660046148a7565b60146020526000908152604090205481565b34801561081d57600080fd5b50610324600081565b34801561083257600080fd5b506103b46108413660046148a7565b613212565b34801561085257600080fd5b5061064761337c565b34801561086757600080fd5b506103b46108763660046152fe565b613389565b34801561088757600080fd5b506105ba6108963660046148a7565b61354b565b3480156108a757600080fd5b506108bb6108b63660046148a7565b613575565b60405161032e91906153b1565b3480156108d457600080fd5b506103b46108e3366004614f6c565b613605565b3480156108f457600080fd5b506103b46109033660046148a7565b61362b565b34801561091457600080fd5b506103246109233660046148a7565b61385d565b34801561093457600080fd5b506103b4610943366004614f38565b613881565b34801561095457600080fd5b506007546105ba906001600160a01b031681565b34801561097457600080fd5b506103b4610983366004614940565b6138b7565b34801561099457600080fd5b50610324600b5481565b3480156109aa57600080fd5b506004546105ba906001600160a01b031681565b3480156109ca57600080fd5b506103b46109d9366004614a09565b613b0f565b3480156109ea57600080fd5b506103246109f93660046148a7565b613ce7565b60008181526015602052604081205481906001600160a01b031615610a3e57506000828152600e60209081526040808320548352600d9091529020600201545b6000610a4984613d09565b6000858152600e602052604081206006015491925090610a6a90603b61541b565b9050610a758561385d565b81610a808585615432565b610a8a9190615432565b10610a9a57506000949350505050565b8282610aa58761385d565b610aaf9190615445565b610ab99190615445565b95945050505050565b60006001600160e01b03198216637965db0b60e01b1480610af357506301ffc9a760e01b6001600160e01b03198316145b92915050565b600081815260106020908152604091829020805483518184028101840190945280845260609392830182828015610b4f57602002820191906000526020600020905b815481526020019060010190808311610b3b575b50505050509050919050565b6000828152600e602052604090206001015482906001600160a01b03163314610b9f5760405162461bcd60e51b8152600401610b9690615458565b60405180910390fd5b60008211610bef5760405162461bcd60e51b815260206004820152601960248201527f696e76616c6964207061796d656e7452617465506572536563000000000000006044820152606401610b96565b6000610bfa846109fe565b6000858152600e602090815260408083208151610100810183528154815260018201546001600160a01b03169381019390935260028101805495965093949293909291840191610c499061548f565b80601f0160208091040260200160405190810160405280929190818152602001828054610c759061548f565b8015610cc25780601f10610c9757610100808354040283529160200191610cc2565b820191906000526020600020905b815481529060010190602001808311610ca557829003601f168201915b50505050508152602001600382018054610cdb9061548f565b80601f0160208091040260200160405190810160405280929190818152602001828054610d079061548f565b8015610d545780601f10610d2957610100808354040283529160200191610d54565b820191906000526020600020905b815481529060010190602001808311610d3757829003601f168201915b5050509183525050600482015460209091019060ff166003811115610d7b57610d7b614af3565b6003811115610d8c57610d8c614af3565b815260200160058201805480602002602001604051908101604052809291908181526020016000905b82821015610e61578382906000526020600020018054610dd49061548f565b80601f0160208091040260200160405190810160405280929190818152602001828054610e009061548f565b8015610e4d5780601f10610e2257610100808354040283529160200191610e4d565b820191906000526020600020905b815481529060010190602001808311610e3057829003601f168201915b505050505081526020019060010190610db5565b50505050815260200160068201548152602001600782018054610e839061548f565b80601f0160208091040260200160405190810160405280929190818152602001828054610eaf9061548f565b8015610efc5780601f10610ed157610100808354040283529160200191610efc565b820191906000526020600020905b815481529060010190602001808311610edf57829003601f168201915b5050509190925250505060c081018051908690526000878152600e602090815260409182902084518155908401516001820180546001600160a01b0319166001600160a01b039092169190911790559083015192935090918391906002820190610f669082615517565b5060608201516003820190610f7b9082615517565b50608082015160048201805460ff19166001836003811115610f9f57610f9f614af3565b021790555060a08201518051610fbf9160058401916020909101906147ea565b5060c0820151600682015560e08201516007820190610fde9082615517565b5060019150610fea9050565b6003811115610ffb57610ffb614af3565b8260800151600381111561101157611011614af3565b036110a957611021866003613f1a565b42600061102e87866155d5565b6110389083615432565b600089815260116020908152604080832081516060810183529687528683019485528682018c81528154600180820184559286528486209851600390910290980197885594518782015593516002909601959095558a8252600e905292909220600401805460ff1916909217909155505b8481877f7d841331ec2933dd0149c22078c56fce2a107adc656881019d1222e70b25932b60405160405180910390a4505050505050565b6009546001600160a01b0316331461110a5760405162461bcd60e51b8152600401610b96906155f7565b6000828152600d6020526040808220600401805460ff19168415159081179091559051909184917f058d7c460dbad3b3470bdab37236835934df498c897a0beb115fc3dff0617b4f9190a35050565b6060806000429050600084516001600160401b0381111561117c5761117c6149a0565b6040519080825280602002602001820160405280156111a5578160200160208202803683370190505b509050600085516001600160401b038111156111c3576111c36149a0565b60405190808252806020026020018201604052801561123457816020015b604080516101008101825260008082526020820181905260609282018390528282018390526080820181905260a0820183905260c082015260e08101919091528152602001906001900390816111e15790505b50905060005b86518163ffffffff1610156116ce57600e6000888363ffffffff168151811061126557611265615625565b6020026020010151815260200190815260200160002060405180610100016040529081600082015481526020016001820160009054906101000a90046001600160a01b03166001600160a01b03166001600160a01b031681526020016002820180546112d09061548f565b80601f01602080910402602001604051908101604052809291908181526020018280546112fc9061548f565b80156113495780601f1061131e57610100808354040283529160200191611349565b820191906000526020600020905b81548152906001019060200180831161132c57829003601f168201915b505050505081526020016003820180546113629061548f565b80601f016020809104026020016040519081016040528092919081815260200182805461138e9061548f565b80156113db5780601f106113b0576101008083540402835291602001916113db565b820191906000526020600020905b8154815290600101906020018083116113be57829003601f168201915b5050509183525050600482015460209091019060ff16600381111561140257611402614af3565b600381111561141357611413614af3565b815260200160058201805480602002602001604051908101604052809291908181526020016000905b828210156114e857838290600052602060002001805461145b9061548f565b80601f01602080910402602001604051908101604052809291908181526020018280546114879061548f565b80156114d45780601f106114a9576101008083540402835291602001916114d4565b820191906000526020600020905b8154815290600101906020018083116114b757829003601f168201915b50505050508152602001906001019061143c565b5050505081526020016006820154815260200160078201805461150a9061548f565b80601f01602080910402602001604051908101604052809291908181526020018280546115369061548f565b80156115835780601f1061155857610100808354040283529160200191611583565b820191906000526020600020905b81548152906001019060200180831161156657829003601f168201915b505050505081525050828263ffffffff16815181106115a4576115a4615625565b6020026020010181905250600060116000898463ffffffff16815181106115cd576115cd615625565b602002602001015181526020019081526020016000206001601160008b8663ffffffff168151811061160157611601615625565b60200260200101518152602001908152602001600020805490506116259190615445565b8154811061163557611635615625565b60009182526020808320604080516060810182526003909402909101805480855260018201549385019390935260020154908301529092508610801590611680575081602001518611155b61168b57600061168e565b60015b905080858463ffffffff16815181106116a9576116a9615625565b91151560209283029190910190910152508190506116c68161563b565b91505061123a565b509590945092505050565b6000858152600e602052604090206001015485906001600160a01b031633146117145760405162461bcd60e51b8152600401610b9690615458565b6000868152600e602090815260408083208151610100810183528154815260018201546001600160a01b031693810193909352600281018054919284019161175b9061548f565b80601f01602080910402602001604051908101604052809291908181526020018280546117879061548f565b80156117d45780601f106117a9576101008083540402835291602001916117d4565b820191906000526020600020905b8154815290600101906020018083116117b757829003601f168201915b505050505081526020016003820180546117ed9061548f565b80601f01602080910402602001604051908101604052809291908181526020018280546118199061548f565b80156118665780601f1061183b57610100808354040283529160200191611866565b820191906000526020600020905b81548152906001019060200180831161184957829003601f168201915b5050509183525050600482015460209091019060ff16600381111561188d5761188d614af3565b600381111561189e5761189e614af3565b815260200160058201805480602002602001604051908101604052809291908181526020016000905b828210156119735783829060005260206000200180546118e69061548f565b80601f01602080910402602001604051908101604052809291908181526020018280546119129061548f565b801561195f5780601f106119345761010080835404028352916020019161195f565b820191906000526020600020905b81548152906001019060200180831161194257829003601f168201915b5050505050815260200190600101906118c7565b505050508152602001600682015481526020016007820180546119959061548f565b80601f01602080910402602001604051908101604052809291908181526020018280546119c19061548f565b8015611a0e5780601f106119e357610100808354040283529160200191611a0e565b820191906000526020600020905b8154815290600101906020018083116119f157829003601f168201915b5050505050815250509050600086511115611a2b57606081018690525b845115611a3a57604081018590525b835115611a495760a081018490525b825115611a585760e081018390525b611a63876003613f1a565b600060808201819052506000878152600e602090815260409182902083518155908301516001820180546001600160a01b0319166001600160a01b03909216919091179055908201518291906002820190611abe9082615517565b5060608201516003820190611ad39082615517565b50608082015160048201805460ff19166001836003811115611af757611af7614af3565b021790555060a08201518051611b179160058401916020909101906147ea565b5060c0820151600682015560e08201516007820190611b369082615517565b50506040518891507f4c3328b5751ed5c5c54c04c7201f62588c44945a7913e7dee922611efc7bafb490600090a250505050505050565b6009546001600160a01b03163314611b975760405162461bcd60e51b8152600401610b96906155f7565b600c60005b82518163ffffffff161015611db8576000838263ffffffff1681518110611bc557611bc5615625565b6020026020010151905060006001600160a01b0316816001600160a01b031603611bef5750611da6565b611c076000805160206157c7833981519152826131e7565b15611c2457611c246000805160206157c783398151915282613605565b82548390611c3490600190615445565b81548110611c4457611c44615625565b60009182526020808320909101546001600160a01b03848116845260179092526040909220548554919092169185918110611c8157611c81615625565b600091825260208083209190910180546001600160a01b0319166001600160a01b03948516179055918316815260179182905260408120548554909291908690611ccd90600190615445565b81548110611cdd57611cdd615625565b60009182526020808320909101546001600160a01b031683528201929092526040019020558254839080611d1357611d13615660565b600082815260209020600019908201810180546001600160a01b0319169055019055600a54600954604051638b0d437760e01b81526001600160a01b0384811660048301523060248301529182166044820152911690638b0d437790606401600060405180830381600087803b158015611d8c57600080fd5b505af1158015611da0573d6000803e3d6000fd5b50505050505b80611db08161563b565b915050611b9c565b5081604051611dc79190615676565b604051908190038120907f1054368db91a5e3f6e79e204db81b66fbc0ac2cb6b00cdc8db8208947b772d0e90600090a25050565b60095481906001600160a01b0316331480611e295750611e296000805160206157c7833981519152336131e7565b80611e4d57506000818152600e60205260409020600101546001600160a01b031633145b611e995760405162461bcd60e51b815260206004820152601f60248201527f63616c6c6572206973206e6f74206d6f64206f722061647665727469736572006044820152606401610b96565b60036000838152600e602052604090206004015460ff166003811115611ec157611ec1614af3565b03611f045760405162461bcd60e51b815260206004820152601360248201527210591d88185b1c9958591e481cdd1bdc1c1959606a1b6044820152606401610b96565b60016000838152600e602052604090206004015460ff166003811115611f2c57611f2c614af3565b14611f6a5760405162461bcd60e51b815260206004820152600e60248201526d416476206e6f742061637469766560901b6044820152606401610b96565b611f75826003613f1a565b6000828152600e60205260409020600101546001600160a01b03163303611fb0576000828152601860205260409020805460ff191660011790555b604051339083907fecaf6ade4487855e7d6decb81824b00f87c4ca8baa4de5d2cbb1740bcfdccbcc90600090a35050565b6009546001600160a01b0316331461200b5760405162461bcd60e51b8152600401610b96906155f7565b600b54156120535760405162461bcd60e51b815260206004820152601560248201527418d85b9b9bdd081d5c19185d19481cda5d19555493605a1b6044820152606401610b96565b80516000036120a45760405162461bcd60e51b815260206004820152601960248201527f6e65775369746555524c2063616e277420626520656d707479000000000000006044820152606401610b96565b60026120b08282615517565b5050565b600082815260016020819052604090912001546120d081613f9d565b6120da8383613fa7565b50505050565b6060600c80548060200260200160405190810160405280929190818152602001828054801561213857602002820191906000526020600020905b81546001600160a01b0316815260019091019060200180831161211a575b5050505050905090565b6001600160a01b038116331461216b5760405163334bd91960e11b815260040160405180910390fd5b6121758282614020565b505050565b6040516bffffffffffffffffffffffff19606084901b1660208201526034810182905260009060540160405160208183030381529060405280519060200120905092915050565b6060600880548060200260200160405190810160405280929190818152602001828054801561213857602002820191906000526020600020905b8154815260200190600101908083116121fb575050505050905090565b600083838360405160200161222f939291906156b5565b6040516020818303038152906040528051906020012090509392505050565b6122666000805160206157c7833981519152336131e7565b6122aa5760405162461bcd60e51b81526020600482015260156024820152746e656564206d6f64657261746f722061636365737360581b6044820152606401610b96565b6122b261408d565b60026000828152600e602052604090206004015460ff1660038111156122da576122da614af3565b0361231e5760405162461bcd60e51b815260206004820152601460248201527310591d88185b1c9958591e481c995a9958dd195960621b6044820152606401610b96565b60016000828152600e602052604090206004015460ff16600381111561234657612346614af3565b0361238a5760405162461bcd60e51b815260206004820152601460248201527310591d88185b1c9958591e48185c1c1c9bdd995960621b6044820152606401610b96565b612395816002613f1a565b6000818152600e60205260409020546123af9082906140b7565b604051339082907f0e3bfa1c14ecb5e6774e2cc21b81fe1cc96ced1828be3ec92ede1e84bbf0b40a90600090a36123e66001600055565b50565b6000828152600e602052604090206001015482906001600160a01b031633146124245760405162461bcd60e51b8152600401610b9690615458565b61242c61408d565b6000838152600e60209081526040808320548352600d90915290206004015460ff1661246a5760405162461bcd60e51b8152600401610b96906156f4565b60006127106006548461247d919061541b565b61248791906155d5565b905060006124958285615445565b905060006124a2866109fe565b9050816012600088815260200190815260200160002060008282546124c79190615432565b9091555050600086815260116020526040902054600110801561250f575060016000878152600e602052604090206004015460ff16600381111561250d5761250d614af3565b145b1561253357801561252a576125258660006141cc565b612533565b61253386614294565b61253e333084614332565b6007546125569033906001600160a01b031685614332565b604051829087907ee10051d0bca74c1e85ea3367c844a6c577082086cbdc936ff01991be57cf7f90600090a35050506121756001600055565b6003805461259c9061548f565b80601f01602080910402602001604051908101604052809291908181526020018280546125c89061548f565b80156126155780601f106125ea57610100808354040283529160200191612615565b820191906000526020600020905b8154815290600101906020018083116125f857829003601f168201915b505050505081565b6009546001600160a01b031633146126475760405162461bcd60e51b8152600401610b96906155f7565b6126508561434a565b506000600d60008781526020019081526020016000206040518060a00160405290816000820154815260200160018201805461268b9061548f565b80601f01602080910402602001604051908101604052809291908181526020018280546126b79061548f565b80156127045780601f106126d957610100808354040283529160200191612704565b820191906000526020600020905b8154815290600101906020018083116126e757829003601f168201915b50505050508152602001600282015481526020016003820180546127279061548f565b80601f01602080910402602001604051908101604052809291908181526020018280546127539061548f565b80156127a05780601f10612775576101008083540402835291602001916127a0565b820191906000526020600020905b81548152906001019060200180831161278357829003601f168201915b50505091835250506004919091015460ff161515602090910152805190915085146127c9578481525b8351156127d857602081018490525b8151156127e757606081018290525b806040015183146127fa57604081018390525b6000868152600d60209081526040909120825181559082015182919060018201906128259082615517565b5060408201516002820155606082015160038201906128449082615517565b50608091909101516004909101805460ff191691151591909117905560405186907f10ed3a92e657c72ad7d7feb1b12de9cb21fa5aefcaf82ff5ee92627be581926190600090a2505050505050565b6001600160a01b0381166000908152600f6020908152604091829020805483518184028101840190945280845260609392830182828015610b4f5760200282019190600052602060002090815481526020019060010190808311610b3b5750505050509050919050565b6000818152601160205260408120805482919061291c90600190615445565b8154811061292c5761292c615625565b600091825260209182902060408051606081018252600390930290910180548084526001820154948401949094526002015490820152915042908110801590612979575081602001518111155b949350505050565b6009546001600160a01b031633146129ab5760405162461bcd60e51b8152600401610b96906155f7565b6129b361408d565b6129bc81614393565b6123e66001600055565b6129ce61408d565b6000878152600d602052604090206004015460ff166129ff5760405162461bcd60e51b8152600401610b96906156f4565b8551600003612a405760405162461bcd60e51b815260206004820152600d60248201526c696e76616c6964207469746c6560981b6044820152606401610b96565b8451600003612a805760405162461bcd60e51b815260206004820152600c60248201526b1a5b9d985b1a59081d195e1d60a21b6044820152606401610b96565b82600003612ad05760405162461bcd60e51b815260206004820152601a60248201527f70617920726174652063616e6e6f74206265207a65726f2830290000000000006044820152606401610b96565b612ad98761434a565b506000612ae733888a612218565b6000818152600e602052604090205490915015612b1a57604051631df51e6960e11b815260048101829052602401610b96565b60408051610100810182528981523360208083019182528284018b8152606084018b905260006080850181905260a085018b905260c085018a905260e08501889052868152600e9092529390208251815590516001820180546001600160a01b0319166001600160a01b039092169190911790559151909182916002820190612ba39082615517565b5060608201516003820190612bb89082615517565b50608082015160048201805460ff19166001836003811115612bdc57612bdc614af3565b021790555060a08201518051612bfc9160058401916020909101906147ea565b5060c0820151600682015560e08201516007820190612c1b9082615517565b5050336000908152600f60209081526040808320805460018181018355918552838520018790558d84526010835290832080548083018255908452918320909101859055600b80549193509190612c73908490615432565b9091555050600082815260116020908152604080832081516060810183528481528084018581529281018a8152825460018181018555938752948620915160039095029091019384559151908301555160029091015560065461271090612cda908761541b565b612ce491906155d5565b90506000612cf28287615445565b60008581526012602052604090208190559050612d10333083614332565b600754612d289033906001600160a01b031684614332565b600a5460095460405163f336aa3560e01b81523360048201523060248201526001600160a01b03918216604482015291169063f336aa3590606401600060405180830381600087803b158015612d7d57600080fd5b505af1158015612d91573d6000803e3d6000fd5b50506040513392508691508d907f924ea5a69af098416d088a06226412dbb1d66ac40d8f2f6944c5a90e9395cec590600090a450505050612dd26001600055565b50505050505050565b6009546001600160a01b03163314612e055760405162461bcd60e51b8152600401610b96906155f7565b8251600003612e565760405162461bcd60e51b815260206004820152601760248201527f5f7061676555524c2063616e277420626520656d7074790000000000000000006044820152606401610b96565b6040805160a08101825285815260208101859052908101839052606081018290526001608082015260058054906000612e8e8361571f565b91905055506000612ea13360055461217a565b6000818152600d60209081526040909120845181559084015191925083916001820190612ece9082615517565b506040820151600282015560608201516003820190612eed9082615517565b50608091909101516004909101805460ff1916911515919091179055600880546001810182556000919091527ff3f7a9fe364faab93b216da50a3214154f22a0a2b415b23a84c8169e8b636ee301819055604051612f4c908690615738565b60405190819003812090879083907f27d6187e0524b246d259baee5eabdff6f2ba872a277ac360fb0ddd617c046fed90600090a4505050505050565b6060600082516001600160401b03811115612fa557612fa56149a0565b60405190808252806020026020018201604052801561300d57816020015b612ffa6040518060a00160405280600080191681526020016060815260200160008152602001606081526020016000151581525090565b815260200190600190039081612fc35790505b50905060005b83518163ffffffff1610156131e057600d6000858363ffffffff168151811061303e5761303e615625565b602002602001015181526020019081526020016000206040518060a0016040529081600082015481526020016001820180546130799061548f565b80601f01602080910402602001604051908101604052809291908181526020018280546130a59061548f565b80156130f25780601f106130c7576101008083540402835291602001916130f2565b820191906000526020600020905b8154815290600101906020018083116130d557829003601f168201915b50505050508152602001600282015481526020016003820180546131159061548f565b80601f01602080910402602001604051908101604052809291908181526020018280546131419061548f565b801561318e5780601f106131635761010080835404028352916020019161318e565b820191906000526020600020905b81548152906001019060200180831161317157829003601f168201915b50505091835250506004919091015460ff1615156020909101528251839063ffffffff84169081106131c2576131c2615625565b602002602001018190525080806131d89061563b565b915050613013565b5092915050565b60009182526001602090815260408084206001600160a01b0393909316845291905290205460ff1690565b61322a6000805160206157c7833981519152336131e7565b61326e5760405162461bcd60e51b81526020600482015260156024820152746e656564206d6f64657261746f722061636365737360581b6044820152606401610b96565b61327661408d565b6000818152600e60209081526040808320548352600d90915290206004015460ff166132b45760405162461bcd60e51b8152600401610b96906156f4565b60016000828152600e602052604090206004015460ff1660038111156132dc576132dc614af3565b036133205760405162461bcd60e51b815260206004820152601460248201527310591d88185b1c9958591e48185c1c1c9bdd995960621b6044820152606401610b96565b61332b816001613f1a565b6000818152600e60205260409020546133459082906140b7565b604051339082907f5366f255d858cef60ba6f5de04388783d1e1a93443056d95c065c3dd1f4650c890600090a36123e66001600055565b6002805461259c9061548f565b7ff0c57e16840df040f15088dc2f81fe391c3923bec73e23a9662efc9c229c6a008054600160401b810460ff1615906001600160401b03166000811580156133ce5750825b90506000826001600160401b031660011480156133ea5750303b155b9050811580156133f8575080155b156134165760405163f92ee8a960e01b815260040160405180910390fd5b845467ffffffffffffffff19166001178555831561344057845460ff60401b1916600160401b1785555b600261344c8d82615517565b5060036134598c82615517565b50600480546001600160a01b03808d166001600160a01b031992831617909255600980548c84169083168117909155600780548c851690841617905560068a9055600a8054938a16939092169290921790556134b790600090613fa7565b506009546134dd906000805160206157c7833981519152906001600160a01b0316613fa7565b506134f76000805160206157c7833981519152600061465d565b831561353d57845460ff60401b19168555604051600181527fc7f505b2f371ae2175ee4913f4499e1f2633a7b5936321eed1cdaeb6115181d29060200160405180910390a15b505050505050505050505050565b600c818154811061355b57600080fd5b6000918252602090912001546001600160a01b0316905081565b606060116000838152602001908152602001600020805480602002602001604051908101604052809291908181526020016000905b828210156135fa57838290600052602060002090600302016040518060600160405290816000820154815260200160018201548152602001600282015481525050815260200190600101906135aa565b505050509050919050565b6000828152600160208190526040909120015461362181613f9d565b6120da8383614020565b60095481906001600160a01b031633148061365957506136596000805160206157c7833981519152336131e7565b8061367d57506000818152600e60205260409020600101546001600160a01b031633145b6136c95760405162461bcd60e51b815260206004820152601f60248201527f63616c6c6572206973206e6f74206d6f64206f722061647665727469736572006044820152606401610b96565b6000828152600e60209081526040808320548352600d90915290206004015460ff166137075760405162461bcd60e51b8152600401610b96906156f4565b60036000838152600e602052604090206004015460ff16600381111561372f5761372f614af3565b1461376e5760405162461bcd60e51b815260206004820152600f60248201526e18591d881b9bdd081cdd1bdc1c1959608a1b6044820152606401610b96565b60008281526018602052604090205460ff1680156137a557506000828152600e60205260409020600101546001600160a01b031633145b806137e4575060008281526018602052604090205460ff161580156137e457506000828152600e60205260409020600101546001600160a01b03163314155b6138215760405162461bcd60e51b815260206004820152600e60248201526d18d85b9b9bdd081c995cdd185c9d60921b6044820152606401610b96565b61382c826001613f1a565b604051339083907fa20f6925c759446ee4fd04c0003ad02fb5b1e5e4eda18ae1bb99d260e3c3402b90600090a35050565b6000818152601460209081526040808320546012909252822054610af39190615445565b6009546001600160a01b031633146138ab5760405162461bcd60e51b8152600401610b96906155f7565b60036120b08282615517565b6000828152600e602052604090206001015482906001600160a01b031633146138f25760405162461bcd60e51b8152600401610b9690615458565b6138fa61408d565b6000821161393b5760405162461bcd60e51b815260206004820152600e60248201526d1a5b9d985b1a5908185b5bdd5b9d60921b6044820152606401610b96565b6000613946846109fe565b9050808311156139915760405162461bcd60e51b8152602060048201526016602482015275616d6f756e7420657863656564732062616c616e636560501b6044820152606401610b96565b600084815260146020526040812080548592906139af908490615432565b909155506139bf90508382615445565b1580156139f1575060016000858152600e602052604090206004015460ff1660038111156139ef576139ef614af3565b145b15613a0657613a01846003613f1a565b613a55565b6000613a128483615445565b118015613a45575060036000858152600e602052604090206004015460ff166003811115613a4257613a42614af3565b14155b15613a5557613a558460006141cc565b6004805460405163095ea7b360e01b81523092810192909252602482018590526001600160a01b03169063095ea7b3906044016020604051808303816000875af1158015613aa7573d6000803e3d6000fd5b505050506040513d601f19601f82011682018060405250810190613acb9190615754565b50613ad7303385614332565b604051839085907ffb66ab4d4c4dacc78499e8ca394b0647beab00824569423c497d72dd17165fb590600090a3506121756001600055565b6009546001600160a01b03163314613b395760405162461bcd60e51b8152600401610b96906155f7565b613b4161408d565b6000805b82518163ffffffff161015613be8576000613b7e848363ffffffff1681518110613b7157613b71615625565b6020026020010151613ce7565b9050613b8a8184615432565b92508060136000868563ffffffff1681518110613ba957613ba9615625565b602002602001015181526020019081526020016000206000828254613bce9190615432565b90915550829150613be090508161563b565b915050613b45565b5080600003613c0e578133604051635c87ff8560e11b8152600401610b96929190615771565b6004805460405163095ea7b360e01b81523092810192909252602482018390526001600160a01b03169063095ea7b3906044016020604051808303816000875af1158015613c60573d6000803e3d6000fd5b505050506040513d601f19601f82011682018060405250810190613c849190615754565b50600954613c9d9030906001600160a01b031683614332565b8082604051613cac919061579b565b604051908190038120907f2fcb9b6e88b245799c117099197ff6b089ee06b95ee7ed1a442d738501418e0590600090a3506123e66001600055565b600081815260136020526040812054613cff83613d09565b610af39190615445565b6000613d14826146aa565b5060008281526011602052604090208054613d3190600190615445565b81548110613d4157613d41615625565b906000526020600020906003020160000154600003613d6257506000919050565b6000828152601160209081526040808320805482518185028101850190935280835242938593929190849084015b82821015613de05783829060005260206000209060030201604051806060016040529081600082015481526020016001820154815260200160028201548152505081526020019060010190613d90565b5050505090508060018251613df59190615445565b81518110613e0557613e05615625565b6020026020010151602001518211613e4857818160018351613e279190615445565b81518110613e3757613e37615625565b602002602001015160200181815250505b60015b81518163ffffffff161015613f1157818163ffffffff1681518110613e7257613e72615625565b602002602001015160000151828263ffffffff1681518110613e9657613e96615625565b602002602001015160200151613eac9190615445565b600087815260116020526040902080549195509063ffffffff8316908110613ed657613ed6615625565b90600052602060002090600302016002015484613ef3919061541b565b613efd9086615432565b945080613f098161563b565b915050613e4b565b50505050919050565b613f23826146aa565b506000828152600e60205260409020600401805482919060ff19166001836003811115613f5257613f52614af3565b02179055506001816003811115613f6b57613f6b614af3565b03613f79576120b082614294565b6003816003811115613f8d57613f8d614af3565b036120b0576120b08260016141cc565b6123e681336146eb565b6000613fb383836131e7565b6140185760008381526001602081815260408084206001600160a01b0387168086529252808420805460ff19169093179092559051339286917f2f8788117e7eff1d82e926ec794901d17c78024a50270940304540a733656f0d9190a4506001610af3565b506000610af3565b600061402c83836131e7565b156140185760008381526001602090815260408083206001600160a01b0386168085529252808320805460ff1916905551339286917ff6391f5c32d9c69d2a47ea670b442974b53935d1edc7fd64eb21e047a839171b9190a4506001610af3565b6002600054036140b057604051633ee5aeb560e01b815260040160405180910390fd5b6002600055565b6000828152601560205260409020546001600160a01b03166120b057600082815260156020908152604080832080546001600160a01b03191633908117909155848452600d83528184206002015490845260169092528220805491929091614120908490615432565b9091555050600480546000838152600d60205260409081902060020154905163095ea7b360e01b8152309381019390935260248301526001600160a01b03169063095ea7b3906044016020604051808303816000875af1158015614188573d6000803e3d6000fd5b505050506040513d601f19601f820116820180604052508101906141ac9190615754565b506000818152600d60205260409020600201546120b09030903390614332565b42811561421c57600083815260116020526040902080548291906141f290600190615445565b8154811061420257614202615625565b906000526020600020906003020160010181905550505050565b6000838152600e6020526040812060060154614237856109fe565b61424191906155d5565b905061424d8183615432565b6000858152601160205260409020805461426990600190615445565b8154811061427957614279615625565b90600052602060002090600302016001018190555050505050565b4260006142a0836109fe565b6000848152600e6020526040812060060154919250906142c090836155d5565b6142ca9084615432565b60008581526011602090815260408083208151606081018352978852878301948552978352600e825280832060060154908701908152875460018181018a55988452919092209551600390910290950194855590519484019490945550509051600290910155565b600454612175906001600160a01b0316848484614724565b6000818152600d6020526040812060010180546143669061548f565b905060000361438b576040516315e50a4360e31b815260048101839052602401610b96565b506001919050565b600c5481516014916143a491615432565b11156143ea5760405162461bcd60e51b81526020600482015260156024820152746d6178206d6f6420636f756e74206578636565647360581b6044820152606401610b96565b60005b81518163ffffffff16101561461b5760006001600160a01b0316828263ffffffff168151811061441f5761441f615625565b60200260200101516001600160a01b031603156146095761446d6000805160206157c7833981519152838363ffffffff168151811061446057614460615625565b60200260200101516131e7565b6144aa576144a86000805160206157c7833981519152838363ffffffff168151811061449b5761449b615625565b6020026020010151613fa7565b505b600c828263ffffffff16815181106144c4576144c4615625565b60209081029190910181015182546001808201855560009485529290932090920180546001600160a01b0319166001600160a01b0390931692909217909155600c546145109190615445565b60176000848463ffffffff168151811061452c5761452c615625565b60200260200101516001600160a01b03166001600160a01b0316815260200190815260200160002081905550600a60009054906101000a90046001600160a01b03166001600160a01b031663b552ebc8838363ffffffff168151811061459457614594615625565b60209081029190910101516009546040516001600160e01b031960e085901b1681526001600160a01b03928316600482015230602482015291166044820152606401600060405180830381600087803b1580156145f057600080fd5b505af1158015614604573d6000803e3d6000fd5b505050505b806146138161563b565b9150506143ed565b508060405161462a9190615676565b604051908190038120907fdc44d8affa5d382f99b0912419a4b30b4fd04c7c5ad2c96635c7f9d4ca6e3f0e90600090a250565b6000828152600160208190526040808320909101805490849055905190918391839186917fbd79b86ffe0ab8e8776151514217cd7cacd52c909f66475c3af44e129f0b00ff9190a4505050565b6000818152600e6020526040812060020180546146c69061548f565b905060000361438b57604051637e6bd23960e01b815260048101839052602401610b96565b6146f582826131e7565b6120b05760405163e2517d3f60e01b81526001600160a01b038216600482015260248101839052604401610b96565b604080516001600160a01b038581166024830152841660448201526064808201849052825180830390910181526084909101909152602080820180516001600160e01b03166323b872dd60e01b17815282516120da938893909260009283929183919082885af18061479c576040513d6000823e3d81fd5b50506000513d915081156147b45780600114156147c1565b6001600160a01b0384163b155b156120da57604051635274afe760e01b81526001600160a01b0385166004820152602401610b96565b828054828255906000526020600020908101928215614830579160200282015b8281111561483057825182906148209082615517565b509160200191906001019061480a565b5061483c929150614840565b5090565b8082111561483c576000614854828261485d565b50600101614840565b5080546148699061548f565b6000825580601f10614879575050565b601f0160209004906000526020600020908101906123e691905b8082111561483c5760008155600101614893565b6000602082840312156148b957600080fd5b5035919050565b6000602082840312156148d257600080fd5b81356001600160e01b0319811681146148ea57600080fd5b9392505050565b600081518084526020840193506020830160005b82811015614923578151865260209586019590910190600101614905565b5093949350505050565b6020815260006148ea60208301846148f1565b6000806040838503121561495357600080fd5b50508035926020909101359150565b80151581146123e657600080fd5b6000806040838503121561498357600080fd5b82359150602083013561499581614962565b809150509250929050565b634e487b7160e01b600052604160045260246000fd5b604051601f8201601f191681016001600160401b03811182821017156149de576149de6149a0565b604052919050565b60006001600160401b038211156149ff576149ff6149a0565b5060051b60200190565b600060208284031215614a1b57600080fd5b81356001600160401b03811115614a3157600080fd5b8201601f81018413614a4257600080fd5b8035614a55614a50826149e6565b6149b6565b8082825260208201915060208360051b850101925086831115614a7757600080fd5b6020840193505b82841015614a99578335825260209384019390910190614a7e565b9695505050505050565b60005b83811015614abe578181015183820152602001614aa6565b50506000910152565b60008151808452614adf816020860160208601614aa3565b601f01601f19169290920160200192915050565b634e487b7160e01b600052602160045260246000fd5b60048110614b2757634e487b7160e01b600052602160045260246000fd5b9052565b600082825180855260208501945060208160051b8301016020850160005b83811015614b7b57601f19858403018852614b65838351614ac7565b6020988901989093509190910190600101614b49565b50909695505050505050565b600081518084526020840193506020830160005b828110156149235781511515865260209586019590910190600101614b9b565b6000604082016040835280855180835260608501915060608160051b86010192506020870160005b82811015614cb357605f198786030184528151805186526020810151614c1460208801826001600160a01b03169052565b5060408101516101006040880152614c30610100880182614ac7565b905060608201518782036060890152614c498282614ac7565b9150506080820151614c5e6080890182614b09565b5060a082015187820360a0890152614c768282614b2b565b91505060c082015160c088015260e0820151915086810360e0880152614c9c8183614ac7565b965050506020938401939190910190600101614be3565b505050508281036020840152610ab98185614b87565b600082601f830112614cda57600080fd5b81356001600160401b03811115614cf357614cf36149a0565b614d06601f8201601f19166020016149b6565b818152846020838601011115614d1b57600080fd5b816020850160208301376000918101602001919091529392505050565b600082601f830112614d4957600080fd5b8135614d57614a50826149e6565b8082825260208201915060208360051b860101925085831115614d7957600080fd5b602085015b83811015614dba5780356001600160401b03811115614d9c57600080fd5b614dab886020838a0101614cc9565b84525060209283019201614d7e565b5095945050505050565b600080600080600060a08688031215614ddc57600080fd5b8535945060208601356001600160401b03811115614df957600080fd5b614e0588828901614cc9565b94505060408601356001600160401b03811115614e2157600080fd5b614e2d88828901614cc9565b93505060608601356001600160401b03811115614e4957600080fd5b614e5588828901614d38565b92505060808601356001600160401b03811115614e7157600080fd5b614e7d88828901614cc9565b9150509295509295909350565b80356001600160a01b0381168114614ea157600080fd5b919050565b600060208284031215614eb857600080fd5b81356001600160401b03811115614ece57600080fd5b8201601f81018413614edf57600080fd5b8035614eed614a50826149e6565b8082825260208201915060208360051b850101925086831115614f0f57600080fd5b6020840193505b82841015614a9957614f2784614e8a565b825260209384019390910190614f16565b600060208284031215614f4a57600080fd5b81356001600160401b03811115614f6057600080fd5b61297984828501614cc9565b60008060408385031215614f7f57600080fd5b82359150614f8f60208401614e8a565b90509250929050565b602080825282518282018190526000918401906040840190835b81811015614fd95783516001600160a01b0316835260209384019390920191600101614fb2565b509095945050505050565b60008060408385031215614ff757600080fd5b61500083614e8a565b946020939093013593505050565b60008060006060848603121561502357600080fd5b61502c84614e8a565b925060208401356001600160401b0381111561504757600080fd5b61505386828701614cc9565b93969395505050506040919091013590565b6020815260006148ea6020830184614ac7565b600080600080600060a0868803121561509057600080fd5b853594506020860135935060408601356001600160401b038111156150b457600080fd5b6150c088828901614cc9565b9350506060860135915060808601356001600160401b03811115614e7157600080fd5b6000602082840312156150f557600080fd5b6148ea82614e8a565b600080600080600080600060e0888a03121561511957600080fd5b8735965060208801356001600160401b0381111561513657600080fd5b6151428a828b01614cc9565b96505060408801356001600160401b0381111561515e57600080fd5b61516a8a828b01614cc9565b95505060608801356001600160401b0381111561518657600080fd5b6151928a828b01614d38565b9450506080880135925060a0880135915060c08801356001600160401b038111156151bc57600080fd5b6151c88a828b01614cc9565b91505092959891949750929550565b600080600080608085870312156151ed57600080fd5b8435935060208501356001600160401b0381111561520a57600080fd5b61521687828801614cc9565b9350506040850135915060608501356001600160401b0381111561523957600080fd5b61524587828801614cc9565b91505092959194509250565b6000602082016020835280845180835260408501915060408160051b86010192506020860160005b828110156152f257603f19878603018452815180518652602081015160a060208801526152a960a0880182614ac7565b905060408201516040880152606082015187820360608901526152cc8282614ac7565b608093840151151598909301979097525094506020938401939190910190600101615279565b50929695505050505050565b600080600080600080600060e0888a03121561531957600080fd5b87356001600160401b0381111561532f57600080fd5b61533b8a828b01614cc9565b97505060208801356001600160401b0381111561535757600080fd5b6153638a828b01614cc9565b96505061537260408901614e8a565b945061538060608901614e8a565b935061538e60808901614e8a565b925060a088013591506153a360c08901614e8a565b905092959891949750929550565b602080825282518282018190526000918401906040840190835b81811015614fd9578351805184526020810151602085015260408101516040850152506060830192506020840193506001810190506153cb565b634e487b7160e01b600052601160045260246000fd5b8082028115828204841417610af357610af3615405565b80820180821115610af357610af3615405565b81810381811115610af357610af3615405565b6020808252601d908201527f6f6e6c792061636365737369626c6520746f2061647665727469736572000000604082015260600190565b600181811c908216806154a357607f821691505b6020821081036154c357634e487b7160e01b600052602260045260246000fd5b50919050565b601f82111561217557806000526020600020601f840160051c810160208510156154f05750805b601f840160051c820191505b8181101561551057600081556001016154fc565b5050505050565b81516001600160401b03811115615530576155306149a0565b6155448161553e845461548f565b846154c9565b6020601f82116001811461557857600083156155605750848201515b600019600385901b1c1916600184901b178455615510565b600084815260208120601f198516915b828110156155a85787850151825560209485019460019092019101615588565b50848210156155c65786840151600019600387901b60f8161c191681555b50505050600190811b01905550565b6000826155f257634e487b7160e01b600052601260045260246000fd5b500490565b60208082526014908201527331b0b63632b9103737ba10383ab13634b9b432b960611b604082015260600190565b634e487b7160e01b600052603260045260246000fd5b600063ffffffff821663ffffffff810361565757615657615405565b60010192915050565b634e487b7160e01b600052603160045260246000fd5b8151600090829060208501835b828110156156aa5781516001600160a01b0316845260209384019390910190600101615683565b509195945050505050565b6bffffffffffffffffffffffff198460601b168152600083516156df816014850160208801614aa3565b60149201918201929092526034019392505050565b60208082526011908201527018591d9cdc1858d948191a5cd8589b1959607a1b604082015260600190565b60006001820161573157615731615405565b5060010190565b6000825161574a818460208701614aa3565b9190910192915050565b60006020828403121561576657600080fd5b81516148ea81614962565b60408152600061578460408301856148f1565b905060018060a01b03831660208301529392505050565b8151600090829060208501835b828110156156aa5781518452602093840193909101906001016157a856fe58c8e11deab7910e89bf18a1168c6e6ef28748f00fd3094549459f01cec5e0aaa26469706673582212201ca5d1dfe5bd46a0201866a515eac98b778d29ad50c261441d524c17a9d977bf64736f6c634300081b0033",
  "linkReferences": {},
  "deployedLinkReferences": {}
}